{
	"StudyPackage/Solidity/3.合约实战/FundMe合约/SafeMathTester.sol": {
		"SafeMathTester": {
			"abi": [
				{
					"inputs": [],
					"name": "add",
					"outputs": [],
					"stateMutability": "nonpayable",
					"type": "function"
				},
				{
					"inputs": [],
					"name": "bigNumber",
					"outputs": [
						{
							"internalType": "uint8",
							"name": "",
							"type": "uint8"
						}
					],
					"stateMutability": "view",
					"type": "function"
				}
			],
			"devdoc": {
				"kind": "dev",
				"methods": {},
				"version": 1
			},
			"evm": {
				"assembly": "    /* \"StudyPackage/Solidity/3.\\xe5\\x90\\x88\\xe7\\xba\\xa6\\xe5\\xae\\x9e\\xe6\\x88\\x98/FundMe\\xe5\\x90\\x88\\xe7\\xba\\xa6/SafeMathTester.sol\":56:187  contract SafeMathTester {... */\n  mstore(0x40, 0x80)\n    /* \"StudyPackage/Solidity/3.\\xe5\\x90\\x88\\xe7\\xba\\xa6\\xe5\\xae\\x9e\\xe6\\x88\\x98/FundMe\\xe5\\x90\\x88\\xe7\\xba\\xa6/SafeMathTester.sol\":111:114  255 */\n  0xff\n    /* \"StudyPackage/Solidity/3.\\xe5\\x90\\x88\\xe7\\xba\\xa6\\xe5\\xae\\x9e\\xe6\\x88\\x98/FundMe\\xe5\\x90\\x88\\xe7\\xba\\xa6/SafeMathTester.sol\":86:114  uint8 public bigNumber = 255 */\n  0x00\n  dup1\n  0x0100\n  exp\n  dup2\n  sload\n  dup2\n  0xff\n  mul\n  not\n  and\n  swap1\n  dup4\n  0xff\n  and\n  mul\n  or\n  swap1\n  sstore\n  pop\n    /* \"StudyPackage/Solidity/3.\\xe5\\x90\\x88\\xe7\\xba\\xa6\\xe5\\xae\\x9e\\xe6\\x88\\x98/FundMe\\xe5\\x90\\x88\\xe7\\xba\\xa6/SafeMathTester.sol\":56:187  contract SafeMathTester {... */\n  callvalue\n  dup1\n  iszero\n  tag_1\n  jumpi\n  0x00\n  dup1\n  revert\ntag_1:\n  pop\n  dataSize(sub_0)\n  dup1\n  dataOffset(sub_0)\n  0x00\n  codecopy\n  0x00\n  return\nstop\n\nsub_0: assembly {\n        /* \"StudyPackage/Solidity/3.\\xe5\\x90\\x88\\xe7\\xba\\xa6\\xe5\\xae\\x9e\\xe6\\x88\\x98/FundMe\\xe5\\x90\\x88\\xe7\\xba\\xa6/SafeMathTester.sol\":56:187  contract SafeMathTester {... */\n      mstore(0x40, 0x80)\n      callvalue\n      dup1\n      iszero\n      tag_1\n      jumpi\n      0x00\n      dup1\n      revert\n    tag_1:\n      pop\n      jumpi(tag_2, lt(calldatasize, 0x04))\n      shr(0xe0, calldataload(0x00))\n      dup1\n      0x45964e9e\n      eq\n      tag_3\n      jumpi\n      dup1\n      0x4f2be91f\n      eq\n      tag_4\n      jumpi\n    tag_2:\n      0x00\n      dup1\n      revert\n        /* \"StudyPackage/Solidity/3.\\xe5\\x90\\x88\\xe7\\xba\\xa6\\xe5\\xae\\x9e\\xe6\\x88\\x98/FundMe\\xe5\\x90\\x88\\xe7\\xba\\xa6/SafeMathTester.sol\":86:114  uint8 public bigNumber = 255 */\n    tag_3:\n      tag_5\n      tag_6\n      jump\t// in\n    tag_5:\n      mload(0x40)\n      tag_7\n      swap2\n      swap1\n      tag_8\n      jump\t// in\n    tag_7:\n      mload(0x40)\n      dup1\n      swap2\n      sub\n      swap1\n      return\n        /* \"StudyPackage/Solidity/3.\\xe5\\x90\\x88\\xe7\\xba\\xa6\\xe5\\xae\\x9e\\xe6\\x88\\x98/FundMe\\xe5\\x90\\x88\\xe7\\xba\\xa6/SafeMathTester.sol\":121:185  function add() public {... */\n    tag_4:\n      tag_9\n      tag_10\n      jump\t// in\n    tag_9:\n      stop\n        /* \"StudyPackage/Solidity/3.\\xe5\\x90\\x88\\xe7\\xba\\xa6\\xe5\\xae\\x9e\\xe6\\x88\\x98/FundMe\\xe5\\x90\\x88\\xe7\\xba\\xa6/SafeMathTester.sol\":86:114  uint8 public bigNumber = 255 */\n    tag_6:\n      0x00\n      dup1\n      sload\n      swap1\n      0x0100\n      exp\n      swap1\n      div\n      0xff\n      and\n      dup2\n      jump\t// out\n        /* \"StudyPackage/Solidity/3.\\xe5\\x90\\x88\\xe7\\xba\\xa6\\xe5\\xae\\x9e\\xe6\\x88\\x98/FundMe\\xe5\\x90\\x88\\xe7\\xba\\xa6/SafeMathTester.sol\":121:185  function add() public {... */\n    tag_10:\n        /* \"StudyPackage/Solidity/3.\\xe5\\x90\\x88\\xe7\\xba\\xa6\\xe5\\xae\\x9e\\xe6\\x88\\x98/FundMe\\xe5\\x90\\x88\\xe7\\xba\\xa6/SafeMathTester.sol\":177:178  1 */\n      0x01\n        /* \"StudyPackage/Solidity/3.\\xe5\\x90\\x88\\xe7\\xba\\xa6\\xe5\\xae\\x9e\\xe6\\x88\\x98/FundMe\\xe5\\x90\\x88\\xe7\\xba\\xa6/SafeMathTester.sol\":165:174  bigNumber */\n      0x00\n      dup1\n      sload\n      swap1\n      0x0100\n      exp\n      swap1\n      div\n      0xff\n      and\n        /* \"StudyPackage/Solidity/3.\\xe5\\x90\\x88\\xe7\\xba\\xa6\\xe5\\xae\\x9e\\xe6\\x88\\x98/FundMe\\xe5\\x90\\x88\\xe7\\xba\\xa6/SafeMathTester.sol\":165:178  bigNumber + 1 */\n      tag_12\n      swap2\n      swap1\n      tag_13\n      jump\t// in\n    tag_12:\n        /* \"StudyPackage/Solidity/3.\\xe5\\x90\\x88\\xe7\\xba\\xa6\\xe5\\xae\\x9e\\xe6\\x88\\x98/FundMe\\xe5\\x90\\x88\\xe7\\xba\\xa6/SafeMathTester.sol\":153:162  bigNumber */\n      0x00\n      dup1\n        /* \"StudyPackage/Solidity/3.\\xe5\\x90\\x88\\xe7\\xba\\xa6\\xe5\\xae\\x9e\\xe6\\x88\\x98/FundMe\\xe5\\x90\\x88\\xe7\\xba\\xa6/SafeMathTester.sol\":153:178  bigNumber = bigNumber + 1 */\n      0x0100\n      exp\n      dup2\n      sload\n      dup2\n      0xff\n      mul\n      not\n      and\n      swap1\n      dup4\n      0xff\n      and\n      mul\n      or\n      swap1\n      sstore\n      pop\n        /* \"StudyPackage/Solidity/3.\\xe5\\x90\\x88\\xe7\\xba\\xa6\\xe5\\xae\\x9e\\xe6\\x88\\x98/FundMe\\xe5\\x90\\x88\\xe7\\xba\\xa6/SafeMathTester.sol\":121:185  function add() public {... */\n      jump\t// out\n        /* \"#utility.yul\":7:119   */\n    tag_15:\n        /* \"#utility.yul\":90:112   */\n      tag_17\n        /* \"#utility.yul\":106:111   */\n      dup2\n        /* \"#utility.yul\":90:112   */\n      tag_18\n      jump\t// in\n    tag_17:\n        /* \"#utility.yul\":85:88   */\n      dup3\n        /* \"#utility.yul\":78:113   */\n      mstore\n        /* \"#utility.yul\":7:119   */\n      pop\n      pop\n      jump\t// out\n        /* \"#utility.yul\":125:339   */\n    tag_8:\n        /* \"#utility.yul\":214:218   */\n      0x00\n        /* \"#utility.yul\":252:254   */\n      0x20\n        /* \"#utility.yul\":241:250   */\n      dup3\n        /* \"#utility.yul\":237:255   */\n      add\n        /* \"#utility.yul\":229:255   */\n      swap1\n      pop\n        /* \"#utility.yul\":265:332   */\n      tag_20\n        /* \"#utility.yul\":329:330   */\n      0x00\n        /* \"#utility.yul\":318:327   */\n      dup4\n        /* \"#utility.yul\":314:331   */\n      add\n        /* \"#utility.yul\":305:311   */\n      dup5\n        /* \"#utility.yul\":265:332   */\n      tag_15\n      jump\t// in\n    tag_20:\n        /* \"#utility.yul\":125:339   */\n      swap3\n      swap2\n      pop\n      pop\n      jump\t// out\n        /* \"#utility.yul\":345:582   */\n    tag_13:\n        /* \"#utility.yul\":383:386   */\n      0x00\n        /* \"#utility.yul\":402:420   */\n      tag_22\n        /* \"#utility.yul\":418:419   */\n      dup3\n        /* \"#utility.yul\":402:420   */\n      tag_18\n      jump\t// in\n    tag_22:\n        /* \"#utility.yul\":397:420   */\n      swap2\n      pop\n        /* \"#utility.yul\":434:452   */\n      tag_23\n        /* \"#utility.yul\":450:451   */\n      dup4\n        /* \"#utility.yul\":434:452   */\n      tag_18\n      jump\t// in\n    tag_23:\n        /* \"#utility.yul\":429:452   */\n      swap3\n      pop\n        /* \"#utility.yul\":524:525   */\n      dup3\n        /* \"#utility.yul\":518:522   */\n      0xff\n        /* \"#utility.yul\":514:526   */\n      sub\n        /* \"#utility.yul\":511:512   */\n      dup3\n        /* \"#utility.yul\":508:527   */\n      gt\n        /* \"#utility.yul\":505:550   */\n      iszero\n      tag_24\n      jumpi\n        /* \"#utility.yul\":530:548   */\n      tag_25\n      tag_26\n      jump\t// in\n    tag_25:\n        /* \"#utility.yul\":505:550   */\n    tag_24:\n        /* \"#utility.yul\":574:575   */\n      dup3\n        /* \"#utility.yul\":571:572   */\n      dup3\n        /* \"#utility.yul\":567:576   */\n      add\n        /* \"#utility.yul\":560:576   */\n      swap1\n      pop\n        /* \"#utility.yul\":345:582   */\n      swap3\n      swap2\n      pop\n      pop\n      jump\t// out\n        /* \"#utility.yul\":588:674   */\n    tag_18:\n        /* \"#utility.yul\":623:630   */\n      0x00\n        /* \"#utility.yul\":663:667   */\n      0xff\n        /* \"#utility.yul\":656:661   */\n      dup3\n        /* \"#utility.yul\":652:668   */\n      and\n        /* \"#utility.yul\":641:668   */\n      swap1\n      pop\n        /* \"#utility.yul\":588:674   */\n      swap2\n      swap1\n      pop\n      jump\t// out\n        /* \"#utility.yul\":680:860   */\n    tag_26:\n        /* \"#utility.yul\":728:805   */\n      0x4e487b7100000000000000000000000000000000000000000000000000000000\n        /* \"#utility.yul\":725:726   */\n      0x00\n        /* \"#utility.yul\":718:806   */\n      mstore\n        /* \"#utility.yul\":825:829   */\n      0x11\n        /* \"#utility.yul\":822:823   */\n      0x04\n        /* \"#utility.yul\":815:830   */\n      mstore\n        /* \"#utility.yul\":849:853   */\n      0x24\n        /* \"#utility.yul\":846:847   */\n      0x00\n        /* \"#utility.yul\":839:854   */\n      revert\n\n    auxdata: 0xa26469706673582212204c4fbf3257060437c840e2710067e2a41ba9f9af0387b5683cb603170946870e64736f6c63430008070033\n}\n",
				"bytecode": {
					"linkReferences": {},
					"object": "608060405260ff6000806101000a81548160ff021916908360ff16021790555034801561002b57600080fd5b5061017c8061003b6000396000f3fe608060405234801561001057600080fd5b50600436106100365760003560e01c806345964e9e1461003b5780634f2be91f14610059575b600080fd5b610043610063565b60405161005091906100b8565b60405180910390f35b610061610074565b005b60008054906101000a900460ff1681565b600160008054906101000a900460ff1661008e91906100d3565b6000806101000a81548160ff021916908360ff160217905550565b6100b28161010a565b82525050565b60006020820190506100cd60008301846100a9565b92915050565b60006100de8261010a565b91506100e98361010a565b92508260ff038211156100ff576100fe610117565b5b828201905092915050565b600060ff82169050919050565b7f4e487b7100000000000000000000000000000000000000000000000000000000600052601160045260246000fdfea26469706673582212204c4fbf3257060437c840e2710067e2a41ba9f9af0387b5683cb603170946870e64736f6c63430008070033",
					"opcodes": "PUSH1 0x80 PUSH1 0x40 MSTORE PUSH1 0xFF PUSH1 0x0 DUP1 PUSH2 0x100 EXP DUP2 SLOAD DUP2 PUSH1 0xFF MUL NOT AND SWAP1 DUP4 PUSH1 0xFF AND MUL OR SWAP1 SSTORE POP CALLVALUE DUP1 ISZERO PUSH2 0x2B JUMPI PUSH1 0x0 DUP1 REVERT JUMPDEST POP PUSH2 0x17C DUP1 PUSH2 0x3B PUSH1 0x0 CODECOPY PUSH1 0x0 RETURN INVALID PUSH1 0x80 PUSH1 0x40 MSTORE CALLVALUE DUP1 ISZERO PUSH2 0x10 JUMPI PUSH1 0x0 DUP1 REVERT JUMPDEST POP PUSH1 0x4 CALLDATASIZE LT PUSH2 0x36 JUMPI PUSH1 0x0 CALLDATALOAD PUSH1 0xE0 SHR DUP1 PUSH4 0x45964E9E EQ PUSH2 0x3B JUMPI DUP1 PUSH4 0x4F2BE91F EQ PUSH2 0x59 JUMPI JUMPDEST PUSH1 0x0 DUP1 REVERT JUMPDEST PUSH2 0x43 PUSH2 0x63 JUMP JUMPDEST PUSH1 0x40 MLOAD PUSH2 0x50 SWAP2 SWAP1 PUSH2 0xB8 JUMP JUMPDEST PUSH1 0x40 MLOAD DUP1 SWAP2 SUB SWAP1 RETURN JUMPDEST PUSH2 0x61 PUSH2 0x74 JUMP JUMPDEST STOP JUMPDEST PUSH1 0x0 DUP1 SLOAD SWAP1 PUSH2 0x100 EXP SWAP1 DIV PUSH1 0xFF AND DUP2 JUMP JUMPDEST PUSH1 0x1 PUSH1 0x0 DUP1 SLOAD SWAP1 PUSH2 0x100 EXP SWAP1 DIV PUSH1 0xFF AND PUSH2 0x8E SWAP2 SWAP1 PUSH2 0xD3 JUMP JUMPDEST PUSH1 0x0 DUP1 PUSH2 0x100 EXP DUP2 SLOAD DUP2 PUSH1 0xFF MUL NOT AND SWAP1 DUP4 PUSH1 0xFF AND MUL OR SWAP1 SSTORE POP JUMP JUMPDEST PUSH2 0xB2 DUP2 PUSH2 0x10A JUMP JUMPDEST DUP3 MSTORE POP POP JUMP JUMPDEST PUSH1 0x0 PUSH1 0x20 DUP3 ADD SWAP1 POP PUSH2 0xCD PUSH1 0x0 DUP4 ADD DUP5 PUSH2 0xA9 JUMP JUMPDEST SWAP3 SWAP2 POP POP JUMP JUMPDEST PUSH1 0x0 PUSH2 0xDE DUP3 PUSH2 0x10A JUMP JUMPDEST SWAP2 POP PUSH2 0xE9 DUP4 PUSH2 0x10A JUMP JUMPDEST SWAP3 POP DUP3 PUSH1 0xFF SUB DUP3 GT ISZERO PUSH2 0xFF JUMPI PUSH2 0xFE PUSH2 0x117 JUMP JUMPDEST JUMPDEST DUP3 DUP3 ADD SWAP1 POP SWAP3 SWAP2 POP POP JUMP JUMPDEST PUSH1 0x0 PUSH1 0xFF DUP3 AND SWAP1 POP SWAP2 SWAP1 POP JUMP JUMPDEST PUSH32 0x4E487B7100000000000000000000000000000000000000000000000000000000 PUSH1 0x0 MSTORE PUSH1 0x11 PUSH1 0x4 MSTORE PUSH1 0x24 PUSH1 0x0 REVERT INVALID LOG2 PUSH5 0x6970667358 0x22 SLT KECCAK256 0x4C 0x4F 0xBF ORIGIN JUMPI MOD DIV CALLDATACOPY 0xC8 BLOCKHASH 0xE2 PUSH18 0x67E2A41BA9F9AF0387B5683CB603170946 DUP8 0xE PUSH5 0x736F6C6343 STOP ADDMOD SMOD STOP CALLER "
				},
				"gasEstimates": {
					"creation": {
						"codeDepositCost": "76000",
						"executionCost": "24390",
						"totalCost": "100390"
					},
					"external": {
						"add()": "infinite",
						"bigNumber()": "2446"
					}
				},
				"methodIdentifiers": {
					"add()": "4f2be91f",
					"bigNumber()": "45964e9e"
				}
			},
			"storageLayout": {
				"storage": [
					{
						"astId": 4,
						"contract": "StudyPackage/Solidity/3.合约实战/FundMe合约/SafeMathTester.sol:SafeMathTester",
						"label": "bigNumber",
						"offset": 0,
						"slot": "0",
						"type": "t_uint8"
					}
				],
				"types": {
					"t_uint8": {
						"encoding": "inplace",
						"label": "uint8",
						"numberOfBytes": "1"
					}
				}
			},
			"userdoc": {
				"kind": "user",
				"methods": {},
				"version": 1
			}
		}
	}
}