{
    "contractName": "IntType",
    "abi": [
        {
            "inputs": [],
            "name": "a",
            "outputs": [
                {
                    "internalType": "uint256",
                    "name": "",
                    "type": "uint256"
                }
            ],
            "stateMutability": "view",
            "type": "function"
        },
        {
            "inputs": [],
            "name": "b",
            "outputs": [
                {
                    "internalType": "uint256",
                    "name": "",
                    "type": "uint256"
                }
            ],
            "stateMutability": "view",
            "type": "function"
        },
        {
            "inputs": [],
            "name": "overflow",
            "outputs": [
                {
                    "internalType": "uint8",
                    "name": "",
                    "type": "uint8"
                }
            ],
            "stateMutability": "pure",
            "type": "function"
        },
        {
            "inputs": [],
            "name": "tmp",
            "outputs": [
                {
                    "internalType": "uint256",
                    "name": "",
                    "type": "uint256"
                }
            ],
            "stateMutability": "view",
            "type": "function"
        },
        {
            "inputs": [],
            "name": "tmp1",
            "outputs": [
                {
                    "internalType": "uint256",
                    "name": "",
                    "type": "uint256"
                }
            ],
            "stateMutability": "view",
            "type": "function"
        },
        {
            "inputs": [],
            "name": "tmp2",
            "outputs": [
                {
                    "internalType": "uint256",
                    "name": "",
                    "type": "uint256"
                }
            ],
            "stateMutability": "view",
            "type": "function"
        }
    ],
    "bytecode": "6080604052600560008190556002600181905561001b916101b0565b60025560015460005480821b600355901c6004556005805463ff0000001962ffffff19821661010061ffff1990931661020590811784900485166201000002919091171790811682820460ff908116928116928317630100000002918217948590559290930482169282161791821881166006556007805460ff191692199091169190911790553480156100ae57600080fd5b506101c3565b634e487b7160e01b600052601160045260246000fd5b600181815b808511156101055781600019048211156100eb576100eb6100b4565b808516156100f857918102915b93841c93908002906100cf565b509250929050565b60008261011c575060016101aa565b81610129575060006101aa565b816001811461013f576002811461014957610165565b60019150506101aa565b60ff84111561015a5761015a6100b4565b50506001821b6101aa565b5060208310610133831016604e8410600b8410161715610188575081810a6101aa565b61019283836100ca565b80600019048211156101a6576101a66100b4565b0290505b92915050565b60006101bc838361010d565b9392505050565b61011f806101d26000396000f3fe6080604052348015600f57600080fd5b506004361060595760003560e01c80624264c314605e5780630dbe671f14607b57806333ec63801460905780634df7e3d0146098578063b518a7761460a0578063b7f19f6b1460a8575b600080fd5b606460b0565b60405160ff90911681526020015b60405180910390f35b608360005481565b6040519081526020016072565b608360045481565b608360015481565b608360025481565b608360035481565b6000601960bd81600160c3565b92915050565b60ff818116838216019081111560bd57634e487b7160e01b600052601160045260246000fdfea2646970667358221220fe02d7ee4faea90e928c47a23117fcd57ed1dc5949fcbfa8aeb5577b9ac5879d64736f6c63430008120033",
    "sourcePath": "/Users/wjx2020/Desktop/code/web3/1.数据类型/ch2-整型/index.sol",
    "compiler": {
        "name": "solc",
        "version": "0.8.18+commit.87f61d96"
    },
    "functionHashes": {
        "a()": "0dbe671f",
        "b()": "4df7e3d0",
        "overflow()": "004264c3",
        "tmp()": "b518a776",
        "tmp1()": "b7f19f6b",
        "tmp2()": "33ec6380"
    },
    "gasEstimates": {
        "creation": {
            "codeDepositCost": "57400",
            "executionCost": "185957",
            "totalCost": "243357"
        },
        "external": {
            "a()": "2295",
            "b()": "2339",
            "overflow()": "infinite",
            "tmp()": "2361",
            "tmp1()": "2383",
            "tmp2()": "2317"
        }
    }
}