{
    "contractName": "IntType",
    "abi": [
        {
            "inputs": [],
            "name": "a",
            "outputs": [
                {
                    "internalType": "uint256",
                    "name": "",
                    "type": "uint256"
                }
            ],
            "stateMutability": "view",
            "type": "function"
        },
        {
            "inputs": [],
            "name": "b",
            "outputs": [
                {
                    "internalType": "uint256",
                    "name": "",
                    "type": "uint256"
                }
            ],
            "stateMutability": "view",
            "type": "function"
        },
        {
            "inputs": [],
            "name": "overflow",
            "outputs": [
                {
                    "internalType": "uint8",
                    "name": "",
                    "type": "uint8"
                }
            ],
            "stateMutability": "pure",
            "type": "function"
        },
        {
            "inputs": [],
            "name": "tmp",
            "outputs": [
                {
                    "internalType": "uint256",
                    "name": "",
                    "type": "uint256"
                }
            ],
            "stateMutability": "view",
            "type": "function"
        },
        {
            "inputs": [],
            "name": "tmp1",
            "outputs": [
                {
                    "internalType": "uint256",
                    "name": "",
                    "type": "uint256"
                }
            ],
            "stateMutability": "view",
            "type": "function"
        },
        {
            "inputs": [],
            "name": "tmp2",
            "outputs": [
                {
                    "internalType": "uint256",
                    "name": "",
                    "type": "uint256"
                }
            ],
            "stateMutability": "view",
            "type": "function"
        }
    ],
    "bytecode": "6080604052600560008190556002600181905561001b916100f7565b60025560015460005480821b600355901c6004556005805463ff0000001962ffffff19821661010061ffff1990931661020590811784900485166201000002919091171790811682820460ff908116928116928317630100000002918217948590559290930482169282161791821881166006556007805460ff191692199091169190911790553480156100ae57600080fd5b506101c3565b600181815b808511156100ef5781600019048211156100d5576100d56101ad565b808516156100e257918102915b93841c93908002906100b9565b509250929050565b6000610103838361010a565b9392505050565b600082610119575060016101a7565b81610126575060006101a7565b816001811461013c576002811461014657610162565b60019150506101a7565b60ff841115610157576101576101ad565b50506001821b6101a7565b5060208310610133831016604e8410600b8410161715610185575081810a6101a7565b61018f83836100b4565b80600019048211156101a3576101a36101ad565b0290505b92915050565b634e487b7160e01b600052601160045260246000fd5b61012b806101d26000396000f3fe6080604052348015600f57600080fd5b506004361060595760003560e01c80624264c314605e5780630dbe671f14607b57806333ec63801460905780634df7e3d0146098578063b518a7761460a0578063b7f19f6b1460a8575b600080fd5b606460b0565b60405160ff90911681526020015b60405180910390f35b608360005481565b6040519081526020016072565b608360045481565b608360015481565b608360025481565b608360035481565b6000601960bd81600160c3565b92915050565b600060ff821660ff84168060ff0382111560ed57634e487b7160e01b600052601160045260246000fd5b01939250505056fea2646970667358221220c179c0a22535efd64959d524a844863996feb22c472b8d53e059899d37d54a0564736f6c63430008070033",
    "sourcePath": "/Users/wjx2020/Desktop/code/web3/1.数据类型/ch2-整型/index.sol",
    "compiler": {
        "name": "solc",
        "version": "0.8.7+commit.e28d00a7"
    },
    "functionHashes": {
        "a()": "0dbe671f",
        "b()": "4df7e3d0",
        "overflow()": "004264c3",
        "tmp()": "b518a776",
        "tmp1()": "b7f19f6b",
        "tmp2()": "33ec6380"
    },
    "gasEstimates": {
        "creation": {
            "codeDepositCost": "59800",
            "executionCost": "185963",
            "totalCost": "245763"
        },
        "external": {
            "a()": "2295",
            "b()": "2339",
            "overflow()": "291",
            "tmp()": "2361",
            "tmp1()": "2383",
            "tmp2()": "2317"
        }
    }
}