{
	"data": {
		"bytecode": {
			"linkReferences": {},
			"object": "608060405234801561001057600080fd5b50610544806100206000396000f3fe608060405234801561001057600080fd5b506004361061002b5760003560e01c8063b92f5c7c14610030575b600080fd5b61004a6004803603810190610045919061027b565b610060565b60405161005791906102d3565b60405180910390f35b6000806000905060005b83518110156101025760005b84828151811061008957610088610474565b5b6020026020010151518110156100ee578482815181106100ac576100ab610474565b5b602002602001015181815181106100c6576100c5610474565b5b6020026020010151836100d9919061036b565b925080806100e6906103fc565b915050610076565b5080806100fa906103fc565b91505061006a565b5080915050919050565b600061011f61011a84610313565b6102ee565b90508083825260208201905082856020860282011115610142576101416104d7565b5b60005b8581101561019057813567ffffffffffffffff811115610168576101676104d2565b5b8086016101758982610238565b85526020850194506020840193505050600181019050610145565b5050509392505050565b60006101ad6101a88461033f565b6102ee565b905080838252602082019050828560208602820111156101d0576101cf6104d7565b5b60005b8581101561020057816101e68882610266565b8452602084019350602083019250506001810190506101d3565b5050509392505050565b600082601f83011261021f5761021e6104d2565b5b813561022f84826020860161010c565b91505092915050565b600082601f83011261024d5761024c6104d2565b5b813561025d84826020860161019a565b91505092915050565b600081359050610275816104f7565b92915050565b600060208284031215610291576102906104e1565b5b600082013567ffffffffffffffff8111156102af576102ae6104dc565b5b6102bb8482850161020a565b91505092915050565b6102cd816103c1565b82525050565b60006020820190506102e860008301846102c4565b92915050565b60006102f8610309565b905061030482826103cb565b919050565b6000604051905090565b600067ffffffffffffffff82111561032e5761032d6104a3565b5b602082029050602081019050919050565b600067ffffffffffffffff82111561035a576103596104a3565b5b602082029050602081019050919050565b6000610376826103c1565b9150610381836103c1565b9250827fffffffffffffffffffffffffffffffffffffffffffffffffffffffffffffffff038211156103b6576103b5610445565b5b828201905092915050565b6000819050919050565b6103d4826104e6565b810181811067ffffffffffffffff821117156103f3576103f26104a3565b5b80604052505050565b6000610407826103c1565b91507fffffffffffffffffffffffffffffffffffffffffffffffffffffffffffffffff82141561043a57610439610445565b5b600182019050919050565b7f4e487b7100000000000000000000000000000000000000000000000000000000600052601160045260246000fd5b7f4e487b7100000000000000000000000000000000000000000000000000000000600052603260045260246000fd5b7f4e487b7100000000000000000000000000000000000000000000000000000000600052604160045260246000fd5b600080fd5b600080fd5b600080fd5b600080fd5b6000601f19601f8301169050919050565b610500816103c1565b811461050b57600080fd5b5056fea2646970667358221220153b7a7e09f40c40ee9db75c2386a9c5fb468c86ebb9290d3fe938caf52dc0f164736f6c63430008070033",
			"opcodes": "PUSH1 0x80 PUSH1 0x40 MSTORE CALLVALUE DUP1 ISZERO PUSH2 0x10 JUMPI PUSH1 0x0 DUP1 REVERT JUMPDEST POP PUSH2 0x544 DUP1 PUSH2 0x20 PUSH1 0x0 CODECOPY PUSH1 0x0 RETURN INVALID PUSH1 0x80 PUSH1 0x40 MSTORE CALLVALUE DUP1 ISZERO PUSH2 0x10 JUMPI PUSH1 0x0 DUP1 REVERT JUMPDEST POP PUSH1 0x4 CALLDATASIZE LT PUSH2 0x2B JUMPI PUSH1 0x0 CALLDATALOAD PUSH1 0xE0 SHR DUP1 PUSH4 0xB92F5C7C EQ PUSH2 0x30 JUMPI JUMPDEST PUSH1 0x0 DUP1 REVERT JUMPDEST PUSH2 0x4A PUSH1 0x4 DUP1 CALLDATASIZE SUB DUP2 ADD SWAP1 PUSH2 0x45 SWAP2 SWAP1 PUSH2 0x27B JUMP JUMPDEST PUSH2 0x60 JUMP JUMPDEST PUSH1 0x40 MLOAD PUSH2 0x57 SWAP2 SWAP1 PUSH2 0x2D3 JUMP JUMPDEST PUSH1 0x40 MLOAD DUP1 SWAP2 SUB SWAP1 RETURN JUMPDEST PUSH1 0x0 DUP1 PUSH1 0x0 SWAP1 POP PUSH1 0x0 JUMPDEST DUP4 MLOAD DUP2 LT ISZERO PUSH2 0x102 JUMPI PUSH1 0x0 JUMPDEST DUP5 DUP3 DUP2 MLOAD DUP2 LT PUSH2 0x89 JUMPI PUSH2 0x88 PUSH2 0x474 JUMP JUMPDEST JUMPDEST PUSH1 0x20 MUL PUSH1 0x20 ADD ADD MLOAD MLOAD DUP2 LT ISZERO PUSH2 0xEE JUMPI DUP5 DUP3 DUP2 MLOAD DUP2 LT PUSH2 0xAC JUMPI PUSH2 0xAB PUSH2 0x474 JUMP JUMPDEST JUMPDEST PUSH1 0x20 MUL PUSH1 0x20 ADD ADD MLOAD DUP2 DUP2 MLOAD DUP2 LT PUSH2 0xC6 JUMPI PUSH2 0xC5 PUSH2 0x474 JUMP JUMPDEST JUMPDEST PUSH1 0x20 MUL PUSH1 0x20 ADD ADD MLOAD DUP4 PUSH2 0xD9 SWAP2 SWAP1 PUSH2 0x36B JUMP JUMPDEST SWAP3 POP DUP1 DUP1 PUSH2 0xE6 SWAP1 PUSH2 0x3FC JUMP JUMPDEST SWAP2 POP POP PUSH2 0x76 JUMP JUMPDEST POP DUP1 DUP1 PUSH2 0xFA SWAP1 PUSH2 0x3FC JUMP JUMPDEST SWAP2 POP POP PUSH2 0x6A JUMP JUMPDEST POP DUP1 SWAP2 POP POP SWAP2 SWAP1 POP JUMP JUMPDEST PUSH1 0x0 PUSH2 0x11F PUSH2 0x11A DUP5 PUSH2 0x313 JUMP JUMPDEST PUSH2 0x2EE JUMP JUMPDEST SWAP1 POP DUP1 DUP4 DUP3 MSTORE PUSH1 0x20 DUP3 ADD SWAP1 POP DUP3 DUP6 PUSH1 0x20 DUP7 MUL DUP3 ADD GT ISZERO PUSH2 0x142 JUMPI PUSH2 0x141 PUSH2 0x4D7 JUMP JUMPDEST JUMPDEST PUSH1 0x0 JUMPDEST DUP6 DUP2 LT ISZERO PUSH2 0x190 JUMPI DUP2 CALLDATALOAD PUSH8 0xFFFFFFFFFFFFFFFF DUP2 GT ISZERO PUSH2 0x168 JUMPI PUSH2 0x167 PUSH2 0x4D2 JUMP JUMPDEST JUMPDEST DUP1 DUP7 ADD PUSH2 0x175 DUP10 DUP3 PUSH2 0x238 JUMP JUMPDEST DUP6 MSTORE PUSH1 0x20 DUP6 ADD SWAP5 POP PUSH1 0x20 DUP5 ADD SWAP4 POP POP POP PUSH1 0x1 DUP2 ADD SWAP1 POP PUSH2 0x145 JUMP JUMPDEST POP POP POP SWAP4 SWAP3 POP POP POP JUMP JUMPDEST PUSH1 0x0 PUSH2 0x1AD PUSH2 0x1A8 DUP5 PUSH2 0x33F JUMP JUMPDEST PUSH2 0x2EE JUMP JUMPDEST SWAP1 POP DUP1 DUP4 DUP3 MSTORE PUSH1 0x20 DUP3 ADD SWAP1 POP DUP3 DUP6 PUSH1 0x20 DUP7 MUL DUP3 ADD GT ISZERO PUSH2 0x1D0 JUMPI PUSH2 0x1CF PUSH2 0x4D7 JUMP JUMPDEST JUMPDEST PUSH1 0x0 JUMPDEST DUP6 DUP2 LT ISZERO PUSH2 0x200 JUMPI DUP2 PUSH2 0x1E6 DUP9 DUP3 PUSH2 0x266 JUMP JUMPDEST DUP5 MSTORE PUSH1 0x20 DUP5 ADD SWAP4 POP PUSH1 0x20 DUP4 ADD SWAP3 POP POP PUSH1 0x1 DUP2 ADD SWAP1 POP PUSH2 0x1D3 JUMP JUMPDEST POP POP POP SWAP4 SWAP3 POP POP POP JUMP JUMPDEST PUSH1 0x0 DUP3 PUSH1 0x1F DUP4 ADD SLT PUSH2 0x21F JUMPI PUSH2 0x21E PUSH2 0x4D2 JUMP JUMPDEST JUMPDEST DUP2 CALLDATALOAD PUSH2 0x22F DUP5 DUP3 PUSH1 0x20 DUP7 ADD PUSH2 0x10C JUMP JUMPDEST SWAP2 POP POP SWAP3 SWAP2 POP POP JUMP JUMPDEST PUSH1 0x0 DUP3 PUSH1 0x1F DUP4 ADD SLT PUSH2 0x24D JUMPI PUSH2 0x24C PUSH2 0x4D2 JUMP JUMPDEST JUMPDEST DUP2 CALLDATALOAD PUSH2 0x25D DUP5 DUP3 PUSH1 0x20 DUP7 ADD PUSH2 0x19A JUMP JUMPDEST SWAP2 POP POP SWAP3 SWAP2 POP POP JUMP JUMPDEST PUSH1 0x0 DUP2 CALLDATALOAD SWAP1 POP PUSH2 0x275 DUP2 PUSH2 0x4F7 JUMP JUMPDEST SWAP3 SWAP2 POP POP JUMP JUMPDEST PUSH1 0x0 PUSH1 0x20 DUP3 DUP5 SUB SLT ISZERO PUSH2 0x291 JUMPI PUSH2 0x290 PUSH2 0x4E1 JUMP JUMPDEST JUMPDEST PUSH1 0x0 DUP3 ADD CALLDATALOAD PUSH8 0xFFFFFFFFFFFFFFFF DUP2 GT ISZERO PUSH2 0x2AF JUMPI PUSH2 0x2AE PUSH2 0x4DC JUMP JUMPDEST JUMPDEST PUSH2 0x2BB DUP5 DUP3 DUP6 ADD PUSH2 0x20A JUMP JUMPDEST SWAP2 POP POP SWAP3 SWAP2 POP POP JUMP JUMPDEST PUSH2 0x2CD DUP2 PUSH2 0x3C1 JUMP JUMPDEST DUP3 MSTORE POP POP JUMP JUMPDEST PUSH1 0x0 PUSH1 0x20 DUP3 ADD SWAP1 POP PUSH2 0x2E8 PUSH1 0x0 DUP4 ADD DUP5 PUSH2 0x2C4 JUMP JUMPDEST SWAP3 SWAP2 POP POP JUMP JUMPDEST PUSH1 0x0 PUSH2 0x2F8 PUSH2 0x309 JUMP JUMPDEST SWAP1 POP PUSH2 0x304 DUP3 DUP3 PUSH2 0x3CB JUMP JUMPDEST SWAP2 SWAP1 POP JUMP JUMPDEST PUSH1 0x0 PUSH1 0x40 MLOAD SWAP1 POP SWAP1 JUMP JUMPDEST PUSH1 0x0 PUSH8 0xFFFFFFFFFFFFFFFF DUP3 GT ISZERO PUSH2 0x32E JUMPI PUSH2 0x32D PUSH2 0x4A3 JUMP JUMPDEST JUMPDEST PUSH1 0x20 DUP3 MUL SWAP1 POP PUSH1 0x20 DUP2 ADD SWAP1 POP SWAP2 SWAP1 POP JUMP JUMPDEST PUSH1 0x0 PUSH8 0xFFFFFFFFFFFFFFFF DUP3 GT ISZERO PUSH2 0x35A JUMPI PUSH2 0x359 PUSH2 0x4A3 JUMP JUMPDEST JUMPDEST PUSH1 0x20 DUP3 MUL SWAP1 POP PUSH1 0x20 DUP2 ADD SWAP1 POP SWAP2 SWAP1 POP JUMP JUMPDEST PUSH1 0x0 PUSH2 0x376 DUP3 PUSH2 0x3C1 JUMP JUMPDEST SWAP2 POP PUSH2 0x381 DUP4 PUSH2 0x3C1 JUMP JUMPDEST SWAP3 POP DUP3 PUSH32 0xFFFFFFFFFFFFFFFFFFFFFFFFFFFFFFFFFFFFFFFFFFFFFFFFFFFFFFFFFFFFFFFF SUB DUP3 GT ISZERO PUSH2 0x3B6 JUMPI PUSH2 0x3B5 PUSH2 0x445 JUMP JUMPDEST JUMPDEST DUP3 DUP3 ADD SWAP1 POP SWAP3 SWAP2 POP POP JUMP JUMPDEST PUSH1 0x0 DUP2 SWAP1 POP SWAP2 SWAP1 POP JUMP JUMPDEST PUSH2 0x3D4 DUP3 PUSH2 0x4E6 JUMP JUMPDEST DUP2 ADD DUP2 DUP2 LT PUSH8 0xFFFFFFFFFFFFFFFF DUP3 GT OR ISZERO PUSH2 0x3F3 JUMPI PUSH2 0x3F2 PUSH2 0x4A3 JUMP JUMPDEST JUMPDEST DUP1 PUSH1 0x40 MSTORE POP POP POP JUMP JUMPDEST PUSH1 0x0 PUSH2 0x407 DUP3 PUSH2 0x3C1 JUMP JUMPDEST SWAP2 POP PUSH32 0xFFFFFFFFFFFFFFFFFFFFFFFFFFFFFFFFFFFFFFFFFFFFFFFFFFFFFFFFFFFFFFFF DUP3 EQ ISZERO PUSH2 0x43A JUMPI PUSH2 0x439 PUSH2 0x445 JUMP JUMPDEST JUMPDEST PUSH1 0x1 DUP3 ADD SWAP1 POP SWAP2 SWAP1 POP JUMP JUMPDEST PUSH32 0x4E487B7100000000000000000000000000000000000000000000000000000000 PUSH1 0x0 MSTORE PUSH1 0x11 PUSH1 0x4 MSTORE PUSH1 0x24 PUSH1 0x0 REVERT JUMPDEST PUSH32 0x4E487B7100000000000000000000000000000000000000000000000000000000 PUSH1 0x0 MSTORE PUSH1 0x32 PUSH1 0x4 MSTORE PUSH1 0x24 PUSH1 0x0 REVERT JUMPDEST PUSH32 0x4E487B7100000000000000000000000000000000000000000000000000000000 PUSH1 0x0 MSTORE PUSH1 0x41 PUSH1 0x4 MSTORE PUSH1 0x24 PUSH1 0x0 REVERT JUMPDEST PUSH1 0x0 DUP1 REVERT JUMPDEST PUSH1 0x0 DUP1 REVERT JUMPDEST PUSH1 0x0 DUP1 REVERT JUMPDEST PUSH1 0x0 DUP1 REVERT JUMPDEST PUSH1 0x0 PUSH1 0x1F NOT PUSH1 0x1F DUP4 ADD AND SWAP1 POP SWAP2 SWAP1 POP JUMP JUMPDEST PUSH2 0x500 DUP2 PUSH2 0x3C1 JUMP JUMPDEST DUP2 EQ PUSH2 0x50B JUMPI PUSH1 0x0 DUP1 REVERT JUMPDEST POP JUMP INVALID LOG2 PUSH5 0x6970667358 0x22 SLT KECCAK256 ISZERO EXTCODESIZE PUSH27 0x7E09F40C40EE9DB75C2386A9C5FB468C86EBB9290D3FE938CAF52D 0xC0 CALL PUSH5 0x736F6C6343 STOP ADDMOD SMOD STOP CALLER "
		},
		"gasEstimates": {
			"creation": {
				"codeDepositCost": "269600",
				"executionCost": "312",
				"totalCost": "269912"
			},
			"external": {
				"sum(uint256[][])": "infinite"
			}
		},
		"methodIdentifiers": {
			"sum(uint256[][])": "b92f5c7c"
		}
	},
	"abi": [
		{
			"inputs": [
				{
					"internalType": "uint256[][]",
					"name": "numbers",
					"type": "uint256[][]"
				}
			],
			"name": "sum",
			"outputs": [
				{
					"internalType": "uint256",
					"name": "",
					"type": "uint256"
				}
			],
			"stateMutability": "pure",
			"type": "function"
		}
	]
}