{
	"StudyPackage/Solidity/4.Solidity进阶/ch8-删除合约/DeleteContract.sol": {
		"DeployContract": {
			"abi": [
				{
					"inputs": [],
					"stateMutability": "payable",
					"type": "constructor"
				},
				{
					"inputs": [],
					"name": "demo",
					"outputs": [
						{
							"components": [
								{
									"internalType": "address",
									"name": "addr",
									"type": "address"
								},
								{
									"internalType": "uint256",
									"name": "balance",
									"type": "uint256"
								},
								{
									"internalType": "uint256",
									"name": "value",
									"type": "uint256"
								}
							],
							"internalType": "struct DeployContract.DemoResult",
							"name": "",
							"type": "tuple"
						}
					],
					"stateMutability": "payable",
					"type": "function"
				},
				{
					"inputs": [],
					"name": "getBalance",
					"outputs": [
						{
							"internalType": "uint256",
							"name": "balance",
							"type": "uint256"
						}
					],
					"stateMutability": "view",
					"type": "function"
				}
			],
			"devdoc": {
				"kind": "dev",
				"methods": {},
				"version": 1
			},
			"evm": {
				"assembly": "    /* \"StudyPackage/Solidity/4.Solidity\\xe8\\xbf\\x9b\\xe9\\x98\\xb6/ch8-\\xe5\\x88\\xa0\\xe9\\x99\\xa4\\xe5\\x90\\x88\\xe7\\xba\\xa6/DeleteContract.sol\":461:1075  contract DeployContract {... */\n  mstore(0x40, 0x80)\n  dataSize(sub_0)\n  dup1\n  dataOffset(sub_0)\n  0x00\n  codecopy\n  0x00\n  return\nstop\n\nsub_0: assembly {\n        /* \"StudyPackage/Solidity/4.Solidity\\xe8\\xbf\\x9b\\xe9\\x98\\xb6/ch8-\\xe5\\x88\\xa0\\xe9\\x99\\xa4\\xe5\\x90\\x88\\xe7\\xba\\xa6/DeleteContract.sol\":461:1075  contract DeployContract {... */\n      mstore(0x40, 0x80)\n      jumpi(tag_1, lt(calldatasize, 0x04))\n      shr(0xe0, calldataload(0x00))\n      dup1\n      0x01725a0b\n      eq\n      tag_2\n      jumpi\n      dup1\n      0x12065fe0\n      eq\n      tag_3\n      jumpi\n    tag_1:\n      0x00\n      dup1\n      revert\n        /* \"StudyPackage/Solidity/4.Solidity\\xe8\\xbf\\x9b\\xe9\\x98\\xb6/ch8-\\xe5\\x88\\xa0\\xe9\\x99\\xa4\\xe5\\x90\\x88\\xe7\\xba\\xa6/DeleteContract.sol\":729:1073  function demo() public payable returns (DemoResult memory) {... */\n    tag_2:\n      tag_4\n      tag_5\n      jump\t// in\n    tag_4:\n      mload(0x40)\n      tag_6\n      swap2\n      swap1\n      tag_7\n      jump\t// in\n    tag_6:\n      mload(0x40)\n      dup1\n      swap2\n      sub\n      swap1\n      return\n        /* \"StudyPackage/Solidity/4.Solidity\\xe8\\xbf\\x9b\\xe9\\x98\\xb6/ch8-\\xe5\\x88\\xa0\\xe9\\x99\\xa4\\xe5\\x90\\x88\\xe7\\xba\\xa6/DeleteContract.sol\":616:723  function getBalance() external view returns (uint balance) {... */\n    tag_3:\n      callvalue\n      dup1\n      iszero\n      tag_8\n      jumpi\n      0x00\n      dup1\n      revert\n    tag_8:\n      pop\n      tag_9\n      tag_10\n      jump\t// in\n    tag_9:\n      mload(0x40)\n      tag_11\n      swap2\n      swap1\n      tag_12\n      jump\t// in\n    tag_11:\n      mload(0x40)\n      dup1\n      swap2\n      sub\n      swap1\n      return\n        /* \"StudyPackage/Solidity/4.Solidity\\xe8\\xbf\\x9b\\xe9\\x98\\xb6/ch8-\\xe5\\x88\\xa0\\xe9\\x99\\xa4\\xe5\\x90\\x88\\xe7\\xba\\xa6/DeleteContract.sol\":729:1073  function demo() public payable returns (DemoResult memory) {... */\n    tag_5:\n        /* \"StudyPackage/Solidity/4.Solidity\\xe8\\xbf\\x9b\\xe9\\x98\\xb6/ch8-\\xe5\\x88\\xa0\\xe9\\x99\\xa4\\xe5\\x90\\x88\\xe7\\xba\\xa6/DeleteContract.sol\":769:786  DemoResult memory */\n      tag_13\n      tag_14\n      jump\t// in\n    tag_13:\n        /* \"StudyPackage/Solidity/4.Solidity\\xe8\\xbf\\x9b\\xe9\\x98\\xb6/ch8-\\xe5\\x88\\xa0\\xe9\\x99\\xa4\\xe5\\x90\\x88\\xe7\\xba\\xa6/DeleteContract.sol\":798:816  DeleteContract del */\n      0x00\n        /* \"StudyPackage/Solidity/4.Solidity\\xe8\\xbf\\x9b\\xe9\\x98\\xb6/ch8-\\xe5\\x88\\xa0\\xe9\\x99\\xa4\\xe5\\x90\\x88\\xe7\\xba\\xa6/DeleteContract.sol\":845:854  msg.value */\n      callvalue\n        /* \"StudyPackage/Solidity/4.Solidity\\xe8\\xbf\\x9b\\xe9\\x98\\xb6/ch8-\\xe5\\x88\\xa0\\xe9\\x99\\xa4\\xe5\\x90\\x88\\xe7\\xba\\xa6/DeleteContract.sol\":819:857  new DeleteContract{value: msg.value}() */\n      mload(0x40)\n      tag_16\n      swap1\n      tag_17\n      jump\t// in\n    tag_16:\n      mload(0x40)\n      dup1\n      swap2\n      sub\n      swap1\n      dup3\n      create\n      swap1\n      pop\n      dup1\n      iszero\n      dup1\n      iszero\n      tag_18\n      jumpi\n      returndatasize\n      0x00\n      dup1\n      returndatacopy\n      revert(0x00, returndatasize)\n    tag_18:\n      pop\n        /* \"StudyPackage/Solidity/4.Solidity\\xe8\\xbf\\x9b\\xe9\\x98\\xb6/ch8-\\xe5\\x88\\xa0\\xe9\\x99\\xa4\\xe5\\x90\\x88\\xe7\\xba\\xa6/DeleteContract.sol\":798:857  DeleteContract del = new DeleteContract{value: msg.value}() */\n      swap1\n      pop\n        /* \"StudyPackage/Solidity/4.Solidity\\xe8\\xbf\\x9b\\xe9\\x98\\xb6/ch8-\\xe5\\x88\\xa0\\xe9\\x99\\xa4\\xe5\\x90\\x88\\xe7\\xba\\xa6/DeleteContract.sol\":867:888  DemoResult memory res */\n      0x00\n        /* \"StudyPackage/Solidity/4.Solidity\\xe8\\xbf\\x9b\\xe9\\x98\\xb6/ch8-\\xe5\\x88\\xa0\\xe9\\x99\\xa4\\xe5\\x90\\x88\\xe7\\xba\\xa6/DeleteContract.sol\":891:1016  DemoResult({... */\n      mload(0x40)\n      dup1\n      0x60\n      add\n      0x40\n      mstore\n      dup1\n        /* \"StudyPackage/Solidity/4.Solidity\\xe8\\xbf\\x9b\\xe9\\x98\\xb6/ch8-\\xe5\\x88\\xa0\\xe9\\x99\\xa4\\xe5\\x90\\x88\\xe7\\xba\\xa6/DeleteContract.sol\":930:933  del */\n      dup4\n        /* \"StudyPackage/Solidity/4.Solidity\\xe8\\xbf\\x9b\\xe9\\x98\\xb6/ch8-\\xe5\\x88\\xa0\\xe9\\x99\\xa4\\xe5\\x90\\x88\\xe7\\xba\\xa6/DeleteContract.sol\":891:1016  DemoResult({... */\n      0xffffffffffffffffffffffffffffffffffffffff\n      and\n      dup2\n      mstore\n      0x20\n      add\n        /* \"StudyPackage/Solidity/4.Solidity\\xe8\\xbf\\x9b\\xe9\\x98\\xb6/ch8-\\xe5\\x88\\xa0\\xe9\\x99\\xa4\\xe5\\x90\\x88\\xe7\\xba\\xa6/DeleteContract.sol\":957:960  del */\n      dup4\n        /* \"StudyPackage/Solidity/4.Solidity\\xe8\\xbf\\x9b\\xe9\\x98\\xb6/ch8-\\xe5\\x88\\xa0\\xe9\\x99\\xa4\\xe5\\x90\\x88\\xe7\\xba\\xa6/DeleteContract.sol\":957:971  del.getBalance */\n      0xffffffffffffffffffffffffffffffffffffffff\n      and\n      0x12065fe0\n        /* \"StudyPackage/Solidity/4.Solidity\\xe8\\xbf\\x9b\\xe9\\x98\\xb6/ch8-\\xe5\\x88\\xa0\\xe9\\x99\\xa4\\xe5\\x90\\x88\\xe7\\xba\\xa6/DeleteContract.sol\":957:973  del.getBalance() */\n      mload(0x40)\n      dup2\n      0xffffffff\n      and\n      0xe0\n      shl\n      dup2\n      mstore\n      0x04\n      add\n      0x20\n      mload(0x40)\n      dup1\n      dup4\n      sub\n      dup2\n      dup7\n      dup1\n      extcodesize\n      iszero\n      dup1\n      iszero\n      tag_19\n      jumpi\n      0x00\n      dup1\n      revert\n    tag_19:\n      pop\n      gas\n      staticcall\n      iszero\n      dup1\n      iszero\n      tag_21\n      jumpi\n      returndatasize\n      0x00\n      dup1\n      returndatacopy\n      revert(0x00, returndatasize)\n    tag_21:\n      pop\n      pop\n      pop\n      pop\n      mload(0x40)\n      returndatasize\n      not(0x1f)\n      0x1f\n      dup3\n      add\n      and\n      dup3\n      add\n      dup1\n      0x40\n      mstore\n      pop\n      dup2\n      add\n      swap1\n      tag_22\n      swap2\n      swap1\n      tag_23\n      jump\t// in\n    tag_22:\n        /* \"StudyPackage/Solidity/4.Solidity\\xe8\\xbf\\x9b\\xe9\\x98\\xb6/ch8-\\xe5\\x88\\xa0\\xe9\\x99\\xa4\\xe5\\x90\\x88\\xe7\\xba\\xa6/DeleteContract.sol\":891:1016  DemoResult({... */\n      dup2\n      mstore\n      0x20\n      add\n        /* \"StudyPackage/Solidity/4.Solidity\\xe8\\xbf\\x9b\\xe9\\x98\\xb6/ch8-\\xe5\\x88\\xa0\\xe9\\x99\\xa4\\xe5\\x90\\x88\\xe7\\xba\\xa6/DeleteContract.sol\":994:997  del */\n      dup4\n        /* \"StudyPackage/Solidity/4.Solidity\\xe8\\xbf\\x9b\\xe9\\x98\\xb6/ch8-\\xe5\\x88\\xa0\\xe9\\x99\\xa4\\xe5\\x90\\x88\\xe7\\xba\\xa6/DeleteContract.sol\":994:1003  del.value */\n      0xffffffffffffffffffffffffffffffffffffffff\n      and\n      0x3fa4f245\n        /* \"StudyPackage/Solidity/4.Solidity\\xe8\\xbf\\x9b\\xe9\\x98\\xb6/ch8-\\xe5\\x88\\xa0\\xe9\\x99\\xa4\\xe5\\x90\\x88\\xe7\\xba\\xa6/DeleteContract.sol\":994:1005  del.value() */\n      mload(0x40)\n      dup2\n      0xffffffff\n      and\n      0xe0\n      shl\n      dup2\n      mstore\n      0x04\n      add\n      0x20\n      mload(0x40)\n      dup1\n      dup4\n      sub\n      dup2\n      dup7\n      dup1\n      extcodesize\n      iszero\n      dup1\n      iszero\n      tag_24\n      jumpi\n      0x00\n      dup1\n      revert\n    tag_24:\n      pop\n      gas\n      staticcall\n      iszero\n      dup1\n      iszero\n      tag_26\n      jumpi\n      returndatasize\n      0x00\n      dup1\n      returndatacopy\n      revert(0x00, returndatasize)\n    tag_26:\n      pop\n      pop\n      pop\n      pop\n      mload(0x40)\n      returndatasize\n      not(0x1f)\n      0x1f\n      dup3\n      add\n      and\n      dup3\n      add\n      dup1\n      0x40\n      mstore\n      pop\n      dup2\n      add\n      swap1\n      tag_27\n      swap2\n      swap1\n      tag_23\n      jump\t// in\n    tag_27:\n        /* \"StudyPackage/Solidity/4.Solidity\\xe8\\xbf\\x9b\\xe9\\x98\\xb6/ch8-\\xe5\\x88\\xa0\\xe9\\x99\\xa4\\xe5\\x90\\x88\\xe7\\xba\\xa6/DeleteContract.sol\":891:1016  DemoResult({... */\n      dup2\n      mstore\n      pop\n        /* \"StudyPackage/Solidity/4.Solidity\\xe8\\xbf\\x9b\\xe9\\x98\\xb6/ch8-\\xe5\\x88\\xa0\\xe9\\x99\\xa4\\xe5\\x90\\x88\\xe7\\xba\\xa6/DeleteContract.sol\":867:1016  DemoResult memory res = DemoResult({... */\n      swap1\n      pop\n        /* \"StudyPackage/Solidity/4.Solidity\\xe8\\xbf\\x9b\\xe9\\x98\\xb6/ch8-\\xe5\\x88\\xa0\\xe9\\x99\\xa4\\xe5\\x90\\x88\\xe7\\xba\\xa6/DeleteContract.sol\":1026:1029  del */\n      dup2\n        /* \"StudyPackage/Solidity/4.Solidity\\xe8\\xbf\\x9b\\xe9\\x98\\xb6/ch8-\\xe5\\x88\\xa0\\xe9\\x99\\xa4\\xe5\\x90\\x88\\xe7\\xba\\xa6/DeleteContract.sol\":1026:1044  del.deleteContract */\n      0xffffffffffffffffffffffffffffffffffffffff\n      and\n      0x5a58cd4c\n        /* \"StudyPackage/Solidity/4.Solidity\\xe8\\xbf\\x9b\\xe9\\x98\\xb6/ch8-\\xe5\\x88\\xa0\\xe9\\x99\\xa4\\xe5\\x90\\x88\\xe7\\xba\\xa6/DeleteContract.sol\":1026:1046  del.deleteContract() */\n      mload(0x40)\n      dup2\n      0xffffffff\n      and\n      0xe0\n      shl\n      dup2\n      mstore\n      0x04\n      add\n      0x00\n      mload(0x40)\n      dup1\n      dup4\n      sub\n      dup2\n      0x00\n      dup8\n      dup1\n      extcodesize\n      iszero\n      dup1\n      iszero\n      tag_28\n      jumpi\n      0x00\n      dup1\n      revert\n    tag_28:\n      pop\n      gas\n      call\n      iszero\n      dup1\n      iszero\n      tag_30\n      jumpi\n      returndatasize\n      0x00\n      dup1\n      returndatacopy\n      revert(0x00, returndatasize)\n    tag_30:\n      pop\n      pop\n      pop\n      pop\n        /* \"StudyPackage/Solidity/4.Solidity\\xe8\\xbf\\x9b\\xe9\\x98\\xb6/ch8-\\xe5\\x88\\xa0\\xe9\\x99\\xa4\\xe5\\x90\\x88\\xe7\\xba\\xa6/DeleteContract.sol\":1063:1066  res */\n      dup1\n        /* \"StudyPackage/Solidity/4.Solidity\\xe8\\xbf\\x9b\\xe9\\x98\\xb6/ch8-\\xe5\\x88\\xa0\\xe9\\x99\\xa4\\xe5\\x90\\x88\\xe7\\xba\\xa6/DeleteContract.sol\":1056:1066  return res */\n      swap3\n      pop\n      pop\n      pop\n        /* \"StudyPackage/Solidity/4.Solidity\\xe8\\xbf\\x9b\\xe9\\x98\\xb6/ch8-\\xe5\\x88\\xa0\\xe9\\x99\\xa4\\xe5\\x90\\x88\\xe7\\xba\\xa6/DeleteContract.sol\":729:1073  function demo() public payable returns (DemoResult memory) {... */\n      swap1\n      jump\t// out\n        /* \"StudyPackage/Solidity/4.Solidity\\xe8\\xbf\\x9b\\xe9\\x98\\xb6/ch8-\\xe5\\x88\\xa0\\xe9\\x99\\xa4\\xe5\\x90\\x88\\xe7\\xba\\xa6/DeleteContract.sol\":616:723  function getBalance() external view returns (uint balance) {... */\n    tag_10:\n        /* \"StudyPackage/Solidity/4.Solidity\\xe8\\xbf\\x9b\\xe9\\x98\\xb6/ch8-\\xe5\\x88\\xa0\\xe9\\x99\\xa4\\xe5\\x90\\x88\\xe7\\xba\\xa6/DeleteContract.sol\":661:673  uint balance */\n      0x00\n        /* \"StudyPackage/Solidity/4.Solidity\\xe8\\xbf\\x9b\\xe9\\x98\\xb6/ch8-\\xe5\\x88\\xa0\\xe9\\x99\\xa4\\xe5\\x90\\x88\\xe7\\xba\\xa6/DeleteContract.sol\":695:716  address(this).balance */\n      selfbalance\n        /* \"StudyPackage/Solidity/4.Solidity\\xe8\\xbf\\x9b\\xe9\\x98\\xb6/ch8-\\xe5\\x88\\xa0\\xe9\\x99\\xa4\\xe5\\x90\\x88\\xe7\\xba\\xa6/DeleteContract.sol\":685:716  balance = address(this).balance */\n      swap1\n      pop\n        /* \"StudyPackage/Solidity/4.Solidity\\xe8\\xbf\\x9b\\xe9\\x98\\xb6/ch8-\\xe5\\x88\\xa0\\xe9\\x99\\xa4\\xe5\\x90\\x88\\xe7\\xba\\xa6/DeleteContract.sol\":616:723  function getBalance() external view returns (uint balance) {... */\n      swap1\n      jump\t// out\n    tag_14:\n      mload(0x40)\n      dup1\n      0x60\n      add\n      0x40\n      mstore\n      dup1\n      and(0xffffffffffffffffffffffffffffffffffffffff, 0x00)\n      dup2\n      mstore\n      0x20\n      add\n      0x00\n      dup2\n      mstore\n      0x20\n      add\n      0x00\n      dup2\n      mstore\n      pop\n      swap1\n      jump\t// out\n    tag_17:\n      dataSize(sub_0)\n      dup1\n      dataOffset(sub_0)\n      dup4\n      codecopy\n      add\n      swap1\n      jump\t// out\n        /* \"#utility.yul\":7:150   */\n    tag_33:\n        /* \"#utility.yul\":64:69   */\n      0x00\n        /* \"#utility.yul\":95:101   */\n      dup2\n        /* \"#utility.yul\":89:102   */\n      mload\n        /* \"#utility.yul\":80:102   */\n      swap1\n      pop\n        /* \"#utility.yul\":111:144   */\n      tag_35\n        /* \"#utility.yul\":138:143   */\n      dup2\n        /* \"#utility.yul\":111:144   */\n      tag_36\n      jump\t// in\n    tag_35:\n        /* \"#utility.yul\":7:150   */\n      swap3\n      swap2\n      pop\n      pop\n      jump\t// out\n        /* \"#utility.yul\":156:507   */\n    tag_23:\n        /* \"#utility.yul\":226:232   */\n      0x00\n        /* \"#utility.yul\":275:277   */\n      0x20\n        /* \"#utility.yul\":263:272   */\n      dup3\n        /* \"#utility.yul\":254:261   */\n      dup5\n        /* \"#utility.yul\":250:273   */\n      sub\n        /* \"#utility.yul\":246:278   */\n      slt\n        /* \"#utility.yul\":243:362   */\n      iszero\n      tag_38\n      jumpi\n        /* \"#utility.yul\":281:360   */\n      tag_39\n      tag_40\n      jump\t// in\n    tag_39:\n        /* \"#utility.yul\":243:362   */\n    tag_38:\n        /* \"#utility.yul\":401:402   */\n      0x00\n        /* \"#utility.yul\":426:490   */\n      tag_41\n        /* \"#utility.yul\":482:489   */\n      dup5\n        /* \"#utility.yul\":473:479   */\n      dup3\n        /* \"#utility.yul\":462:471   */\n      dup6\n        /* \"#utility.yul\":458:480   */\n      add\n        /* \"#utility.yul\":426:490   */\n      tag_33\n      jump\t// in\n    tag_41:\n        /* \"#utility.yul\":416:490   */\n      swap2\n      pop\n        /* \"#utility.yul\":372:500   */\n      pop\n        /* \"#utility.yul\":156:507   */\n      swap3\n      swap2\n      pop\n      pop\n      jump\t// out\n        /* \"#utility.yul\":513:621   */\n    tag_42:\n        /* \"#utility.yul\":590:614   */\n      tag_44\n        /* \"#utility.yul\":608:613   */\n      dup2\n        /* \"#utility.yul\":590:614   */\n      tag_45\n      jump\t// in\n    tag_44:\n        /* \"#utility.yul\":585:588   */\n      dup3\n        /* \"#utility.yul\":578:615   */\n      mstore\n        /* \"#utility.yul\":513:621   */\n      pop\n      pop\n      jump\t// out\n        /* \"#utility.yul\":703:1390   */\n    tag_46:\n        /* \"#utility.yul\":852:856   */\n      0x60\n        /* \"#utility.yul\":847:850   */\n      dup3\n        /* \"#utility.yul\":843:857   */\n      add\n        /* \"#utility.yul\":939:943   */\n      0x00\n        /* \"#utility.yul\":932:937   */\n      dup3\n        /* \"#utility.yul\":928:944   */\n      add\n        /* \"#utility.yul\":922:945   */\n      mload\n        /* \"#utility.yul\":958:1021   */\n      tag_48\n        /* \"#utility.yul\":1015:1019   */\n      0x00\n        /* \"#utility.yul\":1010:1013   */\n      dup6\n        /* \"#utility.yul\":1006:1020   */\n      add\n        /* \"#utility.yul\":992:1004   */\n      dup3\n        /* \"#utility.yul\":958:1021   */\n      tag_42\n      jump\t// in\n    tag_48:\n        /* \"#utility.yul\":867:1031   */\n      pop\n        /* \"#utility.yul\":1116:1120   */\n      0x20\n        /* \"#utility.yul\":1109:1114   */\n      dup3\n        /* \"#utility.yul\":1105:1121   */\n      add\n        /* \"#utility.yul\":1099:1122   */\n      mload\n        /* \"#utility.yul\":1135:1198   */\n      tag_49\n        /* \"#utility.yul\":1192:1196   */\n      0x20\n        /* \"#utility.yul\":1187:1190   */\n      dup6\n        /* \"#utility.yul\":1183:1197   */\n      add\n        /* \"#utility.yul\":1169:1181   */\n      dup3\n        /* \"#utility.yul\":1135:1198   */\n      tag_50\n      jump\t// in\n    tag_49:\n        /* \"#utility.yul\":1041:1208   */\n      pop\n        /* \"#utility.yul\":1291:1295   */\n      0x40\n        /* \"#utility.yul\":1284:1289   */\n      dup3\n        /* \"#utility.yul\":1280:1296   */\n      add\n        /* \"#utility.yul\":1274:1297   */\n      mload\n        /* \"#utility.yul\":1310:1373   */\n      tag_51\n        /* \"#utility.yul\":1367:1371   */\n      0x40\n        /* \"#utility.yul\":1362:1365   */\n      dup6\n        /* \"#utility.yul\":1358:1372   */\n      add\n        /* \"#utility.yul\":1344:1356   */\n      dup3\n        /* \"#utility.yul\":1310:1373   */\n      tag_50\n      jump\t// in\n    tag_51:\n        /* \"#utility.yul\":1218:1383   */\n      pop\n        /* \"#utility.yul\":821:1390   */\n      pop\n        /* \"#utility.yul\":703:1390   */\n      pop\n      pop\n      jump\t// out\n        /* \"#utility.yul\":1396:1504   */\n    tag_50:\n        /* \"#utility.yul\":1473:1497   */\n      tag_53\n        /* \"#utility.yul\":1491:1496   */\n      dup2\n        /* \"#utility.yul\":1473:1497   */\n      tag_54\n      jump\t// in\n    tag_53:\n        /* \"#utility.yul\":1468:1471   */\n      dup3\n        /* \"#utility.yul\":1461:1498   */\n      mstore\n        /* \"#utility.yul\":1396:1504   */\n      pop\n      pop\n      jump\t// out\n        /* \"#utility.yul\":1510:1628   */\n    tag_55:\n        /* \"#utility.yul\":1597:1621   */\n      tag_57\n        /* \"#utility.yul\":1615:1620   */\n      dup2\n        /* \"#utility.yul\":1597:1621   */\n      tag_54\n      jump\t// in\n    tag_57:\n        /* \"#utility.yul\":1592:1595   */\n      dup3\n        /* \"#utility.yul\":1585:1622   */\n      mstore\n        /* \"#utility.yul\":1510:1628   */\n      pop\n      pop\n      jump\t// out\n        /* \"#utility.yul\":1634:1960   */\n    tag_7:\n        /* \"#utility.yul\":1779:1783   */\n      0x00\n        /* \"#utility.yul\":1817:1819   */\n      0x60\n        /* \"#utility.yul\":1806:1815   */\n      dup3\n        /* \"#utility.yul\":1802:1820   */\n      add\n        /* \"#utility.yul\":1794:1820   */\n      swap1\n      pop\n        /* \"#utility.yul\":1830:1953   */\n      tag_59\n        /* \"#utility.yul\":1950:1951   */\n      0x00\n        /* \"#utility.yul\":1939:1948   */\n      dup4\n        /* \"#utility.yul\":1935:1952   */\n      add\n        /* \"#utility.yul\":1926:1932   */\n      dup5\n        /* \"#utility.yul\":1830:1953   */\n      tag_46\n      jump\t// in\n    tag_59:\n        /* \"#utility.yul\":1634:1960   */\n      swap3\n      swap2\n      pop\n      pop\n      jump\t// out\n        /* \"#utility.yul\":1966:2188   */\n    tag_12:\n        /* \"#utility.yul\":2059:2063   */\n      0x00\n        /* \"#utility.yul\":2097:2099   */\n      0x20\n        /* \"#utility.yul\":2086:2095   */\n      dup3\n        /* \"#utility.yul\":2082:2100   */\n      add\n        /* \"#utility.yul\":2074:2100   */\n      swap1\n      pop\n        /* \"#utility.yul\":2110:2181   */\n      tag_61\n        /* \"#utility.yul\":2178:2179   */\n      0x00\n        /* \"#utility.yul\":2167:2176   */\n      dup4\n        /* \"#utility.yul\":2163:2180   */\n      add\n        /* \"#utility.yul\":2154:2160   */\n      dup5\n        /* \"#utility.yul\":2110:2181   */\n      tag_55\n      jump\t// in\n    tag_61:\n        /* \"#utility.yul\":1966:2188   */\n      swap3\n      swap2\n      pop\n      pop\n      jump\t// out\n        /* \"#utility.yul\":2275:2371   */\n    tag_45:\n        /* \"#utility.yul\":2312:2319   */\n      0x00\n        /* \"#utility.yul\":2341:2365   */\n      tag_65\n        /* \"#utility.yul\":2359:2364   */\n      dup3\n        /* \"#utility.yul\":2341:2365   */\n      tag_66\n      jump\t// in\n    tag_65:\n        /* \"#utility.yul\":2330:2365   */\n      swap1\n      pop\n        /* \"#utility.yul\":2275:2371   */\n      swap2\n      swap1\n      pop\n      jump\t// out\n        /* \"#utility.yul\":2377:2503   */\n    tag_66:\n        /* \"#utility.yul\":2414:2421   */\n      0x00\n        /* \"#utility.yul\":2454:2496   */\n      0xffffffffffffffffffffffffffffffffffffffff\n        /* \"#utility.yul\":2447:2452   */\n      dup3\n        /* \"#utility.yul\":2443:2497   */\n      and\n        /* \"#utility.yul\":2432:2497   */\n      swap1\n      pop\n        /* \"#utility.yul\":2377:2503   */\n      swap2\n      swap1\n      pop\n      jump\t// out\n        /* \"#utility.yul\":2509:2586   */\n    tag_54:\n        /* \"#utility.yul\":2546:2553   */\n      0x00\n        /* \"#utility.yul\":2575:2580   */\n      dup2\n        /* \"#utility.yul\":2564:2580   */\n      swap1\n      pop\n        /* \"#utility.yul\":2509:2586   */\n      swap2\n      swap1\n      pop\n      jump\t// out\n        /* \"#utility.yul\":2715:2832   */\n    tag_40:\n        /* \"#utility.yul\":2824:2825   */\n      0x00\n        /* \"#utility.yul\":2821:2822   */\n      dup1\n        /* \"#utility.yul\":2814:2826   */\n      revert\n        /* \"#utility.yul\":2838:2960   */\n    tag_36:\n        /* \"#utility.yul\":2911:2935   */\n      tag_73\n        /* \"#utility.yul\":2929:2934   */\n      dup2\n        /* \"#utility.yul\":2911:2935   */\n      tag_54\n      jump\t// in\n    tag_73:\n        /* \"#utility.yul\":2904:2909   */\n      dup2\n        /* \"#utility.yul\":2901:2936   */\n      eq\n        /* \"#utility.yul\":2891:2954   */\n      tag_74\n      jumpi\n        /* \"#utility.yul\":2950:2951   */\n      0x00\n        /* \"#utility.yul\":2947:2948   */\n      dup1\n        /* \"#utility.yul\":2940:2952   */\n      revert\n        /* \"#utility.yul\":2891:2954   */\n    tag_74:\n        /* \"#utility.yul\":2838:2960   */\n      pop\n      jump\t// out\n    stop\n\n    sub_0: assembly {\n            /* \"StudyPackage/Solidity/4.Solidity\\xe8\\xbf\\x9b\\xe9\\x98\\xb6/ch8-\\xe5\\x88\\xa0\\xe9\\x99\\xa4\\xe5\\x90\\x88\\xe7\\xba\\xa6/DeleteContract.sol\":56:459  contract DeleteContract {... */\n          mstore(0x40, 0x80)\n            /* \"StudyPackage/Solidity/4.Solidity\\xe8\\xbf\\x9b\\xe9\\x98\\xb6/ch8-\\xe5\\x88\\xa0\\xe9\\x99\\xa4\\xe5\\x90\\x88\\xe7\\xba\\xa6/DeleteContract.sol\":106:108  10 */\n          0x0a\n            /* \"StudyPackage/Solidity/4.Solidity\\xe8\\xbf\\x9b\\xe9\\x98\\xb6/ch8-\\xe5\\x88\\xa0\\xe9\\x99\\xa4\\xe5\\x90\\x88\\xe7\\xba\\xa6/DeleteContract.sol\":86:108  uint public value = 10 */\n          0x00\n          sstore\n            /* \"StudyPackage/Solidity/4.Solidity\\xe8\\xbf\\x9b\\xe9\\x98\\xb6/ch8-\\xe5\\x88\\xa0\\xe9\\x99\\xa4\\xe5\\x90\\x88\\xe7\\xba\\xa6/DeleteContract.sol\":56:459  contract DeleteContract {... */\n          dataSize(sub_0)\n          dup1\n          dataOffset(sub_0)\n          0x00\n          codecopy\n          0x00\n          return\n        stop\n\n        sub_0: assembly {\n                /* \"StudyPackage/Solidity/4.Solidity\\xe8\\xbf\\x9b\\xe9\\x98\\xb6/ch8-\\xe5\\x88\\xa0\\xe9\\x99\\xa4\\xe5\\x90\\x88\\xe7\\xba\\xa6/DeleteContract.sol\":56:459  contract DeleteContract {... */\n              mstore(0x40, 0x80)\n              jumpi(tag_1, lt(calldatasize, 0x04))\n              shr(0xe0, calldataload(0x00))\n              dup1\n              0x12065fe0\n              eq\n              tag_3\n              jumpi\n              dup1\n              0x3fa4f245\n              eq\n              tag_4\n              jumpi\n              dup1\n              0x5a58cd4c\n              eq\n              tag_5\n              jumpi\n              jump(tag_2)\n            tag_1:\n              jumpi(tag_2, calldatasize)\n              stop\n            tag_2:\n              0x00\n              dup1\n              revert\n                /* \"StudyPackage/Solidity/4.Solidity\\xe8\\xbf\\x9b\\xe9\\x98\\xb6/ch8-\\xe5\\x88\\xa0\\xe9\\x99\\xa4\\xe5\\x90\\x88\\xe7\\xba\\xa6/DeleteContract.sol\":350:457  function getBalance() external view returns (uint balance) {... */\n            tag_3:\n              callvalue\n              dup1\n              iszero\n              tag_8\n              jumpi\n              0x00\n              dup1\n              revert\n            tag_8:\n              pop\n              tag_9\n              tag_10\n              jump\t// in\n            tag_9:\n              mload(0x40)\n              tag_11\n              swap2\n              swap1\n              tag_12\n              jump\t// in\n            tag_11:\n              mload(0x40)\n              dup1\n              swap2\n              sub\n              swap1\n              return\n                /* \"StudyPackage/Solidity/4.Solidity\\xe8\\xbf\\x9b\\xe9\\x98\\xb6/ch8-\\xe5\\x88\\xa0\\xe9\\x99\\xa4\\xe5\\x90\\x88\\xe7\\xba\\xa6/DeleteContract.sol\":86:108  uint public value = 10 */\n            tag_4:\n              callvalue\n              dup1\n              iszero\n              tag_13\n              jumpi\n              0x00\n              dup1\n              revert\n            tag_13:\n              pop\n              tag_14\n              tag_15\n              jump\t// in\n            tag_14:\n              mload(0x40)\n              tag_16\n              swap2\n              swap1\n              tag_12\n              jump\t// in\n            tag_16:\n              mload(0x40)\n              dup1\n              swap2\n              sub\n              swap1\n              return\n                /* \"StudyPackage/Solidity/4.Solidity\\xe8\\xbf\\x9b\\xe9\\x98\\xb6/ch8-\\xe5\\x88\\xa0\\xe9\\x99\\xa4\\xe5\\x90\\x88\\xe7\\xba\\xa6/DeleteContract.sol\":180:344  function deleteContract() external {... */\n            tag_5:\n              callvalue\n              dup1\n              iszero\n              tag_17\n              jumpi\n              0x00\n              dup1\n              revert\n            tag_17:\n              pop\n              tag_18\n              tag_19\n              jump\t// in\n            tag_18:\n              stop\n                /* \"StudyPackage/Solidity/4.Solidity\\xe8\\xbf\\x9b\\xe9\\x98\\xb6/ch8-\\xe5\\x88\\xa0\\xe9\\x99\\xa4\\xe5\\x90\\x88\\xe7\\xba\\xa6/DeleteContract.sol\":350:457  function getBalance() external view returns (uint balance) {... */\n            tag_10:\n                /* \"StudyPackage/Solidity/4.Solidity\\xe8\\xbf\\x9b\\xe9\\x98\\xb6/ch8-\\xe5\\x88\\xa0\\xe9\\x99\\xa4\\xe5\\x90\\x88\\xe7\\xba\\xa6/DeleteContract.sol\":395:407  uint balance */\n              0x00\n                /* \"StudyPackage/Solidity/4.Solidity\\xe8\\xbf\\x9b\\xe9\\x98\\xb6/ch8-\\xe5\\x88\\xa0\\xe9\\x99\\xa4\\xe5\\x90\\x88\\xe7\\xba\\xa6/DeleteContract.sol\":429:450  address(this).balance */\n              selfbalance\n                /* \"StudyPackage/Solidity/4.Solidity\\xe8\\xbf\\x9b\\xe9\\x98\\xb6/ch8-\\xe5\\x88\\xa0\\xe9\\x99\\xa4\\xe5\\x90\\x88\\xe7\\xba\\xa6/DeleteContract.sol\":419:450  balance = address(this).balance */\n              swap1\n              pop\n                /* \"StudyPackage/Solidity/4.Solidity\\xe8\\xbf\\x9b\\xe9\\x98\\xb6/ch8-\\xe5\\x88\\xa0\\xe9\\x99\\xa4\\xe5\\x90\\x88\\xe7\\xba\\xa6/DeleteContract.sol\":350:457  function getBalance() external view returns (uint balance) {... */\n              swap1\n              jump\t// out\n                /* \"StudyPackage/Solidity/4.Solidity\\xe8\\xbf\\x9b\\xe9\\x98\\xb6/ch8-\\xe5\\x88\\xa0\\xe9\\x99\\xa4\\xe5\\x90\\x88\\xe7\\xba\\xa6/DeleteContract.sol\":86:108  uint public value = 10 */\n            tag_15:\n              sload(0x00)\n              dup2\n              jump\t// out\n                /* \"StudyPackage/Solidity/4.Solidity\\xe8\\xbf\\x9b\\xe9\\x98\\xb6/ch8-\\xe5\\x88\\xa0\\xe9\\x99\\xa4\\xe5\\x90\\x88\\xe7\\xba\\xa6/DeleteContract.sol\":180:344  function deleteContract() external {... */\n            tag_19:\n                /* \"StudyPackage/Solidity/4.Solidity\\xe8\\xbf\\x9b\\xe9\\x98\\xb6/ch8-\\xe5\\x88\\xa0\\xe9\\x99\\xa4\\xe5\\x90\\x88\\xe7\\xba\\xa6/DeleteContract.sol\":325:335  msg.sender */\n              caller\n                /* \"StudyPackage/Solidity/4.Solidity\\xe8\\xbf\\x9b\\xe9\\x98\\xb6/ch8-\\xe5\\x88\\xa0\\xe9\\x99\\xa4\\xe5\\x90\\x88\\xe7\\xba\\xa6/DeleteContract.sol\":304:337  selfdestruct(payable(msg.sender)) */\n              0xffffffffffffffffffffffffffffffffffffffff\n              and\n              selfdestruct\n                /* \"#utility.yul\":7:125   */\n            tag_23:\n                /* \"#utility.yul\":94:118   */\n              tag_25\n                /* \"#utility.yul\":112:117   */\n              dup2\n                /* \"#utility.yul\":94:118   */\n              tag_26\n              jump\t// in\n            tag_25:\n                /* \"#utility.yul\":89:92   */\n              dup3\n                /* \"#utility.yul\":82:119   */\n              mstore\n                /* \"#utility.yul\":7:125   */\n              pop\n              pop\n              jump\t// out\n                /* \"#utility.yul\":131:353   */\n            tag_12:\n                /* \"#utility.yul\":224:228   */\n              0x00\n                /* \"#utility.yul\":262:264   */\n              0x20\n                /* \"#utility.yul\":251:260   */\n              dup3\n                /* \"#utility.yul\":247:265   */\n              add\n                /* \"#utility.yul\":239:265   */\n              swap1\n              pop\n                /* \"#utility.yul\":275:346   */\n              tag_28\n                /* \"#utility.yul\":343:344   */\n              0x00\n                /* \"#utility.yul\":332:341   */\n              dup4\n                /* \"#utility.yul\":328:345   */\n              add\n                /* \"#utility.yul\":319:325   */\n              dup5\n                /* \"#utility.yul\":275:346   */\n              tag_23\n              jump\t// in\n            tag_28:\n                /* \"#utility.yul\":131:353   */\n              swap3\n              swap2\n              pop\n              pop\n              jump\t// out\n                /* \"#utility.yul\":359:436   */\n            tag_26:\n                /* \"#utility.yul\":396:403   */\n              0x00\n                /* \"#utility.yul\":425:430   */\n              dup2\n                /* \"#utility.yul\":414:430   */\n              swap1\n              pop\n                /* \"#utility.yul\":359:436   */\n              swap2\n              swap1\n              pop\n              jump\t// out\n\n            auxdata: 0xa264697066735822122019b6126ef67d5146048581c1cfc2626298a289fc7124995e1a5c141b2448a02b64736f6c63430008070033\n        }\n    }\n\n    auxdata: 0xa264697066735822122075d133f5554fd5a46db55bb1f242161afa2a6688d283e63684d5e84846dc11fb64736f6c63430008070033\n}\n",
				"bytecode": {
					"linkReferences": {},
					"object": "6080604052610549806100136000396000f3fe6080604052600436106100295760003560e01c806301725a0b1461002e57806312065fe01461004c575b600080fd5b610036610077565b6040516100439190610342565b60405180910390f35b34801561005857600080fd5b50610061610245565b60405161006e919061035d565b60405180910390f35b61007f61024d565b60003460405161008e90610284565b6040518091039082f09050801580156100ab573d6000803e3d6000fd5b509050600060405180606001604052808373ffffffffffffffffffffffffffffffffffffffff1681526020018373ffffffffffffffffffffffffffffffffffffffff166312065fe06040518163ffffffff1660e01b815260040160206040518083038186803b15801561011d57600080fd5b505afa158015610131573d6000803e3d6000fd5b505050506040513d601f19601f8201168201806040525081019061015591906102a6565b81526020018373ffffffffffffffffffffffffffffffffffffffff16633fa4f2456040518163ffffffff1660e01b815260040160206040518083038186803b1580156101a057600080fd5b505afa1580156101b4573d6000803e3d6000fd5b505050506040513d601f19601f820116820180604052508101906101d891906102a6565b81525090508173ffffffffffffffffffffffffffffffffffffffff16635a58cd4c6040518163ffffffff1660e01b8152600401600060405180830381600087803b15801561022557600080fd5b505af1158015610239573d6000803e3d6000fd5b50505050809250505090565b600047905090565b6040518060600160405280600073ffffffffffffffffffffffffffffffffffffffff16815260200160008152602001600081525090565b610143806103d183390190565b6000815190506102a0816103b9565b92915050565b6000602082840312156102bc576102bb6103b4565b5b60006102ca84828501610291565b91505092915050565b6102dc81610378565b82525050565b6060820160008201516102f860008501826102d3565b50602082015161030b6020850182610324565b50604082015161031e6040850182610324565b50505050565b61032d816103aa565b82525050565b61033c816103aa565b82525050565b600060608201905061035760008301846102e2565b92915050565b60006020820190506103726000830184610333565b92915050565b60006103838261038a565b9050919050565b600073ffffffffffffffffffffffffffffffffffffffff82169050919050565b6000819050919050565b600080fd5b6103c2816103aa565b81146103cd57600080fd5b5056fe6080604052600a60005561012b806100186000396000f3fe60806040526004361060335760003560e01c806312065fe014603e5780633fa4f2451460645780635a58cd4c14608a576039565b36603957005b600080fd5b348015604957600080fd5b506050609e565b604051605b919060d2565b60405180910390f35b348015606f57600080fd5b50607660a6565b6040516081919060d2565b60405180910390f35b348015609557600080fd5b50609c60ac565b005b600047905090565b60005481565b3373ffffffffffffffffffffffffffffffffffffffff16ff5b60cc8160eb565b82525050565b600060208201905060e5600083018460c5565b92915050565b600081905091905056fea264697066735822122019b6126ef67d5146048581c1cfc2626298a289fc7124995e1a5c141b2448a02b64736f6c63430008070033a264697066735822122075d133f5554fd5a46db55bb1f242161afa2a6688d283e63684d5e84846dc11fb64736f6c63430008070033",
					"opcodes": "PUSH1 0x80 PUSH1 0x40 MSTORE PUSH2 0x549 DUP1 PUSH2 0x13 PUSH1 0x0 CODECOPY PUSH1 0x0 RETURN INVALID PUSH1 0x80 PUSH1 0x40 MSTORE PUSH1 0x4 CALLDATASIZE LT PUSH2 0x29 JUMPI PUSH1 0x0 CALLDATALOAD PUSH1 0xE0 SHR DUP1 PUSH4 0x1725A0B EQ PUSH2 0x2E JUMPI DUP1 PUSH4 0x12065FE0 EQ PUSH2 0x4C JUMPI JUMPDEST PUSH1 0x0 DUP1 REVERT JUMPDEST PUSH2 0x36 PUSH2 0x77 JUMP JUMPDEST PUSH1 0x40 MLOAD PUSH2 0x43 SWAP2 SWAP1 PUSH2 0x342 JUMP JUMPDEST PUSH1 0x40 MLOAD DUP1 SWAP2 SUB SWAP1 RETURN JUMPDEST CALLVALUE DUP1 ISZERO PUSH2 0x58 JUMPI PUSH1 0x0 DUP1 REVERT JUMPDEST POP PUSH2 0x61 PUSH2 0x245 JUMP JUMPDEST PUSH1 0x40 MLOAD PUSH2 0x6E SWAP2 SWAP1 PUSH2 0x35D JUMP JUMPDEST PUSH1 0x40 MLOAD DUP1 SWAP2 SUB SWAP1 RETURN JUMPDEST PUSH2 0x7F PUSH2 0x24D JUMP JUMPDEST PUSH1 0x0 CALLVALUE PUSH1 0x40 MLOAD PUSH2 0x8E SWAP1 PUSH2 0x284 JUMP JUMPDEST PUSH1 0x40 MLOAD DUP1 SWAP2 SUB SWAP1 DUP3 CREATE SWAP1 POP DUP1 ISZERO DUP1 ISZERO PUSH2 0xAB JUMPI RETURNDATASIZE PUSH1 0x0 DUP1 RETURNDATACOPY RETURNDATASIZE PUSH1 0x0 REVERT JUMPDEST POP SWAP1 POP PUSH1 0x0 PUSH1 0x40 MLOAD DUP1 PUSH1 0x60 ADD PUSH1 0x40 MSTORE DUP1 DUP4 PUSH20 0xFFFFFFFFFFFFFFFFFFFFFFFFFFFFFFFFFFFFFFFF AND DUP2 MSTORE PUSH1 0x20 ADD DUP4 PUSH20 0xFFFFFFFFFFFFFFFFFFFFFFFFFFFFFFFFFFFFFFFF AND PUSH4 0x12065FE0 PUSH1 0x40 MLOAD DUP2 PUSH4 0xFFFFFFFF AND PUSH1 0xE0 SHL DUP2 MSTORE PUSH1 0x4 ADD PUSH1 0x20 PUSH1 0x40 MLOAD DUP1 DUP4 SUB DUP2 DUP7 DUP1 EXTCODESIZE ISZERO DUP1 ISZERO PUSH2 0x11D JUMPI PUSH1 0x0 DUP1 REVERT JUMPDEST POP GAS STATICCALL ISZERO DUP1 ISZERO PUSH2 0x131 JUMPI RETURNDATASIZE PUSH1 0x0 DUP1 RETURNDATACOPY RETURNDATASIZE PUSH1 0x0 REVERT JUMPDEST POP POP POP POP PUSH1 0x40 MLOAD RETURNDATASIZE PUSH1 0x1F NOT PUSH1 0x1F DUP3 ADD AND DUP3 ADD DUP1 PUSH1 0x40 MSTORE POP DUP2 ADD SWAP1 PUSH2 0x155 SWAP2 SWAP1 PUSH2 0x2A6 JUMP JUMPDEST DUP2 MSTORE PUSH1 0x20 ADD DUP4 PUSH20 0xFFFFFFFFFFFFFFFFFFFFFFFFFFFFFFFFFFFFFFFF AND PUSH4 0x3FA4F245 PUSH1 0x40 MLOAD DUP2 PUSH4 0xFFFFFFFF AND PUSH1 0xE0 SHL DUP2 MSTORE PUSH1 0x4 ADD PUSH1 0x20 PUSH1 0x40 MLOAD DUP1 DUP4 SUB DUP2 DUP7 DUP1 EXTCODESIZE ISZERO DUP1 ISZERO PUSH2 0x1A0 JUMPI PUSH1 0x0 DUP1 REVERT JUMPDEST POP GAS STATICCALL ISZERO DUP1 ISZERO PUSH2 0x1B4 JUMPI RETURNDATASIZE PUSH1 0x0 DUP1 RETURNDATACOPY RETURNDATASIZE PUSH1 0x0 REVERT JUMPDEST POP POP POP POP PUSH1 0x40 MLOAD RETURNDATASIZE PUSH1 0x1F NOT PUSH1 0x1F DUP3 ADD AND DUP3 ADD DUP1 PUSH1 0x40 MSTORE POP DUP2 ADD SWAP1 PUSH2 0x1D8 SWAP2 SWAP1 PUSH2 0x2A6 JUMP JUMPDEST DUP2 MSTORE POP SWAP1 POP DUP2 PUSH20 0xFFFFFFFFFFFFFFFFFFFFFFFFFFFFFFFFFFFFFFFF AND PUSH4 0x5A58CD4C PUSH1 0x40 MLOAD DUP2 PUSH4 0xFFFFFFFF AND PUSH1 0xE0 SHL DUP2 MSTORE PUSH1 0x4 ADD PUSH1 0x0 PUSH1 0x40 MLOAD DUP1 DUP4 SUB DUP2 PUSH1 0x0 DUP8 DUP1 EXTCODESIZE ISZERO DUP1 ISZERO PUSH2 0x225 JUMPI PUSH1 0x0 DUP1 REVERT JUMPDEST POP GAS CALL ISZERO DUP1 ISZERO PUSH2 0x239 JUMPI RETURNDATASIZE PUSH1 0x0 DUP1 RETURNDATACOPY RETURNDATASIZE PUSH1 0x0 REVERT JUMPDEST POP POP POP POP DUP1 SWAP3 POP POP POP SWAP1 JUMP JUMPDEST PUSH1 0x0 SELFBALANCE SWAP1 POP SWAP1 JUMP JUMPDEST PUSH1 0x40 MLOAD DUP1 PUSH1 0x60 ADD PUSH1 0x40 MSTORE DUP1 PUSH1 0x0 PUSH20 0xFFFFFFFFFFFFFFFFFFFFFFFFFFFFFFFFFFFFFFFF AND DUP2 MSTORE PUSH1 0x20 ADD PUSH1 0x0 DUP2 MSTORE PUSH1 0x20 ADD PUSH1 0x0 DUP2 MSTORE POP SWAP1 JUMP JUMPDEST PUSH2 0x143 DUP1 PUSH2 0x3D1 DUP4 CODECOPY ADD SWAP1 JUMP JUMPDEST PUSH1 0x0 DUP2 MLOAD SWAP1 POP PUSH2 0x2A0 DUP2 PUSH2 0x3B9 JUMP JUMPDEST SWAP3 SWAP2 POP POP JUMP JUMPDEST PUSH1 0x0 PUSH1 0x20 DUP3 DUP5 SUB SLT ISZERO PUSH2 0x2BC JUMPI PUSH2 0x2BB PUSH2 0x3B4 JUMP JUMPDEST JUMPDEST PUSH1 0x0 PUSH2 0x2CA DUP5 DUP3 DUP6 ADD PUSH2 0x291 JUMP JUMPDEST SWAP2 POP POP SWAP3 SWAP2 POP POP JUMP JUMPDEST PUSH2 0x2DC DUP2 PUSH2 0x378 JUMP JUMPDEST DUP3 MSTORE POP POP JUMP JUMPDEST PUSH1 0x60 DUP3 ADD PUSH1 0x0 DUP3 ADD MLOAD PUSH2 0x2F8 PUSH1 0x0 DUP6 ADD DUP3 PUSH2 0x2D3 JUMP JUMPDEST POP PUSH1 0x20 DUP3 ADD MLOAD PUSH2 0x30B PUSH1 0x20 DUP6 ADD DUP3 PUSH2 0x324 JUMP JUMPDEST POP PUSH1 0x40 DUP3 ADD MLOAD PUSH2 0x31E PUSH1 0x40 DUP6 ADD DUP3 PUSH2 0x324 JUMP JUMPDEST POP POP POP POP JUMP JUMPDEST PUSH2 0x32D DUP2 PUSH2 0x3AA JUMP JUMPDEST DUP3 MSTORE POP POP JUMP JUMPDEST PUSH2 0x33C DUP2 PUSH2 0x3AA JUMP JUMPDEST DUP3 MSTORE POP POP JUMP JUMPDEST PUSH1 0x0 PUSH1 0x60 DUP3 ADD SWAP1 POP PUSH2 0x357 PUSH1 0x0 DUP4 ADD DUP5 PUSH2 0x2E2 JUMP JUMPDEST SWAP3 SWAP2 POP POP JUMP JUMPDEST PUSH1 0x0 PUSH1 0x20 DUP3 ADD SWAP1 POP PUSH2 0x372 PUSH1 0x0 DUP4 ADD DUP5 PUSH2 0x333 JUMP JUMPDEST SWAP3 SWAP2 POP POP JUMP JUMPDEST PUSH1 0x0 PUSH2 0x383 DUP3 PUSH2 0x38A JUMP JUMPDEST SWAP1 POP SWAP2 SWAP1 POP JUMP JUMPDEST PUSH1 0x0 PUSH20 0xFFFFFFFFFFFFFFFFFFFFFFFFFFFFFFFFFFFFFFFF DUP3 AND SWAP1 POP SWAP2 SWAP1 POP JUMP JUMPDEST PUSH1 0x0 DUP2 SWAP1 POP SWAP2 SWAP1 POP JUMP JUMPDEST PUSH1 0x0 DUP1 REVERT JUMPDEST PUSH2 0x3C2 DUP2 PUSH2 0x3AA JUMP JUMPDEST DUP2 EQ PUSH2 0x3CD JUMPI PUSH1 0x0 DUP1 REVERT JUMPDEST POP JUMP INVALID PUSH1 0x80 PUSH1 0x40 MSTORE PUSH1 0xA PUSH1 0x0 SSTORE PUSH2 0x12B DUP1 PUSH2 0x18 PUSH1 0x0 CODECOPY PUSH1 0x0 RETURN INVALID PUSH1 0x80 PUSH1 0x40 MSTORE PUSH1 0x4 CALLDATASIZE LT PUSH1 0x33 JUMPI PUSH1 0x0 CALLDATALOAD PUSH1 0xE0 SHR DUP1 PUSH4 0x12065FE0 EQ PUSH1 0x3E JUMPI DUP1 PUSH4 0x3FA4F245 EQ PUSH1 0x64 JUMPI DUP1 PUSH4 0x5A58CD4C EQ PUSH1 0x8A JUMPI PUSH1 0x39 JUMP JUMPDEST CALLDATASIZE PUSH1 0x39 JUMPI STOP JUMPDEST PUSH1 0x0 DUP1 REVERT JUMPDEST CALLVALUE DUP1 ISZERO PUSH1 0x49 JUMPI PUSH1 0x0 DUP1 REVERT JUMPDEST POP PUSH1 0x50 PUSH1 0x9E JUMP JUMPDEST PUSH1 0x40 MLOAD PUSH1 0x5B SWAP2 SWAP1 PUSH1 0xD2 JUMP JUMPDEST PUSH1 0x40 MLOAD DUP1 SWAP2 SUB SWAP1 RETURN JUMPDEST CALLVALUE DUP1 ISZERO PUSH1 0x6F JUMPI PUSH1 0x0 DUP1 REVERT JUMPDEST POP PUSH1 0x76 PUSH1 0xA6 JUMP JUMPDEST PUSH1 0x40 MLOAD PUSH1 0x81 SWAP2 SWAP1 PUSH1 0xD2 JUMP JUMPDEST PUSH1 0x40 MLOAD DUP1 SWAP2 SUB SWAP1 RETURN JUMPDEST CALLVALUE DUP1 ISZERO PUSH1 0x95 JUMPI PUSH1 0x0 DUP1 REVERT JUMPDEST POP PUSH1 0x9C PUSH1 0xAC JUMP JUMPDEST STOP JUMPDEST PUSH1 0x0 SELFBALANCE SWAP1 POP SWAP1 JUMP JUMPDEST PUSH1 0x0 SLOAD DUP2 JUMP JUMPDEST CALLER PUSH20 0xFFFFFFFFFFFFFFFFFFFFFFFFFFFFFFFFFFFFFFFF AND SELFDESTRUCT JUMPDEST PUSH1 0xCC DUP2 PUSH1 0xEB JUMP JUMPDEST DUP3 MSTORE POP POP JUMP JUMPDEST PUSH1 0x0 PUSH1 0x20 DUP3 ADD SWAP1 POP PUSH1 0xE5 PUSH1 0x0 DUP4 ADD DUP5 PUSH1 0xC5 JUMP JUMPDEST SWAP3 SWAP2 POP POP JUMP JUMPDEST PUSH1 0x0 DUP2 SWAP1 POP SWAP2 SWAP1 POP JUMP INVALID LOG2 PUSH5 0x6970667358 0x22 SLT KECCAK256 NOT 0xB6 SLT PUSH15 0xF67D5146048581C1CFC2626298A289 0xFC PUSH18 0x24995E1A5C141B2448A02B64736F6C634300 ADDMOD SMOD STOP CALLER LOG2 PUSH5 0x6970667358 0x22 SLT KECCAK256 PUSH22 0xD133F5554FD5A46DB55BB1F242161AFA2A6688D283E6 CALLDATASIZE DUP5 0xD5 0xE8 BASEFEE CHAINID 0xDC GT 0xFB PUSH5 0x736F6C6343 STOP ADDMOD SMOD STOP CALLER "
				},
				"gasEstimates": {
					"creation": {
						"codeDepositCost": "270600",
						"executionCost": "288",
						"totalCost": "270888"
					},
					"external": {
						"demo()": "infinite",
						"getBalance()": "339"
					}
				},
				"methodIdentifiers": {
					"demo()": "01725a0b",
					"getBalance()": "12065fe0"
				}
			},
			"storageLayout": {
				"storage": [],
				"types": null
			},
			"userdoc": {
				"kind": "user",
				"methods": {},
				"version": 1
			}
		}
	}
}