{
    "contractName": "HelloWorld",
    "abi": [
        {
            "inputs": [],
            "name": "get",
            "outputs": [
                {
                    "internalType": "string",
                    "name": "",
                    "type": "string"
                }
            ],
            "stateMutability": "view",
            "type": "function"
        },
        {
            "inputs": [
                {
                    "internalType": "string",
                    "name": "message",
                    "type": "string"
                }
            ],
            "name": "set",
            "outputs": [],
            "stateMutability": "nonpayable",
            "type": "function"
        },
        {
            "inputs": [],
            "name": "storeMsg",
            "outputs": [
                {
                    "internalType": "string",
                    "name": "",
                    "type": "string"
                }
            ],
            "stateMutability": "view",
            "type": "function"
        }
    ],
    "bytecode": "608060405234801561001057600080fd5b506103de806100206000396000f3fe608060405234801561001057600080fd5b50600436106100415760003560e01c80634ed3885e146100465780636d4ce63c1461005b578063a96baa5b14610079575b600080fd5b610059610054366004610251565b610081565b005b610063610098565b6040516100709190610302565b60405180910390f35b61006361012a565b80516100949060009060208401906101b8565b5050565b6060600080546100a790610357565b80601f01602080910402602001604051908101604052809291908181526020018280546100d390610357565b80156101205780601f106100f557610100808354040283529160200191610120565b820191906000526020600020905b81548152906001019060200180831161010357829003601f168201915b5050505050905090565b6000805461013790610357565b80601f016020809104026020016040519081016040528092919081815260200182805461016390610357565b80156101b05780601f10610185576101008083540402835291602001916101b0565b820191906000526020600020905b81548152906001019060200180831161019357829003601f168201915b505050505081565b8280546101c490610357565b90600052602060002090601f0160209004810192826101e6576000855561022c565b82601f106101ff57805160ff191683800117855561022c565b8280016001018555821561022c579182015b8281111561022c578251825591602001919060010190610211565b5061023892915061023c565b5090565b5b80821115610238576000815560010161023d565b60006020828403121561026357600080fd5b813567ffffffffffffffff8082111561027b57600080fd5b818401915084601f83011261028f57600080fd5b8135818111156102a1576102a1610392565b604051601f8201601f19908116603f011681019083821181831017156102c9576102c9610392565b816040528281528760208487010111156102e257600080fd5b826020860160208301376000928101602001929092525095945050505050565b600060208083528351808285015260005b8181101561032f57858101830151858201604001528201610313565b81811115610341576000604083870101525b50601f01601f1916929092016040019392505050565b600181811c9082168061036b57607f821691505b6020821081141561038c57634e487b7160e01b600052602260045260246000fd5b50919050565b634e487b7160e01b600052604160045260246000fdfea26469706673582212209fa457e963231641b91d8423728a2e11fcf1be1ab8327223c327954f58b8addb64736f6c63430008070033",
    "sourcePath": "/Users/wjx2020/Desktop/code/web3/Demo1/test.sol",
    "compiler": {
        "name": "solc",
        "version": "0.8.7+commit.e28d00a7"
    },
    "functionHashes": {
        "get()": "6d4ce63c",
        "set(string)": "4ed3885e",
        "storeMsg()": "a96baa5b"
    },
    "gasEstimates": {
        "creation": {
            "codeDepositCost": "198000",
            "executionCost": "238",
            "totalCost": "198238"
        },
        "external": {
            "get()": "infinite",
            "set(string)": "infinite",
            "storeMsg()": "infinite"
        }
    }
}