{
	"data": {
		"bytecode": {
			"linkReferences": {},
			"object": "60806040525f8055610017600261005760201b60201c565b801561002e575061002d5f61006e60201b60201c565b5b60015f6101000a81548160ff021916908315150217905550348015610051575f80fd5b5061015f565b5f8060028361006691906100cf565b149050919050565b5f80820361008f5760015f80828254610087919061012c565b925050819055505b5f82149050919050565b5f819050919050565b7f4e487b71000000000000000000000000000000000000000000000000000000005f52601260045260245ffd5b5f6100d982610099565b91506100e483610099565b9250826100f4576100f36100a2565b5b828206905092915050565b7f4e487b71000000000000000000000000000000000000000000000000000000005f52601160045260245ffd5b5f61013682610099565b915061014183610099565b9250828201905080821115610159576101586100ff565b5b92915050565b6101118061016c5f395ff3fe6080604052348015600e575f80fd5b50600436106030575f3560e01c8063924b3d21146034578063a5555df714604e575b5f80fd5b603a6068565b604051604591906097565b60405180910390f35b6054607a565b604051605f919060c4565b60405180910390f35b60015f9054906101000a900460ff1681565b5f5481565b5f8115159050919050565b609181607f565b82525050565b5f60208201905060a85f830184608a565b92915050565b5f819050919050565b60be8160ae565b82525050565b5f60208201905060d55f83018460b7565b9291505056fea2646970667358221220da1c5ce452f4d05258dd0c33df351c2a7fe2c94d618c81cb8171eb05b26a620064736f6c634300081a0033",
			"opcodes": "PUSH1 0x80 PUSH1 0x40 MSTORE PUSH0 DUP1 SSTORE PUSH2 0x17 PUSH1 0x2 PUSH2 0x57 PUSH1 0x20 SHL PUSH1 0x20 SHR JUMP JUMPDEST DUP1 ISZERO PUSH2 0x2E JUMPI POP PUSH2 0x2D PUSH0 PUSH2 0x6E PUSH1 0x20 SHL PUSH1 0x20 SHR JUMP JUMPDEST JUMPDEST PUSH1 0x1 PUSH0 PUSH2 0x100 EXP DUP2 SLOAD DUP2 PUSH1 0xFF MUL NOT AND SWAP1 DUP4 ISZERO ISZERO MUL OR SWAP1 SSTORE POP CALLVALUE DUP1 ISZERO PUSH2 0x51 JUMPI PUSH0 DUP1 REVERT JUMPDEST POP PUSH2 0x15F JUMP JUMPDEST PUSH0 DUP1 PUSH1 0x2 DUP4 PUSH2 0x66 SWAP2 SWAP1 PUSH2 0xCF JUMP JUMPDEST EQ SWAP1 POP SWAP2 SWAP1 POP JUMP JUMPDEST PUSH0 DUP1 DUP3 SUB PUSH2 0x8F JUMPI PUSH1 0x1 PUSH0 DUP1 DUP3 DUP3 SLOAD PUSH2 0x87 SWAP2 SWAP1 PUSH2 0x12C JUMP JUMPDEST SWAP3 POP POP DUP2 SWAP1 SSTORE POP JUMPDEST PUSH0 DUP3 EQ SWAP1 POP SWAP2 SWAP1 POP JUMP JUMPDEST PUSH0 DUP2 SWAP1 POP SWAP2 SWAP1 POP JUMP JUMPDEST PUSH32 0x4E487B7100000000000000000000000000000000000000000000000000000000 PUSH0 MSTORE PUSH1 0x12 PUSH1 0x4 MSTORE PUSH1 0x24 PUSH0 REVERT JUMPDEST PUSH0 PUSH2 0xD9 DUP3 PUSH2 0x99 JUMP JUMPDEST SWAP2 POP PUSH2 0xE4 DUP4 PUSH2 0x99 JUMP JUMPDEST SWAP3 POP DUP3 PUSH2 0xF4 JUMPI PUSH2 0xF3 PUSH2 0xA2 JUMP JUMPDEST JUMPDEST DUP3 DUP3 MOD SWAP1 POP SWAP3 SWAP2 POP POP JUMP JUMPDEST PUSH32 0x4E487B7100000000000000000000000000000000000000000000000000000000 PUSH0 MSTORE PUSH1 0x11 PUSH1 0x4 MSTORE PUSH1 0x24 PUSH0 REVERT JUMPDEST PUSH0 PUSH2 0x136 DUP3 PUSH2 0x99 JUMP JUMPDEST SWAP2 POP PUSH2 0x141 DUP4 PUSH2 0x99 JUMP JUMPDEST SWAP3 POP DUP3 DUP3 ADD SWAP1 POP DUP1 DUP3 GT ISZERO PUSH2 0x159 JUMPI PUSH2 0x158 PUSH2 0xFF JUMP JUMPDEST JUMPDEST SWAP3 SWAP2 POP POP JUMP JUMPDEST PUSH2 0x111 DUP1 PUSH2 0x16C PUSH0 CODECOPY PUSH0 RETURN INVALID PUSH1 0x80 PUSH1 0x40 MSTORE CALLVALUE DUP1 ISZERO PUSH1 0xE JUMPI PUSH0 DUP1 REVERT JUMPDEST POP PUSH1 0x4 CALLDATASIZE LT PUSH1 0x30 JUMPI PUSH0 CALLDATALOAD PUSH1 0xE0 SHR DUP1 PUSH4 0x924B3D21 EQ PUSH1 0x34 JUMPI DUP1 PUSH4 0xA5555DF7 EQ PUSH1 0x4E JUMPI JUMPDEST PUSH0 DUP1 REVERT JUMPDEST PUSH1 0x3A PUSH1 0x68 JUMP JUMPDEST PUSH1 0x40 MLOAD PUSH1 0x45 SWAP2 SWAP1 PUSH1 0x97 JUMP JUMPDEST PUSH1 0x40 MLOAD DUP1 SWAP2 SUB SWAP1 RETURN JUMPDEST PUSH1 0x54 PUSH1 0x7A JUMP JUMPDEST PUSH1 0x40 MLOAD PUSH1 0x5F SWAP2 SWAP1 PUSH1 0xC4 JUMP JUMPDEST PUSH1 0x40 MLOAD DUP1 SWAP2 SUB SWAP1 RETURN JUMPDEST PUSH1 0x1 PUSH0 SWAP1 SLOAD SWAP1 PUSH2 0x100 EXP SWAP1 DIV PUSH1 0xFF AND DUP2 JUMP JUMPDEST PUSH0 SLOAD DUP2 JUMP JUMPDEST PUSH0 DUP2 ISZERO ISZERO SWAP1 POP SWAP2 SWAP1 POP JUMP JUMPDEST PUSH1 0x91 DUP2 PUSH1 0x7F JUMP JUMPDEST DUP3 MSTORE POP POP JUMP JUMPDEST PUSH0 PUSH1 0x20 DUP3 ADD SWAP1 POP PUSH1 0xA8 PUSH0 DUP4 ADD DUP5 PUSH1 0x8A JUMP JUMPDEST SWAP3 SWAP2 POP POP JUMP JUMPDEST PUSH0 DUP2 SWAP1 POP SWAP2 SWAP1 POP JUMP JUMPDEST PUSH1 0xBE DUP2 PUSH1 0xAE JUMP JUMPDEST DUP3 MSTORE POP POP JUMP JUMPDEST PUSH0 PUSH1 0x20 DUP3 ADD SWAP1 POP PUSH1 0xD5 PUSH0 DUP4 ADD DUP5 PUSH1 0xB7 JUMP JUMPDEST SWAP3 SWAP2 POP POP JUMP INVALID LOG2 PUSH5 0x6970667358 0x22 SLT KECCAK256 0xDA SHR TLOAD 0xE4 MSTORE DELEGATECALL 0xD0 MSTORE PC 0xDD 0xC CALLER 0xDF CALLDATALOAD SHR 0x2A PUSH32 0xE2C94D618C81CB8171EB05B26A620064736F6C634300081A0033000000000000 "
		},
		"gasEstimates": {
			"creation": {
				"codeDepositCost": "54600",
				"executionCost": "infinite",
				"totalCost": "infinite"
			},
			"external": {
				"_bool1()": "2444",
				"zeroCount()": "2424"
			},
			"internal": {
				"isEven(uint256)": "infinite",
				"isZero(uint256)": "infinite"
			}
		},
		"methodIdentifiers": {
			"_bool1()": "924b3d21",
			"zeroCount()": "a5555df7"
		}
	},
	"abi": [
		{
			"inputs": [],
			"name": "_bool1",
			"outputs": [
				{
					"internalType": "bool",
					"name": "",
					"type": "bool"
				}
			],
			"stateMutability": "view",
			"type": "function"
		},
		{
			"inputs": [],
			"name": "zeroCount",
			"outputs": [
				{
					"internalType": "uint256",
					"name": "",
					"type": "uint256"
				}
			],
			"stateMutability": "view",
			"type": "function"
		}
	]
}