{
    "contractName": "BoolShortCiruit",
    "abi": [
        {
            "inputs": [],
            "name": "_bool1",
            "outputs": [
                {
                    "internalType": "bool",
                    "name": "",
                    "type": "bool"
                }
            ],
            "stateMutability": "view",
            "type": "function"
        },
        {
            "inputs": [],
            "name": "zeroCount",
            "outputs": [
                {
                    "internalType": "uint256",
                    "name": "",
                    "type": "uint256"
                }
            ],
            "stateMutability": "view",
            "type": "function"
        }
    ],
    "bytecode": "6080604052600080556100126002610046565b80156100235750610023600061005a565b6001805460ff191691151591909117905534801561004057600080fd5b506100c6565b60006100536002836100a4565b1592915050565b600081610079576001600080828254610073919061007e565b90915550505b501590565b6000821982111561009f57634e487b7160e01b600052601160045260246000fd5b500190565b6000826100c157634e487b7160e01b600052601260045260246000fd5b500690565b60a3806100d46000396000f3fe6080604052348015600f57600080fd5b506004361060325760003560e01c8063924b3d21146037578063a5555df7146058575b600080fd5b60015460439060ff1681565b60405190151581526020015b60405180910390f35b606060005481565b604051908152602001604f56fea26469706673582212204ed7600f7144149ec1287c92ef55a0f9893efa9809b1706d154da808920b804e64736f6c63430008070033",
    "sourcePath": "/Users/wjx2020/Desktop/code/web3/1.数据类型/ch1-布尔类型/index.sol",
    "compiler": {
        "name": "solc",
        "version": "0.8.7+commit.e28d00a7"
    },
    "functionHashes": {
        "_bool1()": "924b3d21",
        "zeroCount()": "a5555df7"
    },
    "gasEstimates": {
        "creation": {
            "codeDepositCost": "32600",
            "executionCost": "53818",
            "totalCost": "86418"
        },
        "external": {
            "_bool1()": "2277",
            "zeroCount()": "2295"
        },
        "internal": {
            "isEven(uint256)": "infinite",
            "isZero(uint256)": "infinite"
        }
    }
}