{
	"1.数据类型/ch6-枚举类型/index.sol": {
		"Enumtype": {
			"abi": [
				{
					"inputs": [],
					"name": "choice",
					"outputs": [
						{
							"internalType": "enum Enumtype.ActionChoices",
							"name": "",
							"type": "uint8"
						}
					],
					"stateMutability": "view",
					"type": "function"
				},
				{
					"inputs": [],
					"name": "getChoice",
					"outputs": [
						{
							"internalType": "enum Enumtype.ActionChoices",
							"name": "",
							"type": "uint8"
						}
					],
					"stateMutability": "view",
					"type": "function"
				}
			],
			"devdoc": {
				"kind": "dev",
				"methods": {},
				"version": 1
			},
			"evm": {
				"assembly": "    /* \"1.\\xe6\\x95\\xb0\\xe6\\x8d\\xae\\xe7\\xb1\\xbb\\xe5\\x9e\\x8b/ch6-\\xe6\\x9e\\x9a\\xe4\\xb8\\xbe\\xe7\\xb1\\xbb\\xe5\\x9e\\x8b/index.sol\":56:476  contract Enumtype {... */\n  mstore(0x40, 0x80)\n    /* \"1.\\xe6\\x95\\xb0\\xe6\\x8d\\xae\\xe7\\xb1\\xbb\\xe5\\x9e\\x8b/ch6-\\xe6\\x9e\\x9a\\xe4\\xb8\\xbe\\xe7\\xb1\\xbb\\xe5\\x9e\\x8b/index.sol\":286:306  ActionChoices.GoDown */\n  0x03\n    /* \"1.\\xe6\\x95\\xb0\\xe6\\x8d\\xae\\xe7\\xb1\\xbb\\xe5\\x9e\\x8b/ch6-\\xe6\\x9e\\x9a\\xe4\\xb8\\xbe\\xe7\\xb1\\xbb\\xe5\\x9e\\x8b/index.sol\":256:306  ActionChoices public choice = ActionChoices.GoDown */\n  0x00\n  dup1\n  0x0100\n  exp\n  dup2\n  sload\n  dup2\n  0xff\n  mul\n  not\n  and\n  swap1\n  dup4\n  0x03\n  dup2\n  gt\n  iszero\n  tag_1\n  jumpi\n  tag_2\n  tag_3\n  jump\t// in\ntag_2:\ntag_1:\n  mul\n  or\n  swap1\n  sstore\n  pop\n    /* \"1.\\xe6\\x95\\xb0\\xe6\\x8d\\xae\\xe7\\xb1\\xbb\\xe5\\x9e\\x8b/ch6-\\xe6\\x9e\\x9a\\xe4\\xb8\\xbe\\xe7\\xb1\\xbb\\xe5\\x9e\\x8b/index.sol\":56:476  contract Enumtype {... */\n  callvalue\n  dup1\n  iszero\n  tag_4\n  jumpi\n  0x00\n  dup1\n  revert\ntag_4:\n  pop\n  jump(tag_5)\n    /* \"#utility.yul\":7:187   */\ntag_3:\n    /* \"#utility.yul\":55:132   */\n  0x4e487b7100000000000000000000000000000000000000000000000000000000\n    /* \"#utility.yul\":52:53   */\n  0x00\n    /* \"#utility.yul\":45:133   */\n  mstore\n    /* \"#utility.yul\":152:156   */\n  0x21\n    /* \"#utility.yul\":149:150   */\n  0x04\n    /* \"#utility.yul\":142:157   */\n  mstore\n    /* \"#utility.yul\":176:180   */\n  0x24\n    /* \"#utility.yul\":173:174   */\n  0x00\n    /* \"#utility.yul\":166:181   */\n  revert\n    /* \"1.\\xe6\\x95\\xb0\\xe6\\x8d\\xae\\xe7\\xb1\\xbb\\xe5\\x9e\\x8b/ch6-\\xe6\\x9e\\x9a\\xe4\\xb8\\xbe\\xe7\\xb1\\xbb\\xe5\\x9e\\x8b/index.sol\":56:476  contract Enumtype {... */\ntag_5:\n  dataSize(sub_0)\n  dup1\n  dataOffset(sub_0)\n  0x00\n  codecopy\n  0x00\n  return\nstop\n\nsub_0: assembly {\n        /* \"1.\\xe6\\x95\\xb0\\xe6\\x8d\\xae\\xe7\\xb1\\xbb\\xe5\\x9e\\x8b/ch6-\\xe6\\x9e\\x9a\\xe4\\xb8\\xbe\\xe7\\xb1\\xbb\\xe5\\x9e\\x8b/index.sol\":56:476  contract Enumtype {... */\n      mstore(0x40, 0x80)\n      callvalue\n      dup1\n      iszero\n      tag_1\n      jumpi\n      0x00\n      dup1\n      revert\n    tag_1:\n      pop\n      jumpi(tag_2, lt(calldatasize, 0x04))\n      shr(0xe0, calldataload(0x00))\n      dup1\n      0x67cb61b6\n      eq\n      tag_3\n      jumpi\n      dup1\n      0x98f42fe3\n      eq\n      tag_4\n      jumpi\n    tag_2:\n      0x00\n      dup1\n      revert\n        /* \"1.\\xe6\\x95\\xb0\\xe6\\x8d\\xae\\xe7\\xb1\\xbb\\xe5\\x9e\\x8b/ch6-\\xe6\\x9e\\x9a\\xe4\\xb8\\xbe\\xe7\\xb1\\xbb\\xe5\\x9e\\x8b/index.sol\":390:472  function getChoice() public view returns (ActionChoices) {... */\n    tag_3:\n      tag_5\n      tag_6\n      jump\t// in\n    tag_5:\n      mload(0x40)\n      tag_7\n      swap2\n      swap1\n      tag_8\n      jump\t// in\n    tag_7:\n      mload(0x40)\n      dup1\n      swap2\n      sub\n      swap1\n      return\n        /* \"1.\\xe6\\x95\\xb0\\xe6\\x8d\\xae\\xe7\\xb1\\xbb\\xe5\\x9e\\x8b/ch6-\\xe6\\x9e\\x9a\\xe4\\xb8\\xbe\\xe7\\xb1\\xbb\\xe5\\x9e\\x8b/index.sol\":256:306  ActionChoices public choice = ActionChoices.GoDown */\n    tag_4:\n      tag_9\n      tag_10\n      jump\t// in\n    tag_9:\n      mload(0x40)\n      tag_11\n      swap2\n      swap1\n      tag_8\n      jump\t// in\n    tag_11:\n      mload(0x40)\n      dup1\n      swap2\n      sub\n      swap1\n      return\n        /* \"1.\\xe6\\x95\\xb0\\xe6\\x8d\\xae\\xe7\\xb1\\xbb\\xe5\\x9e\\x8b/ch6-\\xe6\\x9e\\x9a\\xe4\\xb8\\xbe\\xe7\\xb1\\xbb\\xe5\\x9e\\x8b/index.sol\":390:472  function getChoice() public view returns (ActionChoices) {... */\n    tag_6:\n        /* \"1.\\xe6\\x95\\xb0\\xe6\\x8d\\xae\\xe7\\xb1\\xbb\\xe5\\x9e\\x8b/ch6-\\xe6\\x9e\\x9a\\xe4\\xb8\\xbe\\xe7\\xb1\\xbb\\xe5\\x9e\\x8b/index.sol\":432:445  ActionChoices */\n      0x00\n        /* \"1.\\xe6\\x95\\xb0\\xe6\\x8d\\xae\\xe7\\xb1\\xbb\\xe5\\x9e\\x8b/ch6-\\xe6\\x9e\\x9a\\xe4\\xb8\\xbe\\xe7\\xb1\\xbb\\xe5\\x9e\\x8b/index.sol\":460:467  choice1 */\n      dup1\n      0x01\n      swap1\n      sload\n      swap1\n      0x0100\n      exp\n      swap1\n      div\n      0xff\n      and\n        /* \"1.\\xe6\\x95\\xb0\\xe6\\x8d\\xae\\xe7\\xb1\\xbb\\xe5\\x9e\\x8b/ch6-\\xe6\\x9e\\x9a\\xe4\\xb8\\xbe\\xe7\\xb1\\xbb\\xe5\\x9e\\x8b/index.sol\":453:467  return choice1 */\n      swap1\n      pop\n        /* \"1.\\xe6\\x95\\xb0\\xe6\\x8d\\xae\\xe7\\xb1\\xbb\\xe5\\x9e\\x8b/ch6-\\xe6\\x9e\\x9a\\xe4\\xb8\\xbe\\xe7\\xb1\\xbb\\xe5\\x9e\\x8b/index.sol\":390:472  function getChoice() public view returns (ActionChoices) {... */\n      swap1\n      jump\t// out\n        /* \"1.\\xe6\\x95\\xb0\\xe6\\x8d\\xae\\xe7\\xb1\\xbb\\xe5\\x9e\\x8b/ch6-\\xe6\\x9e\\x9a\\xe4\\xb8\\xbe\\xe7\\xb1\\xbb\\xe5\\x9e\\x8b/index.sol\":256:306  ActionChoices public choice = ActionChoices.GoDown */\n    tag_10:\n      0x00\n      dup1\n      sload\n      swap1\n      0x0100\n      exp\n      swap1\n      div\n      0xff\n      and\n      dup2\n      jump\t// out\n        /* \"#utility.yul\":7:164   */\n    tag_14:\n        /* \"#utility.yul\":107:157   */\n      tag_16\n        /* \"#utility.yul\":151:156   */\n      dup2\n        /* \"#utility.yul\":107:157   */\n      tag_17\n      jump\t// in\n    tag_16:\n        /* \"#utility.yul\":102:105   */\n      dup3\n        /* \"#utility.yul\":95:158   */\n      mstore\n        /* \"#utility.yul\":7:164   */\n      pop\n      pop\n      jump\t// out\n        /* \"#utility.yul\":170:418   */\n    tag_8:\n        /* \"#utility.yul\":276:280   */\n      0x00\n        /* \"#utility.yul\":314:316   */\n      0x20\n        /* \"#utility.yul\":303:312   */\n      dup3\n        /* \"#utility.yul\":299:317   */\n      add\n        /* \"#utility.yul\":291:317   */\n      swap1\n      pop\n        /* \"#utility.yul\":327:411   */\n      tag_19\n        /* \"#utility.yul\":408:409   */\n      0x00\n        /* \"#utility.yul\":397:406   */\n      dup4\n        /* \"#utility.yul\":393:410   */\n      add\n        /* \"#utility.yul\":384:390   */\n      dup5\n        /* \"#utility.yul\":327:411   */\n      tag_14\n      jump\t// in\n    tag_19:\n        /* \"#utility.yul\":170:418   */\n      swap3\n      swap2\n      pop\n      pop\n      jump\t// out\n        /* \"#utility.yul\":424:565   */\n    tag_20:\n        /* \"#utility.yul\":476:483   */\n      0x00\n        /* \"#utility.yul\":505:510   */\n      dup2\n        /* \"#utility.yul\":494:510   */\n      swap1\n      pop\n        /* \"#utility.yul\":511:559   */\n      tag_22\n        /* \"#utility.yul\":553:558   */\n      dup3\n        /* \"#utility.yul\":511:559   */\n      tag_23\n      jump\t// in\n    tag_22:\n        /* \"#utility.yul\":424:565   */\n      swap2\n      swap1\n      pop\n      jump\t// out\n        /* \"#utility.yul\":571:712   */\n    tag_17:\n        /* \"#utility.yul\":634:643   */\n      0x00\n        /* \"#utility.yul\":667:706   */\n      tag_25\n        /* \"#utility.yul\":700:705   */\n      dup3\n        /* \"#utility.yul\":667:706   */\n      tag_20\n      jump\t// in\n    tag_25:\n        /* \"#utility.yul\":654:706   */\n      swap1\n      pop\n        /* \"#utility.yul\":571:712   */\n      swap2\n      swap1\n      pop\n      jump\t// out\n        /* \"#utility.yul\":718:898   */\n    tag_26:\n        /* \"#utility.yul\":766:843   */\n      0x4e487b7100000000000000000000000000000000000000000000000000000000\n        /* \"#utility.yul\":763:764   */\n      0x00\n        /* \"#utility.yul\":756:844   */\n      mstore\n        /* \"#utility.yul\":863:867   */\n      0x21\n        /* \"#utility.yul\":860:861   */\n      0x04\n        /* \"#utility.yul\":853:868   */\n      mstore\n        /* \"#utility.yul\":887:891   */\n      0x24\n        /* \"#utility.yul\":884:885   */\n      0x00\n        /* \"#utility.yul\":877:892   */\n      revert\n        /* \"#utility.yul\":904:1024   */\n    tag_23:\n        /* \"#utility.yul\":992:993   */\n      0x04\n        /* \"#utility.yul\":985:990   */\n      dup2\n        /* \"#utility.yul\":982:994   */\n      lt\n        /* \"#utility.yul\":972:1018   */\n      tag_29\n      jumpi\n        /* \"#utility.yul\":998:1016   */\n      tag_30\n      tag_26\n      jump\t// in\n    tag_30:\n        /* \"#utility.yul\":972:1018   */\n    tag_29:\n        /* \"#utility.yul\":904:1024   */\n      pop\n      jump\t// out\n\n    auxdata: 0xa264697066735822122021895f2123aa191e83e86a4a00fd7eac99f60ffe722d24b68f8f7b421a2b0e2264736f6c63430008070033\n}\n",
				"bytecode": {
					"linkReferences": {},
					"object": "608060405260036000806101000a81548160ff0219169083600381111561002957610028610040565b5b021790555034801561003a57600080fd5b5061006f565b7f4e487b7100000000000000000000000000000000000000000000000000000000600052602160045260246000fd5b6101668061007e6000396000f3fe608060405234801561001057600080fd5b50600436106100365760003560e01c806367cb61b61461003b57806398f42fe314610059575b600080fd5b610043610077565b60405161005091906100ad565b60405180910390f35b61006161008d565b60405161006e91906100ad565b60405180910390f35b60008060019054906101000a900460ff16905090565b60008054906101000a900460ff1681565b6100a7816100db565b82525050565b60006020820190506100c2600083018461009e565b92915050565b60008190506100d68261011c565b919050565b60006100e6826100c8565b9050919050565b7f4e487b7100000000000000000000000000000000000000000000000000000000600052602160045260246000fd5b6004811061012d5761012c6100ed565b5b5056fea264697066735822122021895f2123aa191e83e86a4a00fd7eac99f60ffe722d24b68f8f7b421a2b0e2264736f6c63430008070033",
					"opcodes": "PUSH1 0x80 PUSH1 0x40 MSTORE PUSH1 0x3 PUSH1 0x0 DUP1 PUSH2 0x100 EXP DUP2 SLOAD DUP2 PUSH1 0xFF MUL NOT AND SWAP1 DUP4 PUSH1 0x3 DUP2 GT ISZERO PUSH2 0x29 JUMPI PUSH2 0x28 PUSH2 0x40 JUMP JUMPDEST JUMPDEST MUL OR SWAP1 SSTORE POP CALLVALUE DUP1 ISZERO PUSH2 0x3A JUMPI PUSH1 0x0 DUP1 REVERT JUMPDEST POP PUSH2 0x6F JUMP JUMPDEST PUSH32 0x4E487B7100000000000000000000000000000000000000000000000000000000 PUSH1 0x0 MSTORE PUSH1 0x21 PUSH1 0x4 MSTORE PUSH1 0x24 PUSH1 0x0 REVERT JUMPDEST PUSH2 0x166 DUP1 PUSH2 0x7E PUSH1 0x0 CODECOPY PUSH1 0x0 RETURN INVALID PUSH1 0x80 PUSH1 0x40 MSTORE CALLVALUE DUP1 ISZERO PUSH2 0x10 JUMPI PUSH1 0x0 DUP1 REVERT JUMPDEST POP PUSH1 0x4 CALLDATASIZE LT PUSH2 0x36 JUMPI PUSH1 0x0 CALLDATALOAD PUSH1 0xE0 SHR DUP1 PUSH4 0x67CB61B6 EQ PUSH2 0x3B JUMPI DUP1 PUSH4 0x98F42FE3 EQ PUSH2 0x59 JUMPI JUMPDEST PUSH1 0x0 DUP1 REVERT JUMPDEST PUSH2 0x43 PUSH2 0x77 JUMP JUMPDEST PUSH1 0x40 MLOAD PUSH2 0x50 SWAP2 SWAP1 PUSH2 0xAD JUMP JUMPDEST PUSH1 0x40 MLOAD DUP1 SWAP2 SUB SWAP1 RETURN JUMPDEST PUSH2 0x61 PUSH2 0x8D JUMP JUMPDEST PUSH1 0x40 MLOAD PUSH2 0x6E SWAP2 SWAP1 PUSH2 0xAD JUMP JUMPDEST PUSH1 0x40 MLOAD DUP1 SWAP2 SUB SWAP1 RETURN JUMPDEST PUSH1 0x0 DUP1 PUSH1 0x1 SWAP1 SLOAD SWAP1 PUSH2 0x100 EXP SWAP1 DIV PUSH1 0xFF AND SWAP1 POP SWAP1 JUMP JUMPDEST PUSH1 0x0 DUP1 SLOAD SWAP1 PUSH2 0x100 EXP SWAP1 DIV PUSH1 0xFF AND DUP2 JUMP JUMPDEST PUSH2 0xA7 DUP2 PUSH2 0xDB JUMP JUMPDEST DUP3 MSTORE POP POP JUMP JUMPDEST PUSH1 0x0 PUSH1 0x20 DUP3 ADD SWAP1 POP PUSH2 0xC2 PUSH1 0x0 DUP4 ADD DUP5 PUSH2 0x9E JUMP JUMPDEST SWAP3 SWAP2 POP POP JUMP JUMPDEST PUSH1 0x0 DUP2 SWAP1 POP PUSH2 0xD6 DUP3 PUSH2 0x11C JUMP JUMPDEST SWAP2 SWAP1 POP JUMP JUMPDEST PUSH1 0x0 PUSH2 0xE6 DUP3 PUSH2 0xC8 JUMP JUMPDEST SWAP1 POP SWAP2 SWAP1 POP JUMP JUMPDEST PUSH32 0x4E487B7100000000000000000000000000000000000000000000000000000000 PUSH1 0x0 MSTORE PUSH1 0x21 PUSH1 0x4 MSTORE PUSH1 0x24 PUSH1 0x0 REVERT JUMPDEST PUSH1 0x4 DUP2 LT PUSH2 0x12D JUMPI PUSH2 0x12C PUSH2 0xED JUMP JUMPDEST JUMPDEST POP JUMP INVALID LOG2 PUSH5 0x6970667358 0x22 SLT KECCAK256 0x21 DUP10 0x5F 0x21 0x23 0xAA NOT 0x1E DUP4 0xE8 PUSH11 0x4A00FD7EAC99F60FFE722D 0x24 0xB6 DUP16 DUP16 PUSH28 0x421A2B0E2264736F6C63430008070033000000000000000000000000 "
				},
				"gasEstimates": {
					"creation": {
						"codeDepositCost": "71600",
						"executionCost": "24422",
						"totalCost": "96022"
					},
					"external": {
						"choice()": "2557",
						"getChoice()": "2596"
					}
				},
				"methodIdentifiers": {
					"choice()": "98f42fe3",
					"getChoice()": "67cb61b6"
				}
			},
			"storageLayout": {
				"storage": [
					{
						"astId": 11,
						"contract": "1.数据类型/ch6-枚举类型/index.sol:Enumtype",
						"label": "choice",
						"offset": 0,
						"slot": "0",
						"type": "t_enum(ActionChoices)6"
					},
					{
						"astId": 14,
						"contract": "1.数据类型/ch6-枚举类型/index.sol:Enumtype",
						"label": "choice1",
						"offset": 1,
						"slot": "0",
						"type": "t_enum(ActionChoices)6"
					}
				],
				"types": {
					"t_enum(ActionChoices)6": {
						"encoding": "inplace",
						"label": "enum Enumtype.ActionChoices",
						"numberOfBytes": "1"
					}
				}
			},
			"userdoc": {
				"kind": "user",
				"methods": {},
				"version": 1
			}
		}
	}
}