{
	"StudyPackage/Solidity/3.合约实战/众筹合约/index.sol": {
		"CrowdFunding": {
			"abi": [
				{
					"inputs": [
						{
							"internalType": "address",
							"name": "beneficiary_",
							"type": "address"
						},
						{
							"internalType": "uint256",
							"name": "goal_",
							"type": "uint256"
						}
					],
					"stateMutability": "nonpayable",
					"type": "constructor"
				},
				{
					"inputs": [],
					"name": "AVAILABLED",
					"outputs": [
						{
							"internalType": "bool",
							"name": "",
							"type": "bool"
						}
					],
					"stateMutability": "view",
					"type": "function"
				},
				{
					"inputs": [],
					"name": "beneficiary",
					"outputs": [
						{
							"internalType": "address",
							"name": "",
							"type": "address"
						}
					],
					"stateMutability": "view",
					"type": "function"
				},
				{
					"inputs": [],
					"name": "close",
					"outputs": [
						{
							"internalType": "bool",
							"name": "",
							"type": "bool"
						}
					],
					"stateMutability": "nonpayable",
					"type": "function"
				},
				{
					"inputs": [],
					"name": "contribute",
					"outputs": [],
					"stateMutability": "payable",
					"type": "function"
				},
				{
					"inputs": [
						{
							"internalType": "address",
							"name": "",
							"type": "address"
						}
					],
					"name": "funders",
					"outputs": [
						{
							"internalType": "uint256",
							"name": "",
							"type": "uint256"
						}
					],
					"stateMutability": "view",
					"type": "function"
				},
				{
					"inputs": [
						{
							"internalType": "uint256",
							"name": "",
							"type": "uint256"
						}
					],
					"name": "fundersKey",
					"outputs": [
						{
							"internalType": "address",
							"name": "",
							"type": "address"
						}
					],
					"stateMutability": "view",
					"type": "function"
				},
				{
					"inputs": [],
					"name": "fundersLenght",
					"outputs": [
						{
							"internalType": "uint256",
							"name": "",
							"type": "uint256"
						}
					],
					"stateMutability": "view",
					"type": "function"
				},
				{
					"inputs": [],
					"name": "fundingAmount",
					"outputs": [
						{
							"internalType": "uint256",
							"name": "",
							"type": "uint256"
						}
					],
					"stateMutability": "view",
					"type": "function"
				},
				{
					"inputs": [],
					"name": "fundingGoal",
					"outputs": [
						{
							"internalType": "uint256",
							"name": "",
							"type": "uint256"
						}
					],
					"stateMutability": "view",
					"type": "function"
				}
			],
			"devdoc": {
				"kind": "dev",
				"methods": {},
				"version": 1
			},
			"evm": {
				"assembly": "    /* \"StudyPackage/Solidity/3.\\xe5\\x90\\x88\\xe7\\xba\\xa6\\xe5\\xae\\x9e\\xe6\\x88\\x98/\\xe4\\xbc\\x97\\xe7\\xad\\xb9\\xe5\\x90\\x88\\xe7\\xba\\xa6/index.sol\":56:2380  contract CrowdFunding {... */\n  mstore(0x40, 0xc0)\n    /* \"StudyPackage/Solidity/3.\\xe5\\x90\\x88\\xe7\\xba\\xa6\\xe5\\xae\\x9e\\xe6\\x88\\x98/\\xe4\\xbc\\x97\\xe7\\xad\\xb9\\xe5\\x90\\x88\\xe7\\xba\\xa6/index.sol\":534:538  true */\n  0x01\n    /* \"StudyPackage/Solidity/3.\\xe5\\x90\\x88\\xe7\\xba\\xa6\\xe5\\xae\\x9e\\xe6\\x88\\x98/\\xe4\\xbc\\x97\\xe7\\xad\\xb9\\xe5\\x90\\x88\\xe7\\xba\\xa6/index.sol\":509:538  bool public AVAILABLED = true */\n  0x04\n  exp(0x0100, 0x00)\n  dup2\n  sload\n  dup2\n  0xff\n  mul\n  not\n  and\n  swap1\n  dup4\n  iszero\n  iszero\n  mul\n  or\n  swap1\n  sstore\n  pop\n    /* \"StudyPackage/Solidity/3.\\xe5\\x90\\x88\\xe7\\xba\\xa6\\xe5\\xae\\x9e\\xe6\\x88\\x98/\\xe4\\xbc\\x97\\xe7\\xad\\xb9\\xe5\\x90\\x88\\xe7\\xba\\xa6/index.sol\":614:735  constructor(address beneficiary_, uint256 goal_) {... */\n  callvalue\n  dup1\n  iszero\n  tag_1\n  jumpi\n  0x00\n  dup1\n  revert\ntag_1:\n  pop\n  mload(0x40)\n  sub(codesize, bytecodeSize)\n  dup1\n  bytecodeSize\n  dup4\n  codecopy\n  dup2\n  dup2\n  add\n  0x40\n  mstore\n  dup2\n  add\n  swap1\n  tag_2\n  swap2\n  swap1\n  tag_3\n  jump\t// in\ntag_2:\n    /* \"StudyPackage/Solidity/3.\\xe5\\x90\\x88\\xe7\\xba\\xa6\\xe5\\xae\\x9e\\xe6\\x88\\x98/\\xe4\\xbc\\x97\\xe7\\xad\\xb9\\xe5\\x90\\x88\\xe7\\xba\\xa6/index.sol\":687:699  beneficiary_ */\n  dup2\n    /* \"StudyPackage/Solidity/3.\\xe5\\x90\\x88\\xe7\\xba\\xa6\\xe5\\xae\\x9e\\xe6\\x88\\x98/\\xe4\\xbc\\x97\\xe7\\xad\\xb9\\xe5\\x90\\x88\\xe7\\xba\\xa6/index.sol\":673:699  beneficiary = beneficiary_ */\n  0xffffffffffffffffffffffffffffffffffffffff\n  and\n  0x80\n  dup2\n  0xffffffffffffffffffffffffffffffffffffffff\n  and\n  0x60\n  shl\n  dup2\n  mstore\n  pop\n  pop\n    /* \"StudyPackage/Solidity/3.\\xe5\\x90\\x88\\xe7\\xba\\xa6\\xe5\\xae\\x9e\\xe6\\x88\\x98/\\xe4\\xbc\\x97\\xe7\\xad\\xb9\\xe5\\x90\\x88\\xe7\\xba\\xa6/index.sol\":723:728  goal_ */\n  dup1\n    /* \"StudyPackage/Solidity/3.\\xe5\\x90\\x88\\xe7\\xba\\xa6\\xe5\\xae\\x9e\\xe6\\x88\\x98/\\xe4\\xbc\\x97\\xe7\\xad\\xb9\\xe5\\x90\\x88\\xe7\\xba\\xa6/index.sol\":709:728  fundingGoal = goal_ */\n  0xa0\n  dup2\n  dup2\n  mstore\n  pop\n  pop\n    /* \"StudyPackage/Solidity/3.\\xe5\\x90\\x88\\xe7\\xba\\xa6\\xe5\\xae\\x9e\\xe6\\x88\\x98/\\xe4\\xbc\\x97\\xe7\\xad\\xb9\\xe5\\x90\\x88\\xe7\\xba\\xa6/index.sol\":614:735  constructor(address beneficiary_, uint256 goal_) {... */\n  pop\n  pop\n    /* \"StudyPackage/Solidity/3.\\xe5\\x90\\x88\\xe7\\xba\\xa6\\xe5\\xae\\x9e\\xe6\\x88\\x98/\\xe4\\xbc\\x97\\xe7\\xad\\xb9\\xe5\\x90\\x88\\xe7\\xba\\xa6/index.sol\":56:2380  contract CrowdFunding {... */\n  jump(tag_6)\n    /* \"#utility.yul\":7:150   */\ntag_8:\n    /* \"#utility.yul\":64:69   */\n  0x00\n    /* \"#utility.yul\":95:101   */\n  dup2\n    /* \"#utility.yul\":89:102   */\n  mload\n    /* \"#utility.yul\":80:102   */\n  swap1\n  pop\n    /* \"#utility.yul\":111:144   */\n  tag_10\n    /* \"#utility.yul\":138:143   */\n  dup2\n    /* \"#utility.yul\":111:144   */\n  tag_11\n  jump\t// in\ntag_10:\n    /* \"#utility.yul\":7:150   */\n  swap3\n  swap2\n  pop\n  pop\n  jump\t// out\n    /* \"#utility.yul\":156:299   */\ntag_12:\n    /* \"#utility.yul\":213:218   */\n  0x00\n    /* \"#utility.yul\":244:250   */\n  dup2\n    /* \"#utility.yul\":238:251   */\n  mload\n    /* \"#utility.yul\":229:251   */\n  swap1\n  pop\n    /* \"#utility.yul\":260:293   */\n  tag_14\n    /* \"#utility.yul\":287:292   */\n  dup2\n    /* \"#utility.yul\":260:293   */\n  tag_15\n  jump\t// in\ntag_14:\n    /* \"#utility.yul\":156:299   */\n  swap3\n  swap2\n  pop\n  pop\n  jump\t// out\n    /* \"#utility.yul\":305:812   */\ntag_3:\n    /* \"#utility.yul\":384:390   */\n  0x00\n    /* \"#utility.yul\":392:398   */\n  dup1\n    /* \"#utility.yul\":441:443   */\n  0x40\n    /* \"#utility.yul\":429:438   */\n  dup4\n    /* \"#utility.yul\":420:427   */\n  dup6\n    /* \"#utility.yul\":416:439   */\n  sub\n    /* \"#utility.yul\":412:444   */\n  slt\n    /* \"#utility.yul\":409:528   */\n  iszero\n  tag_17\n  jumpi\n    /* \"#utility.yul\":447:526   */\n  tag_18\n  tag_19\n  jump\t// in\ntag_18:\n    /* \"#utility.yul\":409:528   */\ntag_17:\n    /* \"#utility.yul\":567:568   */\n  0x00\n    /* \"#utility.yul\":592:656   */\n  tag_20\n    /* \"#utility.yul\":648:655   */\n  dup6\n    /* \"#utility.yul\":639:645   */\n  dup3\n    /* \"#utility.yul\":628:637   */\n  dup7\n    /* \"#utility.yul\":624:646   */\n  add\n    /* \"#utility.yul\":592:656   */\n  tag_8\n  jump\t// in\ntag_20:\n    /* \"#utility.yul\":582:656   */\n  swap3\n  pop\n    /* \"#utility.yul\":538:666   */\n  pop\n    /* \"#utility.yul\":705:707   */\n  0x20\n    /* \"#utility.yul\":731:795   */\n  tag_21\n    /* \"#utility.yul\":787:794   */\n  dup6\n    /* \"#utility.yul\":778:784   */\n  dup3\n    /* \"#utility.yul\":767:776   */\n  dup7\n    /* \"#utility.yul\":763:785   */\n  add\n    /* \"#utility.yul\":731:795   */\n  tag_12\n  jump\t// in\ntag_21:\n    /* \"#utility.yul\":721:795   */\n  swap2\n  pop\n    /* \"#utility.yul\":676:805   */\n  pop\n    /* \"#utility.yul\":305:812   */\n  swap3\n  pop\n  swap3\n  swap1\n  pop\n  jump\t// out\n    /* \"#utility.yul\":899:995   */\ntag_24:\n    /* \"#utility.yul\":936:943   */\n  0x00\n    /* \"#utility.yul\":965:989   */\n  tag_26\n    /* \"#utility.yul\":983:988   */\n  dup3\n    /* \"#utility.yul\":965:989   */\n  tag_27\n  jump\t// in\ntag_26:\n    /* \"#utility.yul\":954:989   */\n  swap1\n  pop\n    /* \"#utility.yul\":899:995   */\n  swap2\n  swap1\n  pop\n  jump\t// out\n    /* \"#utility.yul\":1001:1127   */\ntag_27:\n    /* \"#utility.yul\":1038:1045   */\n  0x00\n    /* \"#utility.yul\":1078:1120   */\n  0xffffffffffffffffffffffffffffffffffffffff\n    /* \"#utility.yul\":1071:1076   */\n  dup3\n    /* \"#utility.yul\":1067:1121   */\n  and\n    /* \"#utility.yul\":1056:1121   */\n  swap1\n  pop\n    /* \"#utility.yul\":1001:1127   */\n  swap2\n  swap1\n  pop\n  jump\t// out\n    /* \"#utility.yul\":1133:1210   */\ntag_29:\n    /* \"#utility.yul\":1170:1177   */\n  0x00\n    /* \"#utility.yul\":1199:1204   */\n  dup2\n    /* \"#utility.yul\":1188:1204   */\n  swap1\n  pop\n    /* \"#utility.yul\":1133:1210   */\n  swap2\n  swap1\n  pop\n  jump\t// out\n    /* \"#utility.yul\":1339:1456   */\ntag_19:\n    /* \"#utility.yul\":1448:1449   */\n  0x00\n    /* \"#utility.yul\":1445:1446   */\n  dup1\n    /* \"#utility.yul\":1438:1450   */\n  revert\n    /* \"#utility.yul\":1462:1584   */\ntag_11:\n    /* \"#utility.yul\":1535:1559   */\n  tag_35\n    /* \"#utility.yul\":1553:1558   */\n  dup2\n    /* \"#utility.yul\":1535:1559   */\n  tag_24\n  jump\t// in\ntag_35:\n    /* \"#utility.yul\":1528:1533   */\n  dup2\n    /* \"#utility.yul\":1525:1560   */\n  eq\n    /* \"#utility.yul\":1515:1578   */\n  tag_36\n  jumpi\n    /* \"#utility.yul\":1574:1575   */\n  0x00\n    /* \"#utility.yul\":1571:1572   */\n  dup1\n    /* \"#utility.yul\":1564:1576   */\n  revert\n    /* \"#utility.yul\":1515:1578   */\ntag_36:\n    /* \"#utility.yul\":1462:1584   */\n  pop\n  jump\t// out\n    /* \"#utility.yul\":1590:1712   */\ntag_15:\n    /* \"#utility.yul\":1663:1687   */\n  tag_38\n    /* \"#utility.yul\":1681:1686   */\n  dup2\n    /* \"#utility.yul\":1663:1687   */\n  tag_29\n  jump\t// in\ntag_38:\n    /* \"#utility.yul\":1656:1661   */\n  dup2\n    /* \"#utility.yul\":1653:1688   */\n  eq\n    /* \"#utility.yul\":1643:1706   */\n  tag_39\n  jumpi\n    /* \"#utility.yul\":1702:1703   */\n  0x00\n    /* \"#utility.yul\":1699:1700   */\n  dup1\n    /* \"#utility.yul\":1692:1704   */\n  revert\n    /* \"#utility.yul\":1643:1706   */\ntag_39:\n    /* \"#utility.yul\":1590:1712   */\n  pop\n  jump\t// out\n    /* \"StudyPackage/Solidity/3.\\xe5\\x90\\x88\\xe7\\xba\\xa6\\xe5\\xae\\x9e\\xe6\\x88\\x98/\\xe4\\xbc\\x97\\xe7\\xad\\xb9\\xe5\\x90\\x88\\xe7\\xba\\xa6/index.sol\":56:2380  contract CrowdFunding {... */\ntag_6:\n  shr(0x60, mload(0x80))\n  mload(0xa0)\n  codecopy(0x00, dataOffset(sub_0), dataSize(sub_0))\n  0x00\n  assignImmutable(\"0xceebf77a833b30520287ddd9478ff51abbdffa30aa90a8d655dba0e8a79ce0c1\")\n  0x00\n  assignImmutable(\"0x2a80e1ef1d7842f27f2e6be0972bb708b9a135c38860dbe73c27c3486c34f4de\")\n  return(0x00, dataSize(sub_0))\nstop\n\nsub_0: assembly {\n        /* \"StudyPackage/Solidity/3.\\xe5\\x90\\x88\\xe7\\xba\\xa6\\xe5\\xae\\x9e\\xe6\\x88\\x98/\\xe4\\xbc\\x97\\xe7\\xad\\xb9\\xe5\\x90\\x88\\xe7\\xba\\xa6/index.sol\":56:2380  contract CrowdFunding {... */\n      mstore(0x40, 0x80)\n      jumpi(tag_1, lt(calldatasize, 0x04))\n      shr(0xe0, calldataload(0x00))\n      dup1\n      0x7a3a0e84\n      gt\n      tag_11\n      jumpi\n      dup1\n      0x7a3a0e84\n      eq\n      tag_6\n      jumpi\n      dup1\n      0x8625749f\n      eq\n      tag_7\n      jumpi\n      dup1\n      0xd7ac1677\n      eq\n      tag_8\n      jumpi\n      dup1\n      0xd7bb99ba\n      eq\n      tag_9\n      jumpi\n      dup1\n      0xf781fbcc\n      eq\n      tag_10\n      jumpi\n      jump(tag_1)\n    tag_11:\n      dup1\n      0x031b3677\n      eq\n      tag_2\n      jumpi\n      dup1\n      0x04a79c97\n      eq\n      tag_3\n      jumpi\n      dup1\n      0x38af3eed\n      eq\n      tag_4\n      jumpi\n      dup1\n      0x43d726d6\n      eq\n      tag_5\n      jumpi\n    tag_1:\n      0x00\n      dup1\n      revert\n        /* \"StudyPackage/Solidity/3.\\xe5\\x90\\x88\\xe7\\xba\\xa6\\xe5\\xae\\x9e\\xe6\\x88\\x98/\\xe4\\xbc\\x97\\xe7\\xad\\xb9\\xe5\\x90\\x88\\xe7\\xba\\xa6/index.sol\":257:299  mapping(address => uint256) public funders */\n    tag_2:\n      callvalue\n      dup1\n      iszero\n      tag_12\n      jumpi\n      0x00\n      dup1\n      revert\n    tag_12:\n      pop\n      tag_13\n      0x04\n      dup1\n      calldatasize\n      sub\n      dup2\n      add\n      swap1\n      tag_14\n      swap2\n      swap1\n      tag_15\n      jump\t// in\n    tag_14:\n      tag_16\n      jump\t// in\n    tag_13:\n      mload(0x40)\n      tag_17\n      swap2\n      swap1\n      tag_18\n      jump\t// in\n    tag_17:\n      mload(0x40)\n      dup1\n      swap2\n      sub\n      swap1\n      return\n        /* \"StudyPackage/Solidity/3.\\xe5\\x90\\x88\\xe7\\xba\\xa6\\xe5\\xae\\x9e\\xe6\\x88\\x98/\\xe4\\xbc\\x97\\xe7\\xad\\xb9\\xe5\\x90\\x88\\xe7\\xba\\xa6/index.sol\":203:231  uint256 public fundingAmount */\n    tag_3:\n      callvalue\n      dup1\n      iszero\n      tag_19\n      jumpi\n      0x00\n      dup1\n      revert\n    tag_19:\n      pop\n      tag_20\n      tag_21\n      jump\t// in\n    tag_20:\n      mload(0x40)\n      tag_22\n      swap2\n      swap1\n      tag_18\n      jump\t// in\n    tag_22:\n      mload(0x40)\n      dup1\n      swap2\n      sub\n      swap1\n      return\n        /* \"StudyPackage/Solidity/3.\\xe5\\x90\\x88\\xe7\\xba\\xa6\\xe5\\xae\\x9e\\xe6\\x88\\x98/\\xe4\\xbc\\x97\\xe7\\xad\\xb9\\xe5\\x90\\x88\\xe7\\xba\\xa6/index.sol\":84:120  address public immutable beneficiary */\n    tag_4:\n      callvalue\n      dup1\n      iszero\n      tag_23\n      jumpi\n      0x00\n      dup1\n      revert\n    tag_23:\n      pop\n      tag_24\n      tag_25\n      jump\t// in\n    tag_24:\n      mload(0x40)\n      tag_26\n      swap2\n      swap1\n      tag_27\n      jump\t// in\n    tag_26:\n      mload(0x40)\n      dup1\n      swap2\n      sub\n      swap1\n      return\n        /* \"StudyPackage/Solidity/3.\\xe5\\x90\\x88\\xe7\\xba\\xa6\\xe5\\xae\\x9e\\xe6\\x88\\x98/\\xe4\\xbc\\x97\\xe7\\xad\\xb9\\xe5\\x90\\x88\\xe7\\xba\\xa6/index.sol\":1922:2276  function close() external returns (bool) {... */\n    tag_5:\n      callvalue\n      dup1\n      iszero\n      tag_28\n      jumpi\n      0x00\n      dup1\n      revert\n    tag_28:\n      pop\n      tag_29\n      tag_30\n      jump\t// in\n    tag_29:\n      mload(0x40)\n      tag_31\n      swap2\n      swap1\n      tag_32\n      jump\t// in\n    tag_31:\n      mload(0x40)\n      dup1\n      swap2\n      sub\n      swap1\n      return\n        /* \"StudyPackage/Solidity/3.\\xe5\\x90\\x88\\xe7\\xba\\xa6\\xe5\\xae\\x9e\\xe6\\x88\\x98/\\xe4\\xbc\\x97\\xe7\\xad\\xb9\\xe5\\x90\\x88\\xe7\\xba\\xa6/index.sol\":139:175  uint256 public immutable fundingGoal */\n    tag_6:\n      callvalue\n      dup1\n      iszero\n      tag_33\n      jumpi\n      0x00\n      dup1\n      revert\n    tag_33:\n      pop\n      tag_34\n      tag_35\n      jump\t// in\n    tag_34:\n      mload(0x40)\n      tag_36\n      swap2\n      swap1\n      tag_18\n      jump\t// in\n    tag_36:\n      mload(0x40)\n      dup1\n      swap2\n      sub\n      swap1\n      return\n        /* \"StudyPackage/Solidity/3.\\xe5\\x90\\x88\\xe7\\xba\\xa6\\xe5\\xae\\x9e\\xe6\\x88\\x98/\\xe4\\xbc\\x97\\xe7\\xad\\xb9\\xe5\\x90\\x88\\xe7\\xba\\xa6/index.sol\":2282:2378  function fundersLenght() public view returns (uint256) {... */\n    tag_7:\n      callvalue\n      dup1\n      iszero\n      tag_37\n      jumpi\n      0x00\n      dup1\n      revert\n    tag_37:\n      pop\n      tag_38\n      tag_39\n      jump\t// in\n    tag_38:\n      mload(0x40)\n      tag_40\n      swap2\n      swap1\n      tag_18\n      jump\t// in\n    tag_40:\n      mload(0x40)\n      dup1\n      swap2\n      sub\n      swap1\n      return\n        /* \"StudyPackage/Solidity/3.\\xe5\\x90\\x88\\xe7\\xba\\xa6\\xe5\\xae\\x9e\\xe6\\x88\\x98/\\xe4\\xbc\\x97\\xe7\\xad\\xb9\\xe5\\x90\\x88\\xe7\\xba\\xa6/index.sol\":413:440  address[] public fundersKey */\n    tag_8:\n      callvalue\n      dup1\n      iszero\n      tag_41\n      jumpi\n      0x00\n      dup1\n      revert\n    tag_41:\n      pop\n      tag_42\n      0x04\n      dup1\n      calldatasize\n      sub\n      dup2\n      add\n      swap1\n      tag_43\n      swap2\n      swap1\n      tag_44\n      jump\t// in\n    tag_43:\n      tag_45\n      jump\t// in\n    tag_42:\n      mload(0x40)\n      tag_46\n      swap2\n      swap1\n      tag_27\n      jump\t// in\n    tag_46:\n      mload(0x40)\n      dup1\n      swap2\n      sub\n      swap1\n      return\n        /* \"StudyPackage/Solidity/3.\\xe5\\x90\\x88\\xe7\\xba\\xa6\\xe5\\xae\\x9e\\xe6\\x88\\x98/\\xe4\\xbc\\x97\\xe7\\xad\\xb9\\xe5\\x90\\x88\\xe7\\xba\\xa6/index.sol\":873:1902  function contribute() external payable {... */\n    tag_9:\n      tag_47\n      tag_48\n      jump\t// in\n    tag_47:\n      stop\n        /* \"StudyPackage/Solidity/3.\\xe5\\x90\\x88\\xe7\\xba\\xa6\\xe5\\xae\\x9e\\xe6\\x88\\x98/\\xe4\\xbc\\x97\\xe7\\xad\\xb9\\xe5\\x90\\x88\\xe7\\xba\\xa6/index.sol\":509:538  bool public AVAILABLED = true */\n    tag_10:\n      callvalue\n      dup1\n      iszero\n      tag_49\n      jumpi\n      0x00\n      dup1\n      revert\n    tag_49:\n      pop\n      tag_50\n      tag_51\n      jump\t// in\n    tag_50:\n      mload(0x40)\n      tag_52\n      swap2\n      swap1\n      tag_32\n      jump\t// in\n    tag_52:\n      mload(0x40)\n      dup1\n      swap2\n      sub\n      swap1\n      return\n        /* \"StudyPackage/Solidity/3.\\xe5\\x90\\x88\\xe7\\xba\\xa6\\xe5\\xae\\x9e\\xe6\\x88\\x98/\\xe4\\xbc\\x97\\xe7\\xad\\xb9\\xe5\\x90\\x88\\xe7\\xba\\xa6/index.sol\":257:299  mapping(address => uint256) public funders */\n    tag_16:\n      mstore(0x20, 0x01)\n      dup1\n      0x00\n      mstore\n      keccak256(0x00, 0x40)\n      0x00\n      swap2\n      pop\n      swap1\n      pop\n      sload\n      dup2\n      jump\t// out\n        /* \"StudyPackage/Solidity/3.\\xe5\\x90\\x88\\xe7\\xba\\xa6\\xe5\\xae\\x9e\\xe6\\x88\\x98/\\xe4\\xbc\\x97\\xe7\\xad\\xb9\\xe5\\x90\\x88\\xe7\\xba\\xa6/index.sol\":203:231  uint256 public fundingAmount */\n    tag_21:\n      sload(0x00)\n      dup2\n      jump\t// out\n        /* \"StudyPackage/Solidity/3.\\xe5\\x90\\x88\\xe7\\xba\\xa6\\xe5\\xae\\x9e\\xe6\\x88\\x98/\\xe4\\xbc\\x97\\xe7\\xad\\xb9\\xe5\\x90\\x88\\xe7\\xba\\xa6/index.sol\":84:120  address public immutable beneficiary */\n    tag_25:\n      immutable(\"0x2a80e1ef1d7842f27f2e6be0972bb708b9a135c38860dbe73c27c3486c34f4de\")\n      dup2\n      jump\t// out\n        /* \"StudyPackage/Solidity/3.\\xe5\\x90\\x88\\xe7\\xba\\xa6\\xe5\\xae\\x9e\\xe6\\x88\\x98/\\xe4\\xbc\\x97\\xe7\\xad\\xb9\\xe5\\x90\\x88\\xe7\\xba\\xa6/index.sol\":1922:2276  function close() external returns (bool) {... */\n    tag_30:\n        /* \"StudyPackage/Solidity/3.\\xe5\\x90\\x88\\xe7\\xba\\xa6\\xe5\\xae\\x9e\\xe6\\x88\\x98/\\xe4\\xbc\\x97\\xe7\\xad\\xb9\\xe5\\x90\\x88\\xe7\\xba\\xa6/index.sol\":1957:1961  bool */\n      0x00\n        /* \"StudyPackage/Solidity/3.\\xe5\\x90\\x88\\xe7\\xba\\xa6\\xe5\\xae\\x9e\\xe6\\x88\\x98/\\xe4\\xbc\\x97\\xe7\\xad\\xb9\\xe5\\x90\\x88\\xe7\\xba\\xa6/index.sol\":2014:2025  fundingGoal */\n      immutable(\"0xceebf77a833b30520287ddd9478ff51abbdffa30aa90a8d655dba0e8a79ce0c1\")\n        /* \"StudyPackage/Solidity/3.\\xe5\\x90\\x88\\xe7\\xba\\xa6\\xe5\\xae\\x9e\\xe6\\x88\\x98/\\xe4\\xbc\\x97\\xe7\\xad\\xb9\\xe5\\x90\\x88\\xe7\\xba\\xa6/index.sol\":1998:2011  fundingAmount */\n      sload(0x00)\n        /* \"StudyPackage/Solidity/3.\\xe5\\x90\\x88\\xe7\\xba\\xa6\\xe5\\xae\\x9e\\xe6\\x88\\x98/\\xe4\\xbc\\x97\\xe7\\xad\\xb9\\xe5\\x90\\x88\\xe7\\xba\\xa6/index.sol\":1998:2025  fundingAmount < fundingGoal */\n      lt\n        /* \"StudyPackage/Solidity/3.\\xe5\\x90\\x88\\xe7\\xba\\xa6\\xe5\\xae\\x9e\\xe6\\x88\\x98/\\xe4\\xbc\\x97\\xe7\\xad\\xb9\\xe5\\x90\\x88\\xe7\\xba\\xa6/index.sol\":1994:2064  if (fundingAmount < fundingGoal) {... */\n      iszero\n      tag_54\n      jumpi\n        /* \"StudyPackage/Solidity/3.\\xe5\\x90\\x88\\xe7\\xba\\xa6\\xe5\\xae\\x9e\\xe6\\x88\\x98/\\xe4\\xbc\\x97\\xe7\\xad\\xb9\\xe5\\x90\\x88\\xe7\\xba\\xa6/index.sol\":2048:2053  false */\n      0x00\n        /* \"StudyPackage/Solidity/3.\\xe5\\x90\\x88\\xe7\\xba\\xa6\\xe5\\xae\\x9e\\xe6\\x88\\x98/\\xe4\\xbc\\x97\\xe7\\xad\\xb9\\xe5\\x90\\x88\\xe7\\xba\\xa6/index.sol\":2041:2053  return false */\n      swap1\n      pop\n      jump(tag_53)\n        /* \"StudyPackage/Solidity/3.\\xe5\\x90\\x88\\xe7\\xba\\xa6\\xe5\\xae\\x9e\\xe6\\x88\\x98/\\xe4\\xbc\\x97\\xe7\\xad\\xb9\\xe5\\x90\\x88\\xe7\\xba\\xa6/index.sol\":1994:2064  if (fundingAmount < fundingGoal) {... */\n    tag_54:\n        /* \"StudyPackage/Solidity/3.\\xe5\\x90\\x88\\xe7\\xba\\xa6\\xe5\\xae\\x9e\\xe6\\x88\\x98/\\xe4\\xbc\\x97\\xe7\\xad\\xb9\\xe5\\x90\\x88\\xe7\\xba\\xa6/index.sol\":2074:2088  uint256 amount */\n      0x00\n        /* \"StudyPackage/Solidity/3.\\xe5\\x90\\x88\\xe7\\xba\\xa6\\xe5\\xae\\x9e\\xe6\\x88\\x98/\\xe4\\xbc\\x97\\xe7\\xad\\xb9\\xe5\\x90\\x88\\xe7\\xba\\xa6/index.sol\":2091:2104  fundingAmount */\n      dup1\n      sload\n        /* \"StudyPackage/Solidity/3.\\xe5\\x90\\x88\\xe7\\xba\\xa6\\xe5\\xae\\x9e\\xe6\\x88\\x98/\\xe4\\xbc\\x97\\xe7\\xad\\xb9\\xe5\\x90\\x88\\xe7\\xba\\xa6/index.sol\":2074:2104  uint256 amount = fundingAmount */\n      swap1\n      pop\n        /* \"StudyPackage/Solidity/3.\\xe5\\x90\\x88\\xe7\\xba\\xa6\\xe5\\xae\\x9e\\xe6\\x88\\x98/\\xe4\\xbc\\x97\\xe7\\xad\\xb9\\xe5\\x90\\x88\\xe7\\xba\\xa6/index.sol\":2150:2151  0 */\n      0x00\n        /* \"StudyPackage/Solidity/3.\\xe5\\x90\\x88\\xe7\\xba\\xa6\\xe5\\xae\\x9e\\xe6\\x88\\x98/\\xe4\\xbc\\x97\\xe7\\xad\\xb9\\xe5\\x90\\x88\\xe7\\xba\\xa6/index.sol\":2134:2147  fundingAmount */\n      dup1\n        /* \"StudyPackage/Solidity/3.\\xe5\\x90\\x88\\xe7\\xba\\xa6\\xe5\\xae\\x9e\\xe6\\x88\\x98/\\xe4\\xbc\\x97\\xe7\\xad\\xb9\\xe5\\x90\\x88\\xe7\\xba\\xa6/index.sol\":2134:2151  fundingAmount = 0 */\n      dup2\n      swap1\n      sstore\n      pop\n        /* \"StudyPackage/Solidity/3.\\xe5\\x90\\x88\\xe7\\xba\\xa6\\xe5\\xae\\x9e\\xe6\\x88\\x98/\\xe4\\xbc\\x97\\xe7\\xad\\xb9\\xe5\\x90\\x88\\xe7\\xba\\xa6/index.sol\":2174:2179  false */\n      0x00\n        /* \"StudyPackage/Solidity/3.\\xe5\\x90\\x88\\xe7\\xba\\xa6\\xe5\\xae\\x9e\\xe6\\x88\\x98/\\xe4\\xbc\\x97\\xe7\\xad\\xb9\\xe5\\x90\\x88\\xe7\\xba\\xa6/index.sol\":2161:2171  AVAILABLED */\n      0x04\n      0x00\n        /* \"StudyPackage/Solidity/3.\\xe5\\x90\\x88\\xe7\\xba\\xa6\\xe5\\xae\\x9e\\xe6\\x88\\x98/\\xe4\\xbc\\x97\\xe7\\xad\\xb9\\xe5\\x90\\x88\\xe7\\xba\\xa6/index.sol\":2161:2179  AVAILABLED = false */\n      0x0100\n      exp\n      dup2\n      sload\n      dup2\n      0xff\n      mul\n      not\n      and\n      swap1\n      dup4\n      iszero\n      iszero\n      mul\n      or\n      swap1\n      sstore\n      pop\n        /* \"StudyPackage/Solidity/3.\\xe5\\x90\\x88\\xe7\\xba\\xa6\\xe5\\xae\\x9e\\xe6\\x88\\x98/\\xe4\\xbc\\x97\\xe7\\xad\\xb9\\xe5\\x90\\x88\\xe7\\xba\\xa6/index.sol\":2219:2230  beneficiary */\n      immutable(\"0x2a80e1ef1d7842f27f2e6be0972bb708b9a135c38860dbe73c27c3486c34f4de\")\n        /* \"StudyPackage/Solidity/3.\\xe5\\x90\\x88\\xe7\\xba\\xa6\\xe5\\xae\\x9e\\xe6\\x88\\x98/\\xe4\\xbc\\x97\\xe7\\xad\\xb9\\xe5\\x90\\x88\\xe7\\xba\\xa6/index.sol\":2211:2240  payable(beneficiary).transfer */\n      0xffffffffffffffffffffffffffffffffffffffff\n      and\n        /* \"StudyPackage/Solidity/3.\\xe5\\x90\\x88\\xe7\\xba\\xa6\\xe5\\xae\\x9e\\xe6\\x88\\x98/\\xe4\\xbc\\x97\\xe7\\xad\\xb9\\xe5\\x90\\x88\\xe7\\xba\\xa6/index.sol\":2211:2248  payable(beneficiary).transfer(amount) */\n      0x08fc\n        /* \"StudyPackage/Solidity/3.\\xe5\\x90\\x88\\xe7\\xba\\xa6\\xe5\\xae\\x9e\\xe6\\x88\\x98/\\xe4\\xbc\\x97\\xe7\\xad\\xb9\\xe5\\x90\\x88\\xe7\\xba\\xa6/index.sol\":2241:2247  amount */\n      dup3\n        /* \"StudyPackage/Solidity/3.\\xe5\\x90\\x88\\xe7\\xba\\xa6\\xe5\\xae\\x9e\\xe6\\x88\\x98/\\xe4\\xbc\\x97\\xe7\\xad\\xb9\\xe5\\x90\\x88\\xe7\\xba\\xa6/index.sol\":2211:2248  payable(beneficiary).transfer(amount) */\n      swap1\n      dup2\n      iszero\n      mul\n      swap1\n      mload(0x40)\n      0x00\n      mload(0x40)\n      dup1\n      dup4\n      sub\n      dup2\n      dup6\n      dup9\n      dup9\n      call\n      swap4\n      pop\n      pop\n      pop\n      pop\n      iszero\n      dup1\n      iszero\n      tag_56\n      jumpi\n      returndatasize\n      0x00\n      dup1\n      returndatacopy\n      revert(0x00, returndatasize)\n    tag_56:\n      pop\n        /* \"StudyPackage/Solidity/3.\\xe5\\x90\\x88\\xe7\\xba\\xa6\\xe5\\xae\\x9e\\xe6\\x88\\x98/\\xe4\\xbc\\x97\\xe7\\xad\\xb9\\xe5\\x90\\x88\\xe7\\xba\\xa6/index.sol\":2265:2269  true */\n      0x01\n        /* \"StudyPackage/Solidity/3.\\xe5\\x90\\x88\\xe7\\xba\\xa6\\xe5\\xae\\x9e\\xe6\\x88\\x98/\\xe4\\xbc\\x97\\xe7\\xad\\xb9\\xe5\\x90\\x88\\xe7\\xba\\xa6/index.sol\":2258:2269  return true */\n      swap2\n      pop\n      pop\n        /* \"StudyPackage/Solidity/3.\\xe5\\x90\\x88\\xe7\\xba\\xa6\\xe5\\xae\\x9e\\xe6\\x88\\x98/\\xe4\\xbc\\x97\\xe7\\xad\\xb9\\xe5\\x90\\x88\\xe7\\xba\\xa6/index.sol\":1922:2276  function close() external returns (bool) {... */\n    tag_53:\n      swap1\n      jump\t// out\n        /* \"StudyPackage/Solidity/3.\\xe5\\x90\\x88\\xe7\\xba\\xa6\\xe5\\xae\\x9e\\xe6\\x88\\x98/\\xe4\\xbc\\x97\\xe7\\xad\\xb9\\xe5\\x90\\x88\\xe7\\xba\\xa6/index.sol\":139:175  uint256 public immutable fundingGoal */\n    tag_35:\n      immutable(\"0xceebf77a833b30520287ddd9478ff51abbdffa30aa90a8d655dba0e8a79ce0c1\")\n      dup2\n      jump\t// out\n        /* \"StudyPackage/Solidity/3.\\xe5\\x90\\x88\\xe7\\xba\\xa6\\xe5\\xae\\x9e\\xe6\\x88\\x98/\\xe4\\xbc\\x97\\xe7\\xad\\xb9\\xe5\\x90\\x88\\xe7\\xba\\xa6/index.sol\":2282:2378  function fundersLenght() public view returns (uint256) {... */\n    tag_39:\n        /* \"StudyPackage/Solidity/3.\\xe5\\x90\\x88\\xe7\\xba\\xa6\\xe5\\xae\\x9e\\xe6\\x88\\x98/\\xe4\\xbc\\x97\\xe7\\xad\\xb9\\xe5\\x90\\x88\\xe7\\xba\\xa6/index.sol\":2328:2335  uint256 */\n      0x00\n        /* \"StudyPackage/Solidity/3.\\xe5\\x90\\x88\\xe7\\xba\\xa6\\xe5\\xae\\x9e\\xe6\\x88\\x98/\\xe4\\xbc\\x97\\xe7\\xad\\xb9\\xe5\\x90\\x88\\xe7\\xba\\xa6/index.sol\":2354:2364  fundersKey */\n      0x03\n        /* \"StudyPackage/Solidity/3.\\xe5\\x90\\x88\\xe7\\xba\\xa6\\xe5\\xae\\x9e\\xe6\\x88\\x98/\\xe4\\xbc\\x97\\xe7\\xad\\xb9\\xe5\\x90\\x88\\xe7\\xba\\xa6/index.sol\":2354:2371  fundersKey.length */\n      dup1\n      sload\n      swap1\n      pop\n        /* \"StudyPackage/Solidity/3.\\xe5\\x90\\x88\\xe7\\xba\\xa6\\xe5\\xae\\x9e\\xe6\\x88\\x98/\\xe4\\xbc\\x97\\xe7\\xad\\xb9\\xe5\\x90\\x88\\xe7\\xba\\xa6/index.sol\":2347:2371  return fundersKey.length */\n      swap1\n      pop\n        /* \"StudyPackage/Solidity/3.\\xe5\\x90\\x88\\xe7\\xba\\xa6\\xe5\\xae\\x9e\\xe6\\x88\\x98/\\xe4\\xbc\\x97\\xe7\\xad\\xb9\\xe5\\x90\\x88\\xe7\\xba\\xa6/index.sol\":2282:2378  function fundersLenght() public view returns (uint256) {... */\n      swap1\n      jump\t// out\n        /* \"StudyPackage/Solidity/3.\\xe5\\x90\\x88\\xe7\\xba\\xa6\\xe5\\xae\\x9e\\xe6\\x88\\x98/\\xe4\\xbc\\x97\\xe7\\xad\\xb9\\xe5\\x90\\x88\\xe7\\xba\\xa6/index.sol\":413:440  address[] public fundersKey */\n    tag_45:\n      0x03\n      dup2\n      dup2\n      sload\n      dup2\n      lt\n      tag_58\n      jumpi\n      0x00\n      dup1\n      revert\n    tag_58:\n      swap1\n      0x00\n      mstore\n      keccak256(0x00, 0x20)\n      add\n      0x00\n      swap2\n      pop\n      sload\n      swap1\n      0x0100\n      exp\n      swap1\n      div\n      0xffffffffffffffffffffffffffffffffffffffff\n      and\n      dup2\n      jump\t// out\n        /* \"StudyPackage/Solidity/3.\\xe5\\x90\\x88\\xe7\\xba\\xa6\\xe5\\xae\\x9e\\xe6\\x88\\x98/\\xe4\\xbc\\x97\\xe7\\xad\\xb9\\xe5\\x90\\x88\\xe7\\xba\\xa6/index.sol\":873:1902  function contribute() external payable {... */\n    tag_48:\n        /* \"StudyPackage/Solidity/3.\\xe5\\x90\\x88\\xe7\\xba\\xa6\\xe5\\xae\\x9e\\xe6\\x88\\x98/\\xe4\\xbc\\x97\\xe7\\xad\\xb9\\xe5\\x90\\x88\\xe7\\xba\\xa6/index.sol\":930:940  AVAILABLED */\n      0x04\n      0x00\n      swap1\n      sload\n      swap1\n      0x0100\n      exp\n      swap1\n      div\n      0xff\n      and\n        /* \"StudyPackage/Solidity/3.\\xe5\\x90\\x88\\xe7\\xba\\xa6\\xe5\\xae\\x9e\\xe6\\x88\\x98/\\xe4\\xbc\\x97\\xe7\\xad\\xb9\\xe5\\x90\\x88\\xe7\\xba\\xa6/index.sol\":922:967  require(AVAILABLED, \"CrowdFunding is closed\") */\n      tag_61\n      jumpi\n      mload(0x40)\n      0x08c379a000000000000000000000000000000000000000000000000000000000\n      dup2\n      mstore\n      0x04\n      add\n      tag_62\n      swap1\n      tag_63\n      jump\t// in\n    tag_62:\n      mload(0x40)\n      dup1\n      swap2\n      sub\n      swap1\n      revert\n    tag_61:\n        /* \"StudyPackage/Solidity/3.\\xe5\\x90\\x88\\xe7\\xba\\xa6\\xe5\\xae\\x9e\\xe6\\x88\\x98/\\xe4\\xbc\\x97\\xe7\\xad\\xb9\\xe5\\x90\\x88\\xe7\\xba\\xa6/index.sol\":1035:1065  uint256 potentialFundingAmount */\n      0x00\n        /* \"StudyPackage/Solidity/3.\\xe5\\x90\\x88\\xe7\\xba\\xa6\\xe5\\xae\\x9e\\xe6\\x88\\x98/\\xe4\\xbc\\x97\\xe7\\xad\\xb9\\xe5\\x90\\x88\\xe7\\xba\\xa6/index.sol\":1084:1093  msg.value */\n      callvalue\n        /* \"StudyPackage/Solidity/3.\\xe5\\x90\\x88\\xe7\\xba\\xa6\\xe5\\xae\\x9e\\xe6\\x88\\x98/\\xe4\\xbc\\x97\\xe7\\xad\\xb9\\xe5\\x90\\x88\\xe7\\xba\\xa6/index.sol\":1068:1081  fundingAmount */\n      sload(0x00)\n        /* \"StudyPackage/Solidity/3.\\xe5\\x90\\x88\\xe7\\xba\\xa6\\xe5\\xae\\x9e\\xe6\\x88\\x98/\\xe4\\xbc\\x97\\xe7\\xad\\xb9\\xe5\\x90\\x88\\xe7\\xba\\xa6/index.sol\":1068:1093  fundingAmount + msg.value */\n      tag_64\n      swap2\n      swap1\n      tag_65\n      jump\t// in\n    tag_64:\n        /* \"StudyPackage/Solidity/3.\\xe5\\x90\\x88\\xe7\\xba\\xa6\\xe5\\xae\\x9e\\xe6\\x88\\x98/\\xe4\\xbc\\x97\\xe7\\xad\\xb9\\xe5\\x90\\x88\\xe7\\xba\\xa6/index.sol\":1035:1093  uint256 potentialFundingAmount = fundingAmount + msg.value */\n      swap1\n      pop\n        /* \"StudyPackage/Solidity/3.\\xe5\\x90\\x88\\xe7\\xba\\xa6\\xe5\\xae\\x9e\\xe6\\x88\\x98/\\xe4\\xbc\\x97\\xe7\\xad\\xb9\\xe5\\x90\\x88\\xe7\\xba\\xa6/index.sol\":1103:1123  uint256 refundAmount */\n      0x00\n        /* \"StudyPackage/Solidity/3.\\xe5\\x90\\x88\\xe7\\xba\\xa6\\xe5\\xae\\x9e\\xe6\\x88\\x98/\\xe4\\xbc\\x97\\xe7\\xad\\xb9\\xe5\\x90\\x88\\xe7\\xba\\xa6/index.sol\":1167:1178  fundingGoal */\n      immutable(\"0xceebf77a833b30520287ddd9478ff51abbdffa30aa90a8d655dba0e8a79ce0c1\")\n        /* \"StudyPackage/Solidity/3.\\xe5\\x90\\x88\\xe7\\xba\\xa6\\xe5\\xae\\x9e\\xe6\\x88\\x98/\\xe4\\xbc\\x97\\xe7\\xad\\xb9\\xe5\\x90\\x88\\xe7\\xba\\xa6/index.sol\":1142:1164  potentialFundingAmount */\n      dup3\n        /* \"StudyPackage/Solidity/3.\\xe5\\x90\\x88\\xe7\\xba\\xa6\\xe5\\xae\\x9e\\xe6\\x88\\x98/\\xe4\\xbc\\x97\\xe7\\xad\\xb9\\xe5\\x90\\x88\\xe7\\xba\\xa6/index.sol\":1142:1178  potentialFundingAmount > fundingGoal */\n      gt\n        /* \"StudyPackage/Solidity/3.\\xe5\\x90\\x88\\xe7\\xba\\xa6\\xe5\\xae\\x9e\\xe6\\x88\\x98/\\xe4\\xbc\\x97\\xe7\\xad\\xb9\\xe5\\x90\\x88\\xe7\\xba\\xa6/index.sol\":1138:1587  if (potentialFundingAmount > fundingGoal) {... */\n      iszero\n      tag_66\n      jumpi\n        /* \"StudyPackage/Solidity/3.\\xe5\\x90\\x88\\xe7\\xba\\xa6\\xe5\\xae\\x9e\\xe6\\x88\\x98/\\xe4\\xbc\\x97\\xe7\\xad\\xb9\\xe5\\x90\\x88\\xe7\\xba\\xa6/index.sol\":1271:1282  fundingGoal */\n      immutable(\"0xceebf77a833b30520287ddd9478ff51abbdffa30aa90a8d655dba0e8a79ce0c1\")\n        /* \"StudyPackage/Solidity/3.\\xe5\\x90\\x88\\xe7\\xba\\xa6\\xe5\\xae\\x9e\\xe6\\x88\\x98/\\xe4\\xbc\\x97\\xe7\\xad\\xb9\\xe5\\x90\\x88\\xe7\\xba\\xa6/index.sol\":1246:1268  potentialFundingAmount */\n      dup3\n        /* \"StudyPackage/Solidity/3.\\xe5\\x90\\x88\\xe7\\xba\\xa6\\xe5\\xae\\x9e\\xe6\\x88\\x98/\\xe4\\xbc\\x97\\xe7\\xad\\xb9\\xe5\\x90\\x88\\xe7\\xba\\xa6/index.sol\":1246:1282  potentialFundingAmount - fundingGoal */\n      tag_67\n      swap2\n      swap1\n      tag_68\n      jump\t// in\n    tag_67:\n        /* \"StudyPackage/Solidity/3.\\xe5\\x90\\x88\\xe7\\xba\\xa6\\xe5\\xae\\x9e\\xe6\\x88\\x98/\\xe4\\xbc\\x97\\xe7\\xad\\xb9\\xe5\\x90\\x88\\xe7\\xba\\xa6/index.sol\":1231:1282  refundAmount = potentialFundingAmount - fundingGoal */\n      swap1\n      pop\n        /* \"StudyPackage/Solidity/3.\\xe5\\x90\\x88\\xe7\\xba\\xa6\\xe5\\xae\\x9e\\xe6\\x88\\x98/\\xe4\\xbc\\x97\\xe7\\xad\\xb9\\xe5\\x90\\x88\\xe7\\xba\\xa6/index.sol\":1332:1344  refundAmount */\n      dup1\n        /* \"StudyPackage/Solidity/3.\\xe5\\x90\\x88\\xe7\\xba\\xa6\\xe5\\xae\\x9e\\xe6\\x88\\x98/\\xe4\\xbc\\x97\\xe7\\xad\\xb9\\xe5\\x90\\x88\\xe7\\xba\\xa6/index.sol\":1320:1329  msg.value */\n      callvalue\n        /* \"StudyPackage/Solidity/3.\\xe5\\x90\\x88\\xe7\\xba\\xa6\\xe5\\xae\\x9e\\xe6\\x88\\x98/\\xe4\\xbc\\x97\\xe7\\xad\\xb9\\xe5\\x90\\x88\\xe7\\xba\\xa6/index.sol\":1320:1344  msg.value - refundAmount */\n      tag_69\n      swap2\n      swap1\n      tag_68\n      jump\t// in\n    tag_69:\n        /* \"StudyPackage/Solidity/3.\\xe5\\x90\\x88\\xe7\\xba\\xa6\\xe5\\xae\\x9e\\xe6\\x88\\x98/\\xe4\\xbc\\x97\\xe7\\xad\\xb9\\xe5\\x90\\x88\\xe7\\xba\\xa6/index.sol\":1296:1303  funders */\n      0x01\n        /* \"StudyPackage/Solidity/3.\\xe5\\x90\\x88\\xe7\\xba\\xa6\\xe5\\xae\\x9e\\xe6\\x88\\x98/\\xe4\\xbc\\x97\\xe7\\xad\\xb9\\xe5\\x90\\x88\\xe7\\xba\\xa6/index.sol\":1296:1315  funders[msg.sender] */\n      0x00\n        /* \"StudyPackage/Solidity/3.\\xe5\\x90\\x88\\xe7\\xba\\xa6\\xe5\\xae\\x9e\\xe6\\x88\\x98/\\xe4\\xbc\\x97\\xe7\\xad\\xb9\\xe5\\x90\\x88\\xe7\\xba\\xa6/index.sol\":1304:1314  msg.sender */\n      caller\n        /* \"StudyPackage/Solidity/3.\\xe5\\x90\\x88\\xe7\\xba\\xa6\\xe5\\xae\\x9e\\xe6\\x88\\x98/\\xe4\\xbc\\x97\\xe7\\xad\\xb9\\xe5\\x90\\x88\\xe7\\xba\\xa6/index.sol\":1296:1315  funders[msg.sender] */\n      0xffffffffffffffffffffffffffffffffffffffff\n      and\n      0xffffffffffffffffffffffffffffffffffffffff\n      and\n      dup2\n      mstore\n      0x20\n      add\n      swap1\n      dup2\n      mstore\n      0x20\n      add\n      0x00\n      keccak256\n      0x00\n        /* \"StudyPackage/Solidity/3.\\xe5\\x90\\x88\\xe7\\xba\\xa6\\xe5\\xae\\x9e\\xe6\\x88\\x98/\\xe4\\xbc\\x97\\xe7\\xad\\xb9\\xe5\\x90\\x88\\xe7\\xba\\xa6/index.sol\":1296:1345  funders[msg.sender] += (msg.value - refundAmount) */\n      dup3\n      dup3\n      sload\n      tag_70\n      swap2\n      swap1\n      tag_65\n      jump\t// in\n    tag_70:\n      swap3\n      pop\n      pop\n      dup2\n      swap1\n      sstore\n      pop\n        /* \"StudyPackage/Solidity/3.\\xe5\\x90\\x88\\xe7\\xba\\xa6\\xe5\\xae\\x9e\\xe6\\x88\\x98/\\xe4\\xbc\\x97\\xe7\\xad\\xb9\\xe5\\x90\\x88\\xe7\\xba\\xa6/index.sol\":1423:1435  refundAmount */\n      dup1\n        /* \"StudyPackage/Solidity/3.\\xe5\\x90\\x88\\xe7\\xba\\xa6\\xe5\\xae\\x9e\\xe6\\x88\\x98/\\xe4\\xbc\\x97\\xe7\\xad\\xb9\\xe5\\x90\\x88\\xe7\\xba\\xa6/index.sol\":1411:1420  msg.value */\n      callvalue\n        /* \"StudyPackage/Solidity/3.\\xe5\\x90\\x88\\xe7\\xba\\xa6\\xe5\\xae\\x9e\\xe6\\x88\\x98/\\xe4\\xbc\\x97\\xe7\\xad\\xb9\\xe5\\x90\\x88\\xe7\\xba\\xa6/index.sol\":1411:1435  msg.value - refundAmount */\n      tag_71\n      swap2\n      swap1\n      tag_68\n      jump\t// in\n    tag_71:\n        /* \"StudyPackage/Solidity/3.\\xe5\\x90\\x88\\xe7\\xba\\xa6\\xe5\\xae\\x9e\\xe6\\x88\\x98/\\xe4\\xbc\\x97\\xe7\\xad\\xb9\\xe5\\x90\\x88\\xe7\\xba\\xa6/index.sol\":1393:1406  fundingAmount */\n      0x00\n      dup1\n        /* \"StudyPackage/Solidity/3.\\xe5\\x90\\x88\\xe7\\xba\\xa6\\xe5\\xae\\x9e\\xe6\\x88\\x98/\\xe4\\xbc\\x97\\xe7\\xad\\xb9\\xe5\\x90\\x88\\xe7\\xba\\xa6/index.sol\":1393:1436  fundingAmount += (msg.value - refundAmount) */\n      dup3\n      dup3\n      sload\n      tag_72\n      swap2\n      swap1\n      tag_65\n      jump\t// in\n    tag_72:\n      swap3\n      pop\n      pop\n      dup2\n      swap1\n      sstore\n      pop\n        /* \"StudyPackage/Solidity/3.\\xe5\\x90\\x88\\xe7\\xba\\xa6\\xe5\\xae\\x9e\\xe6\\x88\\x98/\\xe4\\xbc\\x97\\xe7\\xad\\xb9\\xe5\\x90\\x88\\xe7\\xba\\xa6/index.sol\":1138:1587  if (potentialFundingAmount > fundingGoal) {... */\n      jump(tag_73)\n    tag_66:\n        /* \"StudyPackage/Solidity/3.\\xe5\\x90\\x88\\xe7\\xba\\xa6\\xe5\\xae\\x9e\\xe6\\x88\\x98/\\xe4\\xbc\\x97\\xe7\\xad\\xb9\\xe5\\x90\\x88\\xe7\\xba\\xa6/index.sol\":1490:1499  msg.value */\n      callvalue\n        /* \"StudyPackage/Solidity/3.\\xe5\\x90\\x88\\xe7\\xba\\xa6\\xe5\\xae\\x9e\\xe6\\x88\\x98/\\xe4\\xbc\\x97\\xe7\\xad\\xb9\\xe5\\x90\\x88\\xe7\\xba\\xa6/index.sol\":1467:1474  funders */\n      0x01\n        /* \"StudyPackage/Solidity/3.\\xe5\\x90\\x88\\xe7\\xba\\xa6\\xe5\\xae\\x9e\\xe6\\x88\\x98/\\xe4\\xbc\\x97\\xe7\\xad\\xb9\\xe5\\x90\\x88\\xe7\\xba\\xa6/index.sol\":1467:1486  funders[msg.sender] */\n      0x00\n        /* \"StudyPackage/Solidity/3.\\xe5\\x90\\x88\\xe7\\xba\\xa6\\xe5\\xae\\x9e\\xe6\\x88\\x98/\\xe4\\xbc\\x97\\xe7\\xad\\xb9\\xe5\\x90\\x88\\xe7\\xba\\xa6/index.sol\":1475:1485  msg.sender */\n      caller\n        /* \"StudyPackage/Solidity/3.\\xe5\\x90\\x88\\xe7\\xba\\xa6\\xe5\\xae\\x9e\\xe6\\x88\\x98/\\xe4\\xbc\\x97\\xe7\\xad\\xb9\\xe5\\x90\\x88\\xe7\\xba\\xa6/index.sol\":1467:1486  funders[msg.sender] */\n      0xffffffffffffffffffffffffffffffffffffffff\n      and\n      0xffffffffffffffffffffffffffffffffffffffff\n      and\n      dup2\n      mstore\n      0x20\n      add\n      swap1\n      dup2\n      mstore\n      0x20\n      add\n      0x00\n      keccak256\n      0x00\n        /* \"StudyPackage/Solidity/3.\\xe5\\x90\\x88\\xe7\\xba\\xa6\\xe5\\xae\\x9e\\xe6\\x88\\x98/\\xe4\\xbc\\x97\\xe7\\xad\\xb9\\xe5\\x90\\x88\\xe7\\xba\\xa6/index.sol\":1467:1499  funders[msg.sender] += msg.value */\n      dup3\n      dup3\n      sload\n      tag_74\n      swap2\n      swap1\n      tag_65\n      jump\t// in\n    tag_74:\n      swap3\n      pop\n      pop\n      dup2\n      swap1\n      sstore\n      pop\n        /* \"StudyPackage/Solidity/3.\\xe5\\x90\\x88\\xe7\\xba\\xa6\\xe5\\xae\\x9e\\xe6\\x88\\x98/\\xe4\\xbc\\x97\\xe7\\xad\\xb9\\xe5\\x90\\x88\\xe7\\xba\\xa6/index.sol\":1567:1576  msg.value */\n      callvalue\n        /* \"StudyPackage/Solidity/3.\\xe5\\x90\\x88\\xe7\\xba\\xa6\\xe5\\xae\\x9e\\xe6\\x88\\x98/\\xe4\\xbc\\x97\\xe7\\xad\\xb9\\xe5\\x90\\x88\\xe7\\xba\\xa6/index.sol\":1550:1563  fundingAmount */\n      0x00\n      dup1\n        /* \"StudyPackage/Solidity/3.\\xe5\\x90\\x88\\xe7\\xba\\xa6\\xe5\\xae\\x9e\\xe6\\x88\\x98/\\xe4\\xbc\\x97\\xe7\\xad\\xb9\\xe5\\x90\\x88\\xe7\\xba\\xa6/index.sol\":1550:1576  fundingAmount += msg.value */\n      dup3\n      dup3\n      sload\n      tag_75\n      swap2\n      swap1\n      tag_65\n      jump\t// in\n    tag_75:\n      swap3\n      pop\n      pop\n      dup2\n      swap1\n      sstore\n      pop\n        /* \"StudyPackage/Solidity/3.\\xe5\\x90\\x88\\xe7\\xba\\xa6\\xe5\\xae\\x9e\\xe6\\x88\\x98/\\xe4\\xbc\\x97\\xe7\\xad\\xb9\\xe5\\x90\\x88\\xe7\\xba\\xa6/index.sol\":1138:1587  if (potentialFundingAmount > fundingGoal) {... */\n    tag_73:\n        /* \"StudyPackage/Solidity/3.\\xe5\\x90\\x88\\xe7\\xba\\xa6\\xe5\\xae\\x9e\\xe6\\x88\\x98/\\xe4\\xbc\\x97\\xe7\\xad\\xb9\\xe5\\x90\\x88\\xe7\\xba\\xa6/index.sol\":1635:1650  fundersInserted */\n      0x02\n        /* \"StudyPackage/Solidity/3.\\xe5\\x90\\x88\\xe7\\xba\\xa6\\xe5\\xae\\x9e\\xe6\\x88\\x98/\\xe4\\xbc\\x97\\xe7\\xad\\xb9\\xe5\\x90\\x88\\xe7\\xba\\xa6/index.sol\":1635:1662  fundersInserted[msg.sender] */\n      0x00\n        /* \"StudyPackage/Solidity/3.\\xe5\\x90\\x88\\xe7\\xba\\xa6\\xe5\\xae\\x9e\\xe6\\x88\\x98/\\xe4\\xbc\\x97\\xe7\\xad\\xb9\\xe5\\x90\\x88\\xe7\\xba\\xa6/index.sol\":1651:1661  msg.sender */\n      caller\n        /* \"StudyPackage/Solidity/3.\\xe5\\x90\\x88\\xe7\\xba\\xa6\\xe5\\xae\\x9e\\xe6\\x88\\x98/\\xe4\\xbc\\x97\\xe7\\xad\\xb9\\xe5\\x90\\x88\\xe7\\xba\\xa6/index.sol\":1635:1662  fundersInserted[msg.sender] */\n      0xffffffffffffffffffffffffffffffffffffffff\n      and\n      0xffffffffffffffffffffffffffffffffffffffff\n      and\n      dup2\n      mstore\n      0x20\n      add\n      swap1\n      dup2\n      mstore\n      0x20\n      add\n      0x00\n      keccak256\n      0x00\n      swap1\n      sload\n      swap1\n      0x0100\n      exp\n      swap1\n      div\n      0xff\n      and\n        /* \"StudyPackage/Solidity/3.\\xe5\\x90\\x88\\xe7\\xba\\xa6\\xe5\\xae\\x9e\\xe6\\x88\\x98/\\xe4\\xbc\\x97\\xe7\\xad\\xb9\\xe5\\x90\\x88\\xe7\\xba\\xa6/index.sol\":1630:1764  if (!fundersInserted[msg.sender]) {... */\n      tag_76\n      jumpi\n        /* \"StudyPackage/Solidity/3.\\xe5\\x90\\x88\\xe7\\xba\\xa6\\xe5\\xae\\x9e\\xe6\\x88\\x98/\\xe4\\xbc\\x97\\xe7\\xad\\xb9\\xe5\\x90\\x88\\xe7\\xba\\xa6/index.sol\":1708:1712  true */\n      0x01\n        /* \"StudyPackage/Solidity/3.\\xe5\\x90\\x88\\xe7\\xba\\xa6\\xe5\\xae\\x9e\\xe6\\x88\\x98/\\xe4\\xbc\\x97\\xe7\\xad\\xb9\\xe5\\x90\\x88\\xe7\\xba\\xa6/index.sol\":1678:1693  fundersInserted */\n      0x02\n        /* \"StudyPackage/Solidity/3.\\xe5\\x90\\x88\\xe7\\xba\\xa6\\xe5\\xae\\x9e\\xe6\\x88\\x98/\\xe4\\xbc\\x97\\xe7\\xad\\xb9\\xe5\\x90\\x88\\xe7\\xba\\xa6/index.sol\":1678:1705  fundersInserted[msg.sender] */\n      0x00\n        /* \"StudyPackage/Solidity/3.\\xe5\\x90\\x88\\xe7\\xba\\xa6\\xe5\\xae\\x9e\\xe6\\x88\\x98/\\xe4\\xbc\\x97\\xe7\\xad\\xb9\\xe5\\x90\\x88\\xe7\\xba\\xa6/index.sol\":1694:1704  msg.sender */\n      caller\n        /* \"StudyPackage/Solidity/3.\\xe5\\x90\\x88\\xe7\\xba\\xa6\\xe5\\xae\\x9e\\xe6\\x88\\x98/\\xe4\\xbc\\x97\\xe7\\xad\\xb9\\xe5\\x90\\x88\\xe7\\xba\\xa6/index.sol\":1678:1705  fundersInserted[msg.sender] */\n      0xffffffffffffffffffffffffffffffffffffffff\n      and\n      0xffffffffffffffffffffffffffffffffffffffff\n      and\n      dup2\n      mstore\n      0x20\n      add\n      swap1\n      dup2\n      mstore\n      0x20\n      add\n      0x00\n      keccak256\n      0x00\n        /* \"StudyPackage/Solidity/3.\\xe5\\x90\\x88\\xe7\\xba\\xa6\\xe5\\xae\\x9e\\xe6\\x88\\x98/\\xe4\\xbc\\x97\\xe7\\xad\\xb9\\xe5\\x90\\x88\\xe7\\xba\\xa6/index.sol\":1678:1712  fundersInserted[msg.sender] = true */\n      0x0100\n      exp\n      dup2\n      sload\n      dup2\n      0xff\n      mul\n      not\n      and\n      swap1\n      dup4\n      iszero\n      iszero\n      mul\n      or\n      swap1\n      sstore\n      pop\n        /* \"StudyPackage/Solidity/3.\\xe5\\x90\\x88\\xe7\\xba\\xa6\\xe5\\xae\\x9e\\xe6\\x88\\x98/\\xe4\\xbc\\x97\\xe7\\xad\\xb9\\xe5\\x90\\x88\\xe7\\xba\\xa6/index.sol\":1726:1736  fundersKey */\n      0x03\n        /* \"StudyPackage/Solidity/3.\\xe5\\x90\\x88\\xe7\\xba\\xa6\\xe5\\xae\\x9e\\xe6\\x88\\x98/\\xe4\\xbc\\x97\\xe7\\xad\\xb9\\xe5\\x90\\x88\\xe7\\xba\\xa6/index.sol\":1742:1752  msg.sender */\n      caller\n        /* \"StudyPackage/Solidity/3.\\xe5\\x90\\x88\\xe7\\xba\\xa6\\xe5\\xae\\x9e\\xe6\\x88\\x98/\\xe4\\xbc\\x97\\xe7\\xad\\xb9\\xe5\\x90\\x88\\xe7\\xba\\xa6/index.sol\":1726:1753  fundersKey.push(msg.sender) */\n      swap1\n      dup1\n      0x01\n      dup2\n      sload\n      add\n      dup1\n      dup3\n      sstore\n      dup1\n      swap2\n      pop\n      pop\n      0x01\n      swap1\n      sub\n      swap1\n      0x00\n      mstore\n      keccak256(0x00, 0x20)\n      add\n      0x00\n      swap1\n      swap2\n      swap1\n      swap2\n      swap1\n      swap2\n      0x0100\n      exp\n      dup2\n      sload\n      dup2\n      0xffffffffffffffffffffffffffffffffffffffff\n      mul\n      not\n      and\n      swap1\n      dup4\n      0xffffffffffffffffffffffffffffffffffffffff\n      and\n      mul\n      or\n      swap1\n      sstore\n      pop\n        /* \"StudyPackage/Solidity/3.\\xe5\\x90\\x88\\xe7\\xba\\xa6\\xe5\\xae\\x9e\\xe6\\x88\\x98/\\xe4\\xbc\\x97\\xe7\\xad\\xb9\\xe5\\x90\\x88\\xe7\\xba\\xa6/index.sol\":1630:1764  if (!fundersInserted[msg.sender]) {... */\n    tag_76:\n        /* \"StudyPackage/Solidity/3.\\xe5\\x90\\x88\\xe7\\xba\\xa6\\xe5\\xae\\x9e\\xe6\\x88\\x98/\\xe4\\xbc\\x97\\xe7\\xad\\xb9\\xe5\\x90\\x88\\xe7\\xba\\xa6/index.sol\":1826:1827  0 */\n      0x00\n        /* \"StudyPackage/Solidity/3.\\xe5\\x90\\x88\\xe7\\xba\\xa6\\xe5\\xae\\x9e\\xe6\\x88\\x98/\\xe4\\xbc\\x97\\xe7\\xad\\xb9\\xe5\\x90\\x88\\xe7\\xba\\xa6/index.sol\":1811:1823  refundAmount */\n      dup2\n        /* \"StudyPackage/Solidity/3.\\xe5\\x90\\x88\\xe7\\xba\\xa6\\xe5\\xae\\x9e\\xe6\\x88\\x98/\\xe4\\xbc\\x97\\xe7\\xad\\xb9\\xe5\\x90\\x88\\xe7\\xba\\xa6/index.sol\":1811:1827  refundAmount > 0 */\n      gt\n        /* \"StudyPackage/Solidity/3.\\xe5\\x90\\x88\\xe7\\xba\\xa6\\xe5\\xae\\x9e\\xe6\\x88\\x98/\\xe4\\xbc\\x97\\xe7\\xad\\xb9\\xe5\\x90\\x88\\xe7\\xba\\xa6/index.sol\":1807:1896  if (refundAmount > 0) {... */\n      iszero\n      tag_78\n      jumpi\n        /* \"StudyPackage/Solidity/3.\\xe5\\x90\\x88\\xe7\\xba\\xa6\\xe5\\xae\\x9e\\xe6\\x88\\x98/\\xe4\\xbc\\x97\\xe7\\xad\\xb9\\xe5\\x90\\x88\\xe7\\xba\\xa6/index.sol\":1851:1861  msg.sender */\n      caller\n        /* \"StudyPackage/Solidity/3.\\xe5\\x90\\x88\\xe7\\xba\\xa6\\xe5\\xae\\x9e\\xe6\\x88\\x98/\\xe4\\xbc\\x97\\xe7\\xad\\xb9\\xe5\\x90\\x88\\xe7\\xba\\xa6/index.sol\":1843:1871  payable(msg.sender).transfer */\n      0xffffffffffffffffffffffffffffffffffffffff\n      and\n        /* \"StudyPackage/Solidity/3.\\xe5\\x90\\x88\\xe7\\xba\\xa6\\xe5\\xae\\x9e\\xe6\\x88\\x98/\\xe4\\xbc\\x97\\xe7\\xad\\xb9\\xe5\\x90\\x88\\xe7\\xba\\xa6/index.sol\":1843:1885  payable(msg.sender).transfer(refundAmount) */\n      0x08fc\n        /* \"StudyPackage/Solidity/3.\\xe5\\x90\\x88\\xe7\\xba\\xa6\\xe5\\xae\\x9e\\xe6\\x88\\x98/\\xe4\\xbc\\x97\\xe7\\xad\\xb9\\xe5\\x90\\x88\\xe7\\xba\\xa6/index.sol\":1872:1884  refundAmount */\n      dup3\n        /* \"StudyPackage/Solidity/3.\\xe5\\x90\\x88\\xe7\\xba\\xa6\\xe5\\xae\\x9e\\xe6\\x88\\x98/\\xe4\\xbc\\x97\\xe7\\xad\\xb9\\xe5\\x90\\x88\\xe7\\xba\\xa6/index.sol\":1843:1885  payable(msg.sender).transfer(refundAmount) */\n      swap1\n      dup2\n      iszero\n      mul\n      swap1\n      mload(0x40)\n      0x00\n      mload(0x40)\n      dup1\n      dup4\n      sub\n      dup2\n      dup6\n      dup9\n      dup9\n      call\n      swap4\n      pop\n      pop\n      pop\n      pop\n      iszero\n      dup1\n      iszero\n      tag_80\n      jumpi\n      returndatasize\n      0x00\n      dup1\n      returndatacopy\n      revert(0x00, returndatasize)\n    tag_80:\n      pop\n        /* \"StudyPackage/Solidity/3.\\xe5\\x90\\x88\\xe7\\xba\\xa6\\xe5\\xae\\x9e\\xe6\\x88\\x98/\\xe4\\xbc\\x97\\xe7\\xad\\xb9\\xe5\\x90\\x88\\xe7\\xba\\xa6/index.sol\":1807:1896  if (refundAmount > 0) {... */\n    tag_78:\n        /* \"StudyPackage/Solidity/3.\\xe5\\x90\\x88\\xe7\\xba\\xa6\\xe5\\xae\\x9e\\xe6\\x88\\x98/\\xe4\\xbc\\x97\\xe7\\xad\\xb9\\xe5\\x90\\x88\\xe7\\xba\\xa6/index.sol\":912:1902  {... */\n      pop\n      pop\n        /* \"StudyPackage/Solidity/3.\\xe5\\x90\\x88\\xe7\\xba\\xa6\\xe5\\xae\\x9e\\xe6\\x88\\x98/\\xe4\\xbc\\x97\\xe7\\xad\\xb9\\xe5\\x90\\x88\\xe7\\xba\\xa6/index.sol\":873:1902  function contribute() external payable {... */\n      jump\t// out\n        /* \"StudyPackage/Solidity/3.\\xe5\\x90\\x88\\xe7\\xba\\xa6\\xe5\\xae\\x9e\\xe6\\x88\\x98/\\xe4\\xbc\\x97\\xe7\\xad\\xb9\\xe5\\x90\\x88\\xe7\\xba\\xa6/index.sol\":509:538  bool public AVAILABLED = true */\n    tag_51:\n      0x04\n      0x00\n      swap1\n      sload\n      swap1\n      0x0100\n      exp\n      swap1\n      div\n      0xff\n      and\n      dup2\n      jump\t// out\n        /* \"#utility.yul\":7:146   */\n    tag_82:\n        /* \"#utility.yul\":53:58   */\n      0x00\n        /* \"#utility.yul\":91:97   */\n      dup2\n        /* \"#utility.yul\":78:98   */\n      calldataload\n        /* \"#utility.yul\":69:98   */\n      swap1\n      pop\n        /* \"#utility.yul\":107:140   */\n      tag_84\n        /* \"#utility.yul\":134:139   */\n      dup2\n        /* \"#utility.yul\":107:140   */\n      tag_85\n      jump\t// in\n    tag_84:\n        /* \"#utility.yul\":7:146   */\n      swap3\n      swap2\n      pop\n      pop\n      jump\t// out\n        /* \"#utility.yul\":152:291   */\n    tag_86:\n        /* \"#utility.yul\":198:203   */\n      0x00\n        /* \"#utility.yul\":236:242   */\n      dup2\n        /* \"#utility.yul\":223:243   */\n      calldataload\n        /* \"#utility.yul\":214:243   */\n      swap1\n      pop\n        /* \"#utility.yul\":252:285   */\n      tag_88\n        /* \"#utility.yul\":279:284   */\n      dup2\n        /* \"#utility.yul\":252:285   */\n      tag_89\n      jump\t// in\n    tag_88:\n        /* \"#utility.yul\":152:291   */\n      swap3\n      swap2\n      pop\n      pop\n      jump\t// out\n        /* \"#utility.yul\":297:626   */\n    tag_15:\n        /* \"#utility.yul\":356:362   */\n      0x00\n        /* \"#utility.yul\":405:407   */\n      0x20\n        /* \"#utility.yul\":393:402   */\n      dup3\n        /* \"#utility.yul\":384:391   */\n      dup5\n        /* \"#utility.yul\":380:403   */\n      sub\n        /* \"#utility.yul\":376:408   */\n      slt\n        /* \"#utility.yul\":373:492   */\n      iszero\n      tag_91\n      jumpi\n        /* \"#utility.yul\":411:490   */\n      tag_92\n      tag_93\n      jump\t// in\n    tag_92:\n        /* \"#utility.yul\":373:492   */\n    tag_91:\n        /* \"#utility.yul\":531:532   */\n      0x00\n        /* \"#utility.yul\":556:609   */\n      tag_94\n        /* \"#utility.yul\":601:608   */\n      dup5\n        /* \"#utility.yul\":592:598   */\n      dup3\n        /* \"#utility.yul\":581:590   */\n      dup6\n        /* \"#utility.yul\":577:599   */\n      add\n        /* \"#utility.yul\":556:609   */\n      tag_82\n      jump\t// in\n    tag_94:\n        /* \"#utility.yul\":546:609   */\n      swap2\n      pop\n        /* \"#utility.yul\":502:619   */\n      pop\n        /* \"#utility.yul\":297:626   */\n      swap3\n      swap2\n      pop\n      pop\n      jump\t// out\n        /* \"#utility.yul\":632:961   */\n    tag_44:\n        /* \"#utility.yul\":691:697   */\n      0x00\n        /* \"#utility.yul\":740:742   */\n      0x20\n        /* \"#utility.yul\":728:737   */\n      dup3\n        /* \"#utility.yul\":719:726   */\n      dup5\n        /* \"#utility.yul\":715:738   */\n      sub\n        /* \"#utility.yul\":711:743   */\n      slt\n        /* \"#utility.yul\":708:827   */\n      iszero\n      tag_96\n      jumpi\n        /* \"#utility.yul\":746:825   */\n      tag_97\n      tag_93\n      jump\t// in\n    tag_97:\n        /* \"#utility.yul\":708:827   */\n    tag_96:\n        /* \"#utility.yul\":866:867   */\n      0x00\n        /* \"#utility.yul\":891:944   */\n      tag_98\n        /* \"#utility.yul\":936:943   */\n      dup5\n        /* \"#utility.yul\":927:933   */\n      dup3\n        /* \"#utility.yul\":916:925   */\n      dup6\n        /* \"#utility.yul\":912:934   */\n      add\n        /* \"#utility.yul\":891:944   */\n      tag_86\n      jump\t// in\n    tag_98:\n        /* \"#utility.yul\":881:944   */\n      swap2\n      pop\n        /* \"#utility.yul\":837:954   */\n      pop\n        /* \"#utility.yul\":632:961   */\n      swap3\n      swap2\n      pop\n      pop\n      jump\t// out\n        /* \"#utility.yul\":967:1085   */\n    tag_99:\n        /* \"#utility.yul\":1054:1078   */\n      tag_101\n        /* \"#utility.yul\":1072:1077   */\n      dup2\n        /* \"#utility.yul\":1054:1078   */\n      tag_102\n      jump\t// in\n    tag_101:\n        /* \"#utility.yul\":1049:1052   */\n      dup3\n        /* \"#utility.yul\":1042:1079   */\n      mstore\n        /* \"#utility.yul\":967:1085   */\n      pop\n      pop\n      jump\t// out\n        /* \"#utility.yul\":1091:1200   */\n    tag_103:\n        /* \"#utility.yul\":1172:1193   */\n      tag_105\n        /* \"#utility.yul\":1187:1192   */\n      dup2\n        /* \"#utility.yul\":1172:1193   */\n      tag_106\n      jump\t// in\n    tag_105:\n        /* \"#utility.yul\":1167:1170   */\n      dup3\n        /* \"#utility.yul\":1160:1194   */\n      mstore\n        /* \"#utility.yul\":1091:1200   */\n      pop\n      pop\n      jump\t// out\n        /* \"#utility.yul\":1206:1572   */\n    tag_107:\n        /* \"#utility.yul\":1348:1351   */\n      0x00\n        /* \"#utility.yul\":1369:1436   */\n      tag_109\n        /* \"#utility.yul\":1433:1435   */\n      0x16\n        /* \"#utility.yul\":1428:1431   */\n      dup4\n        /* \"#utility.yul\":1369:1436   */\n      tag_110\n      jump\t// in\n    tag_109:\n        /* \"#utility.yul\":1362:1436   */\n      swap2\n      pop\n        /* \"#utility.yul\":1445:1538   */\n      tag_111\n        /* \"#utility.yul\":1534:1537   */\n      dup3\n        /* \"#utility.yul\":1445:1538   */\n      tag_112\n      jump\t// in\n    tag_111:\n        /* \"#utility.yul\":1563:1565   */\n      0x20\n        /* \"#utility.yul\":1558:1561   */\n      dup3\n        /* \"#utility.yul\":1554:1566   */\n      add\n        /* \"#utility.yul\":1547:1566   */\n      swap1\n      pop\n        /* \"#utility.yul\":1206:1572   */\n      swap2\n      swap1\n      pop\n      jump\t// out\n        /* \"#utility.yul\":1578:1696   */\n    tag_113:\n        /* \"#utility.yul\":1665:1689   */\n      tag_115\n        /* \"#utility.yul\":1683:1688   */\n      dup2\n        /* \"#utility.yul\":1665:1689   */\n      tag_116\n      jump\t// in\n    tag_115:\n        /* \"#utility.yul\":1660:1663   */\n      dup3\n        /* \"#utility.yul\":1653:1690   */\n      mstore\n        /* \"#utility.yul\":1578:1696   */\n      pop\n      pop\n      jump\t// out\n        /* \"#utility.yul\":1702:1924   */\n    tag_27:\n        /* \"#utility.yul\":1795:1799   */\n      0x00\n        /* \"#utility.yul\":1833:1835   */\n      0x20\n        /* \"#utility.yul\":1822:1831   */\n      dup3\n        /* \"#utility.yul\":1818:1836   */\n      add\n        /* \"#utility.yul\":1810:1836   */\n      swap1\n      pop\n        /* \"#utility.yul\":1846:1917   */\n      tag_118\n        /* \"#utility.yul\":1914:1915   */\n      0x00\n        /* \"#utility.yul\":1903:1912   */\n      dup4\n        /* \"#utility.yul\":1899:1916   */\n      add\n        /* \"#utility.yul\":1890:1896   */\n      dup5\n        /* \"#utility.yul\":1846:1917   */\n      tag_99\n      jump\t// in\n    tag_118:\n        /* \"#utility.yul\":1702:1924   */\n      swap3\n      swap2\n      pop\n      pop\n      jump\t// out\n        /* \"#utility.yul\":1930:2140   */\n    tag_32:\n        /* \"#utility.yul\":2017:2021   */\n      0x00\n        /* \"#utility.yul\":2055:2057   */\n      0x20\n        /* \"#utility.yul\":2044:2053   */\n      dup3\n        /* \"#utility.yul\":2040:2058   */\n      add\n        /* \"#utility.yul\":2032:2058   */\n      swap1\n      pop\n        /* \"#utility.yul\":2068:2133   */\n      tag_120\n        /* \"#utility.yul\":2130:2131   */\n      0x00\n        /* \"#utility.yul\":2119:2128   */\n      dup4\n        /* \"#utility.yul\":2115:2132   */\n      add\n        /* \"#utility.yul\":2106:2112   */\n      dup5\n        /* \"#utility.yul\":2068:2133   */\n      tag_103\n      jump\t// in\n    tag_120:\n        /* \"#utility.yul\":1930:2140   */\n      swap3\n      swap2\n      pop\n      pop\n      jump\t// out\n        /* \"#utility.yul\":2146:2565   */\n    tag_63:\n        /* \"#utility.yul\":2312:2316   */\n      0x00\n        /* \"#utility.yul\":2350:2352   */\n      0x20\n        /* \"#utility.yul\":2339:2348   */\n      dup3\n        /* \"#utility.yul\":2335:2353   */\n      add\n        /* \"#utility.yul\":2327:2353   */\n      swap1\n      pop\n        /* \"#utility.yul\":2399:2408   */\n      dup2\n        /* \"#utility.yul\":2393:2397   */\n      dup2\n        /* \"#utility.yul\":2389:2409   */\n      sub\n        /* \"#utility.yul\":2385:2386   */\n      0x00\n        /* \"#utility.yul\":2374:2383   */\n      dup4\n        /* \"#utility.yul\":2370:2387   */\n      add\n        /* \"#utility.yul\":2363:2410   */\n      mstore\n        /* \"#utility.yul\":2427:2558   */\n      tag_122\n        /* \"#utility.yul\":2553:2557   */\n      dup2\n        /* \"#utility.yul\":2427:2558   */\n      tag_107\n      jump\t// in\n    tag_122:\n        /* \"#utility.yul\":2419:2558   */\n      swap1\n      pop\n        /* \"#utility.yul\":2146:2565   */\n      swap2\n      swap1\n      pop\n      jump\t// out\n        /* \"#utility.yul\":2571:2793   */\n    tag_18:\n        /* \"#utility.yul\":2664:2668   */\n      0x00\n        /* \"#utility.yul\":2702:2704   */\n      0x20\n        /* \"#utility.yul\":2691:2700   */\n      dup3\n        /* \"#utility.yul\":2687:2705   */\n      add\n        /* \"#utility.yul\":2679:2705   */\n      swap1\n      pop\n        /* \"#utility.yul\":2715:2786   */\n      tag_124\n        /* \"#utility.yul\":2783:2784   */\n      0x00\n        /* \"#utility.yul\":2772:2781   */\n      dup4\n        /* \"#utility.yul\":2768:2785   */\n      add\n        /* \"#utility.yul\":2759:2765   */\n      dup5\n        /* \"#utility.yul\":2715:2786   */\n      tag_113\n      jump\t// in\n    tag_124:\n        /* \"#utility.yul\":2571:2793   */\n      swap3\n      swap2\n      pop\n      pop\n      jump\t// out\n        /* \"#utility.yul\":2880:3049   */\n    tag_110:\n        /* \"#utility.yul\":2964:2975   */\n      0x00\n        /* \"#utility.yul\":2998:3004   */\n      dup3\n        /* \"#utility.yul\":2993:2996   */\n      dup3\n        /* \"#utility.yul\":2986:3005   */\n      mstore\n        /* \"#utility.yul\":3038:3042   */\n      0x20\n        /* \"#utility.yul\":3033:3036   */\n      dup3\n        /* \"#utility.yul\":3029:3043   */\n      add\n        /* \"#utility.yul\":3014:3043   */\n      swap1\n      pop\n        /* \"#utility.yul\":2880:3049   */\n      swap3\n      swap2\n      pop\n      pop\n      jump\t// out\n        /* \"#utility.yul\":3055:3360   */\n    tag_65:\n        /* \"#utility.yul\":3095:3098   */\n      0x00\n        /* \"#utility.yul\":3114:3134   */\n      tag_129\n        /* \"#utility.yul\":3132:3133   */\n      dup3\n        /* \"#utility.yul\":3114:3134   */\n      tag_116\n      jump\t// in\n    tag_129:\n        /* \"#utility.yul\":3109:3134   */\n      swap2\n      pop\n        /* \"#utility.yul\":3148:3168   */\n      tag_130\n        /* \"#utility.yul\":3166:3167   */\n      dup4\n        /* \"#utility.yul\":3148:3168   */\n      tag_116\n      jump\t// in\n    tag_130:\n        /* \"#utility.yul\":3143:3168   */\n      swap3\n      pop\n        /* \"#utility.yul\":3302:3303   */\n      dup3\n        /* \"#utility.yul\":3234:3300   */\n      0xffffffffffffffffffffffffffffffffffffffffffffffffffffffffffffffff\n        /* \"#utility.yul\":3230:3304   */\n      sub\n        /* \"#utility.yul\":3227:3228   */\n      dup3\n        /* \"#utility.yul\":3224:3305   */\n      gt\n        /* \"#utility.yul\":3221:3328   */\n      iszero\n      tag_131\n      jumpi\n        /* \"#utility.yul\":3308:3326   */\n      tag_132\n      tag_133\n      jump\t// in\n    tag_132:\n        /* \"#utility.yul\":3221:3328   */\n    tag_131:\n        /* \"#utility.yul\":3352:3353   */\n      dup3\n        /* \"#utility.yul\":3349:3350   */\n      dup3\n        /* \"#utility.yul\":3345:3354   */\n      add\n        /* \"#utility.yul\":3338:3354   */\n      swap1\n      pop\n        /* \"#utility.yul\":3055:3360   */\n      swap3\n      swap2\n      pop\n      pop\n      jump\t// out\n        /* \"#utility.yul\":3366:3557   */\n    tag_68:\n        /* \"#utility.yul\":3406:3410   */\n      0x00\n        /* \"#utility.yul\":3426:3446   */\n      tag_135\n        /* \"#utility.yul\":3444:3445   */\n      dup3\n        /* \"#utility.yul\":3426:3446   */\n      tag_116\n      jump\t// in\n    tag_135:\n        /* \"#utility.yul\":3421:3446   */\n      swap2\n      pop\n        /* \"#utility.yul\":3460:3480   */\n      tag_136\n        /* \"#utility.yul\":3478:3479   */\n      dup4\n        /* \"#utility.yul\":3460:3480   */\n      tag_116\n      jump\t// in\n    tag_136:\n        /* \"#utility.yul\":3455:3480   */\n      swap3\n      pop\n        /* \"#utility.yul\":3499:3500   */\n      dup3\n        /* \"#utility.yul\":3496:3497   */\n      dup3\n        /* \"#utility.yul\":3493:3501   */\n      lt\n        /* \"#utility.yul\":3490:3524   */\n      iszero\n      tag_137\n      jumpi\n        /* \"#utility.yul\":3504:3522   */\n      tag_138\n      tag_133\n      jump\t// in\n    tag_138:\n        /* \"#utility.yul\":3490:3524   */\n    tag_137:\n        /* \"#utility.yul\":3549:3550   */\n      dup3\n        /* \"#utility.yul\":3546:3547   */\n      dup3\n        /* \"#utility.yul\":3542:3551   */\n      sub\n        /* \"#utility.yul\":3534:3551   */\n      swap1\n      pop\n        /* \"#utility.yul\":3366:3557   */\n      swap3\n      swap2\n      pop\n      pop\n      jump\t// out\n        /* \"#utility.yul\":3563:3659   */\n    tag_102:\n        /* \"#utility.yul\":3600:3607   */\n      0x00\n        /* \"#utility.yul\":3629:3653   */\n      tag_140\n        /* \"#utility.yul\":3647:3652   */\n      dup3\n        /* \"#utility.yul\":3629:3653   */\n      tag_141\n      jump\t// in\n    tag_140:\n        /* \"#utility.yul\":3618:3653   */\n      swap1\n      pop\n        /* \"#utility.yul\":3563:3659   */\n      swap2\n      swap1\n      pop\n      jump\t// out\n        /* \"#utility.yul\":3665:3755   */\n    tag_106:\n        /* \"#utility.yul\":3699:3706   */\n      0x00\n        /* \"#utility.yul\":3742:3747   */\n      dup2\n        /* \"#utility.yul\":3735:3748   */\n      iszero\n        /* \"#utility.yul\":3728:3749   */\n      iszero\n        /* \"#utility.yul\":3717:3749   */\n      swap1\n      pop\n        /* \"#utility.yul\":3665:3755   */\n      swap2\n      swap1\n      pop\n      jump\t// out\n        /* \"#utility.yul\":3761:3887   */\n    tag_141:\n        /* \"#utility.yul\":3798:3805   */\n      0x00\n        /* \"#utility.yul\":3838:3880   */\n      0xffffffffffffffffffffffffffffffffffffffff\n        /* \"#utility.yul\":3831:3836   */\n      dup3\n        /* \"#utility.yul\":3827:3881   */\n      and\n        /* \"#utility.yul\":3816:3881   */\n      swap1\n      pop\n        /* \"#utility.yul\":3761:3887   */\n      swap2\n      swap1\n      pop\n      jump\t// out\n        /* \"#utility.yul\":3893:3970   */\n    tag_116:\n        /* \"#utility.yul\":3930:3937   */\n      0x00\n        /* \"#utility.yul\":3959:3964   */\n      dup2\n        /* \"#utility.yul\":3948:3964   */\n      swap1\n      pop\n        /* \"#utility.yul\":3893:3970   */\n      swap2\n      swap1\n      pop\n      jump\t// out\n        /* \"#utility.yul\":3976:4156   */\n    tag_133:\n        /* \"#utility.yul\":4024:4101   */\n      0x4e487b7100000000000000000000000000000000000000000000000000000000\n        /* \"#utility.yul\":4021:4022   */\n      0x00\n        /* \"#utility.yul\":4014:4102   */\n      mstore\n        /* \"#utility.yul\":4121:4125   */\n      0x11\n        /* \"#utility.yul\":4118:4119   */\n      0x04\n        /* \"#utility.yul\":4111:4126   */\n      mstore\n        /* \"#utility.yul\":4145:4149   */\n      0x24\n        /* \"#utility.yul\":4142:4143   */\n      0x00\n        /* \"#utility.yul\":4135:4150   */\n      revert\n        /* \"#utility.yul\":4285:4402   */\n    tag_93:\n        /* \"#utility.yul\":4394:4395   */\n      0x00\n        /* \"#utility.yul\":4391:4392   */\n      dup1\n        /* \"#utility.yul\":4384:4396   */\n      revert\n        /* \"#utility.yul\":4408:4580   */\n    tag_112:\n        /* \"#utility.yul\":4548:4572   */\n      0x43726f776446756e64696e6720697320636c6f73656400000000000000000000\n        /* \"#utility.yul\":4544:4545   */\n      0x00\n        /* \"#utility.yul\":4536:4542   */\n      dup3\n        /* \"#utility.yul\":4532:4546   */\n      add\n        /* \"#utility.yul\":4525:4573   */\n      mstore\n        /* \"#utility.yul\":4408:4580   */\n      pop\n      jump\t// out\n        /* \"#utility.yul\":4586:4708   */\n    tag_85:\n        /* \"#utility.yul\":4659:4683   */\n      tag_151\n        /* \"#utility.yul\":4677:4682   */\n      dup2\n        /* \"#utility.yul\":4659:4683   */\n      tag_102\n      jump\t// in\n    tag_151:\n        /* \"#utility.yul\":4652:4657   */\n      dup2\n        /* \"#utility.yul\":4649:4684   */\n      eq\n        /* \"#utility.yul\":4639:4702   */\n      tag_152\n      jumpi\n        /* \"#utility.yul\":4698:4699   */\n      0x00\n        /* \"#utility.yul\":4695:4696   */\n      dup1\n        /* \"#utility.yul\":4688:4700   */\n      revert\n        /* \"#utility.yul\":4639:4702   */\n    tag_152:\n        /* \"#utility.yul\":4586:4708   */\n      pop\n      jump\t// out\n        /* \"#utility.yul\":4714:4836   */\n    tag_89:\n        /* \"#utility.yul\":4787:4811   */\n      tag_154\n        /* \"#utility.yul\":4805:4810   */\n      dup2\n        /* \"#utility.yul\":4787:4811   */\n      tag_116\n      jump\t// in\n    tag_154:\n        /* \"#utility.yul\":4780:4785   */\n      dup2\n        /* \"#utility.yul\":4777:4812   */\n      eq\n        /* \"#utility.yul\":4767:4830   */\n      tag_155\n      jumpi\n        /* \"#utility.yul\":4826:4827   */\n      0x00\n        /* \"#utility.yul\":4823:4824   */\n      dup1\n        /* \"#utility.yul\":4816:4828   */\n      revert\n        /* \"#utility.yul\":4767:4830   */\n    tag_155:\n        /* \"#utility.yul\":4714:4836   */\n      pop\n      jump\t// out\n\n    auxdata: 0xa26469706673582212209de169021b50a5e5ca059f180c99ea334320b4ece33fb40cb035eaf352ac54a564736f6c63430008070033\n}\n",
				"bytecode": {
					"linkReferences": {},
					"object": "60c06040526001600460006101000a81548160ff02191690831515021790555034801561002b57600080fd5b50604051610b4f380380610b4f833981810160405281019061004d91906100bd565b8173ffffffffffffffffffffffffffffffffffffffff1660808173ffffffffffffffffffffffffffffffffffffffff1660601b815250508060a08181525050505061016c565b6000815190506100a28161013e565b92915050565b6000815190506100b781610155565b92915050565b600080604083850312156100d4576100d3610139565b5b60006100e285828601610093565b92505060206100f3858286016100a8565b9150509250929050565b60006101088261010f565b9050919050565b600073ffffffffffffffffffffffffffffffffffffffff82169050919050565b6000819050919050565b600080fd5b610147816100fd565b811461015257600080fd5b50565b61015e8161012f565b811461016957600080fd5b50565b60805160601c60a05161099f6101b06000396000818161025701528181610322015281816103f5015261041d01526000818161023101526102b2015261099f6000f3fe6080604052600436106100865760003560e01c80637a3a0e84116100595780637a3a0e84146101495780638625749f14610174578063d7ac16771461019f578063d7bb99ba146101dc578063f781fbcc146101e657610086565b8063031b36771461008b57806304a79c97146100c857806338af3eed146100f357806343d726d61461011e575b600080fd5b34801561009757600080fd5b506100b260048036038101906100ad91906106e0565b610211565b6040516100bf91906107e0565b60405180910390f35b3480156100d457600080fd5b506100dd610229565b6040516100ea91906107e0565b60405180910390f35b3480156100ff57600080fd5b5061010861022f565b604051610115919061078a565b60405180910390f35b34801561012a57600080fd5b50610133610253565b60405161014091906107a5565b60405180910390f35b34801561015557600080fd5b5061015e610320565b60405161016b91906107e0565b60405180910390f35b34801561018057600080fd5b50610189610344565b60405161019691906107e0565b60405180910390f35b3480156101ab57600080fd5b506101c660048036038101906101c1919061070d565b610351565b6040516101d3919061078a565b60405180910390f35b6101e4610390565b005b3480156101f257600080fd5b506101fb6106a3565b60405161020891906107a5565b60405180910390f35b60016020528060005260406000206000915090505481565b60005481565b7f000000000000000000000000000000000000000000000000000000000000000081565b60007f00000000000000000000000000000000000000000000000000000000000000006000541015610288576000905061031d565b600080549050600080819055506000600460006101000a81548160ff0219169083151502179055507f000000000000000000000000000000000000000000000000000000000000000073ffffffffffffffffffffffffffffffffffffffff166108fc829081150290604051600060405180830381858888f19350505050158015610316573d6000803e3d6000fd5b5060019150505b90565b7f000000000000000000000000000000000000000000000000000000000000000081565b6000600380549050905090565b6003818154811061036157600080fd5b906000526020600020016000915054906101000a900473ffffffffffffffffffffffffffffffffffffffff1681565b600460009054906101000a900460ff166103df576040517f08c379a00000000000000000000000000000000000000000000000000000000081526004016103d6906107c0565b60405180910390fd5b6000346000546103ef919061080c565b905060007f00000000000000000000000000000000000000000000000000000000000000008211156104d2577f0000000000000000000000000000000000000000000000000000000000000000826104479190610862565b905080346104559190610862565b600160003373ffffffffffffffffffffffffffffffffffffffff1673ffffffffffffffffffffffffffffffffffffffff16815260200190815260200160002060008282546104a3919061080c565b9250508190555080346104b69190610862565b6000808282546104c6919061080c565b92505081905550610541565b34600160003373ffffffffffffffffffffffffffffffffffffffff1673ffffffffffffffffffffffffffffffffffffffff1681526020019081526020016000206000828254610521919061080c565b9250508190555034600080828254610539919061080c565b925050819055505b600260003373ffffffffffffffffffffffffffffffffffffffff1673ffffffffffffffffffffffffffffffffffffffff16815260200190815260200160002060009054906101000a900460ff1661064e576001600260003373ffffffffffffffffffffffffffffffffffffffff1673ffffffffffffffffffffffffffffffffffffffff16815260200190815260200160002060006101000a81548160ff0219169083151502179055506003339080600181540180825580915050600190039060005260206000200160009091909190916101000a81548173ffffffffffffffffffffffffffffffffffffffff021916908373ffffffffffffffffffffffffffffffffffffffff1602179055505b600081111561069f573373ffffffffffffffffffffffffffffffffffffffff166108fc829081150290604051600060405180830381858888f1935050505015801561069d573d6000803e3d6000fd5b505b5050565b600460009054906101000a900460ff1681565b6000813590506106c58161093b565b92915050565b6000813590506106da81610952565b92915050565b6000602082840312156106f6576106f561090d565b5b6000610704848285016106b6565b91505092915050565b6000602082840312156107235761072261090d565b5b6000610731848285016106cb565b91505092915050565b61074381610896565b82525050565b610752816108a8565b82525050565b60006107656016836107fb565b915061077082610912565b602082019050919050565b610784816108d4565b82525050565b600060208201905061079f600083018461073a565b92915050565b60006020820190506107ba6000830184610749565b92915050565b600060208201905081810360008301526107d981610758565b9050919050565b60006020820190506107f5600083018461077b565b92915050565b600082825260208201905092915050565b6000610817826108d4565b9150610822836108d4565b9250827fffffffffffffffffffffffffffffffffffffffffffffffffffffffffffffffff03821115610857576108566108de565b5b828201905092915050565b600061086d826108d4565b9150610878836108d4565b92508282101561088b5761088a6108de565b5b828203905092915050565b60006108a1826108b4565b9050919050565b60008115159050919050565b600073ffffffffffffffffffffffffffffffffffffffff82169050919050565b6000819050919050565b7f4e487b7100000000000000000000000000000000000000000000000000000000600052601160045260246000fd5b600080fd5b7f43726f776446756e64696e6720697320636c6f73656400000000000000000000600082015250565b61094481610896565b811461094f57600080fd5b50565b61095b816108d4565b811461096657600080fd5b5056fea26469706673582212209de169021b50a5e5ca059f180c99ea334320b4ece33fb40cb035eaf352ac54a564736f6c63430008070033",
					"opcodes": "PUSH1 0xC0 PUSH1 0x40 MSTORE PUSH1 0x1 PUSH1 0x4 PUSH1 0x0 PUSH2 0x100 EXP DUP2 SLOAD DUP2 PUSH1 0xFF MUL NOT AND SWAP1 DUP4 ISZERO ISZERO MUL OR SWAP1 SSTORE POP CALLVALUE DUP1 ISZERO PUSH2 0x2B JUMPI PUSH1 0x0 DUP1 REVERT JUMPDEST POP PUSH1 0x40 MLOAD PUSH2 0xB4F CODESIZE SUB DUP1 PUSH2 0xB4F DUP4 CODECOPY DUP2 DUP2 ADD PUSH1 0x40 MSTORE DUP2 ADD SWAP1 PUSH2 0x4D SWAP2 SWAP1 PUSH2 0xBD JUMP JUMPDEST DUP2 PUSH20 0xFFFFFFFFFFFFFFFFFFFFFFFFFFFFFFFFFFFFFFFF AND PUSH1 0x80 DUP2 PUSH20 0xFFFFFFFFFFFFFFFFFFFFFFFFFFFFFFFFFFFFFFFF AND PUSH1 0x60 SHL DUP2 MSTORE POP POP DUP1 PUSH1 0xA0 DUP2 DUP2 MSTORE POP POP POP POP PUSH2 0x16C JUMP JUMPDEST PUSH1 0x0 DUP2 MLOAD SWAP1 POP PUSH2 0xA2 DUP2 PUSH2 0x13E JUMP JUMPDEST SWAP3 SWAP2 POP POP JUMP JUMPDEST PUSH1 0x0 DUP2 MLOAD SWAP1 POP PUSH2 0xB7 DUP2 PUSH2 0x155 JUMP JUMPDEST SWAP3 SWAP2 POP POP JUMP JUMPDEST PUSH1 0x0 DUP1 PUSH1 0x40 DUP4 DUP6 SUB SLT ISZERO PUSH2 0xD4 JUMPI PUSH2 0xD3 PUSH2 0x139 JUMP JUMPDEST JUMPDEST PUSH1 0x0 PUSH2 0xE2 DUP6 DUP3 DUP7 ADD PUSH2 0x93 JUMP JUMPDEST SWAP3 POP POP PUSH1 0x20 PUSH2 0xF3 DUP6 DUP3 DUP7 ADD PUSH2 0xA8 JUMP JUMPDEST SWAP2 POP POP SWAP3 POP SWAP3 SWAP1 POP JUMP JUMPDEST PUSH1 0x0 PUSH2 0x108 DUP3 PUSH2 0x10F JUMP JUMPDEST SWAP1 POP SWAP2 SWAP1 POP JUMP JUMPDEST PUSH1 0x0 PUSH20 0xFFFFFFFFFFFFFFFFFFFFFFFFFFFFFFFFFFFFFFFF DUP3 AND SWAP1 POP SWAP2 SWAP1 POP JUMP JUMPDEST PUSH1 0x0 DUP2 SWAP1 POP SWAP2 SWAP1 POP JUMP JUMPDEST PUSH1 0x0 DUP1 REVERT JUMPDEST PUSH2 0x147 DUP2 PUSH2 0xFD JUMP JUMPDEST DUP2 EQ PUSH2 0x152 JUMPI PUSH1 0x0 DUP1 REVERT JUMPDEST POP JUMP JUMPDEST PUSH2 0x15E DUP2 PUSH2 0x12F JUMP JUMPDEST DUP2 EQ PUSH2 0x169 JUMPI PUSH1 0x0 DUP1 REVERT JUMPDEST POP JUMP JUMPDEST PUSH1 0x80 MLOAD PUSH1 0x60 SHR PUSH1 0xA0 MLOAD PUSH2 0x99F PUSH2 0x1B0 PUSH1 0x0 CODECOPY PUSH1 0x0 DUP2 DUP2 PUSH2 0x257 ADD MSTORE DUP2 DUP2 PUSH2 0x322 ADD MSTORE DUP2 DUP2 PUSH2 0x3F5 ADD MSTORE PUSH2 0x41D ADD MSTORE PUSH1 0x0 DUP2 DUP2 PUSH2 0x231 ADD MSTORE PUSH2 0x2B2 ADD MSTORE PUSH2 0x99F PUSH1 0x0 RETURN INVALID PUSH1 0x80 PUSH1 0x40 MSTORE PUSH1 0x4 CALLDATASIZE LT PUSH2 0x86 JUMPI PUSH1 0x0 CALLDATALOAD PUSH1 0xE0 SHR DUP1 PUSH4 0x7A3A0E84 GT PUSH2 0x59 JUMPI DUP1 PUSH4 0x7A3A0E84 EQ PUSH2 0x149 JUMPI DUP1 PUSH4 0x8625749F EQ PUSH2 0x174 JUMPI DUP1 PUSH4 0xD7AC1677 EQ PUSH2 0x19F JUMPI DUP1 PUSH4 0xD7BB99BA EQ PUSH2 0x1DC JUMPI DUP1 PUSH4 0xF781FBCC EQ PUSH2 0x1E6 JUMPI PUSH2 0x86 JUMP JUMPDEST DUP1 PUSH4 0x31B3677 EQ PUSH2 0x8B JUMPI DUP1 PUSH4 0x4A79C97 EQ PUSH2 0xC8 JUMPI DUP1 PUSH4 0x38AF3EED EQ PUSH2 0xF3 JUMPI DUP1 PUSH4 0x43D726D6 EQ PUSH2 0x11E JUMPI JUMPDEST PUSH1 0x0 DUP1 REVERT JUMPDEST CALLVALUE DUP1 ISZERO PUSH2 0x97 JUMPI PUSH1 0x0 DUP1 REVERT JUMPDEST POP PUSH2 0xB2 PUSH1 0x4 DUP1 CALLDATASIZE SUB DUP2 ADD SWAP1 PUSH2 0xAD SWAP2 SWAP1 PUSH2 0x6E0 JUMP JUMPDEST PUSH2 0x211 JUMP JUMPDEST PUSH1 0x40 MLOAD PUSH2 0xBF SWAP2 SWAP1 PUSH2 0x7E0 JUMP JUMPDEST PUSH1 0x40 MLOAD DUP1 SWAP2 SUB SWAP1 RETURN JUMPDEST CALLVALUE DUP1 ISZERO PUSH2 0xD4 JUMPI PUSH1 0x0 DUP1 REVERT JUMPDEST POP PUSH2 0xDD PUSH2 0x229 JUMP JUMPDEST PUSH1 0x40 MLOAD PUSH2 0xEA SWAP2 SWAP1 PUSH2 0x7E0 JUMP JUMPDEST PUSH1 0x40 MLOAD DUP1 SWAP2 SUB SWAP1 RETURN JUMPDEST CALLVALUE DUP1 ISZERO PUSH2 0xFF JUMPI PUSH1 0x0 DUP1 REVERT JUMPDEST POP PUSH2 0x108 PUSH2 0x22F JUMP JUMPDEST PUSH1 0x40 MLOAD PUSH2 0x115 SWAP2 SWAP1 PUSH2 0x78A JUMP JUMPDEST PUSH1 0x40 MLOAD DUP1 SWAP2 SUB SWAP1 RETURN JUMPDEST CALLVALUE DUP1 ISZERO PUSH2 0x12A JUMPI PUSH1 0x0 DUP1 REVERT JUMPDEST POP PUSH2 0x133 PUSH2 0x253 JUMP JUMPDEST PUSH1 0x40 MLOAD PUSH2 0x140 SWAP2 SWAP1 PUSH2 0x7A5 JUMP JUMPDEST PUSH1 0x40 MLOAD DUP1 SWAP2 SUB SWAP1 RETURN JUMPDEST CALLVALUE DUP1 ISZERO PUSH2 0x155 JUMPI PUSH1 0x0 DUP1 REVERT JUMPDEST POP PUSH2 0x15E PUSH2 0x320 JUMP JUMPDEST PUSH1 0x40 MLOAD PUSH2 0x16B SWAP2 SWAP1 PUSH2 0x7E0 JUMP JUMPDEST PUSH1 0x40 MLOAD DUP1 SWAP2 SUB SWAP1 RETURN JUMPDEST CALLVALUE DUP1 ISZERO PUSH2 0x180 JUMPI PUSH1 0x0 DUP1 REVERT JUMPDEST POP PUSH2 0x189 PUSH2 0x344 JUMP JUMPDEST PUSH1 0x40 MLOAD PUSH2 0x196 SWAP2 SWAP1 PUSH2 0x7E0 JUMP JUMPDEST PUSH1 0x40 MLOAD DUP1 SWAP2 SUB SWAP1 RETURN JUMPDEST CALLVALUE DUP1 ISZERO PUSH2 0x1AB JUMPI PUSH1 0x0 DUP1 REVERT JUMPDEST POP PUSH2 0x1C6 PUSH1 0x4 DUP1 CALLDATASIZE SUB DUP2 ADD SWAP1 PUSH2 0x1C1 SWAP2 SWAP1 PUSH2 0x70D JUMP JUMPDEST PUSH2 0x351 JUMP JUMPDEST PUSH1 0x40 MLOAD PUSH2 0x1D3 SWAP2 SWAP1 PUSH2 0x78A JUMP JUMPDEST PUSH1 0x40 MLOAD DUP1 SWAP2 SUB SWAP1 RETURN JUMPDEST PUSH2 0x1E4 PUSH2 0x390 JUMP JUMPDEST STOP JUMPDEST CALLVALUE DUP1 ISZERO PUSH2 0x1F2 JUMPI PUSH1 0x0 DUP1 REVERT JUMPDEST POP PUSH2 0x1FB PUSH2 0x6A3 JUMP JUMPDEST PUSH1 0x40 MLOAD PUSH2 0x208 SWAP2 SWAP1 PUSH2 0x7A5 JUMP JUMPDEST PUSH1 0x40 MLOAD DUP1 SWAP2 SUB SWAP1 RETURN JUMPDEST PUSH1 0x1 PUSH1 0x20 MSTORE DUP1 PUSH1 0x0 MSTORE PUSH1 0x40 PUSH1 0x0 KECCAK256 PUSH1 0x0 SWAP2 POP SWAP1 POP SLOAD DUP2 JUMP JUMPDEST PUSH1 0x0 SLOAD DUP2 JUMP JUMPDEST PUSH32 0x0 DUP2 JUMP JUMPDEST PUSH1 0x0 PUSH32 0x0 PUSH1 0x0 SLOAD LT ISZERO PUSH2 0x288 JUMPI PUSH1 0x0 SWAP1 POP PUSH2 0x31D JUMP JUMPDEST PUSH1 0x0 DUP1 SLOAD SWAP1 POP PUSH1 0x0 DUP1 DUP2 SWAP1 SSTORE POP PUSH1 0x0 PUSH1 0x4 PUSH1 0x0 PUSH2 0x100 EXP DUP2 SLOAD DUP2 PUSH1 0xFF MUL NOT AND SWAP1 DUP4 ISZERO ISZERO MUL OR SWAP1 SSTORE POP PUSH32 0x0 PUSH20 0xFFFFFFFFFFFFFFFFFFFFFFFFFFFFFFFFFFFFFFFF AND PUSH2 0x8FC DUP3 SWAP1 DUP2 ISZERO MUL SWAP1 PUSH1 0x40 MLOAD PUSH1 0x0 PUSH1 0x40 MLOAD DUP1 DUP4 SUB DUP2 DUP6 DUP9 DUP9 CALL SWAP4 POP POP POP POP ISZERO DUP1 ISZERO PUSH2 0x316 JUMPI RETURNDATASIZE PUSH1 0x0 DUP1 RETURNDATACOPY RETURNDATASIZE PUSH1 0x0 REVERT JUMPDEST POP PUSH1 0x1 SWAP2 POP POP JUMPDEST SWAP1 JUMP JUMPDEST PUSH32 0x0 DUP2 JUMP JUMPDEST PUSH1 0x0 PUSH1 0x3 DUP1 SLOAD SWAP1 POP SWAP1 POP SWAP1 JUMP JUMPDEST PUSH1 0x3 DUP2 DUP2 SLOAD DUP2 LT PUSH2 0x361 JUMPI PUSH1 0x0 DUP1 REVERT JUMPDEST SWAP1 PUSH1 0x0 MSTORE PUSH1 0x20 PUSH1 0x0 KECCAK256 ADD PUSH1 0x0 SWAP2 POP SLOAD SWAP1 PUSH2 0x100 EXP SWAP1 DIV PUSH20 0xFFFFFFFFFFFFFFFFFFFFFFFFFFFFFFFFFFFFFFFF AND DUP2 JUMP JUMPDEST PUSH1 0x4 PUSH1 0x0 SWAP1 SLOAD SWAP1 PUSH2 0x100 EXP SWAP1 DIV PUSH1 0xFF AND PUSH2 0x3DF JUMPI PUSH1 0x40 MLOAD PUSH32 0x8C379A000000000000000000000000000000000000000000000000000000000 DUP2 MSTORE PUSH1 0x4 ADD PUSH2 0x3D6 SWAP1 PUSH2 0x7C0 JUMP JUMPDEST PUSH1 0x40 MLOAD DUP1 SWAP2 SUB SWAP1 REVERT JUMPDEST PUSH1 0x0 CALLVALUE PUSH1 0x0 SLOAD PUSH2 0x3EF SWAP2 SWAP1 PUSH2 0x80C JUMP JUMPDEST SWAP1 POP PUSH1 0x0 PUSH32 0x0 DUP3 GT ISZERO PUSH2 0x4D2 JUMPI PUSH32 0x0 DUP3 PUSH2 0x447 SWAP2 SWAP1 PUSH2 0x862 JUMP JUMPDEST SWAP1 POP DUP1 CALLVALUE PUSH2 0x455 SWAP2 SWAP1 PUSH2 0x862 JUMP JUMPDEST PUSH1 0x1 PUSH1 0x0 CALLER PUSH20 0xFFFFFFFFFFFFFFFFFFFFFFFFFFFFFFFFFFFFFFFF AND PUSH20 0xFFFFFFFFFFFFFFFFFFFFFFFFFFFFFFFFFFFFFFFF AND DUP2 MSTORE PUSH1 0x20 ADD SWAP1 DUP2 MSTORE PUSH1 0x20 ADD PUSH1 0x0 KECCAK256 PUSH1 0x0 DUP3 DUP3 SLOAD PUSH2 0x4A3 SWAP2 SWAP1 PUSH2 0x80C JUMP JUMPDEST SWAP3 POP POP DUP2 SWAP1 SSTORE POP DUP1 CALLVALUE PUSH2 0x4B6 SWAP2 SWAP1 PUSH2 0x862 JUMP JUMPDEST PUSH1 0x0 DUP1 DUP3 DUP3 SLOAD PUSH2 0x4C6 SWAP2 SWAP1 PUSH2 0x80C JUMP JUMPDEST SWAP3 POP POP DUP2 SWAP1 SSTORE POP PUSH2 0x541 JUMP JUMPDEST CALLVALUE PUSH1 0x1 PUSH1 0x0 CALLER PUSH20 0xFFFFFFFFFFFFFFFFFFFFFFFFFFFFFFFFFFFFFFFF AND PUSH20 0xFFFFFFFFFFFFFFFFFFFFFFFFFFFFFFFFFFFFFFFF AND DUP2 MSTORE PUSH1 0x20 ADD SWAP1 DUP2 MSTORE PUSH1 0x20 ADD PUSH1 0x0 KECCAK256 PUSH1 0x0 DUP3 DUP3 SLOAD PUSH2 0x521 SWAP2 SWAP1 PUSH2 0x80C JUMP JUMPDEST SWAP3 POP POP DUP2 SWAP1 SSTORE POP CALLVALUE PUSH1 0x0 DUP1 DUP3 DUP3 SLOAD PUSH2 0x539 SWAP2 SWAP1 PUSH2 0x80C JUMP JUMPDEST SWAP3 POP POP DUP2 SWAP1 SSTORE POP JUMPDEST PUSH1 0x2 PUSH1 0x0 CALLER PUSH20 0xFFFFFFFFFFFFFFFFFFFFFFFFFFFFFFFFFFFFFFFF AND PUSH20 0xFFFFFFFFFFFFFFFFFFFFFFFFFFFFFFFFFFFFFFFF AND DUP2 MSTORE PUSH1 0x20 ADD SWAP1 DUP2 MSTORE PUSH1 0x20 ADD PUSH1 0x0 KECCAK256 PUSH1 0x0 SWAP1 SLOAD SWAP1 PUSH2 0x100 EXP SWAP1 DIV PUSH1 0xFF AND PUSH2 0x64E JUMPI PUSH1 0x1 PUSH1 0x2 PUSH1 0x0 CALLER PUSH20 0xFFFFFFFFFFFFFFFFFFFFFFFFFFFFFFFFFFFFFFFF AND PUSH20 0xFFFFFFFFFFFFFFFFFFFFFFFFFFFFFFFFFFFFFFFF AND DUP2 MSTORE PUSH1 0x20 ADD SWAP1 DUP2 MSTORE PUSH1 0x20 ADD PUSH1 0x0 KECCAK256 PUSH1 0x0 PUSH2 0x100 EXP DUP2 SLOAD DUP2 PUSH1 0xFF MUL NOT AND SWAP1 DUP4 ISZERO ISZERO MUL OR SWAP1 SSTORE POP PUSH1 0x3 CALLER SWAP1 DUP1 PUSH1 0x1 DUP2 SLOAD ADD DUP1 DUP3 SSTORE DUP1 SWAP2 POP POP PUSH1 0x1 SWAP1 SUB SWAP1 PUSH1 0x0 MSTORE PUSH1 0x20 PUSH1 0x0 KECCAK256 ADD PUSH1 0x0 SWAP1 SWAP2 SWAP1 SWAP2 SWAP1 SWAP2 PUSH2 0x100 EXP DUP2 SLOAD DUP2 PUSH20 0xFFFFFFFFFFFFFFFFFFFFFFFFFFFFFFFFFFFFFFFF MUL NOT AND SWAP1 DUP4 PUSH20 0xFFFFFFFFFFFFFFFFFFFFFFFFFFFFFFFFFFFFFFFF AND MUL OR SWAP1 SSTORE POP JUMPDEST PUSH1 0x0 DUP2 GT ISZERO PUSH2 0x69F JUMPI CALLER PUSH20 0xFFFFFFFFFFFFFFFFFFFFFFFFFFFFFFFFFFFFFFFF AND PUSH2 0x8FC DUP3 SWAP1 DUP2 ISZERO MUL SWAP1 PUSH1 0x40 MLOAD PUSH1 0x0 PUSH1 0x40 MLOAD DUP1 DUP4 SUB DUP2 DUP6 DUP9 DUP9 CALL SWAP4 POP POP POP POP ISZERO DUP1 ISZERO PUSH2 0x69D JUMPI RETURNDATASIZE PUSH1 0x0 DUP1 RETURNDATACOPY RETURNDATASIZE PUSH1 0x0 REVERT JUMPDEST POP JUMPDEST POP POP JUMP JUMPDEST PUSH1 0x4 PUSH1 0x0 SWAP1 SLOAD SWAP1 PUSH2 0x100 EXP SWAP1 DIV PUSH1 0xFF AND DUP2 JUMP JUMPDEST PUSH1 0x0 DUP2 CALLDATALOAD SWAP1 POP PUSH2 0x6C5 DUP2 PUSH2 0x93B JUMP JUMPDEST SWAP3 SWAP2 POP POP JUMP JUMPDEST PUSH1 0x0 DUP2 CALLDATALOAD SWAP1 POP PUSH2 0x6DA DUP2 PUSH2 0x952 JUMP JUMPDEST SWAP3 SWAP2 POP POP JUMP JUMPDEST PUSH1 0x0 PUSH1 0x20 DUP3 DUP5 SUB SLT ISZERO PUSH2 0x6F6 JUMPI PUSH2 0x6F5 PUSH2 0x90D JUMP JUMPDEST JUMPDEST PUSH1 0x0 PUSH2 0x704 DUP5 DUP3 DUP6 ADD PUSH2 0x6B6 JUMP JUMPDEST SWAP2 POP POP SWAP3 SWAP2 POP POP JUMP JUMPDEST PUSH1 0x0 PUSH1 0x20 DUP3 DUP5 SUB SLT ISZERO PUSH2 0x723 JUMPI PUSH2 0x722 PUSH2 0x90D JUMP JUMPDEST JUMPDEST PUSH1 0x0 PUSH2 0x731 DUP5 DUP3 DUP6 ADD PUSH2 0x6CB JUMP JUMPDEST SWAP2 POP POP SWAP3 SWAP2 POP POP JUMP JUMPDEST PUSH2 0x743 DUP2 PUSH2 0x896 JUMP JUMPDEST DUP3 MSTORE POP POP JUMP JUMPDEST PUSH2 0x752 DUP2 PUSH2 0x8A8 JUMP JUMPDEST DUP3 MSTORE POP POP JUMP JUMPDEST PUSH1 0x0 PUSH2 0x765 PUSH1 0x16 DUP4 PUSH2 0x7FB JUMP JUMPDEST SWAP2 POP PUSH2 0x770 DUP3 PUSH2 0x912 JUMP JUMPDEST PUSH1 0x20 DUP3 ADD SWAP1 POP SWAP2 SWAP1 POP JUMP JUMPDEST PUSH2 0x784 DUP2 PUSH2 0x8D4 JUMP JUMPDEST DUP3 MSTORE POP POP JUMP JUMPDEST PUSH1 0x0 PUSH1 0x20 DUP3 ADD SWAP1 POP PUSH2 0x79F PUSH1 0x0 DUP4 ADD DUP5 PUSH2 0x73A JUMP JUMPDEST SWAP3 SWAP2 POP POP JUMP JUMPDEST PUSH1 0x0 PUSH1 0x20 DUP3 ADD SWAP1 POP PUSH2 0x7BA PUSH1 0x0 DUP4 ADD DUP5 PUSH2 0x749 JUMP JUMPDEST SWAP3 SWAP2 POP POP JUMP JUMPDEST PUSH1 0x0 PUSH1 0x20 DUP3 ADD SWAP1 POP DUP2 DUP2 SUB PUSH1 0x0 DUP4 ADD MSTORE PUSH2 0x7D9 DUP2 PUSH2 0x758 JUMP JUMPDEST SWAP1 POP SWAP2 SWAP1 POP JUMP JUMPDEST PUSH1 0x0 PUSH1 0x20 DUP3 ADD SWAP1 POP PUSH2 0x7F5 PUSH1 0x0 DUP4 ADD DUP5 PUSH2 0x77B JUMP JUMPDEST SWAP3 SWAP2 POP POP JUMP JUMPDEST PUSH1 0x0 DUP3 DUP3 MSTORE PUSH1 0x20 DUP3 ADD SWAP1 POP SWAP3 SWAP2 POP POP JUMP JUMPDEST PUSH1 0x0 PUSH2 0x817 DUP3 PUSH2 0x8D4 JUMP JUMPDEST SWAP2 POP PUSH2 0x822 DUP4 PUSH2 0x8D4 JUMP JUMPDEST SWAP3 POP DUP3 PUSH32 0xFFFFFFFFFFFFFFFFFFFFFFFFFFFFFFFFFFFFFFFFFFFFFFFFFFFFFFFFFFFFFFFF SUB DUP3 GT ISZERO PUSH2 0x857 JUMPI PUSH2 0x856 PUSH2 0x8DE JUMP JUMPDEST JUMPDEST DUP3 DUP3 ADD SWAP1 POP SWAP3 SWAP2 POP POP JUMP JUMPDEST PUSH1 0x0 PUSH2 0x86D DUP3 PUSH2 0x8D4 JUMP JUMPDEST SWAP2 POP PUSH2 0x878 DUP4 PUSH2 0x8D4 JUMP JUMPDEST SWAP3 POP DUP3 DUP3 LT ISZERO PUSH2 0x88B JUMPI PUSH2 0x88A PUSH2 0x8DE JUMP JUMPDEST JUMPDEST DUP3 DUP3 SUB SWAP1 POP SWAP3 SWAP2 POP POP JUMP JUMPDEST PUSH1 0x0 PUSH2 0x8A1 DUP3 PUSH2 0x8B4 JUMP JUMPDEST SWAP1 POP SWAP2 SWAP1 POP JUMP JUMPDEST PUSH1 0x0 DUP2 ISZERO ISZERO SWAP1 POP SWAP2 SWAP1 POP JUMP JUMPDEST PUSH1 0x0 PUSH20 0xFFFFFFFFFFFFFFFFFFFFFFFFFFFFFFFFFFFFFFFF DUP3 AND SWAP1 POP SWAP2 SWAP1 POP JUMP JUMPDEST PUSH1 0x0 DUP2 SWAP1 POP SWAP2 SWAP1 POP JUMP JUMPDEST PUSH32 0x4E487B7100000000000000000000000000000000000000000000000000000000 PUSH1 0x0 MSTORE PUSH1 0x11 PUSH1 0x4 MSTORE PUSH1 0x24 PUSH1 0x0 REVERT JUMPDEST PUSH1 0x0 DUP1 REVERT JUMPDEST PUSH32 0x43726F776446756E64696E6720697320636C6F73656400000000000000000000 PUSH1 0x0 DUP3 ADD MSTORE POP JUMP JUMPDEST PUSH2 0x944 DUP2 PUSH2 0x896 JUMP JUMPDEST DUP2 EQ PUSH2 0x94F JUMPI PUSH1 0x0 DUP1 REVERT JUMPDEST POP JUMP JUMPDEST PUSH2 0x95B DUP2 PUSH2 0x8D4 JUMP JUMPDEST DUP2 EQ PUSH2 0x966 JUMPI PUSH1 0x0 DUP1 REVERT JUMPDEST POP JUMP INVALID LOG2 PUSH5 0x6970667358 0x22 SLT KECCAK256 SWAP14 0xE1 PUSH10 0x21B50A5E5CA059F180C SWAP10 0xEA CALLER NUMBER KECCAK256 0xB4 0xEC 0xE3 EXTCODEHASH 0xB4 0xC 0xB0 CALLDATALOAD 0xEA RETURN MSTORE 0xAC SLOAD 0xA5 PUSH5 0x736F6C6343 STOP ADDMOD SMOD STOP CALLER "
				},
				"gasEstimates": {
					"creation": {
						"codeDepositCost": "492600",
						"executionCost": "infinite",
						"totalCost": "infinite"
					},
					"external": {
						"AVAILABLED()": "2559",
						"beneficiary()": "infinite",
						"close()": "infinite",
						"contribute()": "infinite",
						"funders(address)": "2815",
						"fundersKey(uint256)": "5000",
						"fundersLenght()": "2467",
						"fundingAmount()": "2452",
						"fundingGoal()": "infinite"
					}
				},
				"methodIdentifiers": {
					"AVAILABLED()": "f781fbcc",
					"beneficiary()": "38af3eed",
					"close()": "43d726d6",
					"contribute()": "d7bb99ba",
					"funders(address)": "031b3677",
					"fundersKey(uint256)": "d7ac1677",
					"fundersLenght()": "8625749f",
					"fundingAmount()": "04a79c97",
					"fundingGoal()": "7a3a0e84"
				}
			},
			"storageLayout": {
				"storage": [
					{
						"astId": 7,
						"contract": "StudyPackage/Solidity/3.合约实战/众筹合约/index.sol:CrowdFunding",
						"label": "fundingAmount",
						"offset": 0,
						"slot": "0",
						"type": "t_uint256"
					},
					{
						"astId": 11,
						"contract": "StudyPackage/Solidity/3.合约实战/众筹合约/index.sol:CrowdFunding",
						"label": "funders",
						"offset": 0,
						"slot": "1",
						"type": "t_mapping(t_address,t_uint256)"
					},
					{
						"astId": 15,
						"contract": "StudyPackage/Solidity/3.合约实战/众筹合约/index.sol:CrowdFunding",
						"label": "fundersInserted",
						"offset": 0,
						"slot": "2",
						"type": "t_mapping(t_address,t_bool)"
					},
					{
						"astId": 18,
						"contract": "StudyPackage/Solidity/3.合约实战/众筹合约/index.sol:CrowdFunding",
						"label": "fundersKey",
						"offset": 0,
						"slot": "3",
						"type": "t_array(t_address)dyn_storage"
					},
					{
						"astId": 21,
						"contract": "StudyPackage/Solidity/3.合约实战/众筹合约/index.sol:CrowdFunding",
						"label": "AVAILABLED",
						"offset": 0,
						"slot": "4",
						"type": "t_bool"
					}
				],
				"types": {
					"t_address": {
						"encoding": "inplace",
						"label": "address",
						"numberOfBytes": "20"
					},
					"t_array(t_address)dyn_storage": {
						"base": "t_address",
						"encoding": "dynamic_array",
						"label": "address[]",
						"numberOfBytes": "32"
					},
					"t_bool": {
						"encoding": "inplace",
						"label": "bool",
						"numberOfBytes": "1"
					},
					"t_mapping(t_address,t_bool)": {
						"encoding": "mapping",
						"key": "t_address",
						"label": "mapping(address => bool)",
						"numberOfBytes": "32",
						"value": "t_bool"
					},
					"t_mapping(t_address,t_uint256)": {
						"encoding": "mapping",
						"key": "t_address",
						"label": "mapping(address => uint256)",
						"numberOfBytes": "32",
						"value": "t_uint256"
					},
					"t_uint256": {
						"encoding": "inplace",
						"label": "uint256",
						"numberOfBytes": "32"
					}
				}
			},
			"userdoc": {
				"kind": "user",
				"methods": {
					"contribute()": {
						"notice": "资助操作   可用的时候才可以捐款   合约关闭之后，就不能再进行捐助"
					}
				},
				"version": 1
			}
		}
	}
}