{
	"StudyPackage/Solidity/4.Solidity进阶/ch2-库合约/index.sol": {
		"UseLibrary": {
			"abi": [
				{
					"inputs": [
						{
							"internalType": "uint256",
							"name": "_number",
							"type": "uint256"
						}
					],
					"name": "getString1",
					"outputs": [
						{
							"internalType": "string",
							"name": "",
							"type": "string"
						}
					],
					"stateMutability": "pure",
					"type": "function"
				},
				{
					"inputs": [
						{
							"internalType": "uint256",
							"name": "_number",
							"type": "uint256"
						}
					],
					"name": "getString2",
					"outputs": [
						{
							"internalType": "string",
							"name": "",
							"type": "string"
						}
					],
					"stateMutability": "pure",
					"type": "function"
				}
			],
			"devdoc": {
				"kind": "dev",
				"methods": {},
				"version": 1
			},
			"evm": {
				"assembly": "    /* \"StudyPackage/Solidity/4.Solidity\\xe8\\xbf\\x9b\\xe9\\x98\\xb6/ch2-\\xe5\\xba\\x93\\xe5\\x90\\x88\\xe7\\xba\\xa6/index.sol\":331:785  contract UseLibrary {... */\n  mstore(0x40, 0x80)\n  callvalue\n  dup1\n  iszero\n  tag_1\n  jumpi\n  0x00\n  dup1\n  revert\ntag_1:\n  pop\n  dataSize(sub_0)\n  dup1\n  dataOffset(sub_0)\n  0x00\n  codecopy\n  0x00\n  return\nstop\n\nsub_0: assembly {\n        /* \"StudyPackage/Solidity/4.Solidity\\xe8\\xbf\\x9b\\xe9\\x98\\xb6/ch2-\\xe5\\xba\\x93\\xe5\\x90\\x88\\xe7\\xba\\xa6/index.sol\":331:785  contract UseLibrary {... */\n      mstore(0x40, 0x80)\n      callvalue\n      dup1\n      iszero\n      tag_1\n      jumpi\n      0x00\n      dup1\n      revert\n    tag_1:\n      pop\n      jumpi(tag_2, lt(calldatasize, 0x04))\n      shr(0xe0, calldataload(0x00))\n      dup1\n      0xd6ee0f32\n      eq\n      tag_3\n      jumpi\n      dup1\n      0xe65eac98\n      eq\n      tag_4\n      jumpi\n    tag_2:\n      0x00\n      dup1\n      revert\n        /* \"StudyPackage/Solidity/4.Solidity\\xe8\\xbf\\x9b\\xe9\\x98\\xb6/ch2-\\xe5\\xba\\x93\\xe5\\x90\\x88\\xe7\\xba\\xa6/index.sol\":419:613  function getString1(uint256 _number) public pure returns (string memory) {... */\n    tag_3:\n      tag_5\n      0x04\n      dup1\n      calldatasize\n      sub\n      dup2\n      add\n      swap1\n      tag_6\n      swap2\n      swap1\n      tag_7\n      jump\t// in\n    tag_6:\n      tag_8\n      jump\t// in\n    tag_5:\n      mload(0x40)\n      tag_9\n      swap2\n      swap1\n      tag_10\n      jump\t// in\n    tag_9:\n      mload(0x40)\n      dup1\n      swap2\n      sub\n      swap1\n      return\n        /* \"StudyPackage/Solidity/4.Solidity\\xe8\\xbf\\x9b\\xe9\\x98\\xb6/ch2-\\xe5\\xba\\x93\\xe5\\x90\\x88\\xe7\\xba\\xa6/index.sol\":660:783  function getString2(uint256 _number) public pure returns (string memory) {... */\n    tag_4:\n      tag_11\n      0x04\n      dup1\n      calldatasize\n      sub\n      dup2\n      add\n      swap1\n      tag_12\n      swap2\n      swap1\n      tag_7\n      jump\t// in\n    tag_12:\n      tag_13\n      jump\t// in\n    tag_11:\n      mload(0x40)\n      tag_14\n      swap2\n      swap1\n      tag_10\n      jump\t// in\n    tag_14:\n      mload(0x40)\n      dup1\n      swap2\n      sub\n      swap1\n      return\n        /* \"StudyPackage/Solidity/4.Solidity\\xe8\\xbf\\x9b\\xe9\\x98\\xb6/ch2-\\xe5\\xba\\x93\\xe5\\x90\\x88\\xe7\\xba\\xa6/index.sol\":419:613  function getString1(uint256 _number) public pure returns (string memory) {... */\n    tag_8:\n        /* \"StudyPackage/Solidity/4.Solidity\\xe8\\xbf\\x9b\\xe9\\x98\\xb6/ch2-\\xe5\\xba\\x93\\xe5\\x90\\x88\\xe7\\xba\\xa6/index.sol\":477:490  string memory */\n      0x60\n        /* \"StudyPackage/Solidity/4.Solidity\\xe8\\xbf\\x9b\\xe9\\x98\\xb6/ch2-\\xe5\\xba\\x93\\xe5\\x90\\x88\\xe7\\xba\\xa6/index.sol\":585:592  _number */\n      dup2\n        /* \"StudyPackage/Solidity/4.Solidity\\xe8\\xbf\\x9b\\xe9\\x98\\xb6/ch2-\\xe5\\xba\\x93\\xe5\\x90\\x88\\xe7\\xba\\xa6/index.sol\":585:604  _number.toHexString */\n      linkerSymbol(\"092b111a228f508e570beca250f7aecab9badb4d993715b10d0b3d3553759d08\")\n      0x8fba8d5c\n      swap1\n      swap2\n        /* \"StudyPackage/Solidity/4.Solidity\\xe8\\xbf\\x9b\\xe9\\x98\\xb6/ch2-\\xe5\\xba\\x93\\xe5\\x90\\x88\\xe7\\xba\\xa6/index.sol\":585:606  _number.toHexString() */\n      mload(0x40)\n      dup3\n      0xffffffff\n      and\n      0xe0\n      shl\n      dup2\n      mstore\n      0x04\n      add\n      tag_16\n      swap2\n      swap1\n      tag_17\n      jump\t// in\n    tag_16:\n      0x00\n      mload(0x40)\n      dup1\n      dup4\n      sub\n      dup2\n      dup7\n      dup1\n      extcodesize\n      iszero\n      dup1\n      iszero\n      tag_18\n      jumpi\n      0x00\n      dup1\n      revert\n    tag_18:\n      pop\n      gas\n      delegatecall\n      iszero\n      dup1\n      iszero\n      tag_20\n      jumpi\n      returndatasize\n      0x00\n      dup1\n      returndatacopy\n      revert(0x00, returndatasize)\n    tag_20:\n      pop\n      pop\n      pop\n      pop\n      mload(0x40)\n      returndatasize\n      0x00\n      dup3\n      returndatacopy\n      returndatasize\n      not(0x1f)\n      0x1f\n      dup3\n      add\n      and\n      dup3\n      add\n      dup1\n      0x40\n      mstore\n      pop\n      dup2\n      add\n      swap1\n      tag_21\n      swap2\n      swap1\n      tag_22\n      jump\t// in\n    tag_21:\n        /* \"StudyPackage/Solidity/4.Solidity\\xe8\\xbf\\x9b\\xe9\\x98\\xb6/ch2-\\xe5\\xba\\x93\\xe5\\x90\\x88\\xe7\\xba\\xa6/index.sol\":578:606  return _number.toHexString() */\n      swap1\n      pop\n        /* \"StudyPackage/Solidity/4.Solidity\\xe8\\xbf\\x9b\\xe9\\x98\\xb6/ch2-\\xe5\\xba\\x93\\xe5\\x90\\x88\\xe7\\xba\\xa6/index.sol\":419:613  function getString1(uint256 _number) public pure returns (string memory) {... */\n      swap2\n      swap1\n      pop\n      jump\t// out\n        /* \"StudyPackage/Solidity/4.Solidity\\xe8\\xbf\\x9b\\xe9\\x98\\xb6/ch2-\\xe5\\xba\\x93\\xe5\\x90\\x88\\xe7\\xba\\xa6/index.sol\":660:783  function getString2(uint256 _number) public pure returns (string memory) {... */\n    tag_13:\n        /* \"StudyPackage/Solidity/4.Solidity\\xe8\\xbf\\x9b\\xe9\\x98\\xb6/ch2-\\xe5\\xba\\x93\\xe5\\x90\\x88\\xe7\\xba\\xa6/index.sol\":718:731  string memory */\n      0x60\n        /* \"StudyPackage/Solidity/4.Solidity\\xe8\\xbf\\x9b\\xe9\\x98\\xb6/ch2-\\xe5\\xba\\x93\\xe5\\x90\\x88\\xe7\\xba\\xa6/index.sol\":748:755  _number */\n      dup2\n        /* \"StudyPackage/Solidity/4.Solidity\\xe8\\xbf\\x9b\\xe9\\x98\\xb6/ch2-\\xe5\\xba\\x93\\xe5\\x90\\x88\\xe7\\xba\\xa6/index.sol\":748:767  _number.toHexString */\n      linkerSymbol(\"092b111a228f508e570beca250f7aecab9badb4d993715b10d0b3d3553759d08\")\n      0x63e1cbea\n      swap1\n      swap2\n        /* \"StudyPackage/Solidity/4.Solidity\\xe8\\xbf\\x9b\\xe9\\x98\\xb6/ch2-\\xe5\\xba\\x93\\xe5\\x90\\x88\\xe7\\xba\\xa6/index.sol\":768:775  _number */\n      dup5\n        /* \"StudyPackage/Solidity/4.Solidity\\xe8\\xbf\\x9b\\xe9\\x98\\xb6/ch2-\\xe5\\xba\\x93\\xe5\\x90\\x88\\xe7\\xba\\xa6/index.sol\":748:776  _number.toHexString(_number) */\n      mload(0x40)\n      dup4\n      0xffffffff\n      and\n      0xe0\n      shl\n      dup2\n      mstore\n      0x04\n      add\n      tag_24\n      swap3\n      swap2\n      swap1\n      tag_25\n      jump\t// in\n    tag_24:\n      0x00\n      mload(0x40)\n      dup1\n      dup4\n      sub\n      dup2\n      dup7\n      dup1\n      extcodesize\n      iszero\n      dup1\n      iszero\n      tag_26\n      jumpi\n      0x00\n      dup1\n      revert\n    tag_26:\n      pop\n      gas\n      delegatecall\n      iszero\n      dup1\n      iszero\n      tag_28\n      jumpi\n      returndatasize\n      0x00\n      dup1\n      returndatacopy\n      revert(0x00, returndatasize)\n    tag_28:\n      pop\n      pop\n      pop\n      pop\n      mload(0x40)\n      returndatasize\n      0x00\n      dup3\n      returndatacopy\n      returndatasize\n      not(0x1f)\n      0x1f\n      dup3\n      add\n      and\n      dup3\n      add\n      dup1\n      0x40\n      mstore\n      pop\n      dup2\n      add\n      swap1\n      tag_29\n      swap2\n      swap1\n      tag_22\n      jump\t// in\n    tag_29:\n        /* \"StudyPackage/Solidity/4.Solidity\\xe8\\xbf\\x9b\\xe9\\x98\\xb6/ch2-\\xe5\\xba\\x93\\xe5\\x90\\x88\\xe7\\xba\\xa6/index.sol\":741:776  return _number.toHexString(_number) */\n      swap1\n      pop\n        /* \"StudyPackage/Solidity/4.Solidity\\xe8\\xbf\\x9b\\xe9\\x98\\xb6/ch2-\\xe5\\xba\\x93\\xe5\\x90\\x88\\xe7\\xba\\xa6/index.sol\":660:783  function getString2(uint256 _number) public pure returns (string memory) {... */\n      swap2\n      swap1\n      pop\n      jump\t// out\n        /* \"#utility.yul\":7:428   */\n    tag_31:\n        /* \"#utility.yul\":96:101   */\n      0x00\n        /* \"#utility.yul\":121:187   */\n      tag_33\n        /* \"#utility.yul\":137:186   */\n      tag_34\n        /* \"#utility.yul\":179:185   */\n      dup5\n        /* \"#utility.yul\":137:186   */\n      tag_35\n      jump\t// in\n    tag_34:\n        /* \"#utility.yul\":121:187   */\n      tag_36\n      jump\t// in\n    tag_33:\n        /* \"#utility.yul\":112:187   */\n      swap1\n      pop\n        /* \"#utility.yul\":210:216   */\n      dup3\n        /* \"#utility.yul\":203:208   */\n      dup2\n        /* \"#utility.yul\":196:217   */\n      mstore\n        /* \"#utility.yul\":248:252   */\n      0x20\n        /* \"#utility.yul\":241:246   */\n      dup2\n        /* \"#utility.yul\":237:253   */\n      add\n        /* \"#utility.yul\":286:289   */\n      dup5\n        /* \"#utility.yul\":277:283   */\n      dup5\n        /* \"#utility.yul\":272:275   */\n      dup5\n        /* \"#utility.yul\":268:284   */\n      add\n        /* \"#utility.yul\":265:290   */\n      gt\n        /* \"#utility.yul\":262:374   */\n      iszero\n      tag_37\n      jumpi\n        /* \"#utility.yul\":293:372   */\n      tag_38\n      tag_39\n      jump\t// in\n    tag_38:\n        /* \"#utility.yul\":262:374   */\n    tag_37:\n        /* \"#utility.yul\":383:422   */\n      tag_40\n        /* \"#utility.yul\":415:421   */\n      dup5\n        /* \"#utility.yul\":410:413   */\n      dup3\n        /* \"#utility.yul\":405:408   */\n      dup6\n        /* \"#utility.yul\":383:422   */\n      tag_41\n      jump\t// in\n    tag_40:\n        /* \"#utility.yul\":102:428   */\n      pop\n        /* \"#utility.yul\":7:428   */\n      swap4\n      swap3\n      pop\n      pop\n      pop\n      jump\t// out\n        /* \"#utility.yul\":448:803   */\n    tag_42:\n        /* \"#utility.yul\":515:520   */\n      0x00\n        /* \"#utility.yul\":564:567   */\n      dup3\n        /* \"#utility.yul\":557:561   */\n      0x1f\n        /* \"#utility.yul\":549:555   */\n      dup4\n        /* \"#utility.yul\":545:562   */\n      add\n        /* \"#utility.yul\":541:568   */\n      slt\n        /* \"#utility.yul\":531:653   */\n      tag_44\n      jumpi\n        /* \"#utility.yul\":572:651   */\n      tag_45\n      tag_46\n      jump\t// in\n    tag_45:\n        /* \"#utility.yul\":531:653   */\n    tag_44:\n        /* \"#utility.yul\":682:688   */\n      dup2\n        /* \"#utility.yul\":676:689   */\n      mload\n        /* \"#utility.yul\":707:797   */\n      tag_47\n        /* \"#utility.yul\":793:796   */\n      dup5\n        /* \"#utility.yul\":785:791   */\n      dup3\n        /* \"#utility.yul\":778:782   */\n      0x20\n        /* \"#utility.yul\":770:776   */\n      dup7\n        /* \"#utility.yul\":766:783   */\n      add\n        /* \"#utility.yul\":707:797   */\n      tag_31\n      jump\t// in\n    tag_47:\n        /* \"#utility.yul\":698:797   */\n      swap2\n      pop\n        /* \"#utility.yul\":521:803   */\n      pop\n        /* \"#utility.yul\":448:803   */\n      swap3\n      swap2\n      pop\n      pop\n      jump\t// out\n        /* \"#utility.yul\":809:948   */\n    tag_48:\n        /* \"#utility.yul\":855:860   */\n      0x00\n        /* \"#utility.yul\":893:899   */\n      dup2\n        /* \"#utility.yul\":880:900   */\n      calldataload\n        /* \"#utility.yul\":871:900   */\n      swap1\n      pop\n        /* \"#utility.yul\":909:942   */\n      tag_50\n        /* \"#utility.yul\":936:941   */\n      dup2\n        /* \"#utility.yul\":909:942   */\n      tag_51\n      jump\t// in\n    tag_50:\n        /* \"#utility.yul\":809:948   */\n      swap3\n      swap2\n      pop\n      pop\n      jump\t// out\n        /* \"#utility.yul\":954:1478   */\n    tag_22:\n        /* \"#utility.yul\":1034:1040   */\n      0x00\n        /* \"#utility.yul\":1083:1085   */\n      0x20\n        /* \"#utility.yul\":1071:1080   */\n      dup3\n        /* \"#utility.yul\":1062:1069   */\n      dup5\n        /* \"#utility.yul\":1058:1081   */\n      sub\n        /* \"#utility.yul\":1054:1086   */\n      slt\n        /* \"#utility.yul\":1051:1170   */\n      iszero\n      tag_53\n      jumpi\n        /* \"#utility.yul\":1089:1168   */\n      tag_54\n      tag_55\n      jump\t// in\n    tag_54:\n        /* \"#utility.yul\":1051:1170   */\n    tag_53:\n        /* \"#utility.yul\":1230:1231   */\n      0x00\n        /* \"#utility.yul\":1219:1228   */\n      dup3\n        /* \"#utility.yul\":1215:1232   */\n      add\n        /* \"#utility.yul\":1209:1233   */\n      mload\n        /* \"#utility.yul\":1260:1278   */\n      0xffffffffffffffff\n        /* \"#utility.yul\":1252:1258   */\n      dup2\n        /* \"#utility.yul\":1249:1279   */\n      gt\n        /* \"#utility.yul\":1246:1363   */\n      iszero\n      tag_56\n      jumpi\n        /* \"#utility.yul\":1282:1361   */\n      tag_57\n      tag_58\n      jump\t// in\n    tag_57:\n        /* \"#utility.yul\":1246:1363   */\n    tag_56:\n        /* \"#utility.yul\":1387:1461   */\n      tag_59\n        /* \"#utility.yul\":1453:1460   */\n      dup5\n        /* \"#utility.yul\":1444:1450   */\n      dup3\n        /* \"#utility.yul\":1433:1442   */\n      dup6\n        /* \"#utility.yul\":1429:1451   */\n      add\n        /* \"#utility.yul\":1387:1461   */\n      tag_42\n      jump\t// in\n    tag_59:\n        /* \"#utility.yul\":1377:1461   */\n      swap2\n      pop\n        /* \"#utility.yul\":1180:1471   */\n      pop\n        /* \"#utility.yul\":954:1478   */\n      swap3\n      swap2\n      pop\n      pop\n      jump\t// out\n        /* \"#utility.yul\":1484:1813   */\n    tag_7:\n        /* \"#utility.yul\":1543:1549   */\n      0x00\n        /* \"#utility.yul\":1592:1594   */\n      0x20\n        /* \"#utility.yul\":1580:1589   */\n      dup3\n        /* \"#utility.yul\":1571:1578   */\n      dup5\n        /* \"#utility.yul\":1567:1590   */\n      sub\n        /* \"#utility.yul\":1563:1595   */\n      slt\n        /* \"#utility.yul\":1560:1679   */\n      iszero\n      tag_61\n      jumpi\n        /* \"#utility.yul\":1598:1677   */\n      tag_62\n      tag_55\n      jump\t// in\n    tag_62:\n        /* \"#utility.yul\":1560:1679   */\n    tag_61:\n        /* \"#utility.yul\":1718:1719   */\n      0x00\n        /* \"#utility.yul\":1743:1796   */\n      tag_63\n        /* \"#utility.yul\":1788:1795   */\n      dup5\n        /* \"#utility.yul\":1779:1785   */\n      dup3\n        /* \"#utility.yul\":1768:1777   */\n      dup6\n        /* \"#utility.yul\":1764:1786   */\n      add\n        /* \"#utility.yul\":1743:1796   */\n      tag_48\n      jump\t// in\n    tag_63:\n        /* \"#utility.yul\":1733:1796   */\n      swap2\n      pop\n        /* \"#utility.yul\":1689:1806   */\n      pop\n        /* \"#utility.yul\":1484:1813   */\n      swap3\n      swap2\n      pop\n      pop\n      jump\t// out\n        /* \"#utility.yul\":1819:2183   */\n    tag_64:\n        /* \"#utility.yul\":1907:1910   */\n      0x00\n        /* \"#utility.yul\":1935:1974   */\n      tag_66\n        /* \"#utility.yul\":1968:1973   */\n      dup3\n        /* \"#utility.yul\":1935:1974   */\n      tag_67\n      jump\t// in\n    tag_66:\n        /* \"#utility.yul\":1990:2061   */\n      tag_68\n        /* \"#utility.yul\":2054:2060   */\n      dup2\n        /* \"#utility.yul\":2049:2052   */\n      dup6\n        /* \"#utility.yul\":1990:2061   */\n      tag_69\n      jump\t// in\n    tag_68:\n        /* \"#utility.yul\":1983:2061   */\n      swap4\n      pop\n        /* \"#utility.yul\":2070:2122   */\n      tag_70\n        /* \"#utility.yul\":2115:2121   */\n      dup2\n        /* \"#utility.yul\":2110:2113   */\n      dup6\n        /* \"#utility.yul\":2103:2107   */\n      0x20\n        /* \"#utility.yul\":2096:2101   */\n      dup7\n        /* \"#utility.yul\":2092:2108   */\n      add\n        /* \"#utility.yul\":2070:2122   */\n      tag_41\n      jump\t// in\n    tag_70:\n        /* \"#utility.yul\":2147:2176   */\n      tag_71\n        /* \"#utility.yul\":2169:2175   */\n      dup2\n        /* \"#utility.yul\":2147:2176   */\n      tag_72\n      jump\t// in\n    tag_71:\n        /* \"#utility.yul\":2142:2145   */\n      dup5\n        /* \"#utility.yul\":2138:2177   */\n      add\n        /* \"#utility.yul\":2131:2177   */\n      swap2\n      pop\n        /* \"#utility.yul\":1911:2183   */\n      pop\n        /* \"#utility.yul\":1819:2183   */\n      swap3\n      swap2\n      pop\n      pop\n      jump\t// out\n        /* \"#utility.yul\":2189:2315   */\n    tag_73:\n        /* \"#utility.yul\":2284:2308   */\n      tag_75\n        /* \"#utility.yul\":2302:2307   */\n      dup2\n        /* \"#utility.yul\":2284:2308   */\n      tag_76\n      jump\t// in\n    tag_75:\n        /* \"#utility.yul\":2279:2282   */\n      dup3\n        /* \"#utility.yul\":2272:2309   */\n      mstore\n        /* \"#utility.yul\":2189:2315   */\n      pop\n      pop\n      jump\t// out\n        /* \"#utility.yul\":2321:2634   */\n    tag_10:\n        /* \"#utility.yul\":2434:2438   */\n      0x00\n        /* \"#utility.yul\":2472:2474   */\n      0x20\n        /* \"#utility.yul\":2461:2470   */\n      dup3\n        /* \"#utility.yul\":2457:2475   */\n      add\n        /* \"#utility.yul\":2449:2475   */\n      swap1\n      pop\n        /* \"#utility.yul\":2521:2530   */\n      dup2\n        /* \"#utility.yul\":2515:2519   */\n      dup2\n        /* \"#utility.yul\":2511:2531   */\n      sub\n        /* \"#utility.yul\":2507:2508   */\n      0x00\n        /* \"#utility.yul\":2496:2505   */\n      dup4\n        /* \"#utility.yul\":2492:2509   */\n      add\n        /* \"#utility.yul\":2485:2532   */\n      mstore\n        /* \"#utility.yul\":2549:2627   */\n      tag_78\n        /* \"#utility.yul\":2622:2626   */\n      dup2\n        /* \"#utility.yul\":2613:2619   */\n      dup5\n        /* \"#utility.yul\":2549:2627   */\n      tag_64\n      jump\t// in\n    tag_78:\n        /* \"#utility.yul\":2541:2627   */\n      swap1\n      pop\n        /* \"#utility.yul\":2321:2634   */\n      swap3\n      swap2\n      pop\n      pop\n      jump\t// out\n        /* \"#utility.yul\":2640:2878   */\n    tag_17:\n        /* \"#utility.yul\":2741:2745   */\n      0x00\n        /* \"#utility.yul\":2779:2781   */\n      0x20\n        /* \"#utility.yul\":2768:2777   */\n      dup3\n        /* \"#utility.yul\":2764:2782   */\n      add\n        /* \"#utility.yul\":2756:2782   */\n      swap1\n      pop\n        /* \"#utility.yul\":2792:2871   */\n      tag_80\n        /* \"#utility.yul\":2868:2869   */\n      0x00\n        /* \"#utility.yul\":2857:2866   */\n      dup4\n        /* \"#utility.yul\":2853:2870   */\n      add\n        /* \"#utility.yul\":2844:2850   */\n      dup5\n        /* \"#utility.yul\":2792:2871   */\n      tag_73\n      jump\t// in\n    tag_80:\n        /* \"#utility.yul\":2640:2878   */\n      swap3\n      swap2\n      pop\n      pop\n      jump\t// out\n        /* \"#utility.yul\":2884:3240   */\n    tag_25:\n        /* \"#utility.yul\":3013:3017   */\n      0x00\n        /* \"#utility.yul\":3051:3053   */\n      0x40\n        /* \"#utility.yul\":3040:3049   */\n      dup3\n        /* \"#utility.yul\":3036:3054   */\n      add\n        /* \"#utility.yul\":3028:3054   */\n      swap1\n      pop\n        /* \"#utility.yul\":3064:3143   */\n      tag_82\n        /* \"#utility.yul\":3140:3141   */\n      0x00\n        /* \"#utility.yul\":3129:3138   */\n      dup4\n        /* \"#utility.yul\":3125:3142   */\n      add\n        /* \"#utility.yul\":3116:3122   */\n      dup6\n        /* \"#utility.yul\":3064:3143   */\n      tag_73\n      jump\t// in\n    tag_82:\n        /* \"#utility.yul\":3153:3233   */\n      tag_83\n        /* \"#utility.yul\":3229:3231   */\n      0x20\n        /* \"#utility.yul\":3218:3227   */\n      dup4\n        /* \"#utility.yul\":3214:3232   */\n      add\n        /* \"#utility.yul\":3205:3211   */\n      dup5\n        /* \"#utility.yul\":3153:3233   */\n      tag_73\n      jump\t// in\n    tag_83:\n        /* \"#utility.yul\":2884:3240   */\n      swap4\n      swap3\n      pop\n      pop\n      pop\n      jump\t// out\n        /* \"#utility.yul\":3246:3375   */\n    tag_36:\n        /* \"#utility.yul\":3280:3286   */\n      0x00\n        /* \"#utility.yul\":3307:3327   */\n      tag_85\n      tag_86\n      jump\t// in\n    tag_85:\n        /* \"#utility.yul\":3297:3327   */\n      swap1\n      pop\n        /* \"#utility.yul\":3336:3369   */\n      tag_87\n        /* \"#utility.yul\":3364:3368   */\n      dup3\n        /* \"#utility.yul\":3356:3362   */\n      dup3\n        /* \"#utility.yul\":3336:3369   */\n      tag_88\n      jump\t// in\n    tag_87:\n        /* \"#utility.yul\":3246:3375   */\n      swap2\n      swap1\n      pop\n      jump\t// out\n        /* \"#utility.yul\":3381:3456   */\n    tag_86:\n        /* \"#utility.yul\":3414:3420   */\n      0x00\n        /* \"#utility.yul\":3447:3449   */\n      0x40\n        /* \"#utility.yul\":3441:3450   */\n      mload\n        /* \"#utility.yul\":3431:3450   */\n      swap1\n      pop\n        /* \"#utility.yul\":3381:3456   */\n      swap1\n      jump\t// out\n        /* \"#utility.yul\":3462:3770   */\n    tag_35:\n        /* \"#utility.yul\":3524:3528   */\n      0x00\n        /* \"#utility.yul\":3614:3632   */\n      0xffffffffffffffff\n        /* \"#utility.yul\":3606:3612   */\n      dup3\n        /* \"#utility.yul\":3603:3633   */\n      gt\n        /* \"#utility.yul\":3600:3656   */\n      iszero\n      tag_91\n      jumpi\n        /* \"#utility.yul\":3636:3654   */\n      tag_92\n      tag_93\n      jump\t// in\n    tag_92:\n        /* \"#utility.yul\":3600:3656   */\n    tag_91:\n        /* \"#utility.yul\":3674:3703   */\n      tag_94\n        /* \"#utility.yul\":3696:3702   */\n      dup3\n        /* \"#utility.yul\":3674:3703   */\n      tag_72\n      jump\t// in\n    tag_94:\n        /* \"#utility.yul\":3666:3703   */\n      swap1\n      pop\n        /* \"#utility.yul\":3758:3762   */\n      0x20\n        /* \"#utility.yul\":3752:3756   */\n      dup2\n        /* \"#utility.yul\":3748:3763   */\n      add\n        /* \"#utility.yul\":3740:3763   */\n      swap1\n      pop\n        /* \"#utility.yul\":3462:3770   */\n      swap2\n      swap1\n      pop\n      jump\t// out\n        /* \"#utility.yul\":3776:3875   */\n    tag_67:\n        /* \"#utility.yul\":3828:3834   */\n      0x00\n        /* \"#utility.yul\":3862:3867   */\n      dup2\n        /* \"#utility.yul\":3856:3868   */\n      mload\n        /* \"#utility.yul\":3846:3868   */\n      swap1\n      pop\n        /* \"#utility.yul\":3776:3875   */\n      swap2\n      swap1\n      pop\n      jump\t// out\n        /* \"#utility.yul\":3881:4050   */\n    tag_69:\n        /* \"#utility.yul\":3965:3976   */\n      0x00\n        /* \"#utility.yul\":3999:4005   */\n      dup3\n        /* \"#utility.yul\":3994:3997   */\n      dup3\n        /* \"#utility.yul\":3987:4006   */\n      mstore\n        /* \"#utility.yul\":4039:4043   */\n      0x20\n        /* \"#utility.yul\":4034:4037   */\n      dup3\n        /* \"#utility.yul\":4030:4044   */\n      add\n        /* \"#utility.yul\":4015:4044   */\n      swap1\n      pop\n        /* \"#utility.yul\":3881:4050   */\n      swap3\n      swap2\n      pop\n      pop\n      jump\t// out\n        /* \"#utility.yul\":4056:4133   */\n    tag_76:\n        /* \"#utility.yul\":4093:4100   */\n      0x00\n        /* \"#utility.yul\":4122:4127   */\n      dup2\n        /* \"#utility.yul\":4111:4127   */\n      swap1\n      pop\n        /* \"#utility.yul\":4056:4133   */\n      swap2\n      swap1\n      pop\n      jump\t// out\n        /* \"#utility.yul\":4139:4446   */\n    tag_41:\n        /* \"#utility.yul\":4207:4208   */\n      0x00\n        /* \"#utility.yul\":4217:4330   */\n    tag_99:\n        /* \"#utility.yul\":4231:4237   */\n      dup4\n        /* \"#utility.yul\":4228:4229   */\n      dup2\n        /* \"#utility.yul\":4225:4238   */\n      lt\n        /* \"#utility.yul\":4217:4330   */\n      iszero\n      tag_101\n      jumpi\n        /* \"#utility.yul\":4316:4317   */\n      dup1\n        /* \"#utility.yul\":4311:4314   */\n      dup3\n        /* \"#utility.yul\":4307:4318   */\n      add\n        /* \"#utility.yul\":4301:4319   */\n      mload\n        /* \"#utility.yul\":4297:4298   */\n      dup2\n        /* \"#utility.yul\":4292:4295   */\n      dup5\n        /* \"#utility.yul\":4288:4299   */\n      add\n        /* \"#utility.yul\":4281:4320   */\n      mstore\n        /* \"#utility.yul\":4253:4255   */\n      0x20\n        /* \"#utility.yul\":4250:4251   */\n      dup2\n        /* \"#utility.yul\":4246:4256   */\n      add\n        /* \"#utility.yul\":4241:4256   */\n      swap1\n      pop\n        /* \"#utility.yul\":4217:4330   */\n      jump(tag_99)\n    tag_101:\n        /* \"#utility.yul\":4348:4354   */\n      dup4\n        /* \"#utility.yul\":4345:4346   */\n      dup2\n        /* \"#utility.yul\":4342:4355   */\n      gt\n        /* \"#utility.yul\":4339:4440   */\n      iszero\n      tag_102\n      jumpi\n        /* \"#utility.yul\":4428:4429   */\n      0x00\n        /* \"#utility.yul\":4419:4425   */\n      dup5\n        /* \"#utility.yul\":4414:4417   */\n      dup5\n        /* \"#utility.yul\":4410:4426   */\n      add\n        /* \"#utility.yul\":4403:4430   */\n      mstore\n        /* \"#utility.yul\":4339:4440   */\n    tag_102:\n        /* \"#utility.yul\":4188:4446   */\n      pop\n        /* \"#utility.yul\":4139:4446   */\n      pop\n      pop\n      pop\n      jump\t// out\n        /* \"#utility.yul\":4452:4733   */\n    tag_88:\n        /* \"#utility.yul\":4535:4562   */\n      tag_104\n        /* \"#utility.yul\":4557:4561   */\n      dup3\n        /* \"#utility.yul\":4535:4562   */\n      tag_72\n      jump\t// in\n    tag_104:\n        /* \"#utility.yul\":4527:4533   */\n      dup2\n        /* \"#utility.yul\":4523:4563   */\n      add\n        /* \"#utility.yul\":4665:4671   */\n      dup2\n        /* \"#utility.yul\":4653:4663   */\n      dup2\n        /* \"#utility.yul\":4650:4672   */\n      lt\n        /* \"#utility.yul\":4629:4647   */\n      0xffffffffffffffff\n        /* \"#utility.yul\":4617:4627   */\n      dup3\n        /* \"#utility.yul\":4614:4648   */\n      gt\n        /* \"#utility.yul\":4611:4673   */\n      or\n        /* \"#utility.yul\":4608:4696   */\n      iszero\n      tag_105\n      jumpi\n        /* \"#utility.yul\":4676:4694   */\n      tag_106\n      tag_93\n      jump\t// in\n    tag_106:\n        /* \"#utility.yul\":4608:4696   */\n    tag_105:\n        /* \"#utility.yul\":4716:4726   */\n      dup1\n        /* \"#utility.yul\":4712:4714   */\n      0x40\n        /* \"#utility.yul\":4705:4727   */\n      mstore\n        /* \"#utility.yul\":4495:4733   */\n      pop\n        /* \"#utility.yul\":4452:4733   */\n      pop\n      pop\n      jump\t// out\n        /* \"#utility.yul\":4739:4919   */\n    tag_93:\n        /* \"#utility.yul\":4787:4864   */\n      0x4e487b7100000000000000000000000000000000000000000000000000000000\n        /* \"#utility.yul\":4784:4785   */\n      0x00\n        /* \"#utility.yul\":4777:4865   */\n      mstore\n        /* \"#utility.yul\":4884:4888   */\n      0x41\n        /* \"#utility.yul\":4881:4882   */\n      0x04\n        /* \"#utility.yul\":4874:4889   */\n      mstore\n        /* \"#utility.yul\":4908:4912   */\n      0x24\n        /* \"#utility.yul\":4905:4906   */\n      0x00\n        /* \"#utility.yul\":4898:4913   */\n      revert\n        /* \"#utility.yul\":4925:5042   */\n    tag_46:\n        /* \"#utility.yul\":5034:5035   */\n      0x00\n        /* \"#utility.yul\":5031:5032   */\n      dup1\n        /* \"#utility.yul\":5024:5036   */\n      revert\n        /* \"#utility.yul\":5048:5165   */\n    tag_39:\n        /* \"#utility.yul\":5157:5158   */\n      0x00\n        /* \"#utility.yul\":5154:5155   */\n      dup1\n        /* \"#utility.yul\":5147:5159   */\n      revert\n        /* \"#utility.yul\":5171:5288   */\n    tag_58:\n        /* \"#utility.yul\":5280:5281   */\n      0x00\n        /* \"#utility.yul\":5277:5278   */\n      dup1\n        /* \"#utility.yul\":5270:5282   */\n      revert\n        /* \"#utility.yul\":5294:5411   */\n    tag_55:\n        /* \"#utility.yul\":5403:5404   */\n      0x00\n        /* \"#utility.yul\":5400:5401   */\n      dup1\n        /* \"#utility.yul\":5393:5405   */\n      revert\n        /* \"#utility.yul\":5417:5519   */\n    tag_72:\n        /* \"#utility.yul\":5458:5464   */\n      0x00\n        /* \"#utility.yul\":5509:5511   */\n      0x1f\n        /* \"#utility.yul\":5505:5512   */\n      not\n        /* \"#utility.yul\":5500:5502   */\n      0x1f\n        /* \"#utility.yul\":5493:5498   */\n      dup4\n        /* \"#utility.yul\":5489:5503   */\n      add\n        /* \"#utility.yul\":5485:5513   */\n      and\n        /* \"#utility.yul\":5475:5513   */\n      swap1\n      pop\n        /* \"#utility.yul\":5417:5519   */\n      swap2\n      swap1\n      pop\n      jump\t// out\n        /* \"#utility.yul\":5525:5647   */\n    tag_51:\n        /* \"#utility.yul\":5598:5622   */\n      tag_114\n        /* \"#utility.yul\":5616:5621   */\n      dup2\n        /* \"#utility.yul\":5598:5622   */\n      tag_76\n      jump\t// in\n    tag_114:\n        /* \"#utility.yul\":5591:5596   */\n      dup2\n        /* \"#utility.yul\":5588:5623   */\n      eq\n        /* \"#utility.yul\":5578:5641   */\n      tag_115\n      jumpi\n        /* \"#utility.yul\":5637:5638   */\n      0x00\n        /* \"#utility.yul\":5634:5635   */\n      dup1\n        /* \"#utility.yul\":5627:5639   */\n      revert\n        /* \"#utility.yul\":5578:5641   */\n    tag_115:\n        /* \"#utility.yul\":5525:5647   */\n      pop\n      jump\t// out\n\n    auxdata: 0xa2646970667358221220a6a7aea747a5bd5d4a8ceb11fb3da98f892f99a4c8fa08a87924149d4ff63a7c64736f6c63430008070033\n}\n",
				"bytecode": {
					"linkReferences": {
						"StudyPackage/Solidity/4.Solidity进阶/ch2-库合约/Strings.sol": {
							"Strings": [
								{
									"length": 20,
									"start": 192
								},
								{
									"length": 20,
									"start": 343
								}
							]
						}
					},
					"object": "608060405234801561001057600080fd5b506104f5806100206000396000f3fe608060405234801561001057600080fd5b50600436106100365760003560e01c8063d6ee0f321461003b578063e65eac981461006b575b600080fd5b61005560048036038101906100509190610299565b61009b565b604051610062919061030e565b60405180910390f35b61008560048036038101906100809190610299565b610132565b604051610092919061030e565b60405180910390f35b60608173__$092b111a228f508e570beca250f7aecab9$__638fba8d5c90916040518263ffffffff1660e01b81526004016100d69190610330565b60006040518083038186803b1580156100ee57600080fd5b505af4158015610102573d6000803e3d6000fd5b505050506040513d6000823e3d601f19601f8201168201806040525081019061012b9190610250565b9050919050565b60608173__$092b111a228f508e570beca250f7aecab9$__6363e1cbea9091846040518363ffffffff1660e01b815260040161016f92919061034b565b60006040518083038186803b15801561018757600080fd5b505af415801561019b573d6000803e3d6000fd5b505050506040513d6000823e3d601f19601f820116820180604052508101906101c49190610250565b9050919050565b60006101de6101d984610399565b610374565b9050828152602081018484840111156101fa576101f9610488565b5b6102058482856103f0565b509392505050565b600082601f83011261022257610221610483565b5b81516102328482602086016101cb565b91505092915050565b60008135905061024a816104a8565b92915050565b60006020828403121561026657610265610492565b5b600082015167ffffffffffffffff8111156102845761028361048d565b5b6102908482850161020d565b91505092915050565b6000602082840312156102af576102ae610492565b5b60006102bd8482850161023b565b91505092915050565b60006102d1826103ca565b6102db81856103d5565b93506102eb8185602086016103f0565b6102f481610497565b840191505092915050565b610308816103e6565b82525050565b6000602082019050818103600083015261032881846102c6565b905092915050565b600060208201905061034560008301846102ff565b92915050565b600060408201905061036060008301856102ff565b61036d60208301846102ff565b9392505050565b600061037e61038f565b905061038a8282610423565b919050565b6000604051905090565b600067ffffffffffffffff8211156103b4576103b3610454565b5b6103bd82610497565b9050602081019050919050565b600081519050919050565b600082825260208201905092915050565b6000819050919050565b60005b8381101561040e5780820151818401526020810190506103f3565b8381111561041d576000848401525b50505050565b61042c82610497565b810181811067ffffffffffffffff8211171561044b5761044a610454565b5b80604052505050565b7f4e487b7100000000000000000000000000000000000000000000000000000000600052604160045260246000fd5b600080fd5b600080fd5b600080fd5b600080fd5b6000601f19601f8301169050919050565b6104b1816103e6565b81146104bc57600080fd5b5056fea2646970667358221220a6a7aea747a5bd5d4a8ceb11fb3da98f892f99a4c8fa08a87924149d4ff63a7c64736f6c63430008070033",
					"opcodes": "PUSH1 0x80 PUSH1 0x40 MSTORE CALLVALUE DUP1 ISZERO PUSH2 0x10 JUMPI PUSH1 0x0 DUP1 REVERT JUMPDEST POP PUSH2 0x4F5 DUP1 PUSH2 0x20 PUSH1 0x0 CODECOPY PUSH1 0x0 RETURN INVALID PUSH1 0x80 PUSH1 0x40 MSTORE CALLVALUE DUP1 ISZERO PUSH2 0x10 JUMPI PUSH1 0x0 DUP1 REVERT JUMPDEST POP PUSH1 0x4 CALLDATASIZE LT PUSH2 0x36 JUMPI PUSH1 0x0 CALLDATALOAD PUSH1 0xE0 SHR DUP1 PUSH4 0xD6EE0F32 EQ PUSH2 0x3B JUMPI DUP1 PUSH4 0xE65EAC98 EQ PUSH2 0x6B JUMPI JUMPDEST PUSH1 0x0 DUP1 REVERT JUMPDEST PUSH2 0x55 PUSH1 0x4 DUP1 CALLDATASIZE SUB DUP2 ADD SWAP1 PUSH2 0x50 SWAP2 SWAP1 PUSH2 0x299 JUMP JUMPDEST PUSH2 0x9B JUMP JUMPDEST PUSH1 0x40 MLOAD PUSH2 0x62 SWAP2 SWAP1 PUSH2 0x30E JUMP JUMPDEST PUSH1 0x40 MLOAD DUP1 SWAP2 SUB SWAP1 RETURN JUMPDEST PUSH2 0x85 PUSH1 0x4 DUP1 CALLDATASIZE SUB DUP2 ADD SWAP1 PUSH2 0x80 SWAP2 SWAP1 PUSH2 0x299 JUMP JUMPDEST PUSH2 0x132 JUMP JUMPDEST PUSH1 0x40 MLOAD PUSH2 0x92 SWAP2 SWAP1 PUSH2 0x30E JUMP JUMPDEST PUSH1 0x40 MLOAD DUP1 SWAP2 SUB SWAP1 RETURN JUMPDEST PUSH1 0x60 DUP2 PUSH20 0x0 PUSH4 0x8FBA8D5C SWAP1 SWAP2 PUSH1 0x40 MLOAD DUP3 PUSH4 0xFFFFFFFF AND PUSH1 0xE0 SHL DUP2 MSTORE PUSH1 0x4 ADD PUSH2 0xD6 SWAP2 SWAP1 PUSH2 0x330 JUMP JUMPDEST PUSH1 0x0 PUSH1 0x40 MLOAD DUP1 DUP4 SUB DUP2 DUP7 DUP1 EXTCODESIZE ISZERO DUP1 ISZERO PUSH2 0xEE JUMPI PUSH1 0x0 DUP1 REVERT JUMPDEST POP GAS DELEGATECALL ISZERO DUP1 ISZERO PUSH2 0x102 JUMPI RETURNDATASIZE PUSH1 0x0 DUP1 RETURNDATACOPY RETURNDATASIZE PUSH1 0x0 REVERT JUMPDEST POP POP POP POP PUSH1 0x40 MLOAD RETURNDATASIZE PUSH1 0x0 DUP3 RETURNDATACOPY RETURNDATASIZE PUSH1 0x1F NOT PUSH1 0x1F DUP3 ADD AND DUP3 ADD DUP1 PUSH1 0x40 MSTORE POP DUP2 ADD SWAP1 PUSH2 0x12B SWAP2 SWAP1 PUSH2 0x250 JUMP JUMPDEST SWAP1 POP SWAP2 SWAP1 POP JUMP JUMPDEST PUSH1 0x60 DUP2 PUSH20 0x0 PUSH4 0x63E1CBEA SWAP1 SWAP2 DUP5 PUSH1 0x40 MLOAD DUP4 PUSH4 0xFFFFFFFF AND PUSH1 0xE0 SHL DUP2 MSTORE PUSH1 0x4 ADD PUSH2 0x16F SWAP3 SWAP2 SWAP1 PUSH2 0x34B JUMP JUMPDEST PUSH1 0x0 PUSH1 0x40 MLOAD DUP1 DUP4 SUB DUP2 DUP7 DUP1 EXTCODESIZE ISZERO DUP1 ISZERO PUSH2 0x187 JUMPI PUSH1 0x0 DUP1 REVERT JUMPDEST POP GAS DELEGATECALL ISZERO DUP1 ISZERO PUSH2 0x19B JUMPI RETURNDATASIZE PUSH1 0x0 DUP1 RETURNDATACOPY RETURNDATASIZE PUSH1 0x0 REVERT JUMPDEST POP POP POP POP PUSH1 0x40 MLOAD RETURNDATASIZE PUSH1 0x0 DUP3 RETURNDATACOPY RETURNDATASIZE PUSH1 0x1F NOT PUSH1 0x1F DUP3 ADD AND DUP3 ADD DUP1 PUSH1 0x40 MSTORE POP DUP2 ADD SWAP1 PUSH2 0x1C4 SWAP2 SWAP1 PUSH2 0x250 JUMP JUMPDEST SWAP1 POP SWAP2 SWAP1 POP JUMP JUMPDEST PUSH1 0x0 PUSH2 0x1DE PUSH2 0x1D9 DUP5 PUSH2 0x399 JUMP JUMPDEST PUSH2 0x374 JUMP JUMPDEST SWAP1 POP DUP3 DUP2 MSTORE PUSH1 0x20 DUP2 ADD DUP5 DUP5 DUP5 ADD GT ISZERO PUSH2 0x1FA JUMPI PUSH2 0x1F9 PUSH2 0x488 JUMP JUMPDEST JUMPDEST PUSH2 0x205 DUP5 DUP3 DUP6 PUSH2 0x3F0 JUMP JUMPDEST POP SWAP4 SWAP3 POP POP POP JUMP JUMPDEST PUSH1 0x0 DUP3 PUSH1 0x1F DUP4 ADD SLT PUSH2 0x222 JUMPI PUSH2 0x221 PUSH2 0x483 JUMP JUMPDEST JUMPDEST DUP2 MLOAD PUSH2 0x232 DUP5 DUP3 PUSH1 0x20 DUP7 ADD PUSH2 0x1CB JUMP JUMPDEST SWAP2 POP POP SWAP3 SWAP2 POP POP JUMP JUMPDEST PUSH1 0x0 DUP2 CALLDATALOAD SWAP1 POP PUSH2 0x24A DUP2 PUSH2 0x4A8 JUMP JUMPDEST SWAP3 SWAP2 POP POP JUMP JUMPDEST PUSH1 0x0 PUSH1 0x20 DUP3 DUP5 SUB SLT ISZERO PUSH2 0x266 JUMPI PUSH2 0x265 PUSH2 0x492 JUMP JUMPDEST JUMPDEST PUSH1 0x0 DUP3 ADD MLOAD PUSH8 0xFFFFFFFFFFFFFFFF DUP2 GT ISZERO PUSH2 0x284 JUMPI PUSH2 0x283 PUSH2 0x48D JUMP JUMPDEST JUMPDEST PUSH2 0x290 DUP5 DUP3 DUP6 ADD PUSH2 0x20D JUMP JUMPDEST SWAP2 POP POP SWAP3 SWAP2 POP POP JUMP JUMPDEST PUSH1 0x0 PUSH1 0x20 DUP3 DUP5 SUB SLT ISZERO PUSH2 0x2AF JUMPI PUSH2 0x2AE PUSH2 0x492 JUMP JUMPDEST JUMPDEST PUSH1 0x0 PUSH2 0x2BD DUP5 DUP3 DUP6 ADD PUSH2 0x23B JUMP JUMPDEST SWAP2 POP POP SWAP3 SWAP2 POP POP JUMP JUMPDEST PUSH1 0x0 PUSH2 0x2D1 DUP3 PUSH2 0x3CA JUMP JUMPDEST PUSH2 0x2DB DUP2 DUP6 PUSH2 0x3D5 JUMP JUMPDEST SWAP4 POP PUSH2 0x2EB DUP2 DUP6 PUSH1 0x20 DUP7 ADD PUSH2 0x3F0 JUMP JUMPDEST PUSH2 0x2F4 DUP2 PUSH2 0x497 JUMP JUMPDEST DUP5 ADD SWAP2 POP POP SWAP3 SWAP2 POP POP JUMP JUMPDEST PUSH2 0x308 DUP2 PUSH2 0x3E6 JUMP JUMPDEST DUP3 MSTORE POP POP JUMP JUMPDEST PUSH1 0x0 PUSH1 0x20 DUP3 ADD SWAP1 POP DUP2 DUP2 SUB PUSH1 0x0 DUP4 ADD MSTORE PUSH2 0x328 DUP2 DUP5 PUSH2 0x2C6 JUMP JUMPDEST SWAP1 POP SWAP3 SWAP2 POP POP JUMP JUMPDEST PUSH1 0x0 PUSH1 0x20 DUP3 ADD SWAP1 POP PUSH2 0x345 PUSH1 0x0 DUP4 ADD DUP5 PUSH2 0x2FF JUMP JUMPDEST SWAP3 SWAP2 POP POP JUMP JUMPDEST PUSH1 0x0 PUSH1 0x40 DUP3 ADD SWAP1 POP PUSH2 0x360 PUSH1 0x0 DUP4 ADD DUP6 PUSH2 0x2FF JUMP JUMPDEST PUSH2 0x36D PUSH1 0x20 DUP4 ADD DUP5 PUSH2 0x2FF JUMP JUMPDEST SWAP4 SWAP3 POP POP POP JUMP JUMPDEST PUSH1 0x0 PUSH2 0x37E PUSH2 0x38F JUMP JUMPDEST SWAP1 POP PUSH2 0x38A DUP3 DUP3 PUSH2 0x423 JUMP JUMPDEST SWAP2 SWAP1 POP JUMP JUMPDEST PUSH1 0x0 PUSH1 0x40 MLOAD SWAP1 POP SWAP1 JUMP JUMPDEST PUSH1 0x0 PUSH8 0xFFFFFFFFFFFFFFFF DUP3 GT ISZERO PUSH2 0x3B4 JUMPI PUSH2 0x3B3 PUSH2 0x454 JUMP JUMPDEST JUMPDEST PUSH2 0x3BD DUP3 PUSH2 0x497 JUMP JUMPDEST SWAP1 POP PUSH1 0x20 DUP2 ADD SWAP1 POP SWAP2 SWAP1 POP JUMP JUMPDEST PUSH1 0x0 DUP2 MLOAD SWAP1 POP SWAP2 SWAP1 POP JUMP JUMPDEST PUSH1 0x0 DUP3 DUP3 MSTORE PUSH1 0x20 DUP3 ADD SWAP1 POP SWAP3 SWAP2 POP POP JUMP JUMPDEST PUSH1 0x0 DUP2 SWAP1 POP SWAP2 SWAP1 POP JUMP JUMPDEST PUSH1 0x0 JUMPDEST DUP4 DUP2 LT ISZERO PUSH2 0x40E JUMPI DUP1 DUP3 ADD MLOAD DUP2 DUP5 ADD MSTORE PUSH1 0x20 DUP2 ADD SWAP1 POP PUSH2 0x3F3 JUMP JUMPDEST DUP4 DUP2 GT ISZERO PUSH2 0x41D JUMPI PUSH1 0x0 DUP5 DUP5 ADD MSTORE JUMPDEST POP POP POP POP JUMP JUMPDEST PUSH2 0x42C DUP3 PUSH2 0x497 JUMP JUMPDEST DUP2 ADD DUP2 DUP2 LT PUSH8 0xFFFFFFFFFFFFFFFF DUP3 GT OR ISZERO PUSH2 0x44B JUMPI PUSH2 0x44A PUSH2 0x454 JUMP JUMPDEST JUMPDEST DUP1 PUSH1 0x40 MSTORE POP POP POP JUMP JUMPDEST PUSH32 0x4E487B7100000000000000000000000000000000000000000000000000000000 PUSH1 0x0 MSTORE PUSH1 0x41 PUSH1 0x4 MSTORE PUSH1 0x24 PUSH1 0x0 REVERT JUMPDEST PUSH1 0x0 DUP1 REVERT JUMPDEST PUSH1 0x0 DUP1 REVERT JUMPDEST PUSH1 0x0 DUP1 REVERT JUMPDEST PUSH1 0x0 DUP1 REVERT JUMPDEST PUSH1 0x0 PUSH1 0x1F NOT PUSH1 0x1F DUP4 ADD AND SWAP1 POP SWAP2 SWAP1 POP JUMP JUMPDEST PUSH2 0x4B1 DUP2 PUSH2 0x3E6 JUMP JUMPDEST DUP2 EQ PUSH2 0x4BC JUMPI PUSH1 0x0 DUP1 REVERT JUMPDEST POP JUMP INVALID LOG2 PUSH5 0x6970667358 0x22 SLT KECCAK256 0xA6 0xA7 0xAE 0xA7 SELFBALANCE 0xA5 0xBD 0x5D 0x4A DUP13 0xEB GT 0xFB RETURNDATASIZE 0xA9 DUP16 DUP10 0x2F SWAP10 LOG4 0xC8 STATICCALL ADDMOD 0xA8 PUSH26 0x24149D4FF63A7C64736F6C634300080700330000000000000000 "
				},
				"gasEstimates": {
					"creation": {
						"codeDepositCost": "253800",
						"executionCost": "294",
						"totalCost": "254094"
					},
					"external": {
						"getString1(uint256)": "infinite",
						"getString2(uint256)": "infinite"
					}
				},
				"methodIdentifiers": {
					"getString1(uint256)": "d6ee0f32",
					"getString2(uint256)": "e65eac98"
				}
			},
			"storageLayout": {
				"storage": [],
				"types": null
			},
			"userdoc": {
				"kind": "user",
				"methods": {},
				"version": 1
			}
		}
	}
}