{
	"1.数据类型/ch7-数组/3.多维数组/index.sol": {
		"ArrayExample": {
			"abi": [
				{
					"inputs": [],
					"name": "initArray",
					"outputs": [],
					"stateMutability": "nonpayable",
					"type": "function"
				},
				{
					"inputs": [
						{
							"internalType": "uint256",
							"name": "",
							"type": "uint256"
						},
						{
							"internalType": "uint256",
							"name": "",
							"type": "uint256"
						}
					],
					"name": "storageArr",
					"outputs": [
						{
							"internalType": "uint256",
							"name": "",
							"type": "uint256"
						}
					],
					"stateMutability": "view",
					"type": "function"
				}
			],
			"devdoc": {
				"kind": "dev",
				"methods": {},
				"version": 1
			},
			"evm": {
				"assembly": "    /* \"1.\\xe6\\x95\\xb0\\xe6\\x8d\\xae\\xe7\\xb1\\xbb\\xe5\\x9e\\x8b/ch7-\\xe6\\x95\\xb0\\xe7\\xbb\\x84/3.\\xe5\\xa4\\x9a\\xe7\\xbb\\xb4\\xe6\\x95\\xb0\\xe7\\xbb\\x84/index.sol\":57:301  contract ArrayExample {... */\n  mstore(0x40, 0x80)\n  callvalue\n  dup1\n  iszero\n  tag_1\n  jumpi\n  0x00\n  dup1\n  revert\ntag_1:\n  pop\n  dataSize(sub_0)\n  dup1\n  dataOffset(sub_0)\n  0x00\n  codecopy\n  0x00\n  return\nstop\n\nsub_0: assembly {\n        /* \"1.\\xe6\\x95\\xb0\\xe6\\x8d\\xae\\xe7\\xb1\\xbb\\xe5\\x9e\\x8b/ch7-\\xe6\\x95\\xb0\\xe7\\xbb\\x84/3.\\xe5\\xa4\\x9a\\xe7\\xbb\\xb4\\xe6\\x95\\xb0\\xe7\\xbb\\x84/index.sol\":57:301  contract ArrayExample {... */\n      mstore(0x40, 0x80)\n      callvalue\n      dup1\n      iszero\n      tag_1\n      jumpi\n      0x00\n      dup1\n      revert\n    tag_1:\n      pop\n      jumpi(tag_2, lt(calldatasize, 0x04))\n      shr(0xe0, calldataload(0x00))\n      dup1\n      0x82a8181b\n      eq\n      tag_3\n      jumpi\n      dup1\n      0xedef0197\n      eq\n      tag_4\n      jumpi\n    tag_2:\n      0x00\n      dup1\n      revert\n        /* \"1.\\xe6\\x95\\xb0\\xe6\\x8d\\xae\\xe7\\xb1\\xbb\\xe5\\x9e\\x8b/ch7-\\xe6\\x95\\xb0\\xe7\\xbb\\x84/3.\\xe5\\xa4\\x9a\\xe7\\xbb\\xb4\\xe6\\x95\\xb0\\xe7\\xbb\\x84/index.sol\":117:294  function initArray() public {... */\n    tag_3:\n      tag_5\n      tag_6\n      jump\t// in\n    tag_5:\n      stop\n        /* \"1.\\xe6\\x95\\xb0\\xe6\\x8d\\xae\\xe7\\xb1\\xbb\\xe5\\x9e\\x8b/ch7-\\xe6\\x95\\xb0\\xe7\\xbb\\x84/3.\\xe5\\xa4\\x9a\\xe7\\xbb\\xb4\\xe6\\x95\\xb0\\xe7\\xbb\\x84/index.sol\":85:111  uint[][] public storageArr */\n    tag_4:\n      tag_7\n      0x04\n      dup1\n      calldatasize\n      sub\n      dup2\n      add\n      swap1\n      tag_8\n      swap2\n      swap1\n      tag_9\n      jump\t// in\n    tag_8:\n      tag_10\n      jump\t// in\n    tag_7:\n      mload(0x40)\n      tag_11\n      swap2\n      swap1\n      tag_12\n      jump\t// in\n    tag_11:\n      mload(0x40)\n      dup1\n      swap2\n      sub\n      swap1\n      return\n        /* \"1.\\xe6\\x95\\xb0\\xe6\\x8d\\xae\\xe7\\xb1\\xbb\\xe5\\x9e\\x8b/ch7-\\xe6\\x95\\xb0\\xe7\\xbb\\x84/3.\\xe5\\xa4\\x9a\\xe7\\xbb\\xb4\\xe6\\x95\\xb0\\xe7\\xbb\\x84/index.sol\":117:294  function initArray() public {... */\n    tag_6:\n        /* \"1.\\xe6\\x95\\xb0\\xe6\\x8d\\xae\\xe7\\xb1\\xbb\\xe5\\x9e\\x8b/ch7-\\xe6\\x95\\xb0\\xe7\\xbb\\x84/3.\\xe5\\xa4\\x9a\\xe7\\xbb\\xb4\\xe6\\x95\\xb0\\xe7\\xbb\\x84/index.sol\":155:161  uint n */\n      0x00\n        /* \"1.\\xe6\\x95\\xb0\\xe6\\x8d\\xae\\xe7\\xb1\\xbb\\xe5\\x9e\\x8b/ch7-\\xe6\\x95\\xb0\\xe7\\xbb\\x84/3.\\xe5\\xa4\\x9a\\xe7\\xbb\\xb4\\xe6\\x95\\xb0\\xe7\\xbb\\x84/index.sol\":164:165  2 */\n      0x02\n        /* \"1.\\xe6\\x95\\xb0\\xe6\\x8d\\xae\\xe7\\xb1\\xbb\\xe5\\x9e\\x8b/ch7-\\xe6\\x95\\xb0\\xe7\\xbb\\x84/3.\\xe5\\xa4\\x9a\\xe7\\xbb\\xb4\\xe6\\x95\\xb0\\xe7\\xbb\\x84/index.sol\":155:165  uint n = 2 */\n      swap1\n      pop\n        /* \"1.\\xe6\\x95\\xb0\\xe6\\x8d\\xae\\xe7\\xb1\\xbb\\xe5\\x9e\\x8b/ch7-\\xe6\\x95\\xb0\\xe7\\xbb\\x84/3.\\xe5\\xa4\\x9a\\xe7\\xbb\\xb4\\xe6\\x95\\xb0\\xe7\\xbb\\x84/index.sol\":175:181  uint m */\n      0x00\n        /* \"1.\\xe6\\x95\\xb0\\xe6\\x8d\\xae\\xe7\\xb1\\xbb\\xe5\\x9e\\x8b/ch7-\\xe6\\x95\\xb0\\xe7\\xbb\\x84/3.\\xe5\\xa4\\x9a\\xe7\\xbb\\xb4\\xe6\\x95\\xb0\\xe7\\xbb\\x84/index.sol\":184:185  3 */\n      0x03\n        /* \"1.\\xe6\\x95\\xb0\\xe6\\x8d\\xae\\xe7\\xb1\\xbb\\xe5\\x9e\\x8b/ch7-\\xe6\\x95\\xb0\\xe7\\xbb\\x84/3.\\xe5\\xa4\\x9a\\xe7\\xbb\\xb4\\xe6\\x95\\xb0\\xe7\\xbb\\x84/index.sol\":175:185  uint m = 3 */\n      swap1\n      pop\n        /* \"1.\\xe6\\x95\\xb0\\xe6\\x8d\\xae\\xe7\\xb1\\xbb\\xe5\\x9e\\x8b/ch7-\\xe6\\x95\\xb0\\xe7\\xbb\\x84/3.\\xe5\\xa4\\x9a\\xe7\\xbb\\xb4\\xe6\\x95\\xb0\\xe7\\xbb\\x84/index.sol\":200:206  uint i */\n      0x00\n        /* \"1.\\xe6\\x95\\xb0\\xe6\\x8d\\xae\\xe7\\xb1\\xbb\\xe5\\x9e\\x8b/ch7-\\xe6\\x95\\xb0\\xe7\\xbb\\x84/3.\\xe5\\xa4\\x9a\\xe7\\xbb\\xb4\\xe6\\x95\\xb0\\xe7\\xbb\\x84/index.sol\":195:279  for (uint i = 0; i < n; i++) {... */\n    tag_14:\n        /* \"1.\\xe6\\x95\\xb0\\xe6\\x8d\\xae\\xe7\\xb1\\xbb\\xe5\\x9e\\x8b/ch7-\\xe6\\x95\\xb0\\xe7\\xbb\\x84/3.\\xe5\\xa4\\x9a\\xe7\\xbb\\xb4\\xe6\\x95\\xb0\\xe7\\xbb\\x84/index.sol\":216:217  n */\n      dup3\n        /* \"1.\\xe6\\x95\\xb0\\xe6\\x8d\\xae\\xe7\\xb1\\xbb\\xe5\\x9e\\x8b/ch7-\\xe6\\x95\\xb0\\xe7\\xbb\\x84/3.\\xe5\\xa4\\x9a\\xe7\\xbb\\xb4\\xe6\\x95\\xb0\\xe7\\xbb\\x84/index.sol\":212:213  i */\n      dup2\n        /* \"1.\\xe6\\x95\\xb0\\xe6\\x8d\\xae\\xe7\\xb1\\xbb\\xe5\\x9e\\x8b/ch7-\\xe6\\x95\\xb0\\xe7\\xbb\\x84/3.\\xe5\\xa4\\x9a\\xe7\\xbb\\xb4\\xe6\\x95\\xb0\\xe7\\xbb\\x84/index.sol\":212:217  i < n */\n      lt\n        /* \"1.\\xe6\\x95\\xb0\\xe6\\x8d\\xae\\xe7\\xb1\\xbb\\xe5\\x9e\\x8b/ch7-\\xe6\\x95\\xb0\\xe7\\xbb\\x84/3.\\xe5\\xa4\\x9a\\xe7\\xbb\\xb4\\xe6\\x95\\xb0\\xe7\\xbb\\x84/index.sol\":195:279  for (uint i = 0; i < n; i++) {... */\n      iszero\n      tag_15\n      jumpi\n        /* \"1.\\xe6\\x95\\xb0\\xe6\\x8d\\xae\\xe7\\xb1\\xbb\\xe5\\x9e\\x8b/ch7-\\xe6\\x95\\xb0\\xe7\\xbb\\x84/3.\\xe5\\xa4\\x9a\\xe7\\xbb\\xb4\\xe6\\x95\\xb0\\xe7\\xbb\\x84/index.sol\":238:248  storageArr */\n      0x00\n        /* \"1.\\xe6\\x95\\xb0\\xe6\\x8d\\xae\\xe7\\xb1\\xbb\\xe5\\x9e\\x8b/ch7-\\xe6\\x95\\xb0\\xe7\\xbb\\x84/3.\\xe5\\xa4\\x9a\\xe7\\xbb\\xb4\\xe6\\x95\\xb0\\xe7\\xbb\\x84/index.sol\":265:266  m */\n      dup3\n        /* \"1.\\xe6\\x95\\xb0\\xe6\\x8d\\xae\\xe7\\xb1\\xbb\\xe5\\x9e\\x8b/ch7-\\xe6\\x95\\xb0\\xe7\\xbb\\x84/3.\\xe5\\xa4\\x9a\\xe7\\xbb\\xb4\\xe6\\x95\\xb0\\xe7\\xbb\\x84/index.sol\":254:267  new uint[](m) */\n      0xffffffffffffffff\n      dup2\n      gt\n      iszero\n      tag_17\n      jumpi\n      tag_18\n      tag_19\n      jump\t// in\n    tag_18:\n    tag_17:\n      mload(0x40)\n      swap1\n      dup1\n      dup3\n      mstore\n      dup1\n      0x20\n      mul\n      0x20\n      add\n      dup3\n      add\n      0x40\n      mstore\n      dup1\n      iszero\n      tag_20\n      jumpi\n      dup2\n      0x20\n      add\n      0x20\n      dup3\n      mul\n      dup1\n      calldatasize\n      dup4\n      calldatacopy\n      dup1\n      dup3\n      add\n      swap2\n      pop\n      pop\n      swap1\n      pop\n    tag_20:\n      pop\n        /* \"1.\\xe6\\x95\\xb0\\xe6\\x8d\\xae\\xe7\\xb1\\xbb\\xe5\\x9e\\x8b/ch7-\\xe6\\x95\\xb0\\xe7\\xbb\\x84/3.\\xe5\\xa4\\x9a\\xe7\\xbb\\xb4\\xe6\\x95\\xb0\\xe7\\xbb\\x84/index.sol\":238:268  storageArr.push(new uint[](m)) */\n      swap1\n      dup1\n      0x01\n      dup2\n      sload\n      add\n      dup1\n      dup3\n      sstore\n      dup1\n      swap2\n      pop\n      pop\n      0x01\n      swap1\n      sub\n      swap1\n      0x00\n      mstore\n      keccak256(0x00, 0x20)\n      add\n      0x00\n      swap1\n      swap2\n      swap1\n      swap2\n      swap1\n      swap2\n      pop\n      swap1\n      dup1\n      mload\n      swap1\n      0x20\n      add\n      swap1\n      tag_22\n      swap3\n      swap2\n      swap1\n      tag_23\n      jump\t// in\n    tag_22:\n      pop\n        /* \"1.\\xe6\\x95\\xb0\\xe6\\x8d\\xae\\xe7\\xb1\\xbb\\xe5\\x9e\\x8b/ch7-\\xe6\\x95\\xb0\\xe7\\xbb\\x84/3.\\xe5\\xa4\\x9a\\xe7\\xbb\\xb4\\xe6\\x95\\xb0\\xe7\\xbb\\x84/index.sol\":219:222  i++ */\n      dup1\n      dup1\n      tag_24\n      swap1\n      tag_25\n      jump\t// in\n    tag_24:\n      swap2\n      pop\n      pop\n        /* \"1.\\xe6\\x95\\xb0\\xe6\\x8d\\xae\\xe7\\xb1\\xbb\\xe5\\x9e\\x8b/ch7-\\xe6\\x95\\xb0\\xe7\\xbb\\x84/3.\\xe5\\xa4\\x9a\\xe7\\xbb\\xb4\\xe6\\x95\\xb0\\xe7\\xbb\\x84/index.sol\":195:279  for (uint i = 0; i < n; i++) {... */\n      jump(tag_14)\n    tag_15:\n      pop\n        /* \"1.\\xe6\\x95\\xb0\\xe6\\x8d\\xae\\xe7\\xb1\\xbb\\xe5\\x9e\\x8b/ch7-\\xe6\\x95\\xb0\\xe7\\xbb\\x84/3.\\xe5\\xa4\\x9a\\xe7\\xbb\\xb4\\xe6\\x95\\xb0\\xe7\\xbb\\x84/index.sol\":145:294  {... */\n      pop\n      pop\n        /* \"1.\\xe6\\x95\\xb0\\xe6\\x8d\\xae\\xe7\\xb1\\xbb\\xe5\\x9e\\x8b/ch7-\\xe6\\x95\\xb0\\xe7\\xbb\\x84/3.\\xe5\\xa4\\x9a\\xe7\\xbb\\xb4\\xe6\\x95\\xb0\\xe7\\xbb\\x84/index.sol\":117:294  function initArray() public {... */\n      jump\t// out\n        /* \"1.\\xe6\\x95\\xb0\\xe6\\x8d\\xae\\xe7\\xb1\\xbb\\xe5\\x9e\\x8b/ch7-\\xe6\\x95\\xb0\\xe7\\xbb\\x84/3.\\xe5\\xa4\\x9a\\xe7\\xbb\\xb4\\xe6\\x95\\xb0\\xe7\\xbb\\x84/index.sol\":85:111  uint[][] public storageArr */\n    tag_10:\n      0x00\n      dup3\n      dup2\n      sload\n      dup2\n      lt\n      tag_26\n      jumpi\n      0x00\n      dup1\n      revert\n    tag_26:\n      swap1\n      0x00\n      mstore\n      keccak256(0x00, 0x20)\n      add\n      dup2\n      dup2\n      sload\n      dup2\n      lt\n      tag_28\n      jumpi\n      0x00\n      dup1\n      revert\n    tag_28:\n      swap1\n      0x00\n      mstore\n      keccak256(0x00, 0x20)\n      add\n      0x00\n      swap2\n      pop\n      swap2\n      pop\n      pop\n      sload\n      dup2\n      jump\t// out\n    tag_23:\n      dup3\n      dup1\n      sload\n      dup3\n      dup3\n      sstore\n      swap1\n      0x00\n      mstore\n      keccak256(0x00, 0x20)\n      swap1\n      dup2\n      add\n      swap3\n      dup3\n      iszero\n      tag_30\n      jumpi\n      swap2\n      0x20\n      mul\n      dup3\n      add\n    tag_31:\n      dup3\n      dup2\n      gt\n      iszero\n      tag_32\n      jumpi\n      dup3\n      mload\n      dup3\n      sstore\n      swap2\n      0x20\n      add\n      swap2\n      swap1\n      0x01\n      add\n      swap1\n      jump(tag_31)\n    tag_32:\n    tag_30:\n      pop\n      swap1\n      pop\n      tag_33\n      swap2\n      swap1\n      tag_34\n      jump\t// in\n    tag_33:\n      pop\n      swap1\n      jump\t// out\n    tag_34:\n    tag_35:\n      dup1\n      dup3\n      gt\n      iszero\n      tag_36\n      jumpi\n      0x00\n      dup2\n      0x00\n      swap1\n      sstore\n      pop\n      0x01\n      add\n      jump(tag_35)\n    tag_36:\n      pop\n      swap1\n      jump\t// out\n        /* \"#utility.yul\":7:146   */\n    tag_38:\n        /* \"#utility.yul\":53:58   */\n      0x00\n        /* \"#utility.yul\":91:97   */\n      dup2\n        /* \"#utility.yul\":78:98   */\n      calldataload\n        /* \"#utility.yul\":69:98   */\n      swap1\n      pop\n        /* \"#utility.yul\":107:140   */\n      tag_40\n        /* \"#utility.yul\":134:139   */\n      dup2\n        /* \"#utility.yul\":107:140   */\n      tag_41\n      jump\t// in\n    tag_40:\n        /* \"#utility.yul\":7:146   */\n      swap3\n      swap2\n      pop\n      pop\n      jump\t// out\n        /* \"#utility.yul\":152:626   */\n    tag_9:\n        /* \"#utility.yul\":220:226   */\n      0x00\n        /* \"#utility.yul\":228:234   */\n      dup1\n        /* \"#utility.yul\":277:279   */\n      0x40\n        /* \"#utility.yul\":265:274   */\n      dup4\n        /* \"#utility.yul\":256:263   */\n      dup6\n        /* \"#utility.yul\":252:275   */\n      sub\n        /* \"#utility.yul\":248:280   */\n      slt\n        /* \"#utility.yul\":245:364   */\n      iszero\n      tag_43\n      jumpi\n        /* \"#utility.yul\":283:362   */\n      tag_44\n      tag_45\n      jump\t// in\n    tag_44:\n        /* \"#utility.yul\":245:364   */\n    tag_43:\n        /* \"#utility.yul\":403:404   */\n      0x00\n        /* \"#utility.yul\":428:481   */\n      tag_46\n        /* \"#utility.yul\":473:480   */\n      dup6\n        /* \"#utility.yul\":464:470   */\n      dup3\n        /* \"#utility.yul\":453:462   */\n      dup7\n        /* \"#utility.yul\":449:471   */\n      add\n        /* \"#utility.yul\":428:481   */\n      tag_38\n      jump\t// in\n    tag_46:\n        /* \"#utility.yul\":418:481   */\n      swap3\n      pop\n        /* \"#utility.yul\":374:491   */\n      pop\n        /* \"#utility.yul\":530:532   */\n      0x20\n        /* \"#utility.yul\":556:609   */\n      tag_47\n        /* \"#utility.yul\":601:608   */\n      dup6\n        /* \"#utility.yul\":592:598   */\n      dup3\n        /* \"#utility.yul\":581:590   */\n      dup7\n        /* \"#utility.yul\":577:599   */\n      add\n        /* \"#utility.yul\":556:609   */\n      tag_38\n      jump\t// in\n    tag_47:\n        /* \"#utility.yul\":546:609   */\n      swap2\n      pop\n        /* \"#utility.yul\":501:619   */\n      pop\n        /* \"#utility.yul\":152:626   */\n      swap3\n      pop\n      swap3\n      swap1\n      pop\n      jump\t// out\n        /* \"#utility.yul\":632:750   */\n    tag_48:\n        /* \"#utility.yul\":719:743   */\n      tag_50\n        /* \"#utility.yul\":737:742   */\n      dup2\n        /* \"#utility.yul\":719:743   */\n      tag_51\n      jump\t// in\n    tag_50:\n        /* \"#utility.yul\":714:717   */\n      dup3\n        /* \"#utility.yul\":707:744   */\n      mstore\n        /* \"#utility.yul\":632:750   */\n      pop\n      pop\n      jump\t// out\n        /* \"#utility.yul\":756:978   */\n    tag_12:\n        /* \"#utility.yul\":849:853   */\n      0x00\n        /* \"#utility.yul\":887:889   */\n      0x20\n        /* \"#utility.yul\":876:885   */\n      dup3\n        /* \"#utility.yul\":872:890   */\n      add\n        /* \"#utility.yul\":864:890   */\n      swap1\n      pop\n        /* \"#utility.yul\":900:971   */\n      tag_53\n        /* \"#utility.yul\":968:969   */\n      0x00\n        /* \"#utility.yul\":957:966   */\n      dup4\n        /* \"#utility.yul\":953:970   */\n      add\n        /* \"#utility.yul\":944:950   */\n      dup5\n        /* \"#utility.yul\":900:971   */\n      tag_48\n      jump\t// in\n    tag_53:\n        /* \"#utility.yul\":756:978   */\n      swap3\n      swap2\n      pop\n      pop\n      jump\t// out\n        /* \"#utility.yul\":1065:1142   */\n    tag_51:\n        /* \"#utility.yul\":1102:1109   */\n      0x00\n        /* \"#utility.yul\":1131:1136   */\n      dup2\n        /* \"#utility.yul\":1120:1136   */\n      swap1\n      pop\n        /* \"#utility.yul\":1065:1142   */\n      swap2\n      swap1\n      pop\n      jump\t// out\n        /* \"#utility.yul\":1148:1381   */\n    tag_25:\n        /* \"#utility.yul\":1187:1190   */\n      0x00\n        /* \"#utility.yul\":1210:1234   */\n      tag_58\n        /* \"#utility.yul\":1228:1233   */\n      dup3\n        /* \"#utility.yul\":1210:1234   */\n      tag_51\n      jump\t// in\n    tag_58:\n        /* \"#utility.yul\":1201:1234   */\n      swap2\n      pop\n        /* \"#utility.yul\":1256:1322   */\n      0xffffffffffffffffffffffffffffffffffffffffffffffffffffffffffffffff\n        /* \"#utility.yul\":1249:1254   */\n      dup3\n        /* \"#utility.yul\":1246:1323   */\n      eq\n        /* \"#utility.yul\":1243:1346   */\n      iszero\n      tag_59\n      jumpi\n        /* \"#utility.yul\":1326:1344   */\n      tag_60\n      tag_61\n      jump\t// in\n    tag_60:\n        /* \"#utility.yul\":1243:1346   */\n    tag_59:\n        /* \"#utility.yul\":1373:1374   */\n      0x01\n        /* \"#utility.yul\":1366:1371   */\n      dup3\n        /* \"#utility.yul\":1362:1375   */\n      add\n        /* \"#utility.yul\":1355:1375   */\n      swap1\n      pop\n        /* \"#utility.yul\":1148:1381   */\n      swap2\n      swap1\n      pop\n      jump\t// out\n        /* \"#utility.yul\":1387:1567   */\n    tag_61:\n        /* \"#utility.yul\":1435:1512   */\n      0x4e487b7100000000000000000000000000000000000000000000000000000000\n        /* \"#utility.yul\":1432:1433   */\n      0x00\n        /* \"#utility.yul\":1425:1513   */\n      mstore\n        /* \"#utility.yul\":1532:1536   */\n      0x11\n        /* \"#utility.yul\":1529:1530   */\n      0x04\n        /* \"#utility.yul\":1522:1537   */\n      mstore\n        /* \"#utility.yul\":1556:1560   */\n      0x24\n        /* \"#utility.yul\":1553:1554   */\n      0x00\n        /* \"#utility.yul\":1546:1561   */\n      revert\n        /* \"#utility.yul\":1573:1753   */\n    tag_19:\n        /* \"#utility.yul\":1621:1698   */\n      0x4e487b7100000000000000000000000000000000000000000000000000000000\n        /* \"#utility.yul\":1618:1619   */\n      0x00\n        /* \"#utility.yul\":1611:1699   */\n      mstore\n        /* \"#utility.yul\":1718:1722   */\n      0x41\n        /* \"#utility.yul\":1715:1716   */\n      0x04\n        /* \"#utility.yul\":1708:1723   */\n      mstore\n        /* \"#utility.yul\":1742:1746   */\n      0x24\n        /* \"#utility.yul\":1739:1740   */\n      0x00\n        /* \"#utility.yul\":1732:1747   */\n      revert\n        /* \"#utility.yul\":1882:1999   */\n    tag_45:\n        /* \"#utility.yul\":1991:1992   */\n      0x00\n        /* \"#utility.yul\":1988:1989   */\n      dup1\n        /* \"#utility.yul\":1981:1993   */\n      revert\n        /* \"#utility.yul\":2005:2127   */\n    tag_41:\n        /* \"#utility.yul\":2078:2102   */\n      tag_68\n        /* \"#utility.yul\":2096:2101   */\n      dup2\n        /* \"#utility.yul\":2078:2102   */\n      tag_51\n      jump\t// in\n    tag_68:\n        /* \"#utility.yul\":2071:2076   */\n      dup2\n        /* \"#utility.yul\":2068:2103   */\n      eq\n        /* \"#utility.yul\":2058:2121   */\n      tag_69\n      jumpi\n        /* \"#utility.yul\":2117:2118   */\n      0x00\n        /* \"#utility.yul\":2114:2115   */\n      dup1\n        /* \"#utility.yul\":2107:2119   */\n      revert\n        /* \"#utility.yul\":2058:2121   */\n    tag_69:\n        /* \"#utility.yul\":2005:2127   */\n      pop\n      jump\t// out\n\n    auxdata: 0xa2646970667358221220692fbdad77c0d8c6f9b0dfd91ece4509fac754b09e860151e616c1922046ecbf64736f6c63430008070033\n}\n",
				"bytecode": {
					"linkReferences": {},
					"object": "608060405234801561001057600080fd5b50610351806100206000396000f3fe608060405234801561001057600080fd5b50600436106100365760003560e01c806382a8181b1461003b578063edef019714610045575b600080fd5b610043610075565b005b61005f600480360381019061005a91906101e4565b610128565b60405161006c9190610233565b60405180910390f35b60006002905060006003905060005b828110156101235760008267ffffffffffffffff8111156100a8576100a76102d0565b5b6040519080825280602002602001820160405280156100d65781602001602082028036833780820191505090505b5090806001815401808255809150506001900390600052602060002001600090919091909150908051906020019061010f929190610165565b50808061011b90610258565b915050610084565b505050565b6000828154811061013857600080fd5b90600052602060002001818154811061015057600080fd5b90600052602060002001600091509150505481565b8280548282559060005260206000209081019282156101a1579160200282015b828111156101a0578251825591602001919060010190610185565b5b5090506101ae91906101b2565b5090565b5b808211156101cb5760008160009055506001016101b3565b5090565b6000813590506101de81610304565b92915050565b600080604083850312156101fb576101fa6102ff565b5b6000610209858286016101cf565b925050602061021a858286016101cf565b9150509250929050565b61022d8161024e565b82525050565b60006020820190506102486000830184610224565b92915050565b6000819050919050565b60006102638261024e565b91507fffffffffffffffffffffffffffffffffffffffffffffffffffffffffffffffff821415610296576102956102a1565b5b600182019050919050565b7f4e487b7100000000000000000000000000000000000000000000000000000000600052601160045260246000fd5b7f4e487b7100000000000000000000000000000000000000000000000000000000600052604160045260246000fd5b600080fd5b61030d8161024e565b811461031857600080fd5b5056fea2646970667358221220692fbdad77c0d8c6f9b0dfd91ece4509fac754b09e860151e616c1922046ecbf64736f6c63430008070033",
					"opcodes": "PUSH1 0x80 PUSH1 0x40 MSTORE CALLVALUE DUP1 ISZERO PUSH2 0x10 JUMPI PUSH1 0x0 DUP1 REVERT JUMPDEST POP PUSH2 0x351 DUP1 PUSH2 0x20 PUSH1 0x0 CODECOPY PUSH1 0x0 RETURN INVALID PUSH1 0x80 PUSH1 0x40 MSTORE CALLVALUE DUP1 ISZERO PUSH2 0x10 JUMPI PUSH1 0x0 DUP1 REVERT JUMPDEST POP PUSH1 0x4 CALLDATASIZE LT PUSH2 0x36 JUMPI PUSH1 0x0 CALLDATALOAD PUSH1 0xE0 SHR DUP1 PUSH4 0x82A8181B EQ PUSH2 0x3B JUMPI DUP1 PUSH4 0xEDEF0197 EQ PUSH2 0x45 JUMPI JUMPDEST PUSH1 0x0 DUP1 REVERT JUMPDEST PUSH2 0x43 PUSH2 0x75 JUMP JUMPDEST STOP JUMPDEST PUSH2 0x5F PUSH1 0x4 DUP1 CALLDATASIZE SUB DUP2 ADD SWAP1 PUSH2 0x5A SWAP2 SWAP1 PUSH2 0x1E4 JUMP JUMPDEST PUSH2 0x128 JUMP JUMPDEST PUSH1 0x40 MLOAD PUSH2 0x6C SWAP2 SWAP1 PUSH2 0x233 JUMP JUMPDEST PUSH1 0x40 MLOAD DUP1 SWAP2 SUB SWAP1 RETURN JUMPDEST PUSH1 0x0 PUSH1 0x2 SWAP1 POP PUSH1 0x0 PUSH1 0x3 SWAP1 POP PUSH1 0x0 JUMPDEST DUP3 DUP2 LT ISZERO PUSH2 0x123 JUMPI PUSH1 0x0 DUP3 PUSH8 0xFFFFFFFFFFFFFFFF DUP2 GT ISZERO PUSH2 0xA8 JUMPI PUSH2 0xA7 PUSH2 0x2D0 JUMP JUMPDEST JUMPDEST PUSH1 0x40 MLOAD SWAP1 DUP1 DUP3 MSTORE DUP1 PUSH1 0x20 MUL PUSH1 0x20 ADD DUP3 ADD PUSH1 0x40 MSTORE DUP1 ISZERO PUSH2 0xD6 JUMPI DUP2 PUSH1 0x20 ADD PUSH1 0x20 DUP3 MUL DUP1 CALLDATASIZE DUP4 CALLDATACOPY DUP1 DUP3 ADD SWAP2 POP POP SWAP1 POP JUMPDEST POP SWAP1 DUP1 PUSH1 0x1 DUP2 SLOAD ADD DUP1 DUP3 SSTORE DUP1 SWAP2 POP POP PUSH1 0x1 SWAP1 SUB SWAP1 PUSH1 0x0 MSTORE PUSH1 0x20 PUSH1 0x0 KECCAK256 ADD PUSH1 0x0 SWAP1 SWAP2 SWAP1 SWAP2 SWAP1 SWAP2 POP SWAP1 DUP1 MLOAD SWAP1 PUSH1 0x20 ADD SWAP1 PUSH2 0x10F SWAP3 SWAP2 SWAP1 PUSH2 0x165 JUMP JUMPDEST POP DUP1 DUP1 PUSH2 0x11B SWAP1 PUSH2 0x258 JUMP JUMPDEST SWAP2 POP POP PUSH2 0x84 JUMP JUMPDEST POP POP POP JUMP JUMPDEST PUSH1 0x0 DUP3 DUP2 SLOAD DUP2 LT PUSH2 0x138 JUMPI PUSH1 0x0 DUP1 REVERT JUMPDEST SWAP1 PUSH1 0x0 MSTORE PUSH1 0x20 PUSH1 0x0 KECCAK256 ADD DUP2 DUP2 SLOAD DUP2 LT PUSH2 0x150 JUMPI PUSH1 0x0 DUP1 REVERT JUMPDEST SWAP1 PUSH1 0x0 MSTORE PUSH1 0x20 PUSH1 0x0 KECCAK256 ADD PUSH1 0x0 SWAP2 POP SWAP2 POP POP SLOAD DUP2 JUMP JUMPDEST DUP3 DUP1 SLOAD DUP3 DUP3 SSTORE SWAP1 PUSH1 0x0 MSTORE PUSH1 0x20 PUSH1 0x0 KECCAK256 SWAP1 DUP2 ADD SWAP3 DUP3 ISZERO PUSH2 0x1A1 JUMPI SWAP2 PUSH1 0x20 MUL DUP3 ADD JUMPDEST DUP3 DUP2 GT ISZERO PUSH2 0x1A0 JUMPI DUP3 MLOAD DUP3 SSTORE SWAP2 PUSH1 0x20 ADD SWAP2 SWAP1 PUSH1 0x1 ADD SWAP1 PUSH2 0x185 JUMP JUMPDEST JUMPDEST POP SWAP1 POP PUSH2 0x1AE SWAP2 SWAP1 PUSH2 0x1B2 JUMP JUMPDEST POP SWAP1 JUMP JUMPDEST JUMPDEST DUP1 DUP3 GT ISZERO PUSH2 0x1CB JUMPI PUSH1 0x0 DUP2 PUSH1 0x0 SWAP1 SSTORE POP PUSH1 0x1 ADD PUSH2 0x1B3 JUMP JUMPDEST POP SWAP1 JUMP JUMPDEST PUSH1 0x0 DUP2 CALLDATALOAD SWAP1 POP PUSH2 0x1DE DUP2 PUSH2 0x304 JUMP JUMPDEST SWAP3 SWAP2 POP POP JUMP JUMPDEST PUSH1 0x0 DUP1 PUSH1 0x40 DUP4 DUP6 SUB SLT ISZERO PUSH2 0x1FB JUMPI PUSH2 0x1FA PUSH2 0x2FF JUMP JUMPDEST JUMPDEST PUSH1 0x0 PUSH2 0x209 DUP6 DUP3 DUP7 ADD PUSH2 0x1CF JUMP JUMPDEST SWAP3 POP POP PUSH1 0x20 PUSH2 0x21A DUP6 DUP3 DUP7 ADD PUSH2 0x1CF JUMP JUMPDEST SWAP2 POP POP SWAP3 POP SWAP3 SWAP1 POP JUMP JUMPDEST PUSH2 0x22D DUP2 PUSH2 0x24E JUMP JUMPDEST DUP3 MSTORE POP POP JUMP JUMPDEST PUSH1 0x0 PUSH1 0x20 DUP3 ADD SWAP1 POP PUSH2 0x248 PUSH1 0x0 DUP4 ADD DUP5 PUSH2 0x224 JUMP JUMPDEST SWAP3 SWAP2 POP POP JUMP JUMPDEST PUSH1 0x0 DUP2 SWAP1 POP SWAP2 SWAP1 POP JUMP JUMPDEST PUSH1 0x0 PUSH2 0x263 DUP3 PUSH2 0x24E JUMP JUMPDEST SWAP2 POP PUSH32 0xFFFFFFFFFFFFFFFFFFFFFFFFFFFFFFFFFFFFFFFFFFFFFFFFFFFFFFFFFFFFFFFF DUP3 EQ ISZERO PUSH2 0x296 JUMPI PUSH2 0x295 PUSH2 0x2A1 JUMP JUMPDEST JUMPDEST PUSH1 0x1 DUP3 ADD SWAP1 POP SWAP2 SWAP1 POP JUMP JUMPDEST PUSH32 0x4E487B7100000000000000000000000000000000000000000000000000000000 PUSH1 0x0 MSTORE PUSH1 0x11 PUSH1 0x4 MSTORE PUSH1 0x24 PUSH1 0x0 REVERT JUMPDEST PUSH32 0x4E487B7100000000000000000000000000000000000000000000000000000000 PUSH1 0x0 MSTORE PUSH1 0x41 PUSH1 0x4 MSTORE PUSH1 0x24 PUSH1 0x0 REVERT JUMPDEST PUSH1 0x0 DUP1 REVERT JUMPDEST PUSH2 0x30D DUP2 PUSH2 0x24E JUMP JUMPDEST DUP2 EQ PUSH2 0x318 JUMPI PUSH1 0x0 DUP1 REVERT JUMPDEST POP JUMP INVALID LOG2 PUSH5 0x6970667358 0x22 SLT KECCAK256 PUSH10 0x2FBDAD77C0D8C6F9B0DF 0xD9 0x1E 0xCE GASLIMIT MULMOD STATICCALL 0xC7 SLOAD 0xB0 SWAP15 DUP7 ADD MLOAD 0xE6 AND 0xC1 SWAP3 KECCAK256 CHAINID 0xEC 0xBF PUSH5 0x736F6C6343 STOP ADDMOD SMOD STOP CALLER "
				},
				"gasEstimates": {
					"creation": {
						"codeDepositCost": "169800",
						"executionCost": "214",
						"totalCost": "170014"
					},
					"external": {
						"initArray()": "infinite",
						"storageArr(uint256,uint256)": "infinite"
					}
				},
				"methodIdentifiers": {
					"initArray()": "82a8181b",
					"storageArr(uint256,uint256)": "edef0197"
				}
			},
			"storageLayout": {
				"storage": [
					{
						"astId": 5,
						"contract": "1.数据类型/ch7-数组/3.多维数组/index.sol:ArrayExample",
						"label": "storageArr",
						"offset": 0,
						"slot": "0",
						"type": "t_array(t_array(t_uint256)dyn_storage)dyn_storage"
					}
				],
				"types": {
					"t_array(t_array(t_uint256)dyn_storage)dyn_storage": {
						"base": "t_array(t_uint256)dyn_storage",
						"encoding": "dynamic_array",
						"label": "uint256[][]",
						"numberOfBytes": "32"
					},
					"t_array(t_uint256)dyn_storage": {
						"base": "t_uint256",
						"encoding": "dynamic_array",
						"label": "uint256[]",
						"numberOfBytes": "32"
					},
					"t_uint256": {
						"encoding": "inplace",
						"label": "uint256",
						"numberOfBytes": "32"
					}
				}
			},
			"userdoc": {
				"kind": "user",
				"methods": {},
				"version": 1
			}
		}
	}
}