{
	"Solidity/CuimianCourse/2.部署合约/Proxy.sol": {
		"Proxy": {
			"abi": [
				{
					"anonymous": false,
					"inputs": [
						{
							"indexed": false,
							"internalType": "address",
							"name": "",
							"type": "address"
						}
					],
					"name": "Deploy",
					"type": "event"
				},
				{
					"inputs": [
						{
							"internalType": "bytes",
							"name": "_code",
							"type": "bytes"
						}
					],
					"name": "deploy",
					"outputs": [
						{
							"internalType": "address",
							"name": "addr",
							"type": "address"
						}
					],
					"stateMutability": "payable",
					"type": "function"
				},
				{
					"inputs": [
						{
							"internalType": "address",
							"name": "_target",
							"type": "address"
						},
						{
							"internalType": "bytes",
							"name": "_data",
							"type": "bytes"
						}
					],
					"name": "execute",
					"outputs": [],
					"stateMutability": "payable",
					"type": "function"
				}
			],
			"devdoc": {
				"kind": "dev",
				"methods": {},
				"version": 1
			},
			"evm": {
				"assembly": "    /* \"Solidity/CuimianCourse/2.\\xe9\\x83\\xa8\\xe7\\xbd\\xb2\\xe5\\x90\\x88\\xe7\\xba\\xa6/Proxy.sol\":548:1795  contract Proxy {... */\n  mstore(0x40, 0x80)\n  callvalue\n  dup1\n  iszero\n  tag_1\n  jumpi\n  0x00\n  dup1\n  revert\ntag_1:\n  pop\n  dataSize(sub_0)\n  dup1\n  dataOffset(sub_0)\n  0x00\n  codecopy\n  0x00\n  return\nstop\n\nsub_0: assembly {\n        /* \"Solidity/CuimianCourse/2.\\xe9\\x83\\xa8\\xe7\\xbd\\xb2\\xe5\\x90\\x88\\xe7\\xba\\xa6/Proxy.sol\":548:1795  contract Proxy {... */\n      mstore(0x40, 0x80)\n      jumpi(tag_1, lt(calldatasize, 0x04))\n      shr(0xe0, calldataload(0x00))\n      dup1\n      0x774360\n      eq\n      tag_2\n      jumpi\n      dup1\n      0x1cff79cd\n      eq\n      tag_3\n      jumpi\n    tag_1:\n      0x00\n      dup1\n      revert\n        /* \"Solidity/CuimianCourse/2.\\xe9\\x83\\xa8\\xe7\\xbd\\xb2\\xe5\\x90\\x88\\xe7\\xba\\xa6/Proxy.sol\":727:1522  function deploy(... */\n    tag_2:\n      tag_4\n      0x04\n      dup1\n      calldatasize\n      sub\n      dup2\n      add\n      swap1\n      tag_5\n      swap2\n      swap1\n      tag_6\n      jump\t// in\n    tag_5:\n      tag_7\n      jump\t// in\n    tag_4:\n      mload(0x40)\n      tag_8\n      swap2\n      swap1\n      tag_9\n      jump\t// in\n    tag_8:\n      mload(0x40)\n      dup1\n      swap2\n      sub\n      swap1\n      return\n        /* \"Solidity/CuimianCourse/2.\\xe9\\x83\\xa8\\xe7\\xbd\\xb2\\xe5\\x90\\x88\\xe7\\xba\\xa6/Proxy.sol\":1594:1793  function execute(address _target, bytes memory _data) external payable {... */\n    tag_3:\n      tag_10\n      0x04\n      dup1\n      calldatasize\n      sub\n      dup2\n      add\n      swap1\n      tag_11\n      swap2\n      swap1\n      tag_12\n      jump\t// in\n    tag_11:\n      tag_13\n      jump\t// in\n    tag_10:\n      stop\n        /* \"Solidity/CuimianCourse/2.\\xe9\\x83\\xa8\\xe7\\xbd\\xb2\\xe5\\x90\\x88\\xe7\\xba\\xa6/Proxy.sol\":727:1522  function deploy(... */\n    tag_7:\n        /* \"Solidity/CuimianCourse/2.\\xe9\\x83\\xa8\\xe7\\xbd\\xb2\\xe5\\x90\\x88\\xe7\\xba\\xa6/Proxy.sol\":803:815  address addr */\n      0x00\n        /* \"Solidity/CuimianCourse/2.\\xe9\\x83\\xa8\\xe7\\xbd\\xb2\\xe5\\x90\\x88\\xe7\\xba\\xa6/Proxy.sol\":1230:1235  _code */\n      dup2\n        /* \"Solidity/CuimianCourse/2.\\xe9\\x83\\xa8\\xe7\\xbd\\xb2\\xe5\\x90\\x88\\xe7\\xba\\xa6/Proxy.sol\":1224:1236  mload(_code) */\n      mload\n        /* \"Solidity/CuimianCourse/2.\\xe9\\x83\\xa8\\xe7\\xbd\\xb2\\xe5\\x90\\x88\\xe7\\xba\\xa6/Proxy.sol\":1217:1221  0x20 */\n      0x20\n        /* \"Solidity/CuimianCourse/2.\\xe9\\x83\\xa8\\xe7\\xbd\\xb2\\xe5\\x90\\x88\\xe7\\xba\\xa6/Proxy.sol\":1210:1215  _code */\n      dup4\n        /* \"Solidity/CuimianCourse/2.\\xe9\\x83\\xa8\\xe7\\xbd\\xb2\\xe5\\x90\\x88\\xe7\\xba\\xa6/Proxy.sol\":1206:1222  add(_code, 0x20) */\n      add\n        /* \"Solidity/CuimianCourse/2.\\xe9\\x83\\xa8\\xe7\\xbd\\xb2\\xe5\\x90\\x88\\xe7\\xba\\xa6/Proxy.sol\":1193:1204  callvalue() */\n      callvalue\n        /* \"Solidity/CuimianCourse/2.\\xe9\\x83\\xa8\\xe7\\xbd\\xb2\\xe5\\x90\\x88\\xe7\\xba\\xa6/Proxy.sol\":1186:1237  create(callvalue(), add(_code, 0x20), mload(_code)) */\n      create\n        /* \"Solidity/CuimianCourse/2.\\xe9\\x83\\xa8\\xe7\\xbd\\xb2\\xe5\\x90\\x88\\xe7\\xba\\xa6/Proxy.sol\":1178:1237  addr := create(callvalue(), add(_code, 0x20), mload(_code)) */\n      swap1\n      pop\n        /* \"Solidity/CuimianCourse/2.\\xe9\\x83\\xa8\\xe7\\xbd\\xb2\\xe5\\x90\\x88\\xe7\\xba\\xa6/Proxy.sol\":1369:1370  0 */\n      0x00\n        /* \"Solidity/CuimianCourse/2.\\xe9\\x83\\xa8\\xe7\\xbd\\xb2\\xe5\\x90\\x88\\xe7\\xba\\xa6/Proxy.sol\":1353:1371  addr != address(0) */\n      0xffffffffffffffffffffffffffffffffffffffff\n      and\n        /* \"Solidity/CuimianCourse/2.\\xe9\\x83\\xa8\\xe7\\xbd\\xb2\\xe5\\x90\\x88\\xe7\\xba\\xa6/Proxy.sol\":1353:1357  addr */\n      dup2\n        /* \"Solidity/CuimianCourse/2.\\xe9\\x83\\xa8\\xe7\\xbd\\xb2\\xe5\\x90\\x88\\xe7\\xba\\xa6/Proxy.sol\":1353:1371  addr != address(0) */\n      0xffffffffffffffffffffffffffffffffffffffff\n      and\n      eq\n      iszero\n        /* \"Solidity/CuimianCourse/2.\\xe9\\x83\\xa8\\xe7\\xbd\\xb2\\xe5\\x90\\x88\\xe7\\xba\\xa6/Proxy.sol\":1345:1389  require(addr != address(0), \"deploy failed\") */\n      tag_15\n      jumpi\n      mload(0x40)\n      0x08c379a000000000000000000000000000000000000000000000000000000000\n      dup2\n      mstore\n      0x04\n      add\n      tag_16\n      swap1\n      tag_17\n      jump\t// in\n    tag_16:\n      mload(0x40)\n      dup1\n      swap2\n      sub\n      swap1\n      revert\n    tag_15:\n        /* \"Solidity/CuimianCourse/2.\\xe9\\x83\\xa8\\xe7\\xbd\\xb2\\xe5\\x90\\x88\\xe7\\xba\\xa6/Proxy.sol\":1503:1515  Deploy(addr) */\n      0x55ea6c6b31543d8e2ec6a72f71a79c0f4b72ed0d4757172b043d8f4f4cd84848\n        /* \"Solidity/CuimianCourse/2.\\xe9\\x83\\xa8\\xe7\\xbd\\xb2\\xe5\\x90\\x88\\xe7\\xba\\xa6/Proxy.sol\":1510:1514  addr */\n      dup2\n        /* \"Solidity/CuimianCourse/2.\\xe9\\x83\\xa8\\xe7\\xbd\\xb2\\xe5\\x90\\x88\\xe7\\xba\\xa6/Proxy.sol\":1503:1515  Deploy(addr) */\n      mload(0x40)\n      tag_18\n      swap2\n      swap1\n      tag_9\n      jump\t// in\n    tag_18:\n      mload(0x40)\n      dup1\n      swap2\n      sub\n      swap1\n      log1\n        /* \"Solidity/CuimianCourse/2.\\xe9\\x83\\xa8\\xe7\\xbd\\xb2\\xe5\\x90\\x88\\xe7\\xba\\xa6/Proxy.sol\":727:1522  function deploy(... */\n      swap2\n      swap1\n      pop\n      jump\t// out\n        /* \"Solidity/CuimianCourse/2.\\xe9\\x83\\xa8\\xe7\\xbd\\xb2\\xe5\\x90\\x88\\xe7\\xba\\xa6/Proxy.sol\":1594:1793  function execute(address _target, bytes memory _data) external payable {... */\n    tag_13:\n        /* \"Solidity/CuimianCourse/2.\\xe9\\x83\\xa8\\xe7\\xbd\\xb2\\xe5\\x90\\x88\\xe7\\xba\\xa6/Proxy.sol\":1731:1743  bool success */\n      0x00\n        /* \"Solidity/CuimianCourse/2.\\xe9\\x83\\xa8\\xe7\\xbd\\xb2\\xe5\\x90\\x88\\xe7\\xba\\xa6/Proxy.sol\":1749:1756  _target */\n      dup3\n        /* \"Solidity/CuimianCourse/2.\\xe9\\x83\\xa8\\xe7\\xbd\\xb2\\xe5\\x90\\x88\\xe7\\xba\\xa6/Proxy.sol\":1749:1761  _target.call */\n      0xffffffffffffffffffffffffffffffffffffffff\n      and\n        /* \"Solidity/CuimianCourse/2.\\xe9\\x83\\xa8\\xe7\\xbd\\xb2\\xe5\\x90\\x88\\xe7\\xba\\xa6/Proxy.sol\":1769:1778  msg.value */\n      callvalue\n        /* \"Solidity/CuimianCourse/2.\\xe9\\x83\\xa8\\xe7\\xbd\\xb2\\xe5\\x90\\x88\\xe7\\xba\\xa6/Proxy.sol\":1780:1785  _data */\n      dup4\n        /* \"Solidity/CuimianCourse/2.\\xe9\\x83\\xa8\\xe7\\xbd\\xb2\\xe5\\x90\\x88\\xe7\\xba\\xa6/Proxy.sol\":1749:1786  _target.call{value: msg.value}(_data) */\n      mload(0x40)\n      tag_20\n      swap2\n      swap1\n      tag_21\n      jump\t// in\n    tag_20:\n      0x00\n      mload(0x40)\n      dup1\n      dup4\n      sub\n      dup2\n      dup6\n      dup8\n      gas\n      call\n      swap3\n      pop\n      pop\n      pop\n      returndatasize\n      dup1\n      0x00\n      dup2\n      eq\n      tag_24\n      jumpi\n      mload(0x40)\n      swap2\n      pop\n      and(add(returndatasize, 0x3f), not(0x1f))\n      dup3\n      add\n      0x40\n      mstore\n      returndatasize\n      dup3\n      mstore\n      returndatasize\n      0x00\n      0x20\n      dup5\n      add\n      returndatacopy\n      jump(tag_23)\n    tag_24:\n      0x60\n      swap2\n      pop\n    tag_23:\n      pop\n        /* \"Solidity/CuimianCourse/2.\\xe9\\x83\\xa8\\xe7\\xbd\\xb2\\xe5\\x90\\x88\\xe7\\xba\\xa6/Proxy.sol\":1730:1786  (bool success, ) = _target.call{value: msg.value}(_data) */\n      pop\n      swap1\n      pop\n        /* \"Solidity/CuimianCourse/2.\\xe9\\x83\\xa8\\xe7\\xbd\\xb2\\xe5\\x90\\x88\\xe7\\xba\\xa6/Proxy.sol\":1665:1793  {... */\n      pop\n        /* \"Solidity/CuimianCourse/2.\\xe9\\x83\\xa8\\xe7\\xbd\\xb2\\xe5\\x90\\x88\\xe7\\xba\\xa6/Proxy.sol\":1594:1793  function execute(address _target, bytes memory _data) external payable {... */\n      pop\n      pop\n      jump\t// out\n        /* \"#utility.yul\":7:417   */\n    tag_26:\n        /* \"#utility.yul\":84:89   */\n      0x00\n        /* \"#utility.yul\":109:174   */\n      tag_28\n        /* \"#utility.yul\":125:173   */\n      tag_29\n        /* \"#utility.yul\":166:172   */\n      dup5\n        /* \"#utility.yul\":125:173   */\n      tag_30\n      jump\t// in\n    tag_29:\n        /* \"#utility.yul\":109:174   */\n      tag_31\n      jump\t// in\n    tag_28:\n        /* \"#utility.yul\":100:174   */\n      swap1\n      pop\n        /* \"#utility.yul\":197:203   */\n      dup3\n        /* \"#utility.yul\":190:195   */\n      dup2\n        /* \"#utility.yul\":183:204   */\n      mstore\n        /* \"#utility.yul\":235:239   */\n      0x20\n        /* \"#utility.yul\":228:233   */\n      dup2\n        /* \"#utility.yul\":224:240   */\n      add\n        /* \"#utility.yul\":273:276   */\n      dup5\n        /* \"#utility.yul\":264:270   */\n      dup5\n        /* \"#utility.yul\":259:262   */\n      dup5\n        /* \"#utility.yul\":255:271   */\n      add\n        /* \"#utility.yul\":252:277   */\n      gt\n        /* \"#utility.yul\":249:361   */\n      iszero\n      tag_32\n      jumpi\n        /* \"#utility.yul\":280:359   */\n      tag_33\n      tag_34\n      jump\t// in\n    tag_33:\n        /* \"#utility.yul\":249:361   */\n    tag_32:\n        /* \"#utility.yul\":370:411   */\n      tag_35\n        /* \"#utility.yul\":404:410   */\n      dup5\n        /* \"#utility.yul\":399:402   */\n      dup3\n        /* \"#utility.yul\":394:397   */\n      dup6\n        /* \"#utility.yul\":370:411   */\n      tag_36\n      jump\t// in\n    tag_35:\n        /* \"#utility.yul\":90:417   */\n      pop\n        /* \"#utility.yul\":7:417   */\n      swap4\n      swap3\n      pop\n      pop\n      pop\n      jump\t// out\n        /* \"#utility.yul\":423:562   */\n    tag_37:\n        /* \"#utility.yul\":469:474   */\n      0x00\n        /* \"#utility.yul\":507:513   */\n      dup2\n        /* \"#utility.yul\":494:514   */\n      calldataload\n        /* \"#utility.yul\":485:514   */\n      swap1\n      pop\n        /* \"#utility.yul\":523:556   */\n      tag_39\n        /* \"#utility.yul\":550:555   */\n      dup2\n        /* \"#utility.yul\":523:556   */\n      tag_40\n      jump\t// in\n    tag_39:\n        /* \"#utility.yul\":423:562   */\n      swap3\n      swap2\n      pop\n      pop\n      jump\t// out\n        /* \"#utility.yul\":581:919   */\n    tag_41:\n        /* \"#utility.yul\":636:641   */\n      0x00\n        /* \"#utility.yul\":685:688   */\n      dup3\n        /* \"#utility.yul\":678:682   */\n      0x1f\n        /* \"#utility.yul\":670:676   */\n      dup4\n        /* \"#utility.yul\":666:683   */\n      add\n        /* \"#utility.yul\":662:689   */\n      slt\n        /* \"#utility.yul\":652:774   */\n      tag_43\n      jumpi\n        /* \"#utility.yul\":693:772   */\n      tag_44\n      tag_45\n      jump\t// in\n    tag_44:\n        /* \"#utility.yul\":652:774   */\n    tag_43:\n        /* \"#utility.yul\":810:816   */\n      dup2\n        /* \"#utility.yul\":797:817   */\n      calldataload\n        /* \"#utility.yul\":835:913   */\n      tag_46\n        /* \"#utility.yul\":909:912   */\n      dup5\n        /* \"#utility.yul\":901:907   */\n      dup3\n        /* \"#utility.yul\":894:898   */\n      0x20\n        /* \"#utility.yul\":886:892   */\n      dup7\n        /* \"#utility.yul\":882:899   */\n      add\n        /* \"#utility.yul\":835:913   */\n      tag_26\n      jump\t// in\n    tag_46:\n        /* \"#utility.yul\":826:913   */\n      swap2\n      pop\n        /* \"#utility.yul\":642:919   */\n      pop\n        /* \"#utility.yul\":581:919   */\n      swap3\n      swap2\n      pop\n      pop\n      jump\t// out\n        /* \"#utility.yul\":925:1577   */\n    tag_12:\n        /* \"#utility.yul\":1002:1008   */\n      0x00\n        /* \"#utility.yul\":1010:1016   */\n      dup1\n        /* \"#utility.yul\":1059:1061   */\n      0x40\n        /* \"#utility.yul\":1047:1056   */\n      dup4\n        /* \"#utility.yul\":1038:1045   */\n      dup6\n        /* \"#utility.yul\":1034:1057   */\n      sub\n        /* \"#utility.yul\":1030:1062   */\n      slt\n        /* \"#utility.yul\":1027:1146   */\n      iszero\n      tag_48\n      jumpi\n        /* \"#utility.yul\":1065:1144   */\n      tag_49\n      tag_50\n      jump\t// in\n    tag_49:\n        /* \"#utility.yul\":1027:1146   */\n    tag_48:\n        /* \"#utility.yul\":1185:1186   */\n      0x00\n        /* \"#utility.yul\":1210:1263   */\n      tag_51\n        /* \"#utility.yul\":1255:1262   */\n      dup6\n        /* \"#utility.yul\":1246:1252   */\n      dup3\n        /* \"#utility.yul\":1235:1244   */\n      dup7\n        /* \"#utility.yul\":1231:1253   */\n      add\n        /* \"#utility.yul\":1210:1263   */\n      tag_37\n      jump\t// in\n    tag_51:\n        /* \"#utility.yul\":1200:1263   */\n      swap3\n      pop\n        /* \"#utility.yul\":1156:1273   */\n      pop\n        /* \"#utility.yul\":1340:1342   */\n      0x20\n        /* \"#utility.yul\":1329:1338   */\n      dup4\n        /* \"#utility.yul\":1325:1343   */\n      add\n        /* \"#utility.yul\":1312:1344   */\n      calldataload\n        /* \"#utility.yul\":1371:1389   */\n      0xffffffffffffffff\n        /* \"#utility.yul\":1363:1369   */\n      dup2\n        /* \"#utility.yul\":1360:1390   */\n      gt\n        /* \"#utility.yul\":1357:1474   */\n      iszero\n      tag_52\n      jumpi\n        /* \"#utility.yul\":1393:1472   */\n      tag_53\n      tag_54\n      jump\t// in\n    tag_53:\n        /* \"#utility.yul\":1357:1474   */\n    tag_52:\n        /* \"#utility.yul\":1498:1560   */\n      tag_55\n        /* \"#utility.yul\":1552:1559   */\n      dup6\n        /* \"#utility.yul\":1543:1549   */\n      dup3\n        /* \"#utility.yul\":1532:1541   */\n      dup7\n        /* \"#utility.yul\":1528:1550   */\n      add\n        /* \"#utility.yul\":1498:1560   */\n      tag_41\n      jump\t// in\n    tag_55:\n        /* \"#utility.yul\":1488:1560   */\n      swap2\n      pop\n        /* \"#utility.yul\":1283:1570   */\n      pop\n        /* \"#utility.yul\":925:1577   */\n      swap3\n      pop\n      swap3\n      swap1\n      pop\n      jump\t// out\n        /* \"#utility.yul\":1583:2090   */\n    tag_6:\n        /* \"#utility.yul\":1651:1657   */\n      0x00\n        /* \"#utility.yul\":1700:1702   */\n      0x20\n        /* \"#utility.yul\":1688:1697   */\n      dup3\n        /* \"#utility.yul\":1679:1686   */\n      dup5\n        /* \"#utility.yul\":1675:1698   */\n      sub\n        /* \"#utility.yul\":1671:1703   */\n      slt\n        /* \"#utility.yul\":1668:1787   */\n      iszero\n      tag_57\n      jumpi\n        /* \"#utility.yul\":1706:1785   */\n      tag_58\n      tag_50\n      jump\t// in\n    tag_58:\n        /* \"#utility.yul\":1668:1787   */\n    tag_57:\n        /* \"#utility.yul\":1854:1855   */\n      0x00\n        /* \"#utility.yul\":1843:1852   */\n      dup3\n        /* \"#utility.yul\":1839:1856   */\n      add\n        /* \"#utility.yul\":1826:1857   */\n      calldataload\n        /* \"#utility.yul\":1884:1902   */\n      0xffffffffffffffff\n        /* \"#utility.yul\":1876:1882   */\n      dup2\n        /* \"#utility.yul\":1873:1903   */\n      gt\n        /* \"#utility.yul\":1870:1987   */\n      iszero\n      tag_59\n      jumpi\n        /* \"#utility.yul\":1906:1985   */\n      tag_60\n      tag_54\n      jump\t// in\n    tag_60:\n        /* \"#utility.yul\":1870:1987   */\n    tag_59:\n        /* \"#utility.yul\":2011:2073   */\n      tag_61\n        /* \"#utility.yul\":2065:2072   */\n      dup5\n        /* \"#utility.yul\":2056:2062   */\n      dup3\n        /* \"#utility.yul\":2045:2054   */\n      dup6\n        /* \"#utility.yul\":2041:2063   */\n      add\n        /* \"#utility.yul\":2011:2073   */\n      tag_41\n      jump\t// in\n    tag_61:\n        /* \"#utility.yul\":2001:2073   */\n      swap2\n      pop\n        /* \"#utility.yul\":1797:2083   */\n      pop\n        /* \"#utility.yul\":1583:2090   */\n      swap3\n      swap2\n      pop\n      pop\n      jump\t// out\n        /* \"#utility.yul\":2096:2214   */\n    tag_62:\n        /* \"#utility.yul\":2183:2207   */\n      tag_64\n        /* \"#utility.yul\":2201:2206   */\n      dup2\n        /* \"#utility.yul\":2183:2207   */\n      tag_65\n      jump\t// in\n    tag_64:\n        /* \"#utility.yul\":2178:2181   */\n      dup3\n        /* \"#utility.yul\":2171:2208   */\n      mstore\n        /* \"#utility.yul\":2096:2214   */\n      pop\n      pop\n      jump\t// out\n        /* \"#utility.yul\":2220:2593   */\n    tag_66:\n        /* \"#utility.yul\":2324:2327   */\n      0x00\n        /* \"#utility.yul\":2352:2390   */\n      tag_68\n        /* \"#utility.yul\":2384:2389   */\n      dup3\n        /* \"#utility.yul\":2352:2390   */\n      tag_69\n      jump\t// in\n    tag_68:\n        /* \"#utility.yul\":2406:2494   */\n      tag_70\n        /* \"#utility.yul\":2487:2493   */\n      dup2\n        /* \"#utility.yul\":2482:2485   */\n      dup6\n        /* \"#utility.yul\":2406:2494   */\n      tag_71\n      jump\t// in\n    tag_70:\n        /* \"#utility.yul\":2399:2494   */\n      swap4\n      pop\n        /* \"#utility.yul\":2503:2555   */\n      tag_72\n        /* \"#utility.yul\":2548:2554   */\n      dup2\n        /* \"#utility.yul\":2543:2546   */\n      dup6\n        /* \"#utility.yul\":2536:2540   */\n      0x20\n        /* \"#utility.yul\":2529:2534   */\n      dup7\n        /* \"#utility.yul\":2525:2541   */\n      add\n        /* \"#utility.yul\":2503:2555   */\n      tag_73\n      jump\t// in\n    tag_72:\n        /* \"#utility.yul\":2580:2586   */\n      dup1\n        /* \"#utility.yul\":2575:2578   */\n      dup5\n        /* \"#utility.yul\":2571:2587   */\n      add\n        /* \"#utility.yul\":2564:2587   */\n      swap2\n      pop\n        /* \"#utility.yul\":2328:2593   */\n      pop\n        /* \"#utility.yul\":2220:2593   */\n      swap3\n      swap2\n      pop\n      pop\n      jump\t// out\n        /* \"#utility.yul\":2599:2965   */\n    tag_74:\n        /* \"#utility.yul\":2741:2744   */\n      0x00\n        /* \"#utility.yul\":2762:2829   */\n      tag_76\n        /* \"#utility.yul\":2826:2828   */\n      0x0d\n        /* \"#utility.yul\":2821:2824   */\n      dup4\n        /* \"#utility.yul\":2762:2829   */\n      tag_77\n      jump\t// in\n    tag_76:\n        /* \"#utility.yul\":2755:2829   */\n      swap2\n      pop\n        /* \"#utility.yul\":2838:2931   */\n      tag_78\n        /* \"#utility.yul\":2927:2930   */\n      dup3\n        /* \"#utility.yul\":2838:2931   */\n      tag_79\n      jump\t// in\n    tag_78:\n        /* \"#utility.yul\":2956:2958   */\n      0x20\n        /* \"#utility.yul\":2951:2954   */\n      dup3\n        /* \"#utility.yul\":2947:2959   */\n      add\n        /* \"#utility.yul\":2940:2959   */\n      swap1\n      pop\n        /* \"#utility.yul\":2599:2965   */\n      swap2\n      swap1\n      pop\n      jump\t// out\n        /* \"#utility.yul\":2971:3242   */\n    tag_21:\n        /* \"#utility.yul\":3101:3104   */\n      0x00\n        /* \"#utility.yul\":3123:3216   */\n      tag_81\n        /* \"#utility.yul\":3212:3215   */\n      dup3\n        /* \"#utility.yul\":3203:3209   */\n      dup5\n        /* \"#utility.yul\":3123:3216   */\n      tag_66\n      jump\t// in\n    tag_81:\n        /* \"#utility.yul\":3116:3216   */\n      swap2\n      pop\n        /* \"#utility.yul\":3233:3236   */\n      dup2\n        /* \"#utility.yul\":3226:3236   */\n      swap1\n      pop\n        /* \"#utility.yul\":2971:3242   */\n      swap3\n      swap2\n      pop\n      pop\n      jump\t// out\n        /* \"#utility.yul\":3248:3470   */\n    tag_9:\n        /* \"#utility.yul\":3341:3345   */\n      0x00\n        /* \"#utility.yul\":3379:3381   */\n      0x20\n        /* \"#utility.yul\":3368:3377   */\n      dup3\n        /* \"#utility.yul\":3364:3382   */\n      add\n        /* \"#utility.yul\":3356:3382   */\n      swap1\n      pop\n        /* \"#utility.yul\":3392:3463   */\n      tag_83\n        /* \"#utility.yul\":3460:3461   */\n      0x00\n        /* \"#utility.yul\":3449:3458   */\n      dup4\n        /* \"#utility.yul\":3445:3462   */\n      add\n        /* \"#utility.yul\":3436:3442   */\n      dup5\n        /* \"#utility.yul\":3392:3463   */\n      tag_62\n      jump\t// in\n    tag_83:\n        /* \"#utility.yul\":3248:3470   */\n      swap3\n      swap2\n      pop\n      pop\n      jump\t// out\n        /* \"#utility.yul\":3476:3895   */\n    tag_17:\n        /* \"#utility.yul\":3642:3646   */\n      0x00\n        /* \"#utility.yul\":3680:3682   */\n      0x20\n        /* \"#utility.yul\":3669:3678   */\n      dup3\n        /* \"#utility.yul\":3665:3683   */\n      add\n        /* \"#utility.yul\":3657:3683   */\n      swap1\n      pop\n        /* \"#utility.yul\":3729:3738   */\n      dup2\n        /* \"#utility.yul\":3723:3727   */\n      dup2\n        /* \"#utility.yul\":3719:3739   */\n      sub\n        /* \"#utility.yul\":3715:3716   */\n      0x00\n        /* \"#utility.yul\":3704:3713   */\n      dup4\n        /* \"#utility.yul\":3700:3717   */\n      add\n        /* \"#utility.yul\":3693:3740   */\n      mstore\n        /* \"#utility.yul\":3757:3888   */\n      tag_85\n        /* \"#utility.yul\":3883:3887   */\n      dup2\n        /* \"#utility.yul\":3757:3888   */\n      tag_74\n      jump\t// in\n    tag_85:\n        /* \"#utility.yul\":3749:3888   */\n      swap1\n      pop\n        /* \"#utility.yul\":3476:3895   */\n      swap2\n      swap1\n      pop\n      jump\t// out\n        /* \"#utility.yul\":3901:4030   */\n    tag_31:\n        /* \"#utility.yul\":3935:3941   */\n      0x00\n        /* \"#utility.yul\":3962:3982   */\n      tag_87\n      tag_88\n      jump\t// in\n    tag_87:\n        /* \"#utility.yul\":3952:3982   */\n      swap1\n      pop\n        /* \"#utility.yul\":3991:4024   */\n      tag_89\n        /* \"#utility.yul\":4019:4023   */\n      dup3\n        /* \"#utility.yul\":4011:4017   */\n      dup3\n        /* \"#utility.yul\":3991:4024   */\n      tag_90\n      jump\t// in\n    tag_89:\n        /* \"#utility.yul\":3901:4030   */\n      swap2\n      swap1\n      pop\n      jump\t// out\n        /* \"#utility.yul\":4036:4111   */\n    tag_88:\n        /* \"#utility.yul\":4069:4075   */\n      0x00\n        /* \"#utility.yul\":4102:4104   */\n      0x40\n        /* \"#utility.yul\":4096:4105   */\n      mload\n        /* \"#utility.yul\":4086:4105   */\n      swap1\n      pop\n        /* \"#utility.yul\":4036:4111   */\n      swap1\n      jump\t// out\n        /* \"#utility.yul\":4117:4424   */\n    tag_30:\n        /* \"#utility.yul\":4178:4182   */\n      0x00\n        /* \"#utility.yul\":4268:4286   */\n      0xffffffffffffffff\n        /* \"#utility.yul\":4260:4266   */\n      dup3\n        /* \"#utility.yul\":4257:4287   */\n      gt\n        /* \"#utility.yul\":4254:4310   */\n      iszero\n      tag_93\n      jumpi\n        /* \"#utility.yul\":4290:4308   */\n      tag_94\n      tag_95\n      jump\t// in\n    tag_94:\n        /* \"#utility.yul\":4254:4310   */\n    tag_93:\n        /* \"#utility.yul\":4328:4357   */\n      tag_96\n        /* \"#utility.yul\":4350:4356   */\n      dup3\n        /* \"#utility.yul\":4328:4357   */\n      tag_97\n      jump\t// in\n    tag_96:\n        /* \"#utility.yul\":4320:4357   */\n      swap1\n      pop\n        /* \"#utility.yul\":4412:4416   */\n      0x20\n        /* \"#utility.yul\":4406:4410   */\n      dup2\n        /* \"#utility.yul\":4402:4417   */\n      add\n        /* \"#utility.yul\":4394:4417   */\n      swap1\n      pop\n        /* \"#utility.yul\":4117:4424   */\n      swap2\n      swap1\n      pop\n      jump\t// out\n        /* \"#utility.yul\":4430:4528   */\n    tag_69:\n        /* \"#utility.yul\":4481:4487   */\n      0x00\n        /* \"#utility.yul\":4515:4520   */\n      dup2\n        /* \"#utility.yul\":4509:4521   */\n      mload\n        /* \"#utility.yul\":4499:4521   */\n      swap1\n      pop\n        /* \"#utility.yul\":4430:4528   */\n      swap2\n      swap1\n      pop\n      jump\t// out\n        /* \"#utility.yul\":4534:4681   */\n    tag_71:\n        /* \"#utility.yul\":4635:4646   */\n      0x00\n        /* \"#utility.yul\":4672:4675   */\n      dup2\n        /* \"#utility.yul\":4657:4675   */\n      swap1\n      pop\n        /* \"#utility.yul\":4534:4681   */\n      swap3\n      swap2\n      pop\n      pop\n      jump\t// out\n        /* \"#utility.yul\":4687:4856   */\n    tag_77:\n        /* \"#utility.yul\":4771:4782   */\n      0x00\n        /* \"#utility.yul\":4805:4811   */\n      dup3\n        /* \"#utility.yul\":4800:4803   */\n      dup3\n        /* \"#utility.yul\":4793:4812   */\n      mstore\n        /* \"#utility.yul\":4845:4849   */\n      0x20\n        /* \"#utility.yul\":4840:4843   */\n      dup3\n        /* \"#utility.yul\":4836:4850   */\n      add\n        /* \"#utility.yul\":4821:4850   */\n      swap1\n      pop\n        /* \"#utility.yul\":4687:4856   */\n      swap3\n      swap2\n      pop\n      pop\n      jump\t// out\n        /* \"#utility.yul\":4862:4958   */\n    tag_65:\n        /* \"#utility.yul\":4899:4906   */\n      0x00\n        /* \"#utility.yul\":4928:4952   */\n      tag_102\n        /* \"#utility.yul\":4946:4951   */\n      dup3\n        /* \"#utility.yul\":4928:4952   */\n      tag_103\n      jump\t// in\n    tag_102:\n        /* \"#utility.yul\":4917:4952   */\n      swap1\n      pop\n        /* \"#utility.yul\":4862:4958   */\n      swap2\n      swap1\n      pop\n      jump\t// out\n        /* \"#utility.yul\":4964:5090   */\n    tag_103:\n        /* \"#utility.yul\":5001:5008   */\n      0x00\n        /* \"#utility.yul\":5041:5083   */\n      0xffffffffffffffffffffffffffffffffffffffff\n        /* \"#utility.yul\":5034:5039   */\n      dup3\n        /* \"#utility.yul\":5030:5084   */\n      and\n        /* \"#utility.yul\":5019:5084   */\n      swap1\n      pop\n        /* \"#utility.yul\":4964:5090   */\n      swap2\n      swap1\n      pop\n      jump\t// out\n        /* \"#utility.yul\":5096:5250   */\n    tag_36:\n        /* \"#utility.yul\":5180:5186   */\n      dup3\n        /* \"#utility.yul\":5175:5178   */\n      dup2\n        /* \"#utility.yul\":5170:5173   */\n      dup4\n        /* \"#utility.yul\":5157:5187   */\n      calldatacopy\n        /* \"#utility.yul\":5242:5243   */\n      0x00\n        /* \"#utility.yul\":5233:5239   */\n      dup4\n        /* \"#utility.yul\":5228:5231   */\n      dup4\n        /* \"#utility.yul\":5224:5240   */\n      add\n        /* \"#utility.yul\":5217:5244   */\n      mstore\n        /* \"#utility.yul\":5096:5250   */\n      pop\n      pop\n      pop\n      jump\t// out\n        /* \"#utility.yul\":5256:5563   */\n    tag_73:\n        /* \"#utility.yul\":5324:5325   */\n      0x00\n        /* \"#utility.yul\":5334:5447   */\n    tag_107:\n        /* \"#utility.yul\":5348:5354   */\n      dup4\n        /* \"#utility.yul\":5345:5346   */\n      dup2\n        /* \"#utility.yul\":5342:5355   */\n      lt\n        /* \"#utility.yul\":5334:5447   */\n      iszero\n      tag_109\n      jumpi\n        /* \"#utility.yul\":5433:5434   */\n      dup1\n        /* \"#utility.yul\":5428:5431   */\n      dup3\n        /* \"#utility.yul\":5424:5435   */\n      add\n        /* \"#utility.yul\":5418:5436   */\n      mload\n        /* \"#utility.yul\":5414:5415   */\n      dup2\n        /* \"#utility.yul\":5409:5412   */\n      dup5\n        /* \"#utility.yul\":5405:5416   */\n      add\n        /* \"#utility.yul\":5398:5437   */\n      mstore\n        /* \"#utility.yul\":5370:5372   */\n      0x20\n        /* \"#utility.yul\":5367:5368   */\n      dup2\n        /* \"#utility.yul\":5363:5373   */\n      add\n        /* \"#utility.yul\":5358:5373   */\n      swap1\n      pop\n        /* \"#utility.yul\":5334:5447   */\n      jump(tag_107)\n    tag_109:\n        /* \"#utility.yul\":5465:5471   */\n      dup4\n        /* \"#utility.yul\":5462:5463   */\n      dup2\n        /* \"#utility.yul\":5459:5472   */\n      gt\n        /* \"#utility.yul\":5456:5557   */\n      iszero\n      tag_110\n      jumpi\n        /* \"#utility.yul\":5545:5546   */\n      0x00\n        /* \"#utility.yul\":5536:5542   */\n      dup5\n        /* \"#utility.yul\":5531:5534   */\n      dup5\n        /* \"#utility.yul\":5527:5543   */\n      add\n        /* \"#utility.yul\":5520:5547   */\n      mstore\n        /* \"#utility.yul\":5456:5557   */\n    tag_110:\n        /* \"#utility.yul\":5305:5563   */\n      pop\n        /* \"#utility.yul\":5256:5563   */\n      pop\n      pop\n      pop\n      jump\t// out\n        /* \"#utility.yul\":5569:5850   */\n    tag_90:\n        /* \"#utility.yul\":5652:5679   */\n      tag_112\n        /* \"#utility.yul\":5674:5678   */\n      dup3\n        /* \"#utility.yul\":5652:5679   */\n      tag_97\n      jump\t// in\n    tag_112:\n        /* \"#utility.yul\":5644:5650   */\n      dup2\n        /* \"#utility.yul\":5640:5680   */\n      add\n        /* \"#utility.yul\":5782:5788   */\n      dup2\n        /* \"#utility.yul\":5770:5780   */\n      dup2\n        /* \"#utility.yul\":5767:5789   */\n      lt\n        /* \"#utility.yul\":5746:5764   */\n      0xffffffffffffffff\n        /* \"#utility.yul\":5734:5744   */\n      dup3\n        /* \"#utility.yul\":5731:5765   */\n      gt\n        /* \"#utility.yul\":5728:5790   */\n      or\n        /* \"#utility.yul\":5725:5813   */\n      iszero\n      tag_113\n      jumpi\n        /* \"#utility.yul\":5793:5811   */\n      tag_114\n      tag_95\n      jump\t// in\n    tag_114:\n        /* \"#utility.yul\":5725:5813   */\n    tag_113:\n        /* \"#utility.yul\":5833:5843   */\n      dup1\n        /* \"#utility.yul\":5829:5831   */\n      0x40\n        /* \"#utility.yul\":5822:5844   */\n      mstore\n        /* \"#utility.yul\":5612:5850   */\n      pop\n        /* \"#utility.yul\":5569:5850   */\n      pop\n      pop\n      jump\t// out\n        /* \"#utility.yul\":5856:6036   */\n    tag_95:\n        /* \"#utility.yul\":5904:5981   */\n      0x4e487b7100000000000000000000000000000000000000000000000000000000\n        /* \"#utility.yul\":5901:5902   */\n      0x00\n        /* \"#utility.yul\":5894:5982   */\n      mstore\n        /* \"#utility.yul\":6001:6005   */\n      0x41\n        /* \"#utility.yul\":5998:5999   */\n      0x04\n        /* \"#utility.yul\":5991:6006   */\n      mstore\n        /* \"#utility.yul\":6025:6029   */\n      0x24\n        /* \"#utility.yul\":6022:6023   */\n      0x00\n        /* \"#utility.yul\":6015:6030   */\n      revert\n        /* \"#utility.yul\":6042:6159   */\n    tag_45:\n        /* \"#utility.yul\":6151:6152   */\n      0x00\n        /* \"#utility.yul\":6148:6149   */\n      dup1\n        /* \"#utility.yul\":6141:6153   */\n      revert\n        /* \"#utility.yul\":6165:6282   */\n    tag_34:\n        /* \"#utility.yul\":6274:6275   */\n      0x00\n        /* \"#utility.yul\":6271:6272   */\n      dup1\n        /* \"#utility.yul\":6264:6276   */\n      revert\n        /* \"#utility.yul\":6288:6405   */\n    tag_54:\n        /* \"#utility.yul\":6397:6398   */\n      0x00\n        /* \"#utility.yul\":6394:6395   */\n      dup1\n        /* \"#utility.yul\":6387:6399   */\n      revert\n        /* \"#utility.yul\":6411:6528   */\n    tag_50:\n        /* \"#utility.yul\":6520:6521   */\n      0x00\n        /* \"#utility.yul\":6517:6518   */\n      dup1\n        /* \"#utility.yul\":6510:6522   */\n      revert\n        /* \"#utility.yul\":6534:6636   */\n    tag_97:\n        /* \"#utility.yul\":6575:6581   */\n      0x00\n        /* \"#utility.yul\":6626:6628   */\n      0x1f\n        /* \"#utility.yul\":6622:6629   */\n      not\n        /* \"#utility.yul\":6617:6619   */\n      0x1f\n        /* \"#utility.yul\":6610:6615   */\n      dup4\n        /* \"#utility.yul\":6606:6620   */\n      add\n        /* \"#utility.yul\":6602:6630   */\n      and\n        /* \"#utility.yul\":6592:6630   */\n      swap1\n      pop\n        /* \"#utility.yul\":6534:6636   */\n      swap2\n      swap1\n      pop\n      jump\t// out\n        /* \"#utility.yul\":6642:6805   */\n    tag_79:\n        /* \"#utility.yul\":6782:6797   */\n      0x6465706c6f79206661696c656400000000000000000000000000000000000000\n        /* \"#utility.yul\":6778:6779   */\n      0x00\n        /* \"#utility.yul\":6770:6776   */\n      dup3\n        /* \"#utility.yul\":6766:6780   */\n      add\n        /* \"#utility.yul\":6759:6798   */\n      mstore\n        /* \"#utility.yul\":6642:6805   */\n      pop\n      jump\t// out\n        /* \"#utility.yul\":6811:6933   */\n    tag_40:\n        /* \"#utility.yul\":6884:6908   */\n      tag_123\n        /* \"#utility.yul\":6902:6907   */\n      dup2\n        /* \"#utility.yul\":6884:6908   */\n      tag_65\n      jump\t// in\n    tag_123:\n        /* \"#utility.yul\":6877:6882   */\n      dup2\n        /* \"#utility.yul\":6874:6909   */\n      eq\n        /* \"#utility.yul\":6864:6927   */\n      tag_124\n      jumpi\n        /* \"#utility.yul\":6923:6924   */\n      0x00\n        /* \"#utility.yul\":6920:6921   */\n      dup1\n        /* \"#utility.yul\":6913:6925   */\n      revert\n        /* \"#utility.yul\":6864:6927   */\n    tag_124:\n        /* \"#utility.yul\":6811:6933   */\n      pop\n      jump\t// out\n\n    auxdata: 0xa26469706673582212208441da14670527031bd6e5cc19e5ba84f9199593659d023ea087ce060acccee364736f6c63430008070033\n}\n",
				"bytecode": {
					"linkReferences": {},
					"object": "608060405234801561001057600080fd5b5061056f806100206000396000f3fe6080604052600436106100285760003560e01c80627743601461002d5780631cff79cd1461005d575b600080fd5b61004760048036038101906100429190610285565b610079565b6040516100549190610348565b60405180910390f35b61007760048036038101906100729190610229565b610131565b005b600081516020830134f09050600073ffffffffffffffffffffffffffffffffffffffff168173ffffffffffffffffffffffffffffffffffffffff1614156100f5576040517f08c379a00000000000000000000000000000000000000000000000000000000081526004016100ec90610363565b60405180910390fd5b7f55ea6c6b31543d8e2ec6a72f71a79c0f4b72ed0d4757172b043d8f4f4cd84848816040516101249190610348565b60405180910390a1919050565b60008273ffffffffffffffffffffffffffffffffffffffff1634836040516101599190610331565b60006040518083038185875af1925050503d8060008114610196576040519150601f19603f3d011682016040523d82523d6000602084013e61019b565b606091505b50509050505050565b60006101b76101b2846103a8565b610383565b9050828152602081018484840111156101d3576101d26104d9565b5b6101de848285610432565b509392505050565b6000813590506101f581610522565b92915050565b600082601f8301126102105761020f6104d4565b5b81356102208482602086016101a4565b91505092915050565b600080604083850312156102405761023f6104e3565b5b600061024e858286016101e6565b925050602083013567ffffffffffffffff81111561026f5761026e6104de565b5b61027b858286016101fb565b9150509250929050565b60006020828403121561029b5761029a6104e3565b5b600082013567ffffffffffffffff8111156102b9576102b86104de565b5b6102c5848285016101fb565b91505092915050565b6102d781610400565b82525050565b60006102e8826103d9565b6102f281856103e4565b9350610302818560208601610441565b80840191505092915050565b600061031b600d836103ef565b9150610326826104f9565b602082019050919050565b600061033d82846102dd565b915081905092915050565b600060208201905061035d60008301846102ce565b92915050565b6000602082019050818103600083015261037c8161030e565b9050919050565b600061038d61039e565b90506103998282610474565b919050565b6000604051905090565b600067ffffffffffffffff8211156103c3576103c26104a5565b5b6103cc826104e8565b9050602081019050919050565b600081519050919050565b600081905092915050565b600082825260208201905092915050565b600061040b82610412565b9050919050565b600073ffffffffffffffffffffffffffffffffffffffff82169050919050565b82818337600083830152505050565b60005b8381101561045f578082015181840152602081019050610444565b8381111561046e576000848401525b50505050565b61047d826104e8565b810181811067ffffffffffffffff8211171561049c5761049b6104a5565b5b80604052505050565b7f4e487b7100000000000000000000000000000000000000000000000000000000600052604160045260246000fd5b600080fd5b600080fd5b600080fd5b600080fd5b6000601f19601f8301169050919050565b7f6465706c6f79206661696c656400000000000000000000000000000000000000600082015250565b61052b81610400565b811461053657600080fd5b5056fea26469706673582212208441da14670527031bd6e5cc19e5ba84f9199593659d023ea087ce060acccee364736f6c63430008070033",
					"opcodes": "PUSH1 0x80 PUSH1 0x40 MSTORE CALLVALUE DUP1 ISZERO PUSH2 0x10 JUMPI PUSH1 0x0 DUP1 REVERT JUMPDEST POP PUSH2 0x56F DUP1 PUSH2 0x20 PUSH1 0x0 CODECOPY PUSH1 0x0 RETURN INVALID PUSH1 0x80 PUSH1 0x40 MSTORE PUSH1 0x4 CALLDATASIZE LT PUSH2 0x28 JUMPI PUSH1 0x0 CALLDATALOAD PUSH1 0xE0 SHR DUP1 PUSH3 0x774360 EQ PUSH2 0x2D JUMPI DUP1 PUSH4 0x1CFF79CD EQ PUSH2 0x5D JUMPI JUMPDEST PUSH1 0x0 DUP1 REVERT JUMPDEST PUSH2 0x47 PUSH1 0x4 DUP1 CALLDATASIZE SUB DUP2 ADD SWAP1 PUSH2 0x42 SWAP2 SWAP1 PUSH2 0x285 JUMP JUMPDEST PUSH2 0x79 JUMP JUMPDEST PUSH1 0x40 MLOAD PUSH2 0x54 SWAP2 SWAP1 PUSH2 0x348 JUMP JUMPDEST PUSH1 0x40 MLOAD DUP1 SWAP2 SUB SWAP1 RETURN JUMPDEST PUSH2 0x77 PUSH1 0x4 DUP1 CALLDATASIZE SUB DUP2 ADD SWAP1 PUSH2 0x72 SWAP2 SWAP1 PUSH2 0x229 JUMP JUMPDEST PUSH2 0x131 JUMP JUMPDEST STOP JUMPDEST PUSH1 0x0 DUP2 MLOAD PUSH1 0x20 DUP4 ADD CALLVALUE CREATE SWAP1 POP PUSH1 0x0 PUSH20 0xFFFFFFFFFFFFFFFFFFFFFFFFFFFFFFFFFFFFFFFF AND DUP2 PUSH20 0xFFFFFFFFFFFFFFFFFFFFFFFFFFFFFFFFFFFFFFFF AND EQ ISZERO PUSH2 0xF5 JUMPI PUSH1 0x40 MLOAD PUSH32 0x8C379A000000000000000000000000000000000000000000000000000000000 DUP2 MSTORE PUSH1 0x4 ADD PUSH2 0xEC SWAP1 PUSH2 0x363 JUMP JUMPDEST PUSH1 0x40 MLOAD DUP1 SWAP2 SUB SWAP1 REVERT JUMPDEST PUSH32 0x55EA6C6B31543D8E2EC6A72F71A79C0F4B72ED0D4757172B043D8F4F4CD84848 DUP2 PUSH1 0x40 MLOAD PUSH2 0x124 SWAP2 SWAP1 PUSH2 0x348 JUMP JUMPDEST PUSH1 0x40 MLOAD DUP1 SWAP2 SUB SWAP1 LOG1 SWAP2 SWAP1 POP JUMP JUMPDEST PUSH1 0x0 DUP3 PUSH20 0xFFFFFFFFFFFFFFFFFFFFFFFFFFFFFFFFFFFFFFFF AND CALLVALUE DUP4 PUSH1 0x40 MLOAD PUSH2 0x159 SWAP2 SWAP1 PUSH2 0x331 JUMP JUMPDEST PUSH1 0x0 PUSH1 0x40 MLOAD DUP1 DUP4 SUB DUP2 DUP6 DUP8 GAS CALL SWAP3 POP POP POP RETURNDATASIZE DUP1 PUSH1 0x0 DUP2 EQ PUSH2 0x196 JUMPI PUSH1 0x40 MLOAD SWAP2 POP PUSH1 0x1F NOT PUSH1 0x3F RETURNDATASIZE ADD AND DUP3 ADD PUSH1 0x40 MSTORE RETURNDATASIZE DUP3 MSTORE RETURNDATASIZE PUSH1 0x0 PUSH1 0x20 DUP5 ADD RETURNDATACOPY PUSH2 0x19B JUMP JUMPDEST PUSH1 0x60 SWAP2 POP JUMPDEST POP POP SWAP1 POP POP POP POP JUMP JUMPDEST PUSH1 0x0 PUSH2 0x1B7 PUSH2 0x1B2 DUP5 PUSH2 0x3A8 JUMP JUMPDEST PUSH2 0x383 JUMP JUMPDEST SWAP1 POP DUP3 DUP2 MSTORE PUSH1 0x20 DUP2 ADD DUP5 DUP5 DUP5 ADD GT ISZERO PUSH2 0x1D3 JUMPI PUSH2 0x1D2 PUSH2 0x4D9 JUMP JUMPDEST JUMPDEST PUSH2 0x1DE DUP5 DUP3 DUP6 PUSH2 0x432 JUMP JUMPDEST POP SWAP4 SWAP3 POP POP POP JUMP JUMPDEST PUSH1 0x0 DUP2 CALLDATALOAD SWAP1 POP PUSH2 0x1F5 DUP2 PUSH2 0x522 JUMP JUMPDEST SWAP3 SWAP2 POP POP JUMP JUMPDEST PUSH1 0x0 DUP3 PUSH1 0x1F DUP4 ADD SLT PUSH2 0x210 JUMPI PUSH2 0x20F PUSH2 0x4D4 JUMP JUMPDEST JUMPDEST DUP2 CALLDATALOAD PUSH2 0x220 DUP5 DUP3 PUSH1 0x20 DUP7 ADD PUSH2 0x1A4 JUMP JUMPDEST SWAP2 POP POP SWAP3 SWAP2 POP POP JUMP JUMPDEST PUSH1 0x0 DUP1 PUSH1 0x40 DUP4 DUP6 SUB SLT ISZERO PUSH2 0x240 JUMPI PUSH2 0x23F PUSH2 0x4E3 JUMP JUMPDEST JUMPDEST PUSH1 0x0 PUSH2 0x24E DUP6 DUP3 DUP7 ADD PUSH2 0x1E6 JUMP JUMPDEST SWAP3 POP POP PUSH1 0x20 DUP4 ADD CALLDATALOAD PUSH8 0xFFFFFFFFFFFFFFFF DUP2 GT ISZERO PUSH2 0x26F JUMPI PUSH2 0x26E PUSH2 0x4DE JUMP JUMPDEST JUMPDEST PUSH2 0x27B DUP6 DUP3 DUP7 ADD PUSH2 0x1FB JUMP JUMPDEST SWAP2 POP POP SWAP3 POP SWAP3 SWAP1 POP JUMP JUMPDEST PUSH1 0x0 PUSH1 0x20 DUP3 DUP5 SUB SLT ISZERO PUSH2 0x29B JUMPI PUSH2 0x29A PUSH2 0x4E3 JUMP JUMPDEST JUMPDEST PUSH1 0x0 DUP3 ADD CALLDATALOAD PUSH8 0xFFFFFFFFFFFFFFFF DUP2 GT ISZERO PUSH2 0x2B9 JUMPI PUSH2 0x2B8 PUSH2 0x4DE JUMP JUMPDEST JUMPDEST PUSH2 0x2C5 DUP5 DUP3 DUP6 ADD PUSH2 0x1FB JUMP JUMPDEST SWAP2 POP POP SWAP3 SWAP2 POP POP JUMP JUMPDEST PUSH2 0x2D7 DUP2 PUSH2 0x400 JUMP JUMPDEST DUP3 MSTORE POP POP JUMP JUMPDEST PUSH1 0x0 PUSH2 0x2E8 DUP3 PUSH2 0x3D9 JUMP JUMPDEST PUSH2 0x2F2 DUP2 DUP6 PUSH2 0x3E4 JUMP JUMPDEST SWAP4 POP PUSH2 0x302 DUP2 DUP6 PUSH1 0x20 DUP7 ADD PUSH2 0x441 JUMP JUMPDEST DUP1 DUP5 ADD SWAP2 POP POP SWAP3 SWAP2 POP POP JUMP JUMPDEST PUSH1 0x0 PUSH2 0x31B PUSH1 0xD DUP4 PUSH2 0x3EF JUMP JUMPDEST SWAP2 POP PUSH2 0x326 DUP3 PUSH2 0x4F9 JUMP JUMPDEST PUSH1 0x20 DUP3 ADD SWAP1 POP SWAP2 SWAP1 POP JUMP JUMPDEST PUSH1 0x0 PUSH2 0x33D DUP3 DUP5 PUSH2 0x2DD JUMP JUMPDEST SWAP2 POP DUP2 SWAP1 POP SWAP3 SWAP2 POP POP JUMP JUMPDEST PUSH1 0x0 PUSH1 0x20 DUP3 ADD SWAP1 POP PUSH2 0x35D PUSH1 0x0 DUP4 ADD DUP5 PUSH2 0x2CE JUMP JUMPDEST SWAP3 SWAP2 POP POP JUMP JUMPDEST PUSH1 0x0 PUSH1 0x20 DUP3 ADD SWAP1 POP DUP2 DUP2 SUB PUSH1 0x0 DUP4 ADD MSTORE PUSH2 0x37C DUP2 PUSH2 0x30E JUMP JUMPDEST SWAP1 POP SWAP2 SWAP1 POP JUMP JUMPDEST PUSH1 0x0 PUSH2 0x38D PUSH2 0x39E JUMP JUMPDEST SWAP1 POP PUSH2 0x399 DUP3 DUP3 PUSH2 0x474 JUMP JUMPDEST SWAP2 SWAP1 POP JUMP JUMPDEST PUSH1 0x0 PUSH1 0x40 MLOAD SWAP1 POP SWAP1 JUMP JUMPDEST PUSH1 0x0 PUSH8 0xFFFFFFFFFFFFFFFF DUP3 GT ISZERO PUSH2 0x3C3 JUMPI PUSH2 0x3C2 PUSH2 0x4A5 JUMP JUMPDEST JUMPDEST PUSH2 0x3CC DUP3 PUSH2 0x4E8 JUMP JUMPDEST SWAP1 POP PUSH1 0x20 DUP2 ADD SWAP1 POP SWAP2 SWAP1 POP JUMP JUMPDEST PUSH1 0x0 DUP2 MLOAD SWAP1 POP SWAP2 SWAP1 POP JUMP JUMPDEST PUSH1 0x0 DUP2 SWAP1 POP SWAP3 SWAP2 POP POP JUMP JUMPDEST PUSH1 0x0 DUP3 DUP3 MSTORE PUSH1 0x20 DUP3 ADD SWAP1 POP SWAP3 SWAP2 POP POP JUMP JUMPDEST PUSH1 0x0 PUSH2 0x40B DUP3 PUSH2 0x412 JUMP JUMPDEST SWAP1 POP SWAP2 SWAP1 POP JUMP JUMPDEST PUSH1 0x0 PUSH20 0xFFFFFFFFFFFFFFFFFFFFFFFFFFFFFFFFFFFFFFFF DUP3 AND SWAP1 POP SWAP2 SWAP1 POP JUMP JUMPDEST DUP3 DUP2 DUP4 CALLDATACOPY PUSH1 0x0 DUP4 DUP4 ADD MSTORE POP POP POP JUMP JUMPDEST PUSH1 0x0 JUMPDEST DUP4 DUP2 LT ISZERO PUSH2 0x45F JUMPI DUP1 DUP3 ADD MLOAD DUP2 DUP5 ADD MSTORE PUSH1 0x20 DUP2 ADD SWAP1 POP PUSH2 0x444 JUMP JUMPDEST DUP4 DUP2 GT ISZERO PUSH2 0x46E JUMPI PUSH1 0x0 DUP5 DUP5 ADD MSTORE JUMPDEST POP POP POP POP JUMP JUMPDEST PUSH2 0x47D DUP3 PUSH2 0x4E8 JUMP JUMPDEST DUP2 ADD DUP2 DUP2 LT PUSH8 0xFFFFFFFFFFFFFFFF DUP3 GT OR ISZERO PUSH2 0x49C JUMPI PUSH2 0x49B PUSH2 0x4A5 JUMP JUMPDEST JUMPDEST DUP1 PUSH1 0x40 MSTORE POP POP POP JUMP JUMPDEST PUSH32 0x4E487B7100000000000000000000000000000000000000000000000000000000 PUSH1 0x0 MSTORE PUSH1 0x41 PUSH1 0x4 MSTORE PUSH1 0x24 PUSH1 0x0 REVERT JUMPDEST PUSH1 0x0 DUP1 REVERT JUMPDEST PUSH1 0x0 DUP1 REVERT JUMPDEST PUSH1 0x0 DUP1 REVERT JUMPDEST PUSH1 0x0 DUP1 REVERT JUMPDEST PUSH1 0x0 PUSH1 0x1F NOT PUSH1 0x1F DUP4 ADD AND SWAP1 POP SWAP2 SWAP1 POP JUMP JUMPDEST PUSH32 0x6465706C6F79206661696C656400000000000000000000000000000000000000 PUSH1 0x0 DUP3 ADD MSTORE POP JUMP JUMPDEST PUSH2 0x52B DUP2 PUSH2 0x400 JUMP JUMPDEST DUP2 EQ PUSH2 0x536 JUMPI PUSH1 0x0 DUP1 REVERT JUMPDEST POP JUMP INVALID LOG2 PUSH5 0x6970667358 0x22 SLT KECCAK256 DUP5 COINBASE 0xDA EQ PUSH8 0x527031BD6E5CC19 0xE5 0xBA DUP5 0xF9 NOT SWAP6 SWAP4 PUSH6 0x9D023EA087CE MOD EXP 0xCC 0xCE 0xE3 PUSH5 0x736F6C6343 STOP ADDMOD SMOD STOP CALLER "
				},
				"gasEstimates": {
					"creation": {
						"codeDepositCost": "278200",
						"executionCost": "318",
						"totalCost": "278518"
					},
					"external": {
						"deploy(bytes)": "infinite",
						"execute(address,bytes)": "infinite"
					}
				},
				"methodIdentifiers": {
					"deploy(bytes)": "00774360",
					"execute(address,bytes)": "1cff79cd"
				}
			},
			"storageLayout": {
				"storage": [],
				"types": null
			},
			"userdoc": {
				"kind": "user",
				"methods": {},
				"version": 1
			}
		}
	}
}