{
	"StudyPackage/Solidity/4.Solidity进阶/ch4-发送ETH/index.sol": {
		"ReceiveETH": {
			"abi": [
				{
					"inputs": [],
					"stateMutability": "payable",
					"type": "constructor"
				},
				{
					"anonymous": false,
					"inputs": [
						{
							"indexed": false,
							"internalType": "uint256",
							"name": "amount",
							"type": "uint256"
						},
						{
							"indexed": false,
							"internalType": "uint256",
							"name": "gas",
							"type": "uint256"
						}
					],
					"name": "Log",
					"type": "event"
				},
				{
					"inputs": [],
					"name": "getBalance",
					"outputs": [
						{
							"internalType": "uint256",
							"name": "",
							"type": "uint256"
						}
					],
					"stateMutability": "view",
					"type": "function"
				},
				{
					"stateMutability": "payable",
					"type": "receive"
				}
			],
			"devdoc": {
				"kind": "dev",
				"methods": {},
				"version": 1
			},
			"evm": {
				"assembly": "    /* \"StudyPackage/Solidity/4.Solidity\\xe8\\xbf\\x9b\\xe9\\x98\\xb6/ch4-\\xe5\\x8f\\x91\\xe9\\x80\\x81ETH/index.sol\":76:462  contract ReceiveETH {... */\n  mstore(0x40, 0x80)\n    /* \"StudyPackage/Solidity/4.Solidity\\xe8\\xbf\\x9b\\xe9\\x98\\xb6/ch4-\\xe5\\x8f\\x91\\xe9\\x80\\x81ETH/index.sol\":198:223  Log(msg.value, gasleft()) */\n  0xbd0faddf87043dd749c1b9d4dca8a12589b8cb5e2106832111ce23f219b14367\n    /* \"StudyPackage/Solidity/4.Solidity\\xe8\\xbf\\x9b\\xe9\\x98\\xb6/ch4-\\xe5\\x8f\\x91\\xe9\\x80\\x81ETH/index.sol\":202:211  msg.value */\n  callvalue\n    /* \"StudyPackage/Solidity/4.Solidity\\xe8\\xbf\\x9b\\xe9\\x98\\xb6/ch4-\\xe5\\x8f\\x91\\xe9\\x80\\x81ETH/index.sol\":213:222  gasleft() */\n  gas\n    /* \"StudyPackage/Solidity/4.Solidity\\xe8\\xbf\\x9b\\xe9\\x98\\xb6/ch4-\\xe5\\x8f\\x91\\xe9\\x80\\x81ETH/index.sol\":198:223  Log(msg.value, gasleft()) */\n  mload(0x40)\n  tag_3\n  swap3\n  swap2\n  swap1\n  tag_4\n  jump\t// in\ntag_3:\n  mload(0x40)\n  dup1\n  swap2\n  sub\n  swap1\n  log1\n    /* \"StudyPackage/Solidity/4.Solidity\\xe8\\xbf\\x9b\\xe9\\x98\\xb6/ch4-\\xe5\\x8f\\x91\\xe9\\x80\\x81ETH/index.sol\":76:462  contract ReceiveETH {... */\n  jump(tag_5)\n    /* \"#utility.yul\":7:125   */\ntag_7:\n    /* \"#utility.yul\":94:118   */\n  tag_9\n    /* \"#utility.yul\":112:117   */\n  dup2\n    /* \"#utility.yul\":94:118   */\n  tag_10\n  jump\t// in\ntag_9:\n    /* \"#utility.yul\":89:92   */\n  dup3\n    /* \"#utility.yul\":82:119   */\n  mstore\n    /* \"#utility.yul\":7:125   */\n  pop\n  pop\n  jump\t// out\n    /* \"#utility.yul\":131:463   */\ntag_4:\n    /* \"#utility.yul\":252:256   */\n  0x00\n    /* \"#utility.yul\":290:292   */\n  0x40\n    /* \"#utility.yul\":279:288   */\n  dup3\n    /* \"#utility.yul\":275:293   */\n  add\n    /* \"#utility.yul\":267:293   */\n  swap1\n  pop\n    /* \"#utility.yul\":303:374   */\n  tag_12\n    /* \"#utility.yul\":371:372   */\n  0x00\n    /* \"#utility.yul\":360:369   */\n  dup4\n    /* \"#utility.yul\":356:373   */\n  add\n    /* \"#utility.yul\":347:353   */\n  dup6\n    /* \"#utility.yul\":303:374   */\n  tag_7\n  jump\t// in\ntag_12:\n    /* \"#utility.yul\":384:456   */\n  tag_13\n    /* \"#utility.yul\":452:454   */\n  0x20\n    /* \"#utility.yul\":441:450   */\n  dup4\n    /* \"#utility.yul\":437:455   */\n  add\n    /* \"#utility.yul\":428:434   */\n  dup5\n    /* \"#utility.yul\":384:456   */\n  tag_7\n  jump\t// in\ntag_13:\n    /* \"#utility.yul\":131:463   */\n  swap4\n  swap3\n  pop\n  pop\n  pop\n  jump\t// out\n    /* \"#utility.yul\":469:546   */\ntag_10:\n    /* \"#utility.yul\":506:513   */\n  0x00\n    /* \"#utility.yul\":535:540   */\n  dup2\n    /* \"#utility.yul\":524:540   */\n  swap1\n  pop\n    /* \"#utility.yul\":469:546   */\n  swap2\n  swap1\n  pop\n  jump\t// out\n    /* \"StudyPackage/Solidity/4.Solidity\\xe8\\xbf\\x9b\\xe9\\x98\\xb6/ch4-\\xe5\\x8f\\x91\\xe9\\x80\\x81ETH/index.sol\":76:462  contract ReceiveETH {... */\ntag_5:\n  dataSize(sub_0)\n  dup1\n  dataOffset(sub_0)\n  0x00\n  codecopy\n  0x00\n  return\nstop\n\nsub_0: assembly {\n        /* \"StudyPackage/Solidity/4.Solidity\\xe8\\xbf\\x9b\\xe9\\x98\\xb6/ch4-\\xe5\\x8f\\x91\\xe9\\x80\\x81ETH/index.sol\":76:462  contract ReceiveETH {... */\n      mstore(0x40, 0x80)\n      jumpi(tag_1, lt(calldatasize, 0x04))\n      shr(0xe0, calldataload(0x00))\n      dup1\n      0x12065fe0\n      eq\n      tag_3\n      jumpi\n      jump(tag_2)\n    tag_1:\n      jumpi(tag_2, calldatasize)\n        /* \"StudyPackage/Solidity/4.Solidity\\xe8\\xbf\\x9b\\xe9\\x98\\xb6/ch4-\\xe5\\x8f\\x91\\xe9\\x80\\x81ETH/index.sol\":299:324  Log(msg.value, gasleft()) */\n      0xbd0faddf87043dd749c1b9d4dca8a12589b8cb5e2106832111ce23f219b14367\n        /* \"StudyPackage/Solidity/4.Solidity\\xe8\\xbf\\x9b\\xe9\\x98\\xb6/ch4-\\xe5\\x8f\\x91\\xe9\\x80\\x81ETH/index.sol\":303:312  msg.value */\n      callvalue\n        /* \"StudyPackage/Solidity/4.Solidity\\xe8\\xbf\\x9b\\xe9\\x98\\xb6/ch4-\\xe5\\x8f\\x91\\xe9\\x80\\x81ETH/index.sol\":314:323  gasleft() */\n      gas\n        /* \"StudyPackage/Solidity/4.Solidity\\xe8\\xbf\\x9b\\xe9\\x98\\xb6/ch4-\\xe5\\x8f\\x91\\xe9\\x80\\x81ETH/index.sol\":299:324  Log(msg.value, gasleft()) */\n      mload(0x40)\n      tag_6\n      swap3\n      swap2\n      swap1\n      tag_7\n      jump\t// in\n    tag_6:\n      mload(0x40)\n      dup1\n      swap2\n      sub\n      swap1\n      log1\n        /* \"StudyPackage/Solidity/4.Solidity\\xe8\\xbf\\x9b\\xe9\\x98\\xb6/ch4-\\xe5\\x8f\\x91\\xe9\\x80\\x81ETH/index.sol\":76:462  contract ReceiveETH {... */\n      stop\n    tag_2:\n      0x00\n      dup1\n      revert\n        /* \"StudyPackage/Solidity/4.Solidity\\xe8\\xbf\\x9b\\xe9\\x98\\xb6/ch4-\\xe5\\x8f\\x91\\xe9\\x80\\x81ETH/index.sol\":366:460  function getBalance() public view returns (uint) {... */\n    tag_3:\n      callvalue\n      dup1\n      iszero\n      tag_8\n      jumpi\n      0x00\n      dup1\n      revert\n    tag_8:\n      pop\n      tag_9\n      tag_10\n      jump\t// in\n    tag_9:\n      mload(0x40)\n      tag_11\n      swap2\n      swap1\n      tag_12\n      jump\t// in\n    tag_11:\n      mload(0x40)\n      dup1\n      swap2\n      sub\n      swap1\n      return\n    tag_10:\n        /* \"StudyPackage/Solidity/4.Solidity\\xe8\\xbf\\x9b\\xe9\\x98\\xb6/ch4-\\xe5\\x8f\\x91\\xe9\\x80\\x81ETH/index.sol\":409:413  uint */\n      0x00\n        /* \"StudyPackage/Solidity/4.Solidity\\xe8\\xbf\\x9b\\xe9\\x98\\xb6/ch4-\\xe5\\x8f\\x91\\xe9\\x80\\x81ETH/index.sol\":432:453  address(this).balance */\n      selfbalance\n        /* \"StudyPackage/Solidity/4.Solidity\\xe8\\xbf\\x9b\\xe9\\x98\\xb6/ch4-\\xe5\\x8f\\x91\\xe9\\x80\\x81ETH/index.sol\":425:453  return address(this).balance */\n      swap1\n      pop\n        /* \"StudyPackage/Solidity/4.Solidity\\xe8\\xbf\\x9b\\xe9\\x98\\xb6/ch4-\\xe5\\x8f\\x91\\xe9\\x80\\x81ETH/index.sol\":366:460  function getBalance() public view returns (uint) {... */\n      swap1\n      jump\t// out\n        /* \"#utility.yul\":7:125   */\n    tag_15:\n        /* \"#utility.yul\":94:118   */\n      tag_17\n        /* \"#utility.yul\":112:117   */\n      dup2\n        /* \"#utility.yul\":94:118   */\n      tag_18\n      jump\t// in\n    tag_17:\n        /* \"#utility.yul\":89:92   */\n      dup3\n        /* \"#utility.yul\":82:119   */\n      mstore\n        /* \"#utility.yul\":7:125   */\n      pop\n      pop\n      jump\t// out\n        /* \"#utility.yul\":131:353   */\n    tag_12:\n        /* \"#utility.yul\":224:228   */\n      0x00\n        /* \"#utility.yul\":262:264   */\n      0x20\n        /* \"#utility.yul\":251:260   */\n      dup3\n        /* \"#utility.yul\":247:265   */\n      add\n        /* \"#utility.yul\":239:265   */\n      swap1\n      pop\n        /* \"#utility.yul\":275:346   */\n      tag_20\n        /* \"#utility.yul\":343:344   */\n      0x00\n        /* \"#utility.yul\":332:341   */\n      dup4\n        /* \"#utility.yul\":328:345   */\n      add\n        /* \"#utility.yul\":319:325   */\n      dup5\n        /* \"#utility.yul\":275:346   */\n      tag_15\n      jump\t// in\n    tag_20:\n        /* \"#utility.yul\":131:353   */\n      swap3\n      swap2\n      pop\n      pop\n      jump\t// out\n        /* \"#utility.yul\":359:691   */\n    tag_7:\n        /* \"#utility.yul\":480:484   */\n      0x00\n        /* \"#utility.yul\":518:520   */\n      0x40\n        /* \"#utility.yul\":507:516   */\n      dup3\n        /* \"#utility.yul\":503:521   */\n      add\n        /* \"#utility.yul\":495:521   */\n      swap1\n      pop\n        /* \"#utility.yul\":531:602   */\n      tag_22\n        /* \"#utility.yul\":599:600   */\n      0x00\n        /* \"#utility.yul\":588:597   */\n      dup4\n        /* \"#utility.yul\":584:601   */\n      add\n        /* \"#utility.yul\":575:581   */\n      dup6\n        /* \"#utility.yul\":531:602   */\n      tag_15\n      jump\t// in\n    tag_22:\n        /* \"#utility.yul\":612:684   */\n      tag_23\n        /* \"#utility.yul\":680:682   */\n      0x20\n        /* \"#utility.yul\":669:678   */\n      dup4\n        /* \"#utility.yul\":665:683   */\n      add\n        /* \"#utility.yul\":656:662   */\n      dup5\n        /* \"#utility.yul\":612:684   */\n      tag_15\n      jump\t// in\n    tag_23:\n        /* \"#utility.yul\":359:691   */\n      swap4\n      swap3\n      pop\n      pop\n      pop\n      jump\t// out\n        /* \"#utility.yul\":697:774   */\n    tag_18:\n        /* \"#utility.yul\":734:741   */\n      0x00\n        /* \"#utility.yul\":763:768   */\n      dup2\n        /* \"#utility.yul\":752:768   */\n      swap1\n      pop\n        /* \"#utility.yul\":697:774   */\n      swap2\n      swap1\n      pop\n      jump\t// out\n\n    auxdata: 0xa264697066735822122024d5fc6f825f229576eb3160c8d0be19b46236cab0991c2c2ef15e8c4b1078f164736f6c63430008070033\n}\n",
				"bytecode": {
					"linkReferences": {},
					"object": "60806040527fbd0faddf87043dd749c1b9d4dca8a12589b8cb5e2106832111ce23f219b14367345a604051610035929190610051565b60405180910390a1610084565b61004b8161007a565b82525050565b60006040820190506100666000830185610042565b6100736020830184610042565b9392505050565b6000819050919050565b61011a806100936000396000f3fe608060405260043610601f5760003560e01c806312065fe014606157605c565b36605c577fbd0faddf87043dd749c1b9d4dca8a12589b8cb5e2106832111ce23f219b14367345a604051605292919060b5565b60405180910390a1005b600080fd5b348015606c57600080fd5b5060736087565b604051607e9190609c565b60405180910390f35b600047905090565b60968160da565b82525050565b600060208201905060af6000830184608f565b92915050565b600060408201905060c86000830185608f565b60d36020830184608f565b9392505050565b600081905091905056fea264697066735822122024d5fc6f825f229576eb3160c8d0be19b46236cab0991c2c2ef15e8c4b1078f164736f6c63430008070033",
					"opcodes": "PUSH1 0x80 PUSH1 0x40 MSTORE PUSH32 0xBD0FADDF87043DD749C1B9D4DCA8A12589B8CB5E2106832111CE23F219B14367 CALLVALUE GAS PUSH1 0x40 MLOAD PUSH2 0x35 SWAP3 SWAP2 SWAP1 PUSH2 0x51 JUMP JUMPDEST PUSH1 0x40 MLOAD DUP1 SWAP2 SUB SWAP1 LOG1 PUSH2 0x84 JUMP JUMPDEST PUSH2 0x4B DUP2 PUSH2 0x7A JUMP JUMPDEST DUP3 MSTORE POP POP JUMP JUMPDEST PUSH1 0x0 PUSH1 0x40 DUP3 ADD SWAP1 POP PUSH2 0x66 PUSH1 0x0 DUP4 ADD DUP6 PUSH2 0x42 JUMP JUMPDEST PUSH2 0x73 PUSH1 0x20 DUP4 ADD DUP5 PUSH2 0x42 JUMP JUMPDEST SWAP4 SWAP3 POP POP POP JUMP JUMPDEST PUSH1 0x0 DUP2 SWAP1 POP SWAP2 SWAP1 POP JUMP JUMPDEST PUSH2 0x11A DUP1 PUSH2 0x93 PUSH1 0x0 CODECOPY PUSH1 0x0 RETURN INVALID PUSH1 0x80 PUSH1 0x40 MSTORE PUSH1 0x4 CALLDATASIZE LT PUSH1 0x1F JUMPI PUSH1 0x0 CALLDATALOAD PUSH1 0xE0 SHR DUP1 PUSH4 0x12065FE0 EQ PUSH1 0x61 JUMPI PUSH1 0x5C JUMP JUMPDEST CALLDATASIZE PUSH1 0x5C JUMPI PUSH32 0xBD0FADDF87043DD749C1B9D4DCA8A12589B8CB5E2106832111CE23F219B14367 CALLVALUE GAS PUSH1 0x40 MLOAD PUSH1 0x52 SWAP3 SWAP2 SWAP1 PUSH1 0xB5 JUMP JUMPDEST PUSH1 0x40 MLOAD DUP1 SWAP2 SUB SWAP1 LOG1 STOP JUMPDEST PUSH1 0x0 DUP1 REVERT JUMPDEST CALLVALUE DUP1 ISZERO PUSH1 0x6C JUMPI PUSH1 0x0 DUP1 REVERT JUMPDEST POP PUSH1 0x73 PUSH1 0x87 JUMP JUMPDEST PUSH1 0x40 MLOAD PUSH1 0x7E SWAP2 SWAP1 PUSH1 0x9C JUMP JUMPDEST PUSH1 0x40 MLOAD DUP1 SWAP2 SUB SWAP1 RETURN JUMPDEST PUSH1 0x0 SELFBALANCE SWAP1 POP SWAP1 JUMP JUMPDEST PUSH1 0x96 DUP2 PUSH1 0xDA JUMP JUMPDEST DUP3 MSTORE POP POP JUMP JUMPDEST PUSH1 0x0 PUSH1 0x20 DUP3 ADD SWAP1 POP PUSH1 0xAF PUSH1 0x0 DUP4 ADD DUP5 PUSH1 0x8F JUMP JUMPDEST SWAP3 SWAP2 POP POP JUMP JUMPDEST PUSH1 0x0 PUSH1 0x40 DUP3 ADD SWAP1 POP PUSH1 0xC8 PUSH1 0x0 DUP4 ADD DUP6 PUSH1 0x8F JUMP JUMPDEST PUSH1 0xD3 PUSH1 0x20 DUP4 ADD DUP5 PUSH1 0x8F JUMP JUMPDEST SWAP4 SWAP3 POP POP POP JUMP JUMPDEST PUSH1 0x0 DUP2 SWAP1 POP SWAP2 SWAP1 POP JUMP INVALID LOG2 PUSH5 0x6970667358 0x22 SLT KECCAK256 0x24 0xD5 0xFC PUSH16 0x825F229576EB3160C8D0BE19B46236CA 0xB0 SWAP10 SHR 0x2C 0x2E CALL 0x5E DUP13 0x4B LT PUSH25 0xF164736F6C6343000807003300000000000000000000000000 "
				},
				"gasEstimates": {
					"creation": {
						"codeDepositCost": "56400",
						"executionCost": "infinite",
						"totalCost": "infinite"
					},
					"external": {
						"getBalance()": "317"
					}
				},
				"methodIdentifiers": {
					"getBalance()": "12065fe0"
				}
			},
			"storageLayout": {
				"storage": [],
				"types": null
			},
			"userdoc": {
				"kind": "user",
				"methods": {},
				"version": 1
			}
		}
	}
}